:020000040000FA
:10000000020DA1022003FFFFFFFFFF02200BFFFFF5
:10001000FFFFFF0204D8FFFFFFFFFF02201BFFFFCF
:10002000FFFFFF022023FFFFFFFFFF02202BFFFF48
:10003000FFFFFF022033FFFFFFFFFF020533FFFF3B
:10004000FFFFFF022043FFFFFFFFFF02204BFFFFE8
:10005000FFFFFF022053FFFFFFFFFF02205BFFFFB8
:10006000FFFFFF022063FFFFFFFFFF02206BFFFF88
:10007000FFFFFF022073FFFFFFFFFF02207BFFFF58
:10008000FFFFFF022083FFFFFFFFFF02208B002006
:10009000000090200000932000000100000000C834
:1000A0000300380000000000260000000000FFFFF1
:1000B000FFFF0000040074F7120AFE780079008048
:1000C0001BE508120529E08A828B83F09004121246
:1000D00002044005E4900412F01201FB900412E0C7
:1000E000F508900413E065086007C3E89CE99D40AB
:1000F000D0E8FAE9FB7F02020C5574F8120AFE9070
:100100000497E0FE8E82A882900496E0FEE8C39EEB
:10011000E0500E1202C17001E9700B780079008086
:10012000141202D250F57A007B008038E004F043CC
:100130009A041201FBC3E89CE99D50248A828B83B8
:10014000E0C0E0900497E012058AD0E01202EDE4EE
:10015000900498F0900497E0C3947F40CFE480CE61
:10016000E8FAE9FB7F01020C5574F7120AFE7800E9
:10017000790090051BE0705590051CE0704F75C12B
:1001800000C28BC284A28340FCA28B4004A2835095
:10019000F8E5C1C28BA2835004D2848030C0E0E075
:1001A0001201F1D0E0F090051C1202E640DBE4F011
:1001B00080D7E5081201F1E08A828B83F090051B5D
:1001C0001202044005E490051BF01201FB90051B90
:1001D000E0F50890051CE065086007C3E89CE99D10
:1001E00040D0E87001E97006E4F090051BF00200D1
:1001F000F1249BF582E43404F58322E8240108E924
:100200003400F922E0041202F1C394802274F8123F
:100210000AFE90059EE0FE8E82A88290059DE0FE7B
:10022000E8C39EE0500A1202C17001E9700D80051A
:100230001202D24006EC7001ED70067A007B00805D
:100240007D8A828B83E0F5C1A3AA82AB8378017992
:10025000008006E004F01201FBC3E89CE99D501EFB
:100260008A828B83E0C0E090059E1202FCD0E012EF
:1002700002ED90059EE0C3947F40D8E480D7C28B06
:10028000A28340FCC284A28B4004A28350F8900554
:100290009D1202FCE0F5C1C28B90059DE0FA90052D
:1002A0009EE06A90059D70051202FC80051202E630
:1002B0004002E4F0A28350CED284E8FAE9FB0201C6
:1002C00064C398F8E49400F974FF281874FF39F9AE
:1002D000E822C398F8E49400F9747F28F8E439F927
:1002E000C3E89CE99D22E004F0C39480221202F14D
:1002F00022F08A828B83A3AA82AB8322E0241DF59D
:1003000082E43405F5832274FF120D111203E21208
:100310000692E970030203BF7E00900390E064013F
:10032000700DC2847401900391F09005B38005D2E2
:10033000AF9005B77808120D927C017D0085188278
:10034000851983AA82AB83120494EA7001EB6012D0
:10035000E064F8602CE0640770089005BB78081230
:100360000D9285080C85090D850A0E850B0F9005E9
:10037000BF7808120D4F9005BB780C120D2770B98D
:100380000E900390E064017009D284E4900391F030
:100390008002C2AFEE6028900390E0640175860091
:1003A000C2AA7007539AFBD2E98007C28B539AFB0B
:1003B000C2E9022000C2AF75C9AB75C95B80FE12ED
:1003C0000459C2AF75C9AB75C95B80FE7A1075B6AA
:1003D0000FE5B4A2E750FAE5BBC39940F11AEA7001
:1003E000ED22C082C08353BEFBE59DA2E650FA0019
:1003F00078F8790100E824FF18E934FFF9E8700182
:10040000E970F175C6807480659E70FA43BE04740D
:1004100008906270F0794A1203CC74F5900001F0F4
:100420007403F5D575D4887401900390F0D2845389
:10043000F3F753F3EF53FDF743FD10538FF753F7E3
:10044000DF43C52053F1FE75862043F3F0E5F34307
:100450008640D2AAD083D0822274F5120AFE794E49
:100460001203CC900390E07002D2AF120594E960C1
:10047000FAE0701B9005C37808120D92009005BF3A
:100480007808120D4F9005BB7808120D2770ED7F8C
:1004900004020C55C082C083900390E070051200E6
:1004A000B6801E900391E06015A28B500DE5C18AC5
:1004B000828B83F07A017B0080077A0080F812013A
:1004C000698091C082C083900390E070051200FAA9
:1004D000800312020D020454C0E074F2120B5E900D
:1004E0000001E064CD70051220138038E064F570DF
:1004F00032E5C1C0E0900413E0120529D0E0F0908D
:100500000412E0FA900413E06A7006E59590041571
:10051000F09004131202E64002E4F074C690041452
:10052000F08001007F01020BBD2492F582E43403C8
:10053000F58322C0E074F1120B5E900001E064CDFF
:10054000700512203B803EE064F57038900496E020
:10055000FA900497E06A700B539AFB740190049828
:10056000F08022C2E9900496E0F50874012508F0B5
:10057000E50812058AE0F5C1900496E0C394804036
:1005800004E480DC007F02020BBD2416F582E43413
:1005900004F5832274F7120AFE74FF120D117E0017
:1005A0008033900384E0FA851882851983E06A70AD
:1005B0000D900382E0644D70051207EBE9FEE490B4
:1005C0000385F0900387F0851882851983E0FA90FF
:1005D0000384E06AF07C017D00851882851983AA76
:1005E00082AB83120494EA7001EB7003020686E08A
:1005F000C0E0900387E0F8900385E028F8E4340039
:10060000120980D0E0F0900387E0120C8D0005C73E
:10061000051D062C064A065A067006A20585188294
:10062000851983E064FE709F74018097E4900384D1
:10063000F0851882851983E0900386F0C39480408A
:1006400004E40205C374020205C385188285198378
:10065000E0900382F074030205C385188285198334
:10066000E0900383F0900386E0601674040205C3F3
:10067000900385E004F0FA900386E06A60030205C7
:10068000C774050205C3EEF97401120CDE7F020285
:100690000C5574ED120AFE74FB120D1175080475E9
:1006A00009007808120D627402120DBD12098C1235
:1006B0000CDE851882E064FF7004A3E064FF600D27
:1006C000851882851983E07002A3E070030207DFBA
:1006D00012099C120DBDE0687003A3E0697003026B
:1006E00007AE75080090059F7810120D92800A9051
:1006F00005A37810120D27604D750A01750B00785F
:100700000A120D627406120DBDAC82AD8385100A0B
:1007100085110B74FF550AFA7407550BFB8A0C857B
:10072000110D85120E85130F740B780C120CF8A99D
:100730000C120996120CDEE0F9AA08AB091209AAFC
:100740008A088B0980089005A77810120D929005F1
:10075000AB7810120D4F9005AF780C120D92780CFB
:100760007910120D73408879001209AA79001209D4
:10077000AA7402120DBDEAF0A3EBF0750801750929
:10078000007808120D627402120DBDAC82AD837A3E
:10079000247B08120A757402120CDE7508047808AE
:1007A000120D627402120DBD12098C120CDE1209B8
:1007B0009C120DBDE0687003A3E069702285188269
:1007C000851983E064FF7004A3E064FF601185185D
:1007D00082851983E07002A3E060047901800279C8
:1007E000007405120CDE7F0C020C5574F3120AFE25
:1007F00074FC120D11900306E0FA900307E0F9EA89
:10080000F8E428FE740839FF750A017509007508B7
:10081000008E0C8F0D7409780C120D83A90C74FFD7
:100820005EF50C74015FF50D900383E0120C8D01F1
:1008300002240939086108A308EA7002E50D700373
:10084000120AE7750C10750D00780C120D627C0809
:100850007D03EEFAEFFB120A757402120CDE020938
:1008600024E9C394794006750901020924750A40F8
:10087000750B00780A120D627C097D037402780CF6
:10088000120D3CAA0CAB0D120996120CDE90030758
:10089000E0900308F0900306E0900307F0750A4328
:1008A000020924750C04750D00780C120D62740297
:1008B000120DBD12098C120CDE7402120DBDE0F88F
:1008C000A3E0F9851882851983E0687003A3E069C5
:1008D000603B12099C120DBDE8F0A3E9F0750C0114
:1008E000780C120D627402120DBDAC82AD837A24B5
:1008F0007B08120A757402120CDE750C04780C1257
:100900000D627402120DBD12098C120CDE12099CCC
:10091000120DBDE0687003A3E069700575080180E1
:1009200003750907900305E0D2E7F0E50990030697
:10093000F0E50A900303F0744D650AF50974042587
:100940000AFB7A038004E062090AEAF83395E012B0
:1009500009808B0AC3E8950AE99400A2D265D033D6
:1009600040E4E509F074012AFC3395E0FD7A027B4E
:10097000031204C3A9087404120CDE7F06020C558E
:10098000F9E82402F582E93403F58322AC82AD83D1
:100990007A907B0079041209EC7402228518828512
:1009A0001983E0F8A3E0F9740222EEC0E07E087437
:1009B000805BFDE47001ED6004D2F08002C2F0A221
:1009C000F0E492E0FCEAC333FAEB33FBE9A2E75030
:1009D0000474014AFAEC600874216AFA74106BFB23
:1009E000E9C333F91EEE70C7D0E0FE2274F5120A97
:1009F000FE8908740B120DBDE0FEA3E0FF740F55D5
:100A000008F50A750B00740B780A120D3C2AF8746D
:100A1000803BF9E428E50B39F9E5C7F509A2AFE415
:100A200092E0F50AC2AFE508C4540FC0E074F8556F
:100A3000C7FAD0E04AF5C7801C88828983E08C829F
:100A40008D83F088828983A3A882A9838C828D8379
:100A5000A3AC82AD83EEFAEFFB74FF2A1E74FF3B5A
:100A6000FFEA7001EB70D28509C7E50AA2E092AFF8
:100A70007F04020C5574F7120AFE7409120DBDE0D2
:100A8000F508A3E0F509ED900388F0EC900389F0F8
:100A9000746290038AF0747390038BF090038CE07F
:100AA000541FF0E508333354FC90038DF07406783E
:100AB00008120D83E50890038CF0741290038EF0F9
:100AC000744290038FF075D1FE75D601EA90627181
:100AD000F0EB906272F0906270E0D2E1F0E0A2E799
:100AE00040FB7F02020C55C082C083E9C333906291
:100AF00072F0906270E0D2E0F0D083D082222518AC
:100B0000C582C0E0E51934FFC583C0E0E518C39590
:100B10008224F9F8E4C5A8858319858218C5A8E858
:100B2000CEF0A3E520F0A37808E608F0A3DEFAEF04
:100B3000F0A3E58124FBF8E608F0A3E608F0A3089B
:100B400008E608F0A3E608F0A315811581D0E0FEC1
:100B5000D0E0F815811581E8C0E0EEC0E022C0D0F9
:100B60002518C582C0E0E51934FFC583C0E0E5184B
:100B7000C3958224F310AF088583198582188008F5
:100B8000858319858218D2AFC8F0A3E9F0A3EAF0F3
:100B9000A3EBF0A37908E709F0A3D8FAECF0A3EDF2
:100BA000F0A3EEF0A3EFF0A3D0E0F0A3D0E0F0A329
:100BB000D0E0F0A3E520F0A3E5F0F0A322851983AF
:100BC000851882E0C0E0A3E0F9A3E0FAA3E0FBA36C
:100BD0007808E0F608A3DFFAE0FCA3E0FDA3E0FE5E
:100BE000A3E0FFA3E0C0E0A3E0C0E0A3E0F5D0A352
:100BF000E0F520A3E0A3F5F0E4C5A885831985827C
:100C000018C5A8D082D083D0E0F8D0E032120DCC45
:100C1000B90003020C4FE4900302789E790380022E
:100C2000F0A3D8FCD9FA90059FAA82AB8390008EDE
:100C3000782979018015E493A3AC82AD838A828BF5
:100C400083F0A3AA82AB838C828D83D8E9D9E71283
:100C50000307120DC7851983851882E0A3FEE0A360
:100C6000F5207808E0A3F608DFFAE0A3FFE0A3C0D0
:100C7000E0E0A3C0E0E0A3C0E0E0A3C0E0E4C5A8DA
:100C8000858218858319C5A8D083D08222D083D0CD
:100C900082C5F0E493A3C5F0C395F0F5F0E493A307
:100CA000C395F04005E5F0048001E475F002A42549
:100CB00082F582E5F03583F583E493A3C0E0E49305
:100CC000C0E0222518F58210AF08F518400215196A
:100CD0008008F51840021519D2AF85198322C0D0BB
:100CE000251810AF08F518500205198008F518509E
:100CF000020519D2AFD0D0226016080808C6C31367
:100D0000C618C613C618C613C618C613C6D5E0EA59
:100D100022251810AF08F518400215198008F5189B
:100D200040021519D2AF22E066701008A3E0667089
:100D30000A08A3E066700408A3E06622700422603B
:100D40000D18C6C333C608C633C6D5E0F41822E072
:100D500026F608A3E036F608A3E036F608A3E03648
:100D6000F62274028000C0E0F404120CC3D0E0123A
:100D70000DB022C3E7960809E7960809E796080927
:100D8000E79622600C08C6C313C618C613C6D5E082
:100D9000F422E0F608A3E0F608A3E0F608A3E0F6E4
:100DA0002275D000758140751802751903020C0D6B
:100DB000CAC0E0E6F0A308DAFAD0E0FA222518F576
:100DC00082E43519F5832200000080FB790122FFBF
:100DD000FFFFFFFFFFFFFFFFFFFFFFFFFFFFFFFF23
:100DE000FFFFFFFFFFFFFFFFFFFFFFFFFFFFFFFF13
:100DF000FFFFFFFFFFFFFFFFFFFFFFFFFFFFFFFF03
:100E0000FFFFFFFFFFFFFFFFFFFFFFFFFFFFFFFFF2
:10200000022AA90221F3FFFFFFFFFFFFFFFFFFFFEF
:10201000FFFFFFFFFFFFFFFFFFFFFFFFFFFFFFFFD0
:10202000FFFFFFFFFFFFFFFFFFFFFF0227CCFFFFC8
:10203000FFFFFF022761FFFFFFFFFFFFFFFFFFFF23
:10204000FFFFFF0225B3FFFFFFFFFFFFFFFFFFFFC3
:10205000FFFFFF02212DFFFFFFFFFFFFFFFFFFFF3D
:10206000FFFFFFFFFFFFFFFFFFFFFFFFFFFFFFFF80
:10207000FFFFFFFFFFFFFFFFFFFFFFFFFFFFFFFF70
:10208000FFFFFF02218701FFFFFFFFFFFFFFFFFFB1
:10209000102010200101FF01010503010F10FEFFB8
:1020A0007F377F377F377F37293623367F37AE4FED
:1020B000000000004C4F000000000C0000000C006D
:1020C0000100008F3900000000E138853A2939010C
:1020D0003A000017398A06FF010100421100000092
:1020E000E803BA11E80364006400B80102020008C2
:1020F00000000502070401051E02051E020A0A036C
:10210000B80B02803E010203320001FFFF0A01E02A
:10211000020206FFFFFF000810E8030A090100059C
:102120000001E78101ED810AE01CD51E00C0E074CA
:10213000F2122472A2AFE492E0FED2AFE5A7FAE574
:10214000A1FBEA5B541060081242F575A1EF802AEA
:10215000EAA2E0C0D0EBA2E092F01229F915818248
:10216000F05017906198E0FA90171FE0C39AA2D23E
:1021700065D0335002EAF075A1FE751A00EEA2E0B8
:1021800092AF7F010224D1C0E074F2122472A2AF98
:10219000E492E0FED2AF9061A4E0FA759B00E59175
:1021A0005A540860087591F7124337802AE5915A0E
:1021B000541060087591EF12433D801BEAA2E0C005
:1021C000D0E591A2E092F01229F9158182F0500732
:1021D000E0C2E0F01244879061A3E0FAE5E95A54C6
:1021E00004600E12445D75E9FB906193E0A2E64045
:1021F000F28087C0E074F2122472A2AFE492E0FE93
:10220000D2AF9061A5E0FAE5BF5A5404600675BFED
:10221000FB12449F02217AC3E498F8E499F9122250
:10222000588026C3E49AFAE49BFBE920E7E91222EE
:1022300058E498F8E499F922C3E498F8E499F9127B
:102240002258E498F8E499F9C3E49AFAE49BFB2253
:10225000EB20E7CFE920E7E0B90010BB0008E88AEF
:10226000F084F8AAF022E4FBC8FA22EB70227B107B
:10227000C833C8C933C9335007C39AC3DBF28006D9
:102280009A50012ADBEAC833F4C8C933F4C9FA22E8
:1022900075F008E4C833C8C933C933C99AC99B501B
:1022A00004C92AC93BD5F0ECFBC833F4C8E4C9FA29
:1022B00022080808EAC0E0EBC0E086F0E7A4FA18BC
:1022C0000986F0E7A42AFA180986F0E7A42AFA1882
:1022D0000986F0E7A42AFA1986F0E7A4FBE5F02ABC
:1022E000FA190886F0E7A42BFBE5F03AFA190886FC
:1022F000F0E7A42BFBE5F03AFA18180986F0E7A4FA
:10230000C5F02BFBE43AFA1908E7C5F0C6A426F697
:10231000E5F03BFBE43AFA1886F0E7A4F6E5F008AE
:1023200026F6E43B08F6E43A08F6D0E0FBD0E0FA03
:1023300022E4CFC0E0E4CEC0E0E4CDC0E0E4CCC015
:10234000E075F020C3E633F608E633F608E633F628
:1023500008E633F6181818EC33FCED33FDEE33FEC7
:10236000EF33FFC3EC9709ED9709EE9709EF971943
:102370001919400FFFEC97FC09ED97FD09EE97FE48
:10238000191906D5F0BEECF709EDF709EEF709EFDC
:10239000F7191919D0E0FCD0E0FDD0E0FED0E0FF45
:1023A00022122B0DB900030223F6E49004D1787EAB
:1023B000791A8002F0A3D8FCD9FA781A9020867A8C
:1023C00001BA00028007E493A3F608DAF9901E4EE2
:1023D000AA82AB83902094789A79018015E493A324
:1023E000AC82AD838A828B83F0A3AA82AB838C827A
:1023F0008D83D8E9D9E77582967583A8740612286B
:10240000297582DF75834974001228292518C58231
:10241000C0E0E51934FFC583C0E0E518C395822408
:10242000F8F8E4C5A8858319858218C5A8E8CEF018
:10243000A3E520F0A37808E608F0A3DEFAEFF0A306
:10244000E58124FAF8E608F0A3E608F0A3E608F030
:10245000A30808E608F0A3E608F0A315811581D0CB
:10246000E0FED0E0F8158115811581E8C0E0EEC0EE
:10247000E022C0D02518C582C0E0E51934FFC5832D
:10248000C0E0E518C3958224F310AF088583198551
:1024900082188008858319858218D2AFC8F0A3E915
:1024A000F0A3EAF0A3EBF0A37908E709F0A3D8FAC8
:1024B000ECF0A3EDF0A3EEF0A3EFF0A3D0E0F0A3D7
:1024C000D0E0F0A3D0E0F0A3E520F0A3E5F0F0A386
:1024D00022851983851882E0C0E0A3E0F9A3E0FA21
:1024E000A3E0FBA37808E0F608A3DFFAE0FCA3E092
:1024F000FDA3E0FEA3E0FFA3E0C0E0A3E0C0E0A3F3
:10250000E0F5D0A3E0F520A3E0A3F5F0E4C5A885AD
:102510008319858218C5A8D082D083D0E0F8D0E096
:1025200032D083D082ECC0E0EDC0E0E493A3FCE4C1
:1025300093A3FDED4C600D1225F7EC24FFFCED3468
:10254000FFFD80EFE493A3FCE493A3FDED4C600D4D
:1025500012270CEC24FFFCED34FFFD80EFD0E0FDF2
:10256000D0E0FCE493A3C0E0E493C0E022D083D0A9
:1025700082E9C0E0E493A3C386F0C5F095F0F908C2
:10258000E493A386F0C5F095F0700BE493A3C39990
:102590004005E9048002A3E475F002A42582F582D7
:1025A000E5F03583F583D0E0F9E493A3C0E0E4934C
:1025B000C0E022C0E074F2122472A2AFE492E0FE06
:1025C000D2AFC2C0901D46E0700BE5D1A2E4501D11
:1025D0001242598018E5D1A2E3500675D1F7124294
:1025E0002FE5D1A2E4500675D1EF124235EEA2E0FC
:1025F00092AF7F010224D1C0E0C3E4939608740136
:10260000939618400FE49366700808740193661857
:1026100070007019A3A3C3E49396087401939618ED
:10262000A3A3400DD0E0D0E0D0E002255DA3A3A39A
:10263000A3A3A3D0E022851983851882E0A3FEE03E
:10264000A3F5207808E0A3F608DFFAE0A3FFE0A3F3
:10265000C0E0E0A3C0E0E0A3C0E0E0A3C0E0E0A3EE
:10266000C0E0E4C5A8858218858319C5A8D083D0A9
:102670008202282FD083D082C5F0E493A3C5F0C393
:1026800095F0F5F0E493A3C395F04005E5F00480E0
:1026900001E475F002A42582F582E5F03583F58327
:1026A000E493A3C0E0E493C0E022740480087403C0
:1026B000800474028000CCC0E0EDC0E0E518C39C4B
:1026C000CCAD1950011D10AF068C188D1980068CE9
:1026D000188D19D2AF1227ABD0E0FDD0E0FC2274E8
:1026E000028000CCC0E0EDC0E0E518C39CCCAD1981
:1026F00050011D10AF068C188D1980068C188D198D
:10270000D2AF122789D0E0FDD0E0FC22C0E0C0F0BB
:1027100088F0E4936670080874019366187000A846
:10272000F0A3A3700BD0F0D0E0D0E0D0E002255DA4
:10273000A3A3D0F0D0E022D083D082CCC0E0E49339
:10274000A360061227EB1470FAE493A36006122923
:10275000301470FAD0E0FCE493A3C0E0E493C0E04E
:1027600022C0E074F2122472758B00C2E8901D46FC
:10277000E0700E7A007B10901D45E0F9123BAB80B3
:102780000312485F7F010224D1CAC0E0E493A3C5CD
:1027900082CCC582C583CDC583F0A3C582CCC5825A
:1027A000C583CDC583DAE5D0E0CA22CAC0E0E0A384
:1027B000C582CCC582C583CDC583F0A3C582CCC5F7
:1027C00082C583CDC583DAE6D0E0CA22C0E0C0D09E
:1027D000EAC0E0A2AFE492E0D2AFC2C7751A00A28D
:1027E000E092AFD0E0FAD0D0D0E032C0E0E493A3E2
:1027F000D39C5010E493A3C39C400AD0E0D0E0D017
:10280000E0022754A3A3A3D0E022700908080822FD
:102810006016181818C6C333C608C633C608C633B0
:10282000C608C633C6D5E0EA22C09FF59FE473D040
:102830009F22D083D082C09FE493C0E0740193C0F4
:10284000E0740293F59F22C5822518C582C58335A1
:102850001910AF07F5198582188007F519858218B8
:10286000D2AFC583222518F58210AF08F5184002B3
:1028700015198008F51840021519D2AF8519832261
:102880007404800A74038006740280027401C0E03C
:10289000F404122865D0E0122AF322BB0102E722D9
:1028A000C082C08389828A83BB0003E08002E493F4
:1028B000D083D082226017080808C6A2E713C61882
:1028C000C613C618C613C618C613C6D5E0E922C07B
:1028D000D0251810AF08F518500205198008F51812
:1028E00050020519D2AFD0D0226016080808C6C31E
:1028F00013C618C613C618C613C618C613C6D5E025
:10290000EA22C3E0C696F608A3E0C696F608A3E05E
:10291000C696F608A3E0C696F622251810AF08F56D
:1029200018400215198008F51840021519D2AF2277
:10293000C0E0E493A36C7009D0E0D0E0D0E00227BF
:1029400054A3A3D0E022C3E09608A3E09608A3E036
:102950009608A3E096A2D265D03322C3E796080971
:10296000E7960809E7960809E796A2D265D03322D0
:10297000E066701008A3E066700A08A3E0667004C1
:1029800008A3E06622C3E697F60809E697F6080969
:10299000E697F60809E697F622C3E096F008A3E06A
:1029A00096F008A3E096F008A3E096F022E627F65A
:1029B0000809E637F60809E637F60809E637F62289
:1029C000E026F608A3E036F608A3E036F608A3E012
:1029D00036F622E026F008A3E036F008A3E036F051
:1029E00008A3E036F022E657F60809E657F608098C
:1029F000E657F60809E657F622C0E0E8C0E0E581B0
:102A000024FCF8E6A2E7D0E0F8D0E02270042260CF
:102A10000D18C6C333C608C633C6D5E0F41822E085
:102A200056F608A3E056F608A3E056F608A3E056CB
:102A3000F622E056F008A3E056F008A3E056F008AE
:102A4000A3E056F022E647F60809E647F60809E64D
:102A500047F60809E647F622E4C396F608E496F638
:102A600008E496F608E496F622C3E7960809E79686
:102A70000809E7960809E79622C6F4C608C6F4C610
:102A800008C6F4C608C6F4C622600D08C6A2E7133D
:102A9000C618C613C6D5E0F322C3E09608A3E09695
:102AA00008A3E09608A3E0962275D00075814075D2
:102AB00018D1751904000223A1600C08C6C313C6FF
:102AC00018C613C6D5E0F422E0F608A3E0F608A382
:102AD000E0F608A3E0F622E6F008A3E6F008A3E695
:102AE000F008A3E6F022C58224FDC582C58334FF29
:102AF000C58322CAC0E0E6F0A308DAFAD0E0FA22E1
:102B0000C5822518C582C5833519C5832274F85539
:102B1000C74401F5C77901222518F582E43519F576
:102B20008322C2AF75D69F0200002212283235A739
:102B300002122832C6A702122832BEA80212283278
:102B4000CFA802122832E7A802122832F8A80212EF
:102B5000283205A90212283268A90212283290A947
:102B6000021228323DAB0212283205AC0212283282
:102B700072AC02122832BAAC0212283215AD02121F
:102B800028326BAD0212283295AD0212283216AEF1
:102B90000212283271AE02122832E6AE0212283238
:102BA000E8B002122832A9B2021228325FB3021230
:102BB0002832A7B4021228322BB70212283257BA91
:102BC0000212283264BA02122832F6BA02122832ED
:102BD000B6BB02122832FEBB0212283276BC0212A9
:102BE000283295BC02122832C8BC02122832FDBC21
:102BF00002122832CDBD0212283295BE02122832AE
:102C000026C1021228329EC2021228323AC3021290
:102C10002832C6C302122832E1C30212283233C45A
:102C20000212283209C502122832D1C502122832F6
:102C3000ABC70212283233C80212283273C80212FC
:102C40002832F3C9021228322BCA02122832A6CA2D
:102C5000021228328ACB0212283239CC02122832D0
:102C600077CC021228328CCC0212283227CD0212E5
:102C7000283256CF021228321BD10212283239D103
:102C80000212283257D10212283213D202122832ED
:102C90002CD502122832008003122832338003120E
:102CA0002832528003122832748003122832868020
:102CB00003122832A5800312283211810312283210
:102CC0009E8103122832708203122832BC820312C2
:102CD0002832FB82031228321883031228326283BF
:102CE000031228329D8303122832B883031228323C
:102CF000DC8303122832FF83031228323A84031242
:102D000028327A84031228329D8403122832EC84FC
:102D100003122832C685031228327786031228321E
:102D2000078703122832F787031228323A880312E2
:102D300028325E8803122832B08803122832D588E0
:102D400003122832108A03122832848A031228328E
:102D5000A78A03122832CA8A03122832F28A03127F
:102D60002832048B031228320E8B03122832A18BD7
:102D700003122832FE8B03122832A78C031228324A
:102D8000AF8C03122832198D03122832548D03128E
:102D90002832968D03122832A68D03122832868E91
:102DA00003122832118F03122832688F031228323F
:102DB000359003122832AB9003122832E8900312A8
:102DC00028324B9103122832A19203122832C19269
:102DD00003122832239303122832C093031228329D
:102DE000199403122832A89403122832649503120E
:102DF0002832A295031228321196031228327F96A8
:102E000003122832B79603122832EB9703122832A6
:102E10003E99031228329F9903122832E89903122F
:102E20002832109A03122832939A03122832109BE8
:102E300003122832839B03122832A89B03122832E4
:102E4000B99B031228322D9C03122832C89C03120E
:102E500028320A9D03122832A09D03122832C79DF2
:102E600003122832E69E03122832079F03122832EB
:102E70001A9F03122832689F03122832D49F03122C
:102E8000283215A0031228328BA1031228322AA35C
:102E90000312283239A3031228327DA403122832E8
:102EA000FDA40312283245A6031228328FA603126E
:102EB0002832D4A603122832B8A703122832F4A964
:102EC00003122832FEA90312283208AA031228325C
:102ED00012AA031228321CAA0312283236AA03129D
:102EE000283240AA031228324AAA0312283254AACE
:102EF000031228325EAA0312283283AA0312283250
:102F0000D1AA03122832DBAA03122832FFAA031225
:102F1000283223AB0312283280AB03122832D7ABFE
:102F200003122832F5AB0312283265AC03122832A3
:102F3000A6AC03122832EDAC0312283255AD0312B1
:102F4000283220AE03122832EBAF031228323BB0F6
:102F50000312283269B1031228328FB103122832CA
:102F600016B303122832C0B60312283292B80312E5
:102F7000283265BA03122832F1BA0312283234BC5F
:102F800003122832E8BC031228322DBD0312283266
:102F900098BD03122832A2BD03122832FDBF0312CE
:102FA00028320BC10312283262C203122832B9C27E
:102FB000031228326FC30312283255C40312283279
:102FC000FBC5031228321AC60312283276C6031232
:102FD000283252C70312283277C703122832C9C7D2
:102FE00003122832B5C803122832EDC80312283262
:102FF0002DC9031228328CC903122832ABCA03121E
:1030000028320BCB03122832F3CB0312283208CE1E
:10301000031228322ACE03122832C0CF03122832DC
:1030200006D003122832DAD00312283276D10312E6
:103030002832BED1031228326DD203122832FBD2BD
:10304000031228327FD303122832EED30312283220
:10305000F081011228324C8201122832D5840112EB
:1030600028321385011228325F85011228328986A1
:1030700001122832E386011228321B8701122832FE
:103080005B8701122832CC88011228324C8B011246
:103090002832788C011228320C8D01122832CD95FD
:1030A00001122832619601122832E1980112283269
:1030B000039A01122832A89A01122832C29B0112E7
:1030C0002832F39C01122832E69D0112283205A114
:1030D0000112283207A30112283267A301122832F5
:1030E0001BA401122832C1A401122832EBA4011240
:1030F00028327FA5011228325FA6011228323AA792
:1031000001122832C9A70112283220A80112283240
:1031100035A80112283262A80112283284A80112AF
:1031200028328FAA0112283277AB01122832C8AB9D
:103130000112283239AC01122832E7AC01122832D0
:103140001CAD011228326AAD011228329AAD01126B
:103150002832D8AD011228323CAE0112283241AEDD
:10316000011228329CAE01122832C4AE011228325C
:10317000F9AF011228325AB001122832C4B001123C
:10318000283251B101122832B3B4011228328CB561
:10319000011228321CB7011228326EB901122832EE
:1031A00016BA01122832CDBA011228328BBC011294
:1031B00028322DBD0112283275BD0112283213BFED
:1031C0000112283227BF0112283241BF01122832D2
:1031D0005CBF0112283268BF0112283286BF01127B
:1031E0002832BAC101122832F1C101122832FEC1BF
:1031F0000112283207C2011228327BC20112283282
:10320000DEC201122832F3C30112283259C401125E
:1032100028324CC50112283290C50112283222C62C
:10322000011228321BC701122832DFC701122832CF
:1032300074C9011228327FCA011228321ACB011236
:1032400028329DCB01122832B4CB01122832EDCBAB
:1032500001122832F7CB0112283201CC0112283298
:103260000DCC011228322BCC011228326FCC011266
:103270002832C0CC01122832E1CC01122832FBCC1A
:103280000112283273CD01122832AFCE011228323A
:1032900003CF01122832F6CF011228321CD00112BE
:1032A00028327FD001122832E0D001122832F3D127
:1032B0000112283202D301122832A0D3011228327F
:1032C0006CD4011228320BD501122832A2D501127A
:1032D000283272D601122832A1D6011228320CD718
:1032E00001122832B4D701122832DAD7011228325B
:1032F0004CD80112283271D80112283294D8011208
:103300002832E1D801122832BDDA01122832A0DBBE
:10331000011228325EDC01122832C2DE011228328C
:1033200016DF0112283259DF01122832C8DF0112DC
:1033300028323BE00112283294E001122832BAE030
:1033400001122832F5E00112283221E1011228325F
:103350006CE101122832CFE1011228324AE2011257
:10336000283240E301122832D0E4011228323DE530
:103370000112283266E501122832E8E501122832EE
:1033800044E6011228327DE601122832D2E601120B
:103390002832F7E6011228323DE7011228325AE7B7
:1033A0000112283208E80112283242E801122832BC
:1033B000F6C30612283217F30512283200800612CF
:1033C0002832488106122832B479001228321AD4E1
:1033D0000612283264CE0612283286D90612283206
:1033E00046AE051228326A8406122832F58C06127F
:1033F0002832758D0612283255DA061228321C91B1
:1034000006122832D0C506122832D3FC0512283203
:103410000DB20612283220A1061228323AA1061255
:103420002832B3A206122832DBA206122832ABE100
:103430000612283202E406122832CAE206122832A4
:10344000DFDB06122832D9BF06122832DEE606126A
:1034500028321DE805122832E3D706122832F5DE9D
:103460000612283271E30612283206E606122832C6
:103470006DE206122832E0E00612283217E5061245
:10348000283236E6061228320FE20612283246E1CA
:103490000612283292E406122832BEE606122832BC
:1034A000C9FF0112283205E00612283274FE031209
:1034B0002832D4E506122832D5E40612283259E51E
:1034C000061228327A7F00122832A87F0012283292
:1034D00076E00612283279C7061228320FD7061274
:1034E0002832BAE30612283226E306122832DCCB51
:1034F0000612283280DF0612283215C90612283239
:10350000C7FF02122832A19C05122832E59C051241
:103510002832069D051228324A9D05122832B49D94
:1035200005122832BE9D05122832CE9D0512283282
:10353000039E051228322EA105122832E8A2051298
:103540002832D4A405122832748004122832AE80A6
:103550000412283281810412283257820412283240
:103560008683041228320F85041228328D850412B6
:103570002832538604122832748704122832E687D0
:1035800004122832488804122832AA8804122832E9
:10359000B48804122832F288041228325B8904129B
:1035A0002832FA8904122832788A041228322B8BA6
:1035B000041228329D8B04122832C38B0412283245
:1035C000F38B04122832208C04122832C68C041289
:1035D0002832D68C04122832298D04122832358DD7
:1035E00004122832418D041228324A8D04122832E6
:1035F000AD8D041228320D8E041228325E8E041214
:103600002832798E04122832A98E04122832CA8EEA
:1036100004122832D68E041228325D900412283209
:103620007B9004122832E49004122832F79004129E
:1036300028320891041228329B91041228329E925B
:103640000412283294930412283217940412283258
:103650002094041228328394041228329A9404127B
:103660002832DC9404122832219504122832509515
:1036700004122832879504122832A49504122832A5
:10368000C89504122832099604122832FC960412B6
:1036900028324297041228327D9704122832DC9790
:1036A000041228320498041228323D980412283259
:1036B0004B9804122832AC9804122832E99804126C
:1036C00028322B99041228325C99041228329099DE
:1036D000041228329B9904122832B9990412283214
:1036E000829A041228328C9A04122832CB9A04123D
:1036F0002832E19A04122832EA9A04122832549BA2
:1037000004122832689B04122832609C041228326A
:10371000739C041228328C9C04122832A19C04123F
:103720002832419D04122832A59D041228326C9E35
:1037300004122832779E04122832969F04122832EF
:10374000B29F041228320AA00412283241A00412A7
:1037500028325BA004122832CFA00412283260A1C4
:1037600004122832A8A104122832CDA30412283250
:1037700037A404122832A2A404122832E8A60412A4
:103780002832F8A604122832FBA60412283207A712
:10379000041228321BA70412283223A7041228324D
:1037A00068A70412283216A80412283286A8041228
:1037B0002832EAA80412283283A9041228321DAA4A
:1037C000041228324BAA04122832EAAA0412283220
:1037D000F6AA0412283225AB0412283228AB0412B0
:1037E000283257AB041228326CAB04122832E3ABF8
:1037F00004122832D3AC04122832ABAD04122832A2
:1038000035AE0412283256AF0412283208B0041222
:10381000283241B00412283272B0041228327BB030
:1038200004122832B7B0041228329EB10412283292
:103830001AB204122832AAB20412283274B3041243
:103840002832F8B3041228322EB40412283277B486
:1038500004122832ADB404122832E0F402122832E5
:10386000F2F40212283266F5021228329CF5021296
:103870002832F3F502122832DAF702122832B8F9A8
:10388000021228322FFD02122832D1FD02122832F4
:1038900008FE021228322CFE021228328EFE02127C
:1038A0002832C2FE02122832FFFE021228322FFFF7
:1038B0000212283267FF021228323E950612283281
:1038C0005D9506122832A89506122832F295061246
:1038D0002832959606122832CC96061228321EF10E
:1038E00003122832D3F1031228321FF203122832B6
:1038F000A6F20312283297F50312283230F703128A
:103900002832CFF70312283227F803122832B6FBE9
:103910000312283240FD0312283283CA06122832CD
:10392000AFCA06122832ABCB061228328CE205123F
:10393000283206E3051228321DE30512283297E3E8
:1039400005122832EDE305122832FCE30512283275
:10395000A7E4051228323EE50512283284E5051257
:103960002832F4E5051228320CE60512283256E614
:103970000512283285E605122832A5E605122832FE
:10398000D1E60512283201E70512283265E7051253
:10399000283216BF0512283293BF05122832B3BF52
:1039A00005122832DABF05122832EEBF051228327E
:1039B00046C00512283276C0051228321CC20512F4
:1039C0002832E1C20512283233C30512283270A012
:1039D00002122832C8C3051228322BC4051228321D
:1039E00022C60512283299C605122832F3C60512DE
:1039F000283257B9061228325EB90612283283B926
:103A000006122832DF9005122832DF920512283282
:103A10002B94051228320E9605122832679605124D
:103A200028321E97051228326F9705122832AD975B
:103A3000051228322DA502122832DC9805122832F0
:103A4000DE9805122832E09805122832EE98051209
:103A500028321A99051228321C99051228325399D6
:103A6000051228327D9905122832AF9905122832A5
:103A70002A9A05122832459B05122832129C0512FB
:103A80002832008005122832148005122832008165
:103A9000051228322C81051228326881051228323D
:103AA0008D8105122832AE8105122832E48105127B
:103AB0002832378205122832508305122832868335
:103AC00005122832CD83051228320C8405122832C3
:103AD000D98405122832FF84051228323086051257
:103AE0002832B28605122832C48705122832768819
:103AF00005122832D488051228323289051228325C
:103B0000648905122832C689051228322C8A0512CA
:103B10002832708A05122832B58B05122832E08BC4
:103B200005122832128C05122832588C05122832C0
:103B3000718C051228321B8D05122832ED8D05126D
:103B400028329E8E05122832408F05122832F68FB9
:103B500005122832A4D605122832F0D605122832D2
:103B600060D7051228327DD7051228323FD80512BA
:103B7000283248D8051228329ED805122832C9D8D2
:103B8000051228322ED905122832CAD90512283238
:103B900007DA0512283258DA05122832B2DA05128D
:103BA0002832E2DA0512283264DB05122832B1DB52
:103BB00005122832E3DB0512283218DC0512283200
:103BC00028DC0512283238DC051228327DDC05128B
:103BD0002832B6DC0512283219D306122832EEC17B
:103BE0000612283252C20612283279C20612283230
:103BF0007FC30612283296E801122832CAE9011260
:103C000028321AEA01122832DFEB011228321FECA7
:103C10000112283297EE01122832DEEE011228320C
:103C200074F00112283215F10112283275F10112D7
:103C30002832F7F1011228322BF2011228326EF2EB
:103C400001122832ECF30112283280F501122832D9
:103C5000C1F701122832EBF70112283226F80112BF
:103C6000283230F8011228328DF80112283210F96A
:103C70000112283269FC01122832D5DD06122832E1
:103C8000EBDD06122832F5DD061228323DDE061283
:103C900028323A9D06122832529D06122832FA9D89
:103CA000061228323B9E06122832589E06122832EF
:103CB0007E9E06122832C59E06122832FB9E0612F0
:103CC0002832329F06122832C4A00612283208A1D8
:103CD00006122832DDD00612283237D106122832D9
:103CE0008AD10612283299DC06122832D6DC061256
:103CF00028321BDD0612283230DD06122832A0E7FA
:103D000004122832EBE70412283274E80412283235
:103D100071E9041228321FEA04122832DCEA041284
:103D20002832F1EA041228323BEB041228328CEBE1
:103D300004122832D5EB04122832E8EB04122832A0
:103D400041EC041228329EEC04122832ADEE04122B
:103D50002832C4EF04122832FFEF0412283248F050
:103D60000412283268F20412283203F304122832B3
:103D7000A0F304122832B0F304122832C3F3041261
:103D8000283204F40412283236F40412283296F44D
:103D900004122832A6F404122832CEF40412283277
:103DA00032F504122832F4F6041228320CF7041209
:103DB000283237F7041228325EF7041228326EF7E1
:103DC0000412283291F704122832CEF70412283256
:103DD00038F804122832EFF80412283220F90412BD
:103DE00028322AF9041228322DF9041228324AF90D
:103DF00004122832BFF904122832E9F904122832D9
:103E000006FA041228326EFA04122832A9FA0412B1
:103E10002832BBFA04122832C5FA0412283202FBF7
:103E2000041228321BD6061228322CD6061228324B
:103E3000BDD606122832FCCE051228324DCF05120F
:103E4000283210D105122832DED20512283228D3AA
:103E50000512283227D40512283276D505122832C9
:103E600094D505122832E8D50512283270D60512ED
:103E70002832535300122832815300122832DF5463
:103E8000001228322A55001228327F55001228329B
:103E90000B56001228326B5600122832B756001209
:103EA0002832275700122832D057001228324D5896
:103EB00000122832895800122832645C001228321D
:103EC0002E5E00122832685E00122832D65E001282
:103ED0002832186200122832AE6200122832606462
:103EE00000122832716500122832936600122832BF
:103EF000EC6600122832AB670012283246680012C6
:103F000028325A6800122832196900122832336A9E
:103F100000122832126C00122832A66E00122832CB
:103F20002F6F001228324A70001228327373001269
:103F30002832837300122832F474001228326F750D
:103F400000122832A6760012283205770012283295
:103F50008E78001228320D790012283222B5041210
:103F60002832D6B5041228324CB60412283264B670
:103F70000412283200B70412283242B70412283241
:103F800040B8041228326CB804122832D3B8041294
:103F9000283224B90412283281B90412283283BC91
:103FA0000412283208BD041228328BBD04122832B4
:103FB00029BF04122832D6BF041228327AC0041254
:103FC0002832CFC00412283245C1041228326FC2F1
:103FD0000412283245C30412283288C3041228323E
:103FE000C5C304122832EDC30412283231C40412AE
:103FF0002832C9C4041228323BC604122832E9C749
:1040000004122832FFC8041228325BCA0412283274
:104010007ECB0412283219CC0412283289CC041227
:1040200028328CCD041228324AD502122832CCD53F
:104030000212283240D60212283294D602122832B6
:1040400021D70212283244D802122832B1D80212E3
:10405000283213D9021228324FD902122832B8D985
:10406000021228322FDA0212283299DA021228328A
:10407000FFDA0212283204DC0212283233DD021287
:104080002832D5DD02122832A2DE02122832BDDE2D
:1040900002122832EDDE021228324EDF02122832DE
:1040A00079DF0212283219E0021228322DE00212C2
:1040B00028325EE0021228327CE002122832ACE0A4
:1040C00002122832CDE002122832F5E00212283224
:1040D0000DE1021228320FE2021228322DE3021201
:1040E0002832E7E302122832A9E402122832E7E478
:1040F0000212283217E50212283276E6021228321E
:10410000A6E60212283208E7021228326EE70212EF
:104110002832B3E7021228320DE90212283254E99C
:104120000212283218EB02122832E3EB0212283274
:104130005EED021228326CEE02122832FAEF021201
:1041400028322CF0021228320CF102122832EEF141
:10415000021228324BF20212283263F20212283283
:1041600035F30212283239F402122832EAFC011225
:10417000283223FD01122832D2FD0112283238FEE6
:1041800001122832A9FE0112283231FF0112283211
:1041900010A90612283257AA06122832B5D80612DC
:1041A0002832C6D8061228326ED906122832EC7F81
:1041B0000012283211E70612283267DE0612283272
:1041C00077DE061228328CDE06122832E5DE061271
:1041D000283205D2061228328ED20612283200D397
:1041E00006122832F1FF03122832F4FF031228329C
:1041F000F8E60612283208E7061228320BE7061204
:1042000028320EE706122832F87F0012283203B750
:104210000612283276B806122832FAB80612283268
:1042200049B90612283295E6061228329EE6061291
:104230002832A7E606122832B5E606122832EADC52
:104240000512283269DD0512283221DE05122832D6
:1042500013DF0512283204E1051228325AE1051253
:104260002832ACE105122832C5E105122832D3E12B
:10427000051228323BE2051228324EE2051228329E
:1042800059E20512283267E20512283279E2051256
:10429000283235FB041228328AFB041228329EFD94
:1042A00004122832D6FD04122832FBFD04122832F3
:1042B00014FE041228322DFE0412283222FF0412AA
:1042C0002832B0FF04122832B6BD06122832F9BDDA
:1042D000061228320ABE061228323DBE06122832C5
:1042E00075BE06122832ADBE06122832C4BE0612B2
:1042F00028322CBF061228325FBF0612283263AF65
:10430000061228328EAF06122832D5AF0612283296
:10431000E4AF0612283203B0061228326DB006123E
:10432000283276B006122832D7B006122832FBB0F7
:1043300006122832C1B106122832CEB10612283236
:10434000DFB10612283298E506122832B5E50612CA
:104350002832CC8806122832DF8806122832568A84
:1043600006122832638A061228327C8A0612283204
:104370008F8A06122832A98A06122832C88A0612A3
:104380002832478B06122832078C06122832798C85
:1043900006122832D68C06122832E68C06122832F3
:1043A0003ADD061228325FDD0612283288DD061259
:1043B0002832B0DD0612283288BB06122832AFBB85
:1043C00006122832D6BB0612283246BC0612283204
:1043D0009FB406122832B8B406122832C4B40612AA
:1043E0002832CDB406122832F1B406122832FDB4B8
:1043F000061228320CB5061228322AB506122832C7
:104400007CB506122832B6B506122832EBB5061274
:1044100028323AB60612283286B6061228329EB6DE
:1044200006122832A8B606122832B9B60612283269
:10443000FDB606122832A3FF05122832F4FF05123A
:104440002832E6B60512283212B7051228322EB7E6
:104450000512283241B70512283257B70512283203
:10446000C3B705122832FDB7051228326BBB0512FF
:1044700028328ABC05122832BBBC051228321DBD69
:1044800005122832F8BD0512283220BE0512283246
:1044900035BE0512283245BE0512283286BE0512E9
:1044A0002832DBBE05122832EBBE0512283221CDA0
:1044B000061228323CCD0612283266CD061228326A
:1044C00083CD06122832ABCD06122832CDCD06128E
:1044D0002832E6CD0612283215CE0612283230CE0A
:1044E000061228321ADB0612283270DB0612283236
:1044F00004A5061228320BA50612283218A60612A9
:1045000028324AA60612283270A606122832A3A61E
:1045100006122832B5A606122832F0A60612283254
:1045200060A7061228329DA706122832EAA70612B3
:10453000283218A80612283238A806122832A4CF2A
:1045400006122832C6CF06122832D7D006122832D9
:10455000DAD0061228321BD50612283279D5061277
:104560002832B8D506122832F9D50612283211C7DA
:104570000512283217C7051228325CC705122832E7
:104580004AC90512283283C905122832E3C9051227
:104590002832C9CA051228320DCB0512283235CB74
:1045A00005122832BBCB05122832D0CB0512283297
:1045B00088CD0512283275CE05122832BBCE0512E1
:1045C000283282A50512283298A5051228323DA668
:1045D000051228325CA7051228322DA805122832B0
:1045E000CFA8051228320DA9051228328AA9051272
:1045F0002832E5A90512283236AA051228325DAA0A
:1046000005122832B1AA051228324EAC0512283202
:1046100053AC0512283275AC0512283240D403126F
:104620002832D6D40312283253D503122832CBD5E0
:104630000312283205D803122832DFD90312283298
:10464000F4DA03122832AADB03122832B6E003128E
:1046500028329BE1031228322DE203122832FEE2B7
:104660000312283286E303122832B7E303122832FA
:10467000E2E40312283265E50312283282E50312D0
:104680002832E6E50312283271E603122832DDE60D
:1046900003122832B0E703122832D0E8031228327E
:1046A00078E903122832B3E90312283234EB0312FB
:1046B0002832FFEC0312283273F003122832E6CEC0
:1046C0000412283277CF041228321AD0041228326A
:1046D0000ED104122832E4D1041228323BD2041243
:1046E000283283D20412283228D304122832EED37F
:1046F0000412283254D40412283298D404122832D6
:10470000EBD4041228324CD50412283203D70412F9
:10471000283220D804122832EAD904122832BCDA0E
:104720000412283201DC0412283240DD041228323F
:1047300000DE04122832ADDF04122832B9E104127F
:104740002832E2E1041228320BE20412283223E27A
:104750000412283256E304122832C3E3041228322A
:104760000DE4041228323EE4041228320AE5041251
:104770002832B2E6041228324F99061228327E9966
:1047800006122832C79906122832E19906122832F9
:10479000099A06122832209A061228322D9A0612F9
:1047A00028324A9A06122832379B061228326E9B0C
:1047B00006122832789B06122832859B0612283270
:1047C0008D9C06122832A39C06122832AC9C06123D
:1047D0002832B59C06122832BE9C06122832C79C8D
:1047E00006122832309D0612283259F80512283256
:1047F00046FC0512283262FC051228329BED051298
:1048000028328DEE05122832B0F005122832FFF161
:104810000512283256F205122832C1F2051228324A
:10482000F4F20512283201F3051228321FAC0612E9
:10483000283297AC06122832CFAC06122832D8ADF7
:1048400006122832FCAD0612283214AE06122832A7
:1048500034AE0612283255AE0612283265AE061264
:1048600028327CAE06122832A6AE0612283235AFA8
:10487000061228324AE40612283266E60612283268
:10488000EA9F021228328E9F021228326D9F021276
:104890002832089F02122832B79D02122832269D24
:1048A00002122832749C02122832709B02122832A3
:1048B0002E9B021228320E9B02122832569A0212A6
:1048C0002832D898021228329F9802122832709803
:1048D000021228326D98021228327797021228327B
:1048E0005E96021228324495021228329F940212D8
:1048F0002832FC93021228321B930212283274923F
:1049000002122832D9910212283252A402122832FD
:104910001AA402122832BBA3021228329591021265
:104920002832C5900212283210A202122832239097
:1049300002122832119002122832B4A10212283237
:104940006E8F02122832FA8E02122832A88E0212BC
:104950002832438E02122832108E021228328CA185
:10496000021228324AA1021228326998051228320E
:10497000B88D02122832878D021228329E8A0212C6
:104980002832568A021228324A8A02122832BD89F7
:10499000021228320B89021228329E860212283215
:1049A000078402122832D183021228326D82021249
:1049B00028322082021228325981021228322C8198
:1049C000021228326780021228323A8002122832FC
:1049D0000080021228322CA1021228328BC305005B
:1049E000000080FBE47300000100040005001000DB
:1049F0001100140015004000410044004500500023
:104A0000510054005500000101010401050110018D
:104A100011011401150140014101440145015001FA
:104A2000510154015501000401040404050410045B
:104A300011041404150440044104440445045004C2
:104A4000510454045504000501050405050510052D
:104A5000110514051505400541054405450550059A
:104A600051055405550500100110041005101010D3
:104A70001110141015104010411044104510501022
:104A8000511054105510001101110411051110118D
:104A900011111411151140114111441145115011FA
:104AA000511154115511001401140414051410145B
:104AB00011141414151440144114441445145014C2
:104AC000511454145514001501150415051510152D
:104AD000111514151515401541154415451550159A
:104AE0005115541555150040014004400540104033
:104AF0001140144015404040414044404540504022
:104B0000514054405540004101410441054110418C
:104B100011411441154140414141444145415041F9
:104B2000514154415541004401440444054410445A
:104B300011441444154440444144444445445044C1
:104B4000514454445544004501450445054510452C
:104B50001145144515454045414544454545504599
:104B600051455445554500500150045005501050D2
:104B70001150145015504050415044504550505021
:104B8000515054505550005101510451055110518C
:104B900011511451155140514151445145515051F9
:104BA000515154515551005401540454055410545A
:104BB00011541454155440544154445445545054C1
:104BC000515454545554005501550455055510552C
:104BD0001155145515554055415544554555505599
:104BE000515554555555BB461315B57014EC8A9B59
:104BF000B9DAD0460B18A73613D5064565E8C815AF
:104C00009D1CC63BBABEF0CAE02A727D4D10F10170
:104C1000562ADE5F84F0EEC79AA36477994AF2EED3
:104C20008A7895A5017A461FC4852A920890874FF5
:104C300051564D78BF2663D89505A2297331A256E7
:104C4000A2FF357E94E487577D96D9C43C38051F72
:104C5000D4F15A7ADF69E7ECC465D726BEA07E8A14
:104C60002F97AB076798D2CD956F2F4050C0014C5E
:104C70003A9BCE91DA0A4A86037FB45A39F9CE1F9D
:104C8000DEFF9D4F0B298DC7D680D177DD028CCEFC
:104C900010CABE1EF2B39412ED9D5D69BD073E734E
:104CA00069B10766E5464A4009CF407A319655D842
:104CB00022FAB37A3F6CEA02E8EE945C5E6D4EDE57
:104CC00093D707AAAC11BC7B53C013FE02D9A3DA59
:104CD000CC38D53605802E1F3258FF385DB00F070F
:104CE000890231108AC66D04C08B455A6B53286700
:104CF000E48F6A8F42C104344891B865E140F4F111
:104D00006255DD0C53D87DFFD5876104DF13CE29B2
:104D10002730A3926988534A1D50746BD1C04383D6
:104D20000375D6E0E2D7577E589F1FFAF31F4579E7
:104D30009261F0588E004A3781DD2772F512FAD160
:104D40006EECFE738C667F84B0A702E1E62385AF2C
:104D5000CE9BE547905678AC806DE65F871F7C0060
:104D600044A7724F1A696A34A3B9664BB1ADCCE758
:104D70005FC572FF021511966E5B1D7C4A01FA95A4
:104D8000A000D1FDACA9EF0D97074140535CDE7F39
:104D90002186B9A211CEB7F02757732272C101093B
:104DA00061F12D9B7FA6FDFBB1E6A62A399716423D
:104DB00045B95A058F000100D51287000100D412B1
:104DC000240002009E1E25000200A01E26000200F4
:104DD000A21E27000200A41E28000100A61E290012
:104DE0000100A71E84000400A81E86000100AC1E5E
:104DF0002A000100AD1E2B000100AE1E2C00010098
:104E0000B21E2D000800C0122E000100B31E2F009C
:104E10000100B41E30000100B51E31000100B61EB5
:104E200032000100C81233000100C9123400010031
:104E3000B71E36000100CA1238000100B81E390042
:104E40000100B11E83000200C51E63000100D312E1
:104E500064000100AF1E65000100B01E6D0001007E
:104E6000C41E6E000200BE1243000100B91E4400C1
:104E70000200BA1E45000100BC1E46000200BD1E15
:104E800047000800CB1248000100BF1E4900010086
:104E9000C11E4A000200C21E4B000100C01E0400D9
:104EA0000100C71EA1000100C91E37000100C81E75
:104EB00088000100D6120000000000000001363614
:104EC00001010001020100010301000104010606C5
:104ED00005020000070100340801000F0904010168
:104EE0000D0100FF0E08000017020000190100FF6D
:104EF0001A0100011B0100FE1C0100081D02000038
:104F00001F01000120010001210200002301000F08
:104F1000240200002601000127010008280200FFEA
:104F20002A0100072B0102402C0100002D01000185
:104F30002E0100012F0100FF30010B1C3108000081
:104F40003A0100083B01000F2F010000010371032B
:104F5000010301030103010301032203020301030F
:104F60001003000300030003000300030003000319
:104F70004203000324030603000300030403120397
:104F80002503230325032303040304030003000371
:104F9000000344030003000323030003650321000F
:104FA000350381030003050300030003000303002E
:104FB00071003001600011007000310220035004C4
:104FC0008000100061000000140063007300720094
:104FD000620043000000130006000000000004000F
:104FE0001200000000000000000004000400370070
:104FF00037003C0244000000000000000000650093
:105000000000350081000000050000008300000062
:1050100001017101010101011101010131010101D0
:1050200001018001100161013B0014006301730163
:105030007201620143010001130106013D013500C7
:10504000040112010001000100010001040104013A
:10505000330133013C0144013201360000010001FB
:105060006501000135008101000105018201830114
:1050700000010304710402046004110470040204BA
:105080000204010402041004610400041404630413
:10509000730472046204430400041304060400044D
:1050A0000004040412040004000400040004510479
:1050B000640000040004000444040004000400042C
:1050C0000004650400043504810464000504000440
:1050D00083040004030271023001600211027002B5
:1050E0000102020202028002100261023A00410043
:1050F000630273027202620243020002130238006A
:105100000002000204021202000200020002000279
:1051100004020402370037003C0244020002390056
:10512000000200026502000235028102000205024F
:105130008202830200020000953F13000B3F010032
:10514000953F0200933E0300993E04009F3E0500F8
:10515000A53E0600B13E3000CF3E3100C93E3200D0
:10516000DB3E3300E13E3500E73E3400ED3E3600E5
:10517000F33E1100FF3E1400053F1500C33EFFFF44
:10518000000036000100060000000F0000000000D3
:10519000000000000000000003FFFF00000403FF08
:1051A000FF0000FFFF0FF4010005C404032000010D
:1051B00000000B000000000000000003010F854606
:1051C000A3468B46B5469146A9469146AF469746BB
:1051D000B5469146A946000000000000000000000E
:1051E000000000000000000000009D46B5460000E1
:1051F00000000000000001A13006D73008D1300BBC
:10520000E9301011300A013102A73005C53007AD71
:10521000300C83300D9530FF000003EAF5E5D5D55D
:10522000C5B5A5959585857575656555554545350E
:105230003525251515058336B33689368F36AD36B7
:10524000A1369B36B936BF36C536D13695367D3652
:10525000773600160F00000B150B020002220F32EA
:1052600000000600000000000000008967452301DF
:10527000EFCDAB56777777777777777777777777DD
:1052800077777701030507090B0D0F000204060865
:105290000A0C0D7F37913797374D369D3747365378
:1052A00036EB3709380F38F137FD37F73787358157
:1052B00035BD35C335B7356F353030171819213046
:1052C0001B1D1F30303016181920231A1C1E3000E9
:1052D000034948424D18172505020C0E020B040B1A
:1052E0000A0708000F0001191618161615230300E7
:1052F00000383C3E363B3B352B432CA736CB3603A0
:1053000038D736DD36D337A337A937B537AF3702AD
:105310000402010101010902933599358D35C93522
:105320000005150D091008049F35B13500BE040AAB
:105330000E0004007F00E80328000C001500100C8C
:105340000A030900040009FF1E1E0301040C1005D6
:10535000080F08C082C0839011B2E4F0A3F07CD59E
:105360007D047A367B11124565122E319012D4E0FD
:1053700070047900800279011249CD122E3702683B
:105380005374F412240C74F512291AE9FDEAFEEBA9
:10539000F9ED705B74026E703E7408901145F07503
:1053A0000800780812288CECF508780812288CE997
:1053B000F508780812288C901EA81226AA901EAC18
:1053C000E0F97CCB7D12901EC51261CF122E5B746A
:1053D000071228CF0254B674016E60030254BB74E6
:1053E00008901145F07B00E9FA122E8B0254B67436
:1053F000016D600874026D60030254BBEE600574B9
:10540000036E706074021254D0122AC8AA08AB0945
:10541000AC0AAD0B122E49E9FA90114AE0A2E34022
:105420001DEA701A9011B6E004F0640470109081C7
:10543000A37808122AC8901EA87808122AD77403E5
:105440006E70759011B7E0FB74012BF0EBC39405FF
:1054500040669081A37808122AC8901EA878081286
:105460002AD7805474016E705274016D7035740ABD
:10547000901145F07401122B18E4F07402122B18ED
:105480007403F090818B7808122AC87404122B18C8
:105490007808122AD77408122B18E412629C123072
:1054A000B38028740A1254D0122AC8AA08AB09ACD7
:1054B0000AAD0B122E79E9FAEA60107CE87D037AD6
:1054C000017B00901142E0F9123CA7740B026C03BF
:1054D000901145F0901EACE0F9901EA87808227457
:1054E000F612240CE9FEEAFF7AD1F9123B87EA7042
:1054F00001EB702C7A027B00123B6FEA7001EB70BB
:105500000E7A107B00901142E0F9123BAB801874C8
:10551000D18A828B83F0EEA3F0EFF9123B7B8007F8
:10552000EE8A828B83A3F00256B274F712240C89A0
:1055300008900663E0FEA3E080208E828F831255E0
:105540007AE0600AA31261D6FAA908123E7B8E8225
:105550008F83A3A3A3A3A31278CCFFEE7001EF70F7
:10556000D9900665E0FAA908123E7B1231C190116C
:105570001E126EA01231BB02769CE0125EC622742F
:10558000F112240C89098C0A740F122B1812644929
:105590007411122B18125C35750800750E008050BE
:1055A000E50BC333FEE433FFE82EF582E93F1256E4
:1055B00001E50EC333FEE433FFEA2EF582EB3FF53F
:1055C00083E0650C7004A3E0650D7019E508C33332
:1055D000FEE433FFEC2EF582ED3FF583E50CF0A3FE
:1055E000E50DF00508050BE50BC3950A40B2050E65
:1055F000E50EC395095005750B0080EBA908026AFA
:1056000014F583E0F50CA3E0F50D2274F412240CDC
:10561000E9FD740C122B18126449750B0080020509
:105620000BE50BC39D503F750A008002050AE50A91
:10563000C39C50EBE50BC333FEE433FFEA2EF58247
:10564000EB3FF58312683EE50AC333FEE433FFE81F
:105650002EF582E93FF583E065087004A3E0650953
:1056600070CA790180027900026C0674F612240C6B
:105670001256F97003A3E06D70177508487509118B
:105680007808122888EEFA123F9B74021228CF8005
:105690001A75080275098078081228888C088D0907
:1056A00078081228881257091228CF800574021230
:1056B00028CF7F0202263674F612240C1256F97097
:1056C00003A3E06D70177508557509117808122845
:1056D00088EEFA123FA174021228CF801A750803CF
:1056E00075098078081228888C088D097808122896
:1056F000881257091228CF80B9EAFEEBFF125EB478
:10570000FCE9FD90111EE06C22EE240E1272C7FD22
:105710007C80EE2402FAEF3400FBEE240F1272C7F5
:10572000F9123FBF74042274F612240C74FE12297D
:105730001AEAFEEBFF851882851983E4F0A3F012C4
:105740006A1FFA88828983A3A3E0F97508007509A6
:1057500000600494F14005750982804590111EE0B7
:105760006A7003A3E06B7022851882851983AA8270
:10577000AB83123893E9F508851882851983E070A8
:1057800002A3E0701C75098380179012D4E06004B6
:10579000640170057509818008E064027003750971
:1057A00080851882851983125C35A909EEFAEFFB12
:1057B000123FA7E5086016851882851983E07002FC
:1057C000A3E06009851882851983125ECF0256AD69
:1057D00074F212240CEAFEEBFF750A00750B00123E
:1057E0005EB0F508E9F5091231C1EA65087003EB0E
:1057F000650970121238A5E914F50A79017A7E7BE1
:10580000111238AB8003750B80125843F50C780CDD
:1058100012288C750C7E750D11780C122888780A68
:1058200012288C7808122888E50BF50878081228C9
:105830008C1268201272BC7A057B80123FAD74070F
:10584000027640EE240EF582EF1272CA2274F5122F
:10585000240CE9FE7F0080278A828B83127770F9FF
:10586000E42508E9F509EF33F8E433F9EC28F5828B
:10587000ED39F583E508F0A3E509F012767E0FEF28
:10588000C39E40D47F0302263674E812240C74FCB5
:1058900012291A851882851983126EA0750F00745B
:1058A00002122B18E4F0A3F0F516F517851882857F
:1058B0001983E02413126E3E1274D7F508E9F50936
:1058C000850A82850B83A3127848A3A3E0F9EAFE38
:1058D000E9FFE50A2404127813AA08AB091232631F
:1058E000E964017038125C3B12288C750800750958
:1058F000007808122888780812288C90111E122629
:10590000B2750880780812288C7407122B18125C64
:1059100029122B18125C4A1228CF025C14AA08AB79
:1059200009123263E9700E90111EE065087004A33D
:10593000E0650970B0125C1E8A096034C333FAE472
:1059400033FB123BE77402122B18126EA074021282
:105950002B18E07002A3E060177402122B18125C7F
:1059600035AA0AAB0BA909123EAB8A0A8B0B80033E
:10597000750900125C1E8A08601CC333FAE43312F6
:1059800079037001EB600FAC16AD17AA0AAB0BA937
:1059900008123EAB8003750800900663804AE4F06D
:1059A000A3F0AA0AAB0B85128285138312736512CA
:1059B00061D6F9123B7B851082851183E0C0E085BA
:1059C0000F0AE50A247EF582E43411F583D0E0F075
:1059D000050FE5146007AA10AB11123BED8512828A
:1059E000851383A3A3A3A3A3E0F512A3E0F513E516
:1059F000127002E5137003025BB485128285138373
:105A0000126453FAE9FB8A828B83E060D0851282AC
:105A1000851383A3A3E0A2E050C38512828513837C
:105A2000A3A3A3126453FCE9FDEC7001ED8A828B01
:105A3000836014E0FA79018C828D831249E48A1024
:105A40008B11751401800DA3A3A3E0F510A3E0F55D
:105A500011751400E5107002E51170030259D2852A
:105A60001082851183A3E06E7003A3E06F600302D0
:105A700059D2851082851183A3A3A3A3A3A3A31244
:105A800026B2851082851183A3A3A3A3A3A3E0FC60
:105A90007404122B181261CFA909123E8D740212E0
:105AA00028CFE97038851082851183A3A3A3A3A30F
:105AB000A3A3A3A3A31226B2851082851183A3A357
:105AC000A3A3A3A3A3A3A3E0FCAA16AB17A9081240
:105AD0003E8D74021228CFE970030259D2E50925E0
:105AE00008C333240AFA7B00123B6F8A0A8B0BEA45
:105AF0007001EB70030259B674D28A828B83126CE8
:105B00000BF5838882A3A31264498A828B83A3A3A3
:105B1000E8F0A3E91277B0125C5BE508F0EA24052F
:105B2000FAEB3400FBE5096038E50A240AF8E50BD6
:105B30003400F98A828B831262A87402122B181225
:105B40005603750E00780C122884E509C333FCE473
:105B500033FD8A828B831261CF126A191228CF809B
:105B6000088A828B83E4F0A3F0E50A2408F582E535
:105B70000B1277CBE508700302599EE509C333F891
:105B8000E433F9E50A28F8E50B39F9740A28FAE450
:105B900039FB126EA085160C85170D750E00780C5A
:105BA000122884E508C333FCE433FD126A19122875
:105BB000CF0259A2E50F6039125C3B12288C7508A0
:105BC0007E7509117808122888E50FF50878081203
:105BD000288C90111E1226B2750800780812288CA5
:105BE0007407122B18125C29122B18125C4A122807
:105BF000CF7402122B18E07002A3E0600874021246
:105C00002B18125ECFE5167002E5176007AA16ABD7
:105C100017123BED74041228CF7F10022636850A36
:105C200082850B83E0FA0277DFE02402FCA3E034F4
:105C300000FD740722E0FCA3E0FD2285188285198F
:105C400083E0240E12730D025E29E0240FF8126E19
:105C50006C7A067B80123FAD740722A3E5091277A8
:105C6000B402798374EA12240C74F412291A8A0E8D
:105C70008B0FECFEEDFF740B122B187403F0122B3C
:105C800018AA82AB83124565E50E240CF512E50FC8
:105C90003400F5131231BBEAFCEBFD7403122B1830
:105CA000AA82AB8312455FE96012EE241312701EC4
:105CB000E0FA74036A600A74016A60057484025D24
:105CC000CCEE24081274B7E0F96021C394F1501CA3
:105CD000EE2414F50AEF12781774036A7013850A1C
:105CE00082850B83E06005C394F140057482025DF8
:105CF000CCEE2409127768EE240BFEEF3400FF850A
:105D00001282851383E064217002A3E06003025DC8
:105D1000977487851882851983F0122DB9905332B4
:105D2000E493F8740193F9C3EA98EB994003025D98
:105D3000D3850A82850B83E0F50A780A12288CEE57
:105D4000FCEFFD8508828509831261CF850C828571
:105D50000D83E0F912496D74011228CFE97074E4E3
:105D6000851882851983F0123E098510828511837A
:105D7000E06403705E7401122B18AC82AD83EEFAFE
:105D8000EFFB124943E9704B7D007C007900EEFA8D
:105D9000EFFB123F6B803C850A82850B83E0F50A9E
:105DA000780A12288CEEFCEFFD85088285098312A3
:105DB00061CF12495574011228CFE9700DE485189E
:105DC00082851983F0123E098009748885188285BE
:105DD0001983F0E50E1274B2E50F125E2512288CBD
:105DE0007401122B18858208858309780812288887
:105DF0008512828513831277704480F50978081222
:105E000028887901E50E2402FCE50F3400FDE50E3B
:105E1000240FFAE50F1268311228CF740C1228CF24
:105E20007F0E022636127843E0F508780822C082F9
:105E3000C08374F312291AE4851882851983F074DB
:105E400001122B18126EA07403122B18AA82AB83B6
:105E5000122CE1851882851983AA82AB83122D1D2D
:105E6000740D1228CF02685374F612240C125EAC23
:105E7000F8901150E058F508A3E059F509E50870CD
:105E800002E5096024780812288890111E1226B2B3
:105E9000125843FD7C00EE2402FAEF3400FB12722C
:105EA000BC123FB974041228CF0256B2EAFEEBFFCF
:105EB000125EB422126A2C125EC1E0FAA3E0F9EA83
:105EC000223400F583E0F8A3E0F988828983221266
:105ED0007696123BED2274E812240C74DB12291A18
:105EE0008A168B177512007513001261D3F50B8596
:105EF0001882851983AC82AD837A007B00799C126D
:105F00002E9D7A047900122D2FEAF50C85188285D2
:105F10001983E0250CF0FAE50BC39A400302616A8D
:105F2000E0C3950BF509C394044003750903E50923
:105F300075F01AA4FAABF0123BE78A128B13EA70E1
:105F400001EB700302616D750A00AE12AF13850B91
:105F500008025FF57C087D0079FFAA10AB11123BA7
:105F60005DE50E2404F8E50F3400F9EE2416FAEF8F
:105F70003400FBEE2415FCEF3400FDEE2414F51084
:105F8000EF3400F51188828983E07036850E8285B2
:105F90000F83E07002A3E0700AE48510828511830C
:105FA000F0800E7401851082851183F090056FE0FA
:105FB00014851482851583F074028C828D83F0E43D
:105FC000803090056FE00485148285158312774B2D
:105FD000C39403400302609F74028510828511837D
:105FE00012774B640160030260B1E48C828D83F010
:105FF00074011261DBE50AC3950940030260D0E534
:1060000008C3950C40030260B6A908122DA18A0EA0
:106010008B0F050890055C1261FC126443EE24129C
:10602000F582EF1277CBE8F0A3E91261EBF514EFFC
:106030003400F51574FF851482851583F0850E8272
:10604000850F83A3A3A3A3A3A3A3A3A3A3E0C0E05B
:10605000EE2419F582EF1277CBD0E0F07401122B09
:1060600018E4F01264437402122B181262A8EE2492
:106070000AF510EF3400F5117401122B18AA82AB47
:1060800083122D0BE964016003025F547404122B28
:1060900018AC82AD83AA10AB11124565025F617422
:1060A0000185108285118312774B64037003025FB0
:1060B000EA7401025FEBE50CC3950B40057508001F
:1060C0008018E50BC3950CF508800F74011261DB95
:1060D000E50AC39509400302616D740E122B18ACDA
:1060E00082AD83AA087B007987122E9D050874185B
:1060F000122B181261FC7C087D0079FFEE240AFA4D
:10610000EF3400FB123B5DEE2412F8EF3400F9741B
:106110000E122B181261CF88828983126EA0EE2492
:1061200015F582EF1277CB7402F0EE2416F582EFAC
:106130001277CB74031261EBF582EF1277CB74FF09
:10614000F0741D122B18E0C0E0EE2419F582EF1256
:1061500077CBD0E0F0EE2414FAEF1276587002A359
:10616000E060030260CBE40260CD750900750800B1
:10617000780812288C7812122888E509F508780822
:1061800012288CE50BF508780812288C7405122B60
:1061900018E0FD7C00E5162402FAE5173400FBE563
:1061A0001612668EE5171272C2123FF57405122898
:1061B000CFE5127002E5136007AA12AB13123BED94
:1061C0007425025C16AC82AD838518828519831212
:1061D00076962212783912736AE0228A828B83F0D3
:1061E000EE241AFEEF3400FF050A22F0EE2417F524
:1061F00082EF1278437402F0EE2418221274CFE872
:10620000F0A3E9F07C707D05EE240212620F22FA01
:10621000EF3400FB1245652274F012240C74F9125D
:10622000291A8A088B09127988851882851983783A
:106230000C122AD7126294C0E07404122B18D0E01A
:1062400012786E7405122B187401F07406122B1854
:106250007401F0901128F07402901131F0850882D9
:10626000850983A3A31264499011291262A8EA90B8
:106270001132F0E50812668EE5091258499011278F
:1062800012629C122E4FE96003122E5574071228D9
:10629000CF0272AEEE2404FE12765322F0851882ED
:1062A000851983AA82AB8322E8F0A3E9F02274F275
:1062B00012240C74FF12291A890A8A0C8B0D7E0095
:1062C0007F008A088B099012D4E0600D640160039E
:1062D0000263BF800488088909E5087002E5096047
:1062E0003690055C1261CF850882850983E06A706B
:1062F00003A3E06B600FE50824161277C7126453FE
:106300007001E970D0850882850983E06A7003A373
:10631000E06B70030263BF7A187B00123BE78A08C8
:106320008B09AE08AF09EE7001EF70030263BF90F6
:10633000055C1274CB1262A89005511274C4A3F0CC
:106340009005631274C4A3A3F0900564126458F01E
:1063500012324BE98E828F83A3A3A3A3A3A3A3F03E
:10636000901EAD126458A3A3A3A3F07C707D05EE2C
:10637000240D12620F851882851983AA82AB837956
:1063800041124781851882851983E0600890111EAB
:10639000126449800478FE79FF8E828F83A3A3A3C1
:1063A000A3A3A3A3A3A31262A8EE2416F582EF125F
:1063B00077CBE50CF0A3E50DF08E0C8F0D050A9060
:1063C0001132E0FAE50AC39A50047C008023E50A02
:1063D000C39AFCC3940640027C057B00800EE50C4A
:1063E0002416F582E50D34001256010BEBC39A40DA
:1063F000ED750800780812288C780C122888ECF5C6
:1064000008780812288C901132125E2812288CAD60
:106410000A7C007A297B11901127E0F9123FEF7472
:10642000051228CF9012D4E060046401700DEE7064
:1064300001EF6007EEFAEFFB123BED122E557401EF
:10644000027640850E82850F8312644D22E0F8A308
:10645000E0F92212644DE822E08E828F8302798374
:1064600074EC12240C74FF12291A8A0A8B0B7E001A
:106470008E0E8E0F1261D3FF851882851983AC8230
:10648000AD837A007B00799D122E9D851882851937
:1064900083E0FAEFC39A507EE0C39FFEC3940B40A3
:1064A000027E0AEE75F006A4FAABF0123BE78A080A
:1064B0008B098A0E8B0FEA7001EB6058750C008017
:1064C0001B740288828983F0740388828983F0E5D3
:1064D000082406F508E50912776B050CE50CC39E48
:1064E0005034AC08AD09850C12EF2512FAE43400E3
:1064F000FB798B122E9DE5082405F8E50912773FFC
:106500001226740102C8640D651065C164E480BA86
:10651000740180B67E00750800780812288C780E09
:10652000122888EEF508780812288CEFF50878080C
:1065300012288C7405122B18E0FD7C00E50A240259
:10654000FAE50B3400FBE50A12668EE50B1272C207
:10655000123FFB74051228CFE50E7002E50F6007AD
:10656000AA0EAB0F123BED74011228CF7F0C02264E
:106570003674EA12240C74FE12291A8A148B1575CB
:106580000A00750B001261D3F508851882851983FE
:10659000AC82AD837A007B0079A312494F850882D3
:1065A000AA82851882851983126449C3EA98E499FE
:1065B0004003026636851882851983E0C39AFEA3DC
:1065C000E09400FFC3EE9404EF940040067E037F46
:1065D000008006EE7001EF605DEEFAEFFBEA75F009
:1065E00015A4FAACF075F015EBA42CFB123BE78A6E
:1065F0000C8B0D8A0A8B0BEA7001EB6039750E006B
:10660000750900850910C3E5109EE49F502DAC0C60
:10661000AD0D850912850810E5102512FAE4340045
:10662000FB79A212494FE50C2415F50CE50D340059
:10663000F50D050980CD750E8B7E00750900780972
:1066400012288C780A122888EEF509780912288C0D
:10665000780812288C7405122B18E0FDAC0EE51496
:106660002402FAE5153400FBE51412668EE51512D6
:1066700072C212400174051228CFE50A7002E50BC0
:106680006007AA0AAB0B123BED7402025E1D240FD9
:10669000F5822274F612240C74FF12291AEAFEEB1A
:1066A000FF126A2C127688A3A3A3A3A3A3A3A3E03B
:1066B000F9122E73E9851882851983F07508007820
:1066C0000812288C7401122B18858208858309789A
:1066D0000812288875083575098078081228887985
:1066E000011268291228CF74010256AF74F41224E3
:1066F0000C74FA12291A8A088B09127561FAEFFBD9
:10670000122CE7E960131231BBEAFCEBFDEEFAEF65
:10671000FB12455FE96401700A7401122B18E4F062
:10672000A380097401122B18EEF0A3EF12775EA379
:10673000A3A3A3A3E0FAA2E650087403122B1874D3
:1067400001F0EAA2E750087404122B187401F074E7
:1067500005122B18E4F07401122B18AA82AB8312D5
:106760002E91E9851882851983F0750A00780A123E
:10677000288C7401122B1885820A85830B780A12E3
:106780002888750A34750B80780A1228887901E503
:10679000082402FCE5093400FDE508240FFAE509A8
:1067A0001268311228CF7406026C0374F612240C9E
:1067B00074FF12291AEAFEEBFF1277CF12557A12F4
:1067C000683EA908122E61E9851882851983F09028
:1067D00012D4E0700B740165097005A9081240C15C
:1067E0001268208C828D83E064FF7004A3E064FF54
:1067F000602B750800780812288C7401122B1885FC
:1068000082088583097808122888750836750980FA
:106810007808122888790112682C1228CF0266E7BE
:10682000EE2402FCEF3400FD22126820EE240FFA61
:10683000EF340012683722FB123F5F740522E0F547
:1068400008A3E0F50922C082C0839012D4E070034F
:106850001240C7D083D08202282F74F012240C7407
:10686000EF12291A125EACF50CE9F50DEE240FF5C6
:106870000AEF127817EE240212776890111EE06575
:106880000C7004A3E0650D706185188285198385FD
:10689000820E85830F780E122888750E11750F00F1
:1068A000780E1228887C007D007A817B00123C7172
:1068B00074041228CFE97032750E00780E12288CFD
:1068C0007401122B1885820E85830F780E1228888A
:1068D000AC0CAD0DAA08AB09850A82850B83E0F9E3
:1068E000123FB374031228CF802A750E11750F80E2
:1068F000780E122888780C122888125843FD7C8460
:10690000AA08AB09850A82850B83E0F9123FBF74A0
:10691000041228CF741102628E74F112240C74ECEC
:1069200012291AEAFEEBFF126A1FF508EBF509902F
:10693000111EE065087004A3E0650960030269C8E0
:1069400088828983A3A3E0FA94105004EAFB8002B2
:106950007B107403122B18EB127661A3A3A982AAF1
:1069600083890C8A0D750E00780C12288474061227
:106970002B18E0FC7D007407122B18AA82AB83123F
:106980006A191228CF7403122B1885820A85830B8B
:10699000780A122888750A11750B00780A1228885F
:1069A0007C007D007A817B00123C6B74041228CF3E
:1069B0007403122B18E09011486005E0D2E48003C4
:1069C000E0C2E4F07A0080027A84EA8518828519B0
:1069D00083F07401122B18E508F07402122B18E5ED
:1069E00008F01274B1EF125E2512288C7401122B7C
:1069F0001885820885830978081228887508147517
:106A00000980780812288879031268291228CF741F
:106A1000141228CF7F07022636123B51740322122C
:106A20006A2C1276A1FCA3E0FBE42C22EE2413F5E1
:106A300082EF2274F412240C74E012291A8A088B53
:106A400009851882851983AC82AD83123F4D90125F
:106A5000D4E0640270337402122B18AE82AF83123A
:106A600031BBEEFCEFFD12455FE9601D1231C18ABA
:106A70000A8B0BA80AA90B851882851983E0687018
:106A800003A3E0697003026C011233837402122BBA
:106A9000181261C512328DE964017003026C017431
:106AA0000B122B18AA82AB831231CD7402122B1851
:106AB000AC82AD83740B122B18AA82AB8312455F94
:106AC000E960321231C78A0A8B0BA80AA90B851814
:106AD00082851983E0687003A3E0696018851882D5
:106AE0008519831264499005521262A87A527B0577
:106AF000794B1247879012D4E0600764016003026B
:106B00006B8DE50824111277C7C082C0831231C192
:106B10008A088B09D083D082E065087004A3E06501
:106B20000960347402122B18AA82AB83122D5F8A7B
:106B3000828B83E5827002E583601CA3A3A3A3E09C
:106B4000FA74016A600574026A700C7402122B18E0
:106B5000AA82AB83122D6B1231C18A088B09A80857
:106B6000A909851882851983E0687003A3E069602C
:106B70001C7402122B181261C5122D41E9600E74AB
:106B800002122B181261C5123365123E09790012E8
:106B900061C9122FCF7413122B18E4126C0BF97405
:106BA00014122B181262A87413122B18AA82AB832A
:106BB000122D0BE9604B7C087D007900740B122BC1
:106BC00018AA82AB83123B5D7416122B18AC82ADEF
:106BD00083740B122B18AA82AB8312455FE96021E4
:106BE0007402122B18AC82AD837416122B18AA8271
:106BF000AB83122CE17413122B18AA82AB83122DD3
:106C00001D74201228CF7F040226361272B3F8A317
:106C1000E02274F112240C74F612291AEAFEEBFF3A
:106C20007508009011B4E07002A3E0703E7A377BE3
:106C300000126E31126EA09011B4E07002A3E060F9
:106C4000197C377D007900123B5DEEFCEFFD901161
:106C5000B41261CF123F1DE970057488026D8A126B
:106C60006E387401F01272E7026E26126E387402EA
:106C7000F0EEFCEFFD1272DA123F1DE9700C748821
:106C8000851882851983F0750801750A7E750B11C8
:106C9000780A1228889011B4E02429126E3E122638
:106CA000B29011B4E02428126E5B2415126E712488
:106CB00014126E621228CFE9C0E09011B4E02431C2
:106CC000126E3ED0E01273532431126E56750C7E54
