:020000040000FA
:10000000020DA1022003FFFFFFFFFF02200BFFFFF5
:10001000FFFFFF0204D8FFFFFFFFFF02201BFFFFCF
:10002000FFFFFF022023FFFFFFFFFF02202BFFFF48
:10003000FFFFFF022033FFFFFFFFFF020533FFFF3B
:10004000FFFFFF022043FFFFFFFFFF02204BFFFFE8
:10005000FFFFFF022053FFFFFFFFFF02205BFFFFB8
:10006000FFFFFF022063FFFFFFFFFF02206BFFFF88
:10007000FFFFFF022073FFFFFFFFFF02207BFFFF58
:10008000FFFFFF022083FFFFFFFFFF02208B002006
:10009000000090200000932000000100000000C834
:1000A0000300380000000000260000000000FFFFF1
:1000B000FFFF0000040074F7120AFE780079008048
:1000C0001BE508120529E08A828B83F09004121246
:1000D00002044005E4900412F01201FB900412E0C7
:1000E000F508900413E065086007C3E89CE99D40AB
:1000F000D0E8FAE9FB7F02020C5574F8120AFE9070
:100100000497E0FE8E82A882900496E0FEE8C39EEB
:10011000E0500E1202C17001E9700B780079008086
:10012000141202D250F57A007B008038E004F043CC
:100130009A041201FBC3E89CE99D50248A828B83B8
:10014000E0C0E0900497E012058AD0E01202EDE4EE
:10015000900498F0900497E0C3947F40CFE480CE61
:10016000E8FAE9FB7F01020C5574F7120AFE7800E9
:10017000790090051BE0705590051CE0704F75C12B
:1001800000C28BC284A28340FCA28B4004A2835095
:10019000F8E5C1C28BA2835004D2848030C0E0E075
:1001A0001201F1D0E0F090051C1202E640DBE4F011
:1001B00080D7E5081201F1E08A828B83F090051B5D
:1001C0001202044005E490051BF01201FB90051B90
:1001D000E0F50890051CE065086007C3E89CE99D10
:1001E00040D0E87001E97006E4F090051BF00200D1
:1001F000F1249BF582E43404F58322E8240108E924
:100200003400F922E0041202F1C394802274F8123F
:100210000AFE90059EE0FE8E82A88290059DE0FE7B
:10022000E8C39EE0500A1202C17001E9700D80051A
:100230001202D24006EC7001ED70067A007B00805D
:100240007D8A828B83E0F5C1A3AA82AB8378017992
:10025000008006E004F01201FBC3E89CE99D501EFB
:100260008A828B83E0C0E090059E1202FCD0E012EF
:1002700002ED90059EE0C3947F40D8E480D7C28B06
:10028000A28340FCC284A28B4004A28350F8900554
:100290009D1202FCE0F5C1C28B90059DE0FA90052D
:1002A0009EE06A90059D70051202FC80051202E630
:1002B0004002E4F0A28350CED284E8FAE9FB0201C6
:1002C00064C398F8E49400F974FF281874FF39F9AE
:1002D000E822C398F8E49400F9747F28F8E439F927
:1002E000C3E89CE99D22E004F0C39480221202F14D
:1002F00022F08A828B83A3AA82AB8322E0241DF59D
:1003000082E43405F5832274FF120D111203E21208
:100310000692E970030203BF7E00900390E064013F
:10032000700DC2847401900391F09005B38005D2E2
:10033000AF9005B77808120D927C017D0085188278
:10034000851983AA82AB83120494EA7001EB6012D0
:10035000E064F8602CE0640770089005BB78081230
:100360000D9285080C85090D850A0E850B0F9005E9
:10037000BF7808120D4F9005BB780C120D2770B98D
:100380000E900390E064017009D284E4900391F030
:100390008002C2AFEE6028900390E0640175860091
:1003A000C2AA7007539AFBD2E98007C28B539AFB0B
:1003B000C2E9022000C2AF75C9AB75C95B80FE12ED
:1003C0000459C2AF75C9AB75C95B80FE7A1075B6AA
:1003D0000FE5B4A2E750FAE5BBC39940F11AEA7001
:1003E000ED22C082C08353BEFBE59DA2E650FA0019
:1003F00078F8790100E824FF18E934FFF9E8700182
:10040000E970F175C6807480659E70FA43BE04740D
:1004100008906270F0794A1203CC74F5900001F0F4
:100420007403F5D575D4887401900390F0D2845389
:10043000F3F753F3EF53FDF743FD10538FF753F7E3
:10044000DF43C52053F1FE75862043F3F0E5F34307
:100450008640D2AAD083D0822274F5120AFE794E49
:100460001203CC900390E07002D2AF120594E960C1
:10047000FAE0701B9005C37808120D92009005BF3A
:100480007808120D4F9005BB7808120D2770ED7F8C
:1004900004020C55C082C083900390E070051200E6
:1004A000B6801E900391E06015A28B500DE5C18AC5
:1004B000828B83F07A017B0080077A0080F812013A
:1004C000698091C082C083900390E070051200FAA9
:1004D000800312020D020454C0E074F2120B5E900D
:1004E0000001E064CD70051220138038E064F570DF
:1004F00032E5C1C0E0900413E0120529D0E0F0908D
:100500000412E0FA900413E06A7006E59590041571
:10051000F09004131202E64002E4F074C690041452
:10052000F08001007F01020BBD2492F582E43403C8
:10053000F58322C0E074F1120B5E900001E064CDFF
:10054000700512203B803EE064F57038900496E020
:10055000FA900497E06A700B539AFB740190049828
:10056000F08022C2E9900496E0F50874012508F0B5
:10057000E50812058AE0F5C1900496E0C394804036
:1005800004E480DC007F02020BBD2416F582E43413
:1005900004F5832274F7120AFE74FF120D117E0017
:1005A0008033900384E0FA851882851983E06A70AD
:1005B0000D900382E0644D70051207EBE9FEE490B4
:1005C0000385F0900387F0851882851983E0FA90FF
:1005D0000384E06AF07C017D00851882851983AA76
:1005E00082AB83120494EA7001EB7003020686E08A
:1005F000C0E0900387E0F8900385E028F8E4340039
:10060000120980D0E0F0900387E0120C8D0005C73E
:10061000051D062C064A065A067006A20585188294
:10062000851983E064FE709F74018097E4900384D1
:10063000F0851882851983E0900386F0C39480408A
:1006400004E40205C374020205C385188285198378
:10065000E0900382F074030205C385188285198334
:10066000E0900383F0900386E0601674040205C3F3
:10067000900385E004F0FA900386E06A60030205C7
:10068000C774050205C3EEF97401120CDE7F020285
:100690000C5574ED120AFE74FB120D1175080475E9
:1006A00009007808120D627402120DBD12098C1235
:1006B0000CDE851882E064FF7004A3E064FF600D27
:1006C000851882851983E07002A3E070030207DFBA
:1006D00012099C120DBDE0687003A3E0697003026B
:1006E00007AE75080090059F7810120D92800A9051
:1006F00005A37810120D27604D750A01750B00785F
:100700000A120D627406120DBDAC82AD8385100A0B
:1007100085110B74FF550AFA7407550BFB8A0C857B
:10072000110D85120E85130F740B780C120CF8A99D
:100730000C120996120CDEE0F9AA08AB091209AAFC
:100740008A088B0980089005A77810120D929005F1
:10075000AB7810120D4F9005AF780C120D92780CFB
:100760007910120D73408879001209AA79001209D4
:10077000AA7402120DBDEAF0A3EBF0750801750929
:10078000007808120D627402120DBDAC82AD837A3E
:10079000247B08120A757402120CDE7508047808AE
:1007A000120D627402120DBD12098C120CDE1209B8
:1007B0009C120DBDE0687003A3E069702285188269
:1007C000851983E064FF7004A3E064FF601185185D
:1007D00082851983E07002A3E060047901800279C8
:1007E000007405120CDE7F0C020C5574F3120AFE25
:1007F00074FC120D11900306E0FA900307E0F9EA89
:10080000F8E428FE740839FF750A017509007508B7
:10081000008E0C8F0D7409780C120D83A90C74FFD7
:100820005EF50C74015FF50D900383E0120C8D01F1
:1008300002240939086108A308EA7002E50D700373
:10084000120AE7750C10750D00780C120D627C0809
:100850007D03EEFAEFFB120A757402120CDE020938
:1008600024E9C394794006750901020924750A40F8
:10087000750B00780A120D627C097D037402780CF6
:10088000120D3CAA0CAB0D120996120CDE90030758
:10089000E0900308F0900306E0900307F0750A4328
:1008A000020924750C04750D00780C120D62740297
:1008B000120DBD12098C120CDE7402120DBDE0F88F
:1008C000A3E0F9851882851983E0687003A3E069C5
:1008D000603B12099C120DBDE8F0A3E9F0750C0114
:1008E000780C120D627402120DBDAC82AD837A24B5
:1008F0007B08120A757402120CDE750C04780C1257
:100900000D627402120DBD12098C120CDE12099CCC
:10091000120DBDE0687003A3E069700575080180E1
:1009200003750907900305E0D2E7F0E50990030697
:10093000F0E50A900303F0744D650AF50974042587
:100940000AFB7A038004E062090AEAF83395E012B0
:1009500009808B0AC3E8950AE99400A2D265D033D6
:1009600040E4E509F074012AFC3395E0FD7A027B4E
:10097000031204C3A9087404120CDE7F06020C558E
:10098000F9E82402F582E93403F58322AC82AD83D1
:100990007A907B0079041209EC7402228518828512
:1009A0001983E0F8A3E0F9740222EEC0E07E087437
:1009B000805BFDE47001ED6004D2F08002C2F0A221
:1009C000F0E492E0FCEAC333FAEB33FBE9A2E75030
:1009D0000474014AFAEC600874216AFA74106BFB23
:1009E000E9C333F91EEE70C7D0E0FE2274F5120A97
:1009F000FE8908740B120DBDE0FEA3E0FF740F55D5
:100A000008F50A750B00740B780A120D3C2AF8746D
:100A1000803BF9E428E50B39F9E5C7F509A2AFE415
:100A200092E0F50AC2AFE508C4540FC0E074F8556F
:100A3000C7FAD0E04AF5C7801C88828983E08C829F
:100A40008D83F088828983A3A882A9838C828D8379
:100A5000A3AC82AD83EEFAEFFB74FF2A1E74FF3B5A
:100A6000FFEA7001EB70D28509C7E50AA2E092AFF8
:100A70007F04020C5574F7120AFE7409120DBDE0D2
:100A8000F508A3E0F509ED900388F0EC900389F0F8
:100A9000746290038AF0747390038BF090038CE07F
:100AA000541FF0E508333354FC90038DF07406783E
:100AB00008120D83E50890038CF0741290038EF0F9
:100AC000744290038FF075D1FE75D601EA90627181
:100AD000F0EB906272F0906270E0D2E1F0E0A2E799
:100AE00040FB7F02020C55C082C083E9C333906291
:100AF00072F0906270E0D2E0F0D083D082222518AC
:100B0000C582C0E0E51934FFC583C0E0E518C39590
:100B10008224F9F8E4C5A8858319858218C5A8E858
:100B2000CEF0A3E520F0A37808E608F0A3DEFAEF04
:100B3000F0A3E58124FBF8E608F0A3E608F0A3089B
:100B400008E608F0A3E608F0A315811581D0E0FEC1
:100B5000D0E0F815811581E8C0E0EEC0E022C0D0F9
:100B60002518C582C0E0E51934FFC583C0E0E5184B
:100B7000C3958224F310AF088583198582188008F5
:100B8000858319858218D2AFC8F0A3E9F0A3EAF0F3
:100B9000A3EBF0A37908E709F0A3D8FAECF0A3EDF2
:100BA000F0A3EEF0A3EFF0A3D0E0F0A3D0E0F0A329
:100BB000D0E0F0A3E520F0A3E5F0F0A322851983AF
:100BC000851882E0C0E0A3E0F9A3E0FAA3E0FBA36C
:100BD0007808E0F608A3DFFAE0FCA3E0FDA3E0FE5E
:100BE000A3E0FFA3E0C0E0A3E0C0E0A3E0F5D0A352
:100BF000E0F520A3E0A3F5F0E4C5A885831985827C
:100C000018C5A8D082D083D0E0F8D0E032120DCC45
:100C1000B90003020C4FE4900302789E790380022E
:100C2000F0A3D8FCD9FA90059FAA82AB8390008EDE
:100C3000782979018015E493A3AC82AD838A828BF5
:100C400083F0A3AA82AB838C828D83D8E9D9E71283
:100C50000307120DC7851983851882E0A3FEE0A360
:100C6000F5207808E0A3F608DFFAE0A3FFE0A3C0D0
:100C7000E0E0A3C0E0E0A3C0E0E0A3C0E0E4C5A8DA
:100C8000858218858319C5A8D083D08222D083D0CD
:100C900082C5F0E493A3C5F0C395F0F5F0E493A307
:100CA000C395F04005E5F0048001E475F002A42549
:100CB00082F582E5F03583F583E493A3C0E0E49305
:100CC000C0E0222518F58210AF08F518400215196A
:100CD0008008F51840021519D2AF85198322C0D0BB
:100CE000251810AF08F518500205198008F518509E
:100CF000020519D2AFD0D0226016080808C6C31367
:100D0000C618C613C618C613C618C613C6D5E0EA59
:100D100022251810AF08F518400215198008F5189B
:100D200040021519D2AF22E066701008A3E0667089
:100D30000A08A3E066700408A3E06622700422603B
:100D40000D18C6C333C608C633C6D5E0F41822E072
:100D500026F608A3E036F608A3E036F608A3E03648
:100D6000F62274028000C0E0F404120CC3D0E0123A
:100D70000DB022C3E7960809E7960809E796080927
:100D8000E79622600C08C6C313C618C613C6D5E082
:100D9000F422E0F608A3E0F608A3E0F608A3E0F6E4
:100DA0002275D000758140751802751903020C0D6B
:100DB000CAC0E0E6F0A308DAFAD0E0FA222518F576
:100DC00082E43519F5832200000080FB790122FFBF
:100DD000FFFFFFFFFFFFFFFFFFFFFFFFFFFFFFFF23
:100DE000FFFFFFFFFFFFFFFFFFFFFFFFFFFFFFFF13
:100DF000FFFFFFFFFFFFFFFFFFFFFFFFFFFFFFFF03
:100E0000FFFFFFFFFFFFFFFFFFFFFFFFFFFFFFFFF2
:10200000022AA90221F3FFFFFFFFFFFFFFFFFFFFEF
:10201000FFFFFFFFFFFFFFFFFFFFFFFFFFFFFFFFD0
:10202000FFFFFFFFFFFFFFFFFFFFFF0227CCFFFFC8
:10203000FFFFFF022761FFFFFFFFFFFFFFFFFFFF23
:10204000FFFFFF0225B3FFFFFFFFFFFFFFFFFFFFC3
:10205000FFFFFF02212DFFFFFFFFFFFFFFFFFFFF3D
:10206000FFFFFFFFFFFFFFFFFFFFFFFFFFFFFFFF80
:10207000FFFFFFFFFFFFFFFFFFFFFFFFFFFFFFFF70
:10208000FFFFFF02218701FFFFFFFFFFFFFFFFFFB1
:10209000102010200101FF01010503010F10FEFFB8
:1020A0007F377F377F377F37293623367F37E44FB7
:1020B00000000000824F000000000C0000000C0037
:1020C0000100008F3900000000E1388B3A29390106
:1020D0003A000017398A06FF010100421100000092
:1020E000E803BA11E80364006400B80102020008C2
:1020F00000000502070401051E02051E020A0A036C
:10210000B80B02803E010203320001FFFF0A01E02A
:10211000020206FFFFFF000810E8030A090100059C
:102120000001E78101E9810AE01CD51E00C0E074CE
:10213000F2122472A2AFE492E0FED2AFE5A7FAE574
:10214000A1FBEA5B5410600812432B75A1EF802AB3
:10215000EAA2E0C0D0EBA2E092F01229F915818248
:10216000F05017906198E0FA90171FE0C39AA2D23E
:1021700065D0335002EAF075A1FE751A00EEA2E0B8
:1021800092AF7F010224D1C0E074F2122472A2AF98
:10219000E492E0FED2AF9061A4E0FA759B00E59175
:1021A0005A540860087591F712436D802AE5915AD8
:1021B000541060087591EF124373801BEAA2E0C0CF
:1021C000D0E591A2E092F01229F9158182F0500732
:1021D000E0C2E0F01244BD9061A3E0FAE5E95A5490
:1021E00004600E12449375E9FB906193E0A2E6400F
:1021F000F28087C0E074F2122472A2AFE492E0FE93
:10220000D2AF9061A5E0FAE5BF5A5404600675BFED
:10221000FB1244D502217AC3E498F8E499F912221A
:10222000588026C3E49AFAE49BFBE920E7E91222EE
:1022300058E498F8E499F922C3E498F8E499F9127B
:102240002258E498F8E499F9C3E49AFAE49BFB2253
:10225000EB20E7CFE920E7E0B90010BB0008E88AEF
:10226000F084F8AAF022E4FBC8FA22EB70227B107B
:10227000C833C8C933C9335007C39AC3DBF28006D9
:102280009A50012ADBEAC833F4C8C933F4C9FA22E8
:1022900075F008E4C833C8C933C933C99AC99B501B
:1022A00004C92AC93BD5F0ECFBC833F4C8E4C9FA29
:1022B00022080808EAC0E0EBC0E086F0E7A4FA18BC
:1022C0000986F0E7A42AFA180986F0E7A42AFA1882
:1022D0000986F0E7A42AFA1986F0E7A4FBE5F02ABC
:1022E000FA190886F0E7A42BFBE5F03AFA190886FC
:1022F000F0E7A42BFBE5F03AFA18180986F0E7A4FA
:10230000C5F02BFBE43AFA1908E7C5F0C6A426F697
:10231000E5F03BFBE43AFA1886F0E7A4F6E5F008AE
:1023200026F6E43B08F6E43A08F6D0E0FBD0E0FA03
:1023300022E4CFC0E0E4CEC0E0E4CDC0E0E4CCC015
:10234000E075F020C3E633F608E633F608E633F628
:1023500008E633F6181818EC33FCED33FDEE33FEC7
:10236000EF33FFC3EC9709ED9709EE9709EF971943
:102370001919400FFFEC97FC09ED97FD09EE97FE48
:10238000191906D5F0BEECF709EDF709EEF709EFDC
:10239000F7191919D0E0FCD0E0FDD0E0FED0E0FF45
:1023A00022122B0DB900030223F6E49004D1787EAB
:1023B000791A8002F0A3D8FCD9FA781A9020867A8C
:1023C00001BA00028007E493A3F608DAF9901E4EE2
:1023D000AA82AB83902094789A79018015E493A324
:1023E000AC82AD838A828B83F0A3AA82AB838C827A
:1023F0008D83D8E9D9E77582107583AD74061228EC
:102400002975821575834A74001228292518C582FA
:10241000C0E0E51934FFC583C0E0E518C395822408
:10242000F8F8E4C5A8858319858218C5A8E8CEF018
:10243000A3E520F0A37808E608F0A3DEFAEFF0A306
:10244000E58124FAF8E608F0A3E608F0A3E608F030
:10245000A30808E608F0A3E608F0A315811581D0CB
:10246000E0FED0E0F8158115811581E8C0E0EEC0EE
:10247000E022C0D02518C582C0E0E51934FFC5832D
:10248000C0E0E518C3958224F310AF088583198551
:1024900082188008858319858218D2AFC8F0A3E915
:1024A000F0A3EAF0A3EBF0A37908E709F0A3D8FAC8
:1024B000ECF0A3EDF0A3EEF0A3EFF0A3D0E0F0A3D7
:1024C000D0E0F0A3D0E0F0A3E520F0A3E5F0F0A386
:1024D00022851983851882E0C0E0A3E0F9A3E0FA21
:1024E000A3E0FBA37808E0F608A3DFFAE0FCA3E092
:1024F000FDA3E0FEA3E0FFA3E0C0E0A3E0C0E0A3F3
:10250000E0F5D0A3E0F520A3E0A3F5F0E4C5A885AD
:102510008319858218C5A8D082D083D0E0F8D0E096
:1025200032D083D082ECC0E0EDC0E0E493A3FCE4C1
:1025300093A3FDED4C600D1225F7EC24FFFCED3468
:10254000FFFD80EFE493A3FCE493A3FDED4C600D4D
:1025500012270CEC24FFFCED34FFFD80EFD0E0FDF2
:10256000D0E0FCE493A3C0E0E493C0E022D083D0A9
:1025700082E9C0E0E493A3C386F0C5F095F0F908C2
:10258000E493A386F0C5F095F0700BE493A3C39990
:102590004005E9048002A3E475F002A42582F582D7
:1025A000E5F03583F583D0E0F9E493A3C0E0E4934C
:1025B000C0E022C0E074F2122472A2AFE492E0FE06
:1025C000D2AFC2C0901D46E0700BE5D1A2E4501D11
:1025D00012428F8018E5D1A2E3500675D1F712425E
:1025E00065E5D1A2E4500675D1EF12426BEEA2E090
:1025F00092AF7F010224D1C0E0C3E4939608740136
:10260000939618400FE49366700808740193661857
:1026100070007019A3A3C3E49396087401939618ED
:10262000A3A3400DD0E0D0E0D0E002255DA3A3A39A
:10263000A3A3A3D0E022851983851882E0A3FEE03E
:10264000A3F5207808E0A3F608DFFAE0A3FFE0A3F3
:10265000C0E0E0A3C0E0E0A3C0E0E0A3C0E0E0A3EE
:10266000C0E0E4C5A8858218858319C5A8D083D0A9
:102670008202282FD083D082C5F0E493A3C5F0C393
:1026800095F0F5F0E493A3C395F04005E5F00480E0
:1026900001E475F002A42582F582E5F03583F58327
:1026A000E493A3C0E0E493C0E022740480087403C0
:1026B000800474028000CCC0E0EDC0E0E518C39C4B
:1026C000CCAD1950011D10AF068C188D1980068CE9
:1026D000188D19D2AF1227ABD0E0FDD0E0FC2274E8
:1026E000028000CCC0E0EDC0E0E518C39CCCAD1981
:1026F00050011D10AF068C188D1980068C188D198D
:10270000D2AF122789D0E0FDD0E0FC22C0E0C0F0BB
:1027100088F0E4936670080874019366187000A846
:10272000F0A3A3700BD0F0D0E0D0E0D0E002255DA4
:10273000A3A3D0F0D0E022D083D082CCC0E0E49339
:10274000A360061227EB1470FAE493A36006122923
:10275000301470FAD0E0FCE493A3C0E0E493C0E04E
:1027600022C0E074F2122472758B00C2E8901D46FC
:10277000E0700E7A007B10901D45E0F9123BC3809B
:10278000031248957F010224D1CAC0E0E493A3C597
:1027900082CCC582C583CDC583F0A3C582CCC5825A
:1027A000C583CDC583DAE5D0E0CA22CAC0E0E0A384
:1027B000C582CCC582C583CDC583F0A3C582CCC5F7
:1027C00082C583CDC583DAE6D0E0CA22C0E0C0D09E
:1027D000EAC0E0A2AFE492E0D2AFC2C7751A00A28D
:1027E000E092AFD0E0FAD0D0D0E032C0E0E493A3E2
:1027F000D39C5010E493A3C39C400AD0E0D0E0D017
:10280000E0022754A3A3A3D0E022700908080822FD
:102810006016181818C6C333C608C633C608C633B0
:10282000C608C633C6D5E0EA22C09FF59FE473D040
:102830009F22D083D082C09FE493C0E0740193C0F4
:10284000E0740293F59F22C5822518C582C58335A1
:102850001910AF07F5198582188007F519858218B8
:10286000D2AFC583222518F58210AF08F5184002B3
:1028700015198008F51840021519D2AF8519832261
:102880007404800A74038006740280027401C0E03C
:10289000F404122865D0E0122AF322BB0102E722D9
:1028A000C082C08389828A83BB0003E08002E493F4
:1028B000D083D082226017080808C6A2E713C61882
:1028C000C613C618C613C618C613C6D5E0E922C07B
:1028D000D0251810AF08F518500205198008F51812
:1028E00050020519D2AFD0D0226016080808C6C31E
:1028F00013C618C613C618C613C618C613C6D5E025
:10290000EA22C3E0C696F608A3E0C696F608A3E05E
:10291000C696F608A3E0C696F622251810AF08F56D
:1029200018400215198008F51840021519D2AF2277
:10293000C0E0E493A36C7009D0E0D0E0D0E00227BF
:1029400054A3A3D0E022C3E09608A3E09608A3E036
:102950009608A3E096A2D265D03322C3E796080971
:10296000E7960809E7960809E796A2D265D03322D0
:10297000E066701008A3E066700A08A3E0667004C1
:1029800008A3E06622C3E697F60809E697F6080969
:10299000E697F60809E697F622C3E096F008A3E06A
:1029A00096F008A3E096F008A3E096F022E627F65A
:1029B0000809E637F60809E637F60809E637F62289
:1029C000E026F608A3E036F608A3E036F608A3E012
:1029D00036F622E026F008A3E036F008A3E036F051
:1029E00008A3E036F022E657F60809E657F608098C
:1029F000E657F60809E657F622C0E0E8C0E0E581B0
:102A000024FCF8E6A2E7D0E0F8D0E02270042260CF
:102A10000D18C6C333C608C633C6D5E0F41822E085
:102A200056F608A3E056F608A3E056F608A3E056CB
:102A3000F622E056F008A3E056F008A3E056F008AE
:102A4000A3E056F022E647F60809E647F60809E64D
:102A500047F60809E647F622E4C396F608E496F638
:102A600008E496F608E496F622C3E7960809E79686
:102A70000809E7960809E79622C6F4C608C6F4C610
:102A800008C6F4C608C6F4C622600D08C6A2E7133D
:102A9000C618C613C6D5E0F322C3E09608A3E09695
:102AA00008A3E09608A3E0962275D00075814075D2
:102AB00018D1751904000223A1600C08C6C313C6FF
:102AC00018C613C6D5E0F422E0F608A3E0F608A382
:102AD000E0F608A3E0F622E6F008A3E6F008A3E695
:102AE000F008A3E6F022C58224FDC582C58334FF29
:102AF000C58322CAC0E0E6F0A308DAFAD0E0FA22E1
:102B0000C5822518C582C5833519C5832274F85539
:102B1000C74401F5C77901222518F582E43519F576
:102B20008322C2AF75D69F0200002212283235A739
:102B300002122832C6A702122832BEA80212283278
:102B4000CFA802122832E7A802122832F8A80212EF
:102B5000283205A90212283268A90212283290A947
:102B6000021228323DAB0212283205AC0212283282
:102B700072AC02122832BAAC0212283215AD02121F
:102B800028326BAD0212283295AD0212283216AEF1
:102B90000212283271AE02122832E6AE0212283238
:102BA000E8B002122832A9B2021228325FB3021230
:102BB0002832A7B4021228322BB70212283257BA91
:102BC0000212283264BA02122832F6BA02122832ED
:102BD000B6BB02122832FEBB0212283276BC0212A9
:102BE000283295BC02122832C8BC02122832FDBC21
:102BF00002122832CDBD0212283295BE02122832AE
:102C000026C1021228329EC2021228323AC3021290
:102C10002832C6C302122832E1C30212283233C45A
:102C20000212283209C502122832D1C502122832F6
:102C3000ABC70212283233C80212283273C80212FC
:102C40002832F3C9021228322BCA02122832A6CA2D
:102C5000021228328ACB0212283239CC02122832D0
:102C600077CC021228328CCC0212283227CD0212E5
:102C7000283256CF021228321BD10212283239D103
:102C80000212283257D10212283213D202122832ED
:102C90002CD502122832008003122832338003120E
:102CA0002832528003122832748003122832868020
:102CB00003122832A5800312283211810312283210
:102CC0009E8103122832708203122832BC820312C2
:102CD0002832FB82031228321883031228326283BF
:102CE000031228329D8303122832B883031228323C
:102CF000DC8303122832FF83031228323A84031242
:102D000028327A84031228329D8403122832EC84FC
:102D100003122832C685031228327786031228321E
:102D2000078703122832F787031228323A880312E2
:102D300028325E8803122832B08803122832D588E0
:102D400003122832108A03122832848A031228328E
:102D5000A78A03122832CA8A03122832F28A03127F
:102D60002832048B031228320E8B03122832A18BD7
:102D700003122832FE8B03122832A78C031228324A
:102D8000AF8C03122832198D03122832548D03128E
:102D90002832968D03122832A68D03122832868E91
:102DA00003122832118F03122832688F031228323F
:102DB000359003122832AB9003122832E8900312A8
:102DC00028324B9103122832A19203122832C19269
:102DD00003122832239303122832C093031228329D
:102DE000199403122832A89403122832649503120E
:102DF0002832A295031228321196031228327F96A8
:102E000003122832B79603122832EB9703122832A6
:102E10003E99031228329F9903122832E89903122F
:102E20002832109A03122832939A03122832109BE8
:102E300003122832839B03122832A89B03122832E4
:102E4000B99B031228322D9C03122832C89C03120E
:102E500028320A9D03122832A09D03122832C79DF2
:102E600003122832E69E03122832079F03122832EB
:102E70001A9F03122832689F03122832D49F03122C
:102E8000283215A0031228328BA1031228322AA35C
:102E90000312283239A3031228327DA403122832E8
:102EA000FDA40312283245A6031228328FA603126E
:102EB0002832D4A603122832B8A703122832F4A964
:102EC00003122832FEA90312283208AA031228325C
:102ED00012AA031228321CAA0312283236AA03129D
:102EE000283240AA031228324AAA0312283254AACE
:102EF000031228325EAA0312283283AA0312283250
:102F0000D1AA03122832DBAA03122832FFAA031225
:102F1000283223AB0312283280AB03122832D7ABFE
:102F200003122832F5AB0312283265AC03122832A3
:102F3000A6AC03122832EDAC0312283255AD0312B1
:102F4000283220AE03122832EBAF031228323BB0F6
:102F50000312283269B1031228328FB103122832CA
:102F600016B303122832C0B60312283292B80312E5
:102F7000283265BA03122832F1BA0312283234BC5F
:102F800003122832E8BC031228322DBD0312283266
:102F900098BD03122832A2BD03122832FDBF0312CE
:102FA00028320BC10312283262C203122832B9C27E
:102FB000031228326FC30312283255C40312283279
:102FC000FBC5031228321AC60312283276C6031232
:102FD000283252C70312283277C703122832C9C7D2
:102FE00003122832B5C803122832EDC80312283262
:102FF0002DC9031228328CC903122832ABCA03121E
:1030000028320BCB03122832F3CB0312283208CE1E
:10301000031228322ACE03122832C0CF03122832DC
:1030200006D003122832DAD00312283276D10312E6
:103030002832BED1031228326DD203122832FBD2BD
:10304000031228327FD303122832EED30312283220
:10305000EC8101122832488201122832D1840112F7
:1030600028320F85011228325B85011228328586AD
:1030700001122832DF860112283217870112283206
:10308000578701122832C88801122832488B011252
:103090002832748C01122832088D01122832C99509
:1030A000011228325D9601122832DD980112283271
:1030B000FF9901122832A49A01122832BE9B0112F4
:1030C0002832EF9C01122832E29D0112283201A120
:1030D0000112283203A30112283263A301122832FD
:1030E00017A401122832BDA401122832E7A401124C
:1030F00028327BA5011228325BA60112283236A79E
:1031000001122832C5A7011228321CA80112283248
:1031100031A8011228325EA80112283280A80112BB
:1031200028328BAA0112283273AB01122832C4ABA9
:103130000112283235AC01122832E3AC01122832D8
:1031400018AD0112283266AD0112283296AD011277
:103150002832D4AD0112283238AE011228323DAEE9
:103160000112283298AE01122832C0AE0112283264
:10317000F5AF0112283256B001122832C0B0011248
:1031800028324DB101122832AFB40112283288B56D
:103190000112283218B7011228326AB901122832F6
:1031A00012BA01122832C9BA0112283287BC0112A0
:1031B000283229BD0112283271BD011228320FBFF9
:1031C0000112283223BF011228323DBF01122832DA
:1031D00058BF0112283264BF0112283282BF011287
:1031E0002832B6C101122832EDC101122832FAC1CB
:1031F0000112283203C20112283277C2011228328A
:10320000DAC201122832EFC30112283255C401126A
:10321000283248C5011228328CC5011228321EC638
:103220000112283217C701122832DBC701122832D7
:1032300070C9011228327BCA0112283216CB011242
:10324000283299CB01122832B0CB01122832E9CBB7
:1032500001122832F3CB01122832FDCB01122832A1
:1032600009CC0112283227CC011228326BCC011272
:103270002832BCCC01122832DDCC01122832F7CC26
:10328000011228326FCD01122832ABCE0112283242
:10329000FFCE01122832F2CF0112283218D00112CB
:1032A00028327BD001122832DCD001122832EFD133
:1032B00001122832FED2011228329CD30112283288
:1032C00068D40112283207D5011228329ED5011286
:1032D00028326ED6011228329DD60112283208D724
:1032E00001122832B0D701122832D6D70112283263
:1032F00048D8011228326DD80112283290D8011214
:103300002832DDD801122832B9DA011228329CDBCA
:10331000011228325ADC01122832BEDE0112283294
:1033200012DF0112283255DF01122832C4DF0112E8
:10333000283237E00112283290E001122832B6E03C
:1033400001122832F1E0011228321DE10112283267
:1033500068E101122832CBE10112283246E2011263
:1033600028323CE301122832CCE40112283239E53C
:103370000112283262E501122832E4E501122832F6
:1033800040E60112283279E601122832CEE6011217
:103390002832F3E60112283239E70112283256E7C3
:1033A0000112283204E8011228323EE801122832C4
:1033B00002C8061228325FF7051228327A840612F4
:1033C0002832C28506122832EA7900122832A3D99F
:1033D00006122832EDD3061228323BDD06122832BF
:1033E0003FB305122832E488061228326F91061284
:1033F0002832EF91061228320ADE061228329695FC
:1034000006122832DCC90612283299B00612283278
:1034100019B6061228329AA506122832B4A5061249
:1034200028322DA70612283255A706122832D2E5D7
:10343000061228323EE8061228324EE706122832DB
:1034400094DF06122832E5C3061228322CEB06124E
:10345000283265EC0512283298DB06122832AAE2DF
:1034600006122832F5E706122832A4EA061228329C
:10347000F1E60612283207E50612283253E9061251
:10348000283274EA0612283236E6061228326DE532
:1034900006122832CEE806122832DFFF0512283243
:1034A000C5FF011228322CE40612283221CD061263
:1034B000283210EA0612283211E90612283295E95C
:1034C00006122832BAE306122832E8E3061228323E
:1034D0009DE40612283285CB0612283213FF021211
:1034E0002832B07F00122832AAE70612283265D1AE
:1034F0000612283235E3061228329ECE06122832F2
:1035000042EA0612283232F60212283276F6021207
:10351000283297F602122832DBF60212283245F7DB
:10352000021228324FF7021228325FF702122832B5
:1035300094F702122832BFFA0212283279FC0212E2
:10354000283265FE02122832748004122832AE80BE
:103550000412283281810412283257820412283240
:103560008683041228320F85041228328D850412B6
:103570002832538604122832748704122832E687D0
:1035800004122832488804122832AA8804122832E9
:10359000B48804122832F288041228325B8904129B
:1035A0002832FA8904122832788A041228322B8BA6
:1035B000041228329D8B04122832C38B0412283245
:1035C000F38B04122832208C04122832C68C041289
:1035D0002832D68C04122832298D04122832358DD7
:1035E00004122832418D041228324A8D04122832E6
:1035F000AD8D041228320D8E041228325E8E041214
:103600002832798E04122832A98E04122832CA8EEA
:1036100004122832D68E041228325D900412283209
:103620007B9004122832E49004122832F79004129E
:1036300028320891041228329B91041228329E925B
:103640000412283294930412283217940412283258
:103650002094041228328394041228329A9404127B
:103660002832DC9404122832219504122832509515
:1036700004122832879504122832A49504122832A5
:10368000C89504122832099604122832FC960412B6
:1036900028324297041228327D9704122832DC9790
:1036A000041228320498041228323D980412283259
:1036B0004B9804122832AC9804122832E99804126C
:1036C00028322B99041228325C99041228329099DE
:1036D000041228329B9904122832B9990412283214
:1036E000829A041228328C9A04122832CB9A04123D
:1036F0002832E19A04122832EA9A04122832549BA2
:1037000004122832689B04122832609C041228326A
:10371000739C041228328C9C04122832A19C04123F
:103720002832419D04122832A59D041228326C9E35
:1037300004122832779E04122832969F04122832EF
:10374000B29F041228320AA00412283241A00412A7
:1037500028325BA004122832CFA00412283260A1C4
:1037600004122832A8A104122832CDA30412283250
:1037700037A404122832A2A404122832E8A60412A4
:103780002832F8A604122832FBA60412283207A712
:10379000041228321BA70412283223A7041228324D
:1037A00068A70412283216A80412283286A8041228
:1037B0002832EAA80412283283A9041228321DAA4A
:1037C000041228324BAA04122832EAAA0412283220
:1037D000F6AA0412283225AB0412283228AB0412B0
:1037E000283257AB041228326CAB04122832E3ABF8
:1037F00004122832D3AC04122832ABAD04122832A2
:1038000035AE0412283256AF0412283208B0041222
:10381000283241B00412283272B0041228327BB030
:1038200004122832B7B0041228329EB10412283292
:103830001AB204122832AAB20412283274B3041243
:103840002832F8B3041228322EB40412283277B486
:1038500004122832ADB404122832949F0512283283
:10386000A69F051228321AA00512283250A0051270
:103870002832A7A0051228328EA2051228326CA485
:1038800005122832E3A70512283285A8051228322E
:10389000BCA805122832E0A80512283242A9051258
:1038A000283276A905122832B3A905122832E3A9D5
:1038B000051228321BAA05122832B899061228329E
:1038C000D79906122832229A061228326C9A0612CA
:1038D00028320F9B06122832469B061228323E924F
:1038E00005122832F392051228323F93051228322E
:1038F000C69305122832B796051228325098051241
:103900002832EF9805122832479905122832D69CA2
:1039100005122832609E051228320CD00612283279
:1039200038D00612283234D106122832D4E60512D5
:1039300028324EE70512283265E705122832DFE704
:103940000512283235E80512283244E805122832DB
:10395000EFE80512283286E905122832CCE9051273
:1039600028323CEA0512283254EA051228329EEA2F
:1039700005122832CDEA05122832EDEA0512283266
:1039800019EB0512283249EB05122832ADEB05126E
:103990002832A2D3051228321FD4051228323FD470
:1039A0000512283266D4051228327AD4051228323C
:1039B000D2D40512283202D505122832F7D50512C5
:1039C0002832BCD6051228320ED70512283266D707
:1039D00005122832A3D70512283206D8051228323C
:1039E000FDD90512283274DA0512283270A00212AD
:1039F000283263BD061228326ABD061228328FBDF6
:103A0000061228321EF1031228328DF303122832D7
:103A1000C4F403122832B1F6031228320AF7031253
:103A20002832BDF7031228320EF8031228324CF860
:103A30000312283208F9031228327BF903122832C4
:103A40007DF9031228327FF9031228322DA50212C4
:103A50002832B9F903122832BBF903122832F2F9DD
:103A6000031228321CFA03122832D8FB0312283220
:103A70000AFC0312283285FC03122832A0FD03122F
:103A800028326DFE0312283200800512283214807D
:103A9000051228321A81051228325F810512283258
:103AA0008A8105122832AE8105122832CF81051293
:103AB00028320582051228324582051228326D838C
:103AC00005122832988305122832DF830512283226
:103AD0001E8405122832D78405122832FD8405126F
:103AE00028323C8605122832BE8605122832D0873D
:103AF000051228321588051228323F88051228320F
:103B00004A8905122832F88905122832568A051288
:103B10002832C28A05122832F48A05122832528BC2
:103B200005122832B88B05122832E68B051228328E
:103B3000138D051228323E8D05122832708D051224
:103B40002832B38D05122832CC8D05122832898E89
:103B5000051228325B8F051228320C90051228328C
:103B6000A39005122832599105122832ECDA051279
:103B7000283238DB05122832A8DB05122832C5DBD3
:103B80000512283287DC0512283290DC0512283213
:103B9000E6DC0512283211DD0512283276DD051229
:103BA000283212DE051228324FDE05122832A0DE3E
:103BB00005122832FADE051228322ADF05122832D1
:103BC000ACDF05122832F9DF051228322BE005128E
:103BD000283260E00512283270E00512283280E0B9
:103BE00005122832C5E005122832FEE005122832FF
:103BF000A2D806122832FAC5061228325EC606126C
:103C0000283285C6061228328BC70612283292E85F
:103C100001122832C6E90112283216EA01122832AE
:103C2000DBEB011228321BEC0112283293EE011259
:103C30002832DAEE0112283270F00112283211F126
:103C40000112283271F101122832F3F101122832E7
:103C500027F2011228326AF201122832E8F3011227
:103C600028327CF501122832BDF701122832E7F71D
:103C70000112283222F8011228322CF801122832BF
:103C800089F8011228320CF90112283265FC011260
:103C900028328AE106122832A0E106122832AAE16F
:103CA00006122832F2E106122832B4A10612283296
:103CB000CCA10612283274A206122832B5A206122E
:103CC0002832D2A206122832F8A2061228323FA3C6
:103CD0000612283275A306122832ACA30612283227
:103CE0003EA50612283282A50612283266D6061292
:103CF0002832C0D60612283213D7061228324EE0D8
:103D0000061228328BE006122832D0E00612283242
:103D1000E5E006122832A0E704122832EBE704128D
:103D2000283274E80412283271E9041228321FEA9A
:103D300004122832DCEA04122832F1EA0412283292
:103D40003BEB041228328CEB04122832D5EB041220
:103D50002832E8EB0412283241EC041228329EEC9F
:103D600004122832ADEE04122832C4EF04122832B5
:103D7000FFEF0412283248F00412283268F20412CD
:103D8000283203F304122832A0F304122832B0F3CD
:103D900004122832C3F30412283204F40412283225
:103DA00036F40412283296F404122832A6F40412CF
:103DB0002832CEF40412283232F504122832F4F6F6
:103DC000041228320CF70412283237F70412283272
:103DD0005EF7041228326EF70412283291F70412AB
:103DE0002832CEF70412283238F804122832EFF8BD
:103DF0000412283220F9041228322AF90412283237
:103E00002DF9041228324AF904122832BFF904129B
:103E10002832E9F90412283206FA041228326EFA1E
:103E200004122832A9FA04122832BBFA04122832EA
:103E3000C5FA0412283202FB04122832A4DA061250
:103E40002832B5DA0612283246DB06122832FACBBF
:103E5000051228324BCC051228320ECE051228321C
:103E6000DCCF0512283226D00512283225D10512C2
:103E7000283274D20512283292D205122832E6D2A4
:103E8000051228326ED305122832895300122832C7
:103E9000B75300122832155500122832605500120F
:103EA0002832B55500122832415600122832A15648
:103EB00000122832ED56001228325D5700122832C7
:103EC000065800122832835800122832BF580012B8
:103ED00028329A5C00122832645E001228329E5EFC
:103EE000001228320C5F001228324E620012283273
:103EF000E46200122832966400122832A76500128C
:103F00002832C96600122832226700122832E1677F
:103F1000001228327C680012283290680012283281
:103F20004F6900122832696A00122832486C001268
:103F30002832DC6E00122832656F00122832807041
:103F400000122832A97300122832B97300122832E5
:103F50002A7500122832A57500122832DC7600126C
:103F600028323B7700122832C47800122832437975
:103F70000012283222B504122832D6B50412283293
:103F80004CB60412283264B60412283200B7041268
:103F9000283242B70412283240B8041228326CB8D2
:103FA00004122832D3B80412283224B90412283259
:103FB00081B90412283283BC0412283208BD0412CD
:103FC00028328BBD0412283229BF04122832D6BFF2
:103FD000041228327AC004122832CFC004122832C8
:103FE00045C1041228326FC20412283245C304129C
:103FF000283288C304122832C5C304122832EDC304
:104000000412283231C404122832C9C404122832DE
:104010003BC604122832E9C704122832FFC8041232
:1040200028325BCA041228327ECB0412283219CC03
:104030000412283289CC041228328CCD0412283282
:104040004AD502122832CCD50212283240D60212AA
:10405000283294D60212283221D70212283244D8AC
:1040600002122832B1D80212283213D90212283291
:104070004FD902122832B8D90212283225DA021298
:1040800028329CDA02122832FEDA0212283270DB61
:1040900002122832A5DB021228320BDC021228326F
:1040A00010DD0212283228DE0212283244DE02120B
:1040B000283285DE0212283227DF02122832F4DF8E
:1040C000021228320FE0021228323FE00212283298
:1040D000A0E002122832CBE0021228326BE1021279
:1040E00028327FE102122832B0E102122832CEE1FA
:1040F00002122832FEE1021228321FE20212283296
:1041000047E2021228325FE20212283261E3021211
:1041100028327FE40212283239E502122832FBE508
:104120000212283239E60212283269E602122832D7
:10413000C8E702122832F8E7021228325AE80212BF
:104140002832C0E80212283205E9021228325FEA5A
:1041500002122832A6EA021228326AEC021228322F
:1041600035ED02122832B0EE02122832BEEF0212F2
:1041700028324CF1021228327EF1021228325EF20D
:104180000212283240F3021228329DF30212283222
:10419000B5F30212283287F4021228328BF502128C
:1041A0002832E6FC011228321FFD01122832CEFD12
:1041B0000112283234FE01122832A5FE01122832E3
:1041C0002DFF011228328AAD06122832D1AE061216
:1041D00028326ADC061228327BDC0612283223DD04
:1041E00006122832EFFF0412283246EB061228325C
:1041F0001CE2061228322CE20612283241E2061294
:1042000028329AE2061228328ED70612283217D8A0
:104210000612283289D80612283259EB06122832A3
:104220005CEB06122832E7FF02122832F7FF021277
:104230002832FAFF02122832FDFF02122832F87FDC
:10424000001228320FBB0612283282BC0612283216
:1042500006BD0612283255BD0612283203EB06129F
:1042600028320CEB0612283215EB0612283223EB0B
:104270000612283232E105122832B1E10512283245
:1042800069E2051228325BE3051228324CE505127B
:104290002832A2E505122832F4E5051228320DE68F
:1042A000051228321BE60512283283E60512283251
:1042B00096E605122832A1E605122832AFE605126D
:1042C0002832C1E60512283235FB041228328AFB57
:1042D000041228329EFD04122832D6FD0412283220
:1042E000FBFD0412283214FE041228322DFE0412A3
:1042F000283222FF04122832B0FF04122832C2C131
:104300000612283205C20612283216C206122832B8
:1043100049C20612283281C206122832B9C20612D8
:104320002832D0C20612283238C3061228326BC394
:10433000061228326FB3061228329AB306122832B8
:10434000E1B306122832F0B3061228320FB4061277
:10435000283279B40612283282B406122832E3B425
:104360000612283207B506122832CDB506122832B9
:10437000DAB506122832EBB506122832D4E9061255
:104380002832F1E906122832468D06122832598D5C
:1043900006122832D08E06122832DD8E06122832FE
:1043A000F68E06122832098F06122832238F061243
:1043B0002832428F06122832C18F0612283281908D
:1043C00006122832F3900612283250910612283233
:1043D000609106122832EFE00612283214E106122C
:1043E00028323DE10612283265E10612283294BFD8
:1043F00006122832BBBF06122832E2BF061228324C
:1044000052C006122832ABB806122832C4B80612BF
:104410002832D0B806122832D9B806122832FDB890
:104420000612283209B90612283218B906122832A3
:1044300036B90612283288B906122832C2B90612D5
:104440002832F7B90612283246BA0612283292BA32
:1044500006122832AABA06122832B4BA0612283234
:10446000C5BA0612283209BB0612283294E6061293
:104470002832E5E606122832DFBB051228320BBCD3
:104480000512283227BC051228323ABC0512283200
:1044900050BC05122832BCBC05122832F6BC0512ED
:1044A000283264C00512283283C105122832B4C1F3
:1044B0000512283216C205122832F1C2051228321E
:1044C00019C3051228322EC3051228323EC3051225
:1044D00028327FC305122832D4C305122832E4C320
:1044E00005122832AAD206122832C5D20612283264
:1044F000EFD2061228320CD30612283234D3061219
:10450000283256D3061228326FD3061228329ED391
:1045100006122832B9D306122832CFDE061228320C
:1045200025DF061228327EA90612283285A9061236
:10453000283292AA06122832C4AA06122832EAAAFF
:10454000061228321DAB061228322FAB0612283273
:104550006AAB06122832DAAB0612283217AC061202
:10456000283264AC0612283292AC06122832B2AC61
:10457000061228322DD5061228324FD506122832BF
:1045800060D60612283263D60612283200FF0312C4
:1045900028325EFF031228329DFF03122832DEFF0D
:1045A000031228320FC40512283215C4051228320E
:1045B0005AC40512283248C60512283281C605128F
:1045C0002832E1C605122832C7C7051228320BC8A7
:1045D0000512283233C805122832B9C8051228320C
:1045E000CEC80512283286CA0512283273CB0512AE
:1045F0002832B9CB051228327BAA0512283291AA9B
:104600000512283236AB0512283255AC0512283275
:1046100026AD05122832C8AD0512283206AE0512A5
:10462000283283AE05122832DEAE051228322FAFB3
:104630000512283256AF05122832AAAF05122832C9
:1046400047B1051228324CB1051228326EB105125D
:10465000283240D403122832D6D40312283253D53C
:1046600003122832CBD50312283205D80312283280
:10467000DFD903122832F4DA03122832AADB03123C
:104680002832B6E0031228329BE1031228322DE2D1
:1046900003122832FEE20312283286E30312283284
:1046A000B7E303122832E2E40312283265E503126D
:1046B000283282E503122832E6E50312283271E639
:1046C00003122832DDE603122832B0E70312283243
:1046D000D0E80312283278E903122832B3E9031232
:1046E000283234EB03122832FFEC0312283273F025
:1046F00003122832E6CE0412283277CF0412283271
:104700001AD0041228320ED104122832E4D1041235
:1047100028323BD20412283283D20412283228D302
:1047200004122832EED30412283254D40412283250
:1047300098D404122832EBD4041228324CD5041237
:10474000283203D70412283220D804122832EAD99A
:1047500004122832BCDA0412283201DC0412283296
:1047600040DD0412283200DE04122832ADDF0412CC
:104770002832B9E104122832E2E1041228320BE2B5
:104780000412283223E20412283256E3041228329B
:10479000C3E3041228320DE4041228323EE404126A
:1047A00028320AE504122832B2E604122832C99DE2
:1047B00006122832F89D06122832419E061228322F
:1047C0005B9E06122832839E061228329A9E06129B
:1047D0002832A79E06122832C49E06122832B19FA4
:1047E00006122832E89F06122832F29F061228325B
:1047F000FF9F0612283207A1061228321DA10612B9
:10480000283226A1061228322FA10612283238A1FA
:104810000612283241A106122832AAA10612283215
:10482000008006122832ED8306122832098406120F
:104830002832E3F105122832D5F205122832F8F4B5
:104840000512283247F6051228329EF60512283244
:1048500009F7051228323CF70512283249F70512EC
:104860002832A1FC0512283219FD0512283251FD0B
:10487000051228325AFE051228327EFE0512283211
:1048800096FE05122832B6FE05122832D7FE051212
:104890002832E7FE05122832FEFE0512283228FFD4
:1048A00005122832B7FF0512283286E80612283290
:1048B000D4EA06122832EA9F021228328E9F021290
:1048C00028326D9F02122832089F02122832B79DAB
:1048D00002122832269D02122832749C02122832BB
:1048E000709B021228322E9B021228320E9B02125B
:1048F0002832569A02122832D898021228329F98EB
:10490000021228327098021228326D980212283250
:104910007797021228325E960212283244950212CC
:1049200028329F9402122832FC93021228321B93E1
:1049300002122832749202122832D99102122832BD
:1049400052A4021228321AA402122832BBA3021265
:104950002832959102122832C5900212283210A2F4
:1049600002122832239002122832119002122832A9
:10497000B4A1021228326E8F02122832FA8E02126D
:104980002832A88E02122832438E02122832108E4C
:10499000021228328CA1021228324AA102122832B5
:1049A0008DF903122832B88D02122832878D021237
:1049B00028329E8A02122832568A021228324A8AE5
:1049C00002122832BD89021228320B8902122832C3
:1049D0009E8602122832078402122832D1830212E4
:1049E00028326D8202122832208202122832598126
:1049F000021228322C8102122832678002122832D9
:104A00003A80021228320080021228322CA10212AF
:104A10002832CEDA0500000080FBE47300000100BC
:104A200004000500100011001400150040004100B2
:104A300044004500500051005400550000010101A0
:104A4000040105011001110114011501400141018A
:104A50004401450150015101540155010004010474
:104A60000404050410041104140415044004410452
:104A70004404450450045104540455040005010540
:104A8000040505051005110514051505400541052A
:104A90004405450550055105540555050010011004
:104AA00004100510101011101410151040104110B2
:104AB00044104510501051105410551000110111A0
:104AC000041105111011111114111511401141118A
:104AD0004411451150115111541155110014011474
:104AE0000414051410141114141415144014411452
:104AF0004414451450145114541455140015011540
:104B00000415051510151115141515154015411529
:104B100044154515501551155415551500400140C3
:104B200004400540104011401440154040404140B1
:104B3000444045405040514054405540004101419F
:104B40000441054110411141144115414041414189
:104B50004441454150415141544155410044014473
:104B60000444054410441144144415444044414451
:104B7000444445445044514454445544004501453F
:104B80000445054510451145144515454045414529
:104B90004445454550455145544555450050015003
:104BA00004500550105011501450155040504150B1
:104BB000445045505050515054505550005101519F
:104BC0000451055110511151145115514051415189
:104BD0004451455150515151545155510054015473
:104BE0000454055410541154145415544054415451
:104BF000445445545054515454545554005501553F
:104C00000455055510551155145515554055415528
:104C1000445545555055515554555555BB4613159A
:104C2000B57014EC8A9BB9DAD0460B18A73613D5A9
:104C3000064565E8C8159D1CC63BBABEF0CAE02A09
:104C4000727D4D10F101562ADE5F84F0EEC79AA303
:104C50006477994AF2EE8A7895A5017A461FC48551
:104C60002A920890874F51564D78BF2663D89505F4
:104C7000A2297331A256A2FF357E94E487577D9610
:104C8000D9C43C38051FD4F15A7ADF69E7ECC46512
:104C9000D726BEA07E8A2F97AB076798D2CD956F97
:104CA0002F4050C0014C3A9BCE91DA0A4A86037FCE
:104CB000B45A39F9CE1FDEFF9D4F0B298DC7D68020
:104CC000D177DD028CCE10CABE1EF2B39412ED9DD8
:104CD0005D69BD073E7369B10766E5464A4009CF85
:104CE000407A319655D822FAB37A3F6CEA02E8EE60
:104CF000945C5E6D4EDE93D707AAAC11BC7B53C0AB
:104D000013FE02D9A3DACC38D53605802E1F3258CF
:104D1000FF385DB00F07890231108AC66D04C08B61
:104D2000455A6B532867E48F6A8F42C10434489117
:104D3000B865E140F4F16255DD0C53D87DFFD587AD
:104D40006104DF13CE292730A3926988534A1D508E
:104D5000746BD1C043830375D6E0E2D7577E589F6A
:104D60001FFAF31F45799261F0588E004A3781DDB2
:104D70002772F512FAD16EECFE738C667F84B0A7B1
:104D800002E1E62385AFCE9BE547905678AC806D77
:104D9000E65F871F7C0044A7724F1A696A34A3B983
:104DA000664BB1ADCCE75FC572FF021511966E5B25
:104DB0001D7C4A01FA95A000D1FDACA9EF0D970723
:104DC0004140535CDE7F2186B9A211CEB7F0275750
:104DD000732272C1010961F12D9B7FA6FDFBB1E633
:104DE000A62A3997164245B95A058F000100D512F7
:104DF00087000100D412240002009E1E250002003C
:104E0000A01E26000200A21E27000200A41E2800E9
:104E10000100A61E29000100A71E84000400A81E90
:104E200086000100AC1E2A000100AD1E2B0001000F
:104E3000AE1E2C000100B21E2D000800C0122E0074
:104E40000100B31E2F000100B41E30000100B51E8A
:104E500031000100B61E32000100C812330001000B
:104E6000C91234000100B71E36000100CA12380012
:104E70000100B81E39000100B11E83000200C51EEA
:104E800063000100D31264000100AF1E6500010041
:104E9000B01E6D000100C41E6E000200BE12430071
:104EA0000100B91E44000200BA1E45000100BC1EEC
:104EB00046000200BD1E47000800CB12480001005A
:104EC000BF1E49000100C11E4A000200C21E4B0065
:104ED0000100C01E04000100C71EA1000100C91E80
:104EE00037000100C81E88000100D6120000000033
:104EF000000000013636010100010201000103013A
:104F00000001040106060502000007010034080143
:104F1000000F090401010D0100FF0E080000170237
:104F20000000190100FF1A0100011B0100FE1C0115
:104F300000081D0200001F010001200100012102E4
:104F400000002301000F24020000260100012701B8
:104F50000008280200FF2A0100072B0102402C0153
:104F600000002D0100012E0100012F0100FF300182
:104F70000B1C310800003A0100083B01000F2F0113
:104F80000000010371030103010301030103010395
:104F900022030203010310030003000300030003C4
:104FA000000300030003420300032403060300037D
:104FB000000304031203250323032503230304032F
:104FC000040300030003000344030003000323035E
:104FD000000365032100350381030003050300037B
:104FE0000003000303007100300160001100700035
:104FF0003102200350048000100061000000140002
:10500000630073007200620043000000130006009A
:10501000000000000400120000000000000000007A
:1050200004000400370037003C0244000000000088
:105030000000000065000000350081000000050050
:105040000000830000000101710101010101110153
:1050500001013101010101018001100161013B00E9
:105060001400630173017201620143010001130125
:1050700006013D013500040112010001000100019B
:10508000000104010401330133013C0144013201F8
:1050900036000001000165010001350081010001B9
:1050A000050182018301000103047104020460040C
:1050B00011047004020402040104020410046104D7
:1050C00000041404630473047204620443040004BF
:1050D0001304060400040004040412040004000481
:1050E00000040004510464000004000400044404AB
:1050F0000004000400040004650400043504810475
:1051000064000504000483040004030271023001FA
:105110006002110270020102020202028002100209
:1051200061023A00410063027302720262024302AA
:105130000002130238000002000204021202000200
:1051400000020002000204020402370037003C02A1
:10515000440200023900000200026502000235022A
:105160008102000205028202830200020000AD3FBC
:105170001300233F0100AD3F0200AB3E0300B13EF0
:105180000400B73E0500BD3E0600C93E3000E73EC4
:105190003100E13E3200F33E3300F93E3500FF3E80
:1051A0003400053F36000B3F1100173F14001D3F30
:1051B0001500DB3EFFFF0000360001000600000086
:1051C0000F0000000000000000000000000003FFCE
:1051D000FF00000403FFFF0000FFFF0FF4010005C4
:1051E000C4040320000100000B00000000000000C8
:1051F0000003010FBB46D946C146EB46C746DF4612
:10520000C746E546CD46EB46C746DF4600000000F0
:10521000000000000000000000000000000000008E
:10522000D346EB46000000000000000001A130065C
:10523000D73008D1300BE9301011300A013102A704
:105240003005C53007AD300C83300D9530FF0000C0
:1052500003EAF5E5D5D5C5B5A5959585857575653B
:105260006555554545353525251515058336B33620
:1052700089368F36AD36A1369B36B936BF36C53640
:10528000D13695367D36773600160F00000B150B9C
:10529000020002220F3200000600000000000000A1
:1052A000008967452301EFCDAB567777777777771E
:1052B00077777777777777777701030507090B0D8E
:1052C0000F00020406080A0C0D7F37913797374DFF
:1052D000369D3747365336EB3709380F38F137FDEF
:1052E00037F73787358135BD35C335B7356F35303D
:1052F0003017181921301B1D1F3030301618192097
:10530000231A1C1E3000034948424D181725050278
:105310000C0E020B040B0A0708000F0001191618E7
:1053200016161523030000383C3E363B3B352B4315
:105330002CA736CB360338D736DD36D337A337A97B
:1053400037B537AF37020402010101010902933575
:1053500099358D35C9350005150D091008049F359F
:10536000B13500BE040A0E0004007F00E8032800E7
:105370000C001500100C0A030900040009FF1E1E92
:105380000301040C1005080F08C082C0839011B2FD
:10539000E4F0A3F07CD57D047A367B1112459B1294
:1053A0002E319012D4E07004790080027901124A03
:1053B00003122E3702688974F412240C74F5122932
:1053C0001AE9FDEAFEEBF9ED705B74026E703E7453
:1053D00008901145F0750800780812288CECF50843
:1053E000780812288CE9F508780812288C901EA8F5
:1053F0001226AA901EACE0F97CCB7D12901EC5123D
:105400006205122E5B74071228CF0254EC74016EF1
:1054100060030254F17408901145F07B00E9FA1220
:105420002E8B0254EC74016D600874026D600302EF
:1054300054F1EE600574036E70607402125506122A
:105440002AC8AA08AB09AC0AAD0B122E49E9FA909A
:10545000114AE0A2E3401DEA701A9011B6E004F090
:105460006404701090819B7808122AC8901EA87856
:1054700008122AD774036E70759011B7E0FB74019F
:105480002BF0EBC39405406690819B7808122AC8E4
:10549000901EA87808122AD7805474016E70527436
:1054A000016D7035740A901145F07401122B18E4E7
:1054B000F07402122B187403F09081877808122A76
:1054C000C87404122B187808122AD77408122B18E3
:1054D000E41262D21230B38028740A125506122ADE
:1054E000C8AA08AB09AC0AAD0B122E79E9FAEA603A
:1054F000107CE87D037A017B00901142E0F9123CB8
:10550000BF740B026C39901145F0901EACE0F9901D
:105510001EA878082274F612240CE9FEEAFF7AD15C
:10552000F9123B9FEA7001EB702C7A027B00123B70
:1055300087EA7001EB700E7A107B00901142E0F95F
:10554000123BC3801874D18A828B83F0EEA3F0EFF4
:10555000F9123B938007EE8A828B83A3F00256E810
:1055600074F712240C8908900663E0FEA3E0802003
:105570008E828F831255B0E0600AA312620CFAA9E2
:1055800008123E938E828F83A3A3A3A3A312790252
:10559000FFEE7001EF70D9900665E0FAA908123E9F
:1055A000931231C190111E126ED61231BB0276D207
:1055B000E0125EFC2274F112240C89098C0A740F2B
:1055C000122B1812647F7411122B18125C6B750861
:1055D00000750E008050E50BC333FEE433FFE82E68
:1055E000F582E93F125637E50EC333FEE433FFEA96
:1055F0002EF582EB3FF583E0650C7004A3E0650DAA
:105600007019E508C333FEE433FFEC2EF582ED3F5D
:10561000F583E50CF0A3E50DF00508050BE50BC3DC
:10562000950A40B2050EE50EC395095005750B00AD
:1056300080EBA908026A4AF583E0F50CA3E0F50DBA
:105640002274F412240CE9FD740C122B1812647FDE
:10565000750B008002050BE50BC39D503F750A00DA
:105660008002050AE50AC39C50EBE50BC333FEE458
:1056700033FFEA2EF582EB3FF583126874E50AC327
:1056800033FEE433FFE82EF582E93FF583E0650859
:105690007004A3E0650970CA790180027900026C88
:1056A0003C74F612240C12572F7003A3E06D701790
:1056B0007508487509117808122888EEFA123FB368
:1056C00074021228CF801A750802750980780812B2
:1056D00028888C088D09780812288812573F1228CC
:1056E000CF800574021228CF7F0202263674F6128C
:1056F000240C12572F7003A3E06D701775085575B1
:1057000009117808122888EEFA123FB9740212289B
:10571000CF801A75080375098078081228888C08CC
:105720008D09780812288812573F1228CF80B9EACD
:10573000FEEBFF125EEAFCE9FD90111EE06C22EE2A
:10574000240E1272FDFD7C80EE2402FAEF3400FB81
:10575000EE240F1272FDF9123FD774042274F61270
:10576000240C74FE12291AEAFEEBFF8518828519B3
:1057700083E4F0A3F0126A55FA88828983A3A3E038
:10578000F9750800750900600494F14005750982F7
:10579000804590111EE06A7003A3E06B70228518AB
:1057A00082851983AA82AB83123893E9F50885189C
:1057B00082851983E07002A3E0701C75098380174D
:1057C0009012D4E06004640170057509818008E0DE
:1057D00064027003750980851882851983125C6BD9
:1057E000A909EEFAEFFB123FBFE5086016851882A3
:1057F000851983E07002A3E060098518828519830A
:10580000125F050256E374F212240CEAFEEBFF75F8
:105810000A00750B00125EE6F508E9F5091231C1C0
:10582000EA65087003EB650970121238A5E914F5F2
:105830000A79017A7E7B111238AB8003750B8012D6
:105840005879F50C780C12288C750C7E750D117832
:105850000C122888780A12288C7808122888E50B00
:10586000F508780812288C1268561272F27A057BB5
:1058700080123FC57407027676EE240EF582EF1291
:1058800073002274F512240CE9FE7F0080278A82BF
:105890008B831277A6F9E42508E9F509EF33F8E4DC
:1058A00033F9EC28F582ED39F583E508F0A3E50935
:1058B000F01276B40FEFC39E40D47F0302263674F5
:1058C000E812240C74FC12291A8518828519831297
:1058D0006ED6750F007402122B18E4F0A3F0F516C3
:1058E000F517851882851983E02413126E741275DA
:1058F0000DF508E9F509850A82850B83A312787EE8
:10590000A3A3E0F9EAFEE9FFE50A2404127849AA14
:1059100008AB09123263E964017038125C71122815
:105920008C750800750900780812288878081228F4
:105930008C90111E1226B2750880780812288C747B
:1059400007122B18125C5F122B18125C801228CFE2
:10595000025C4AAA08AB09123263E9700E90111E6C
:10596000E065087004A3E0650970B0125C548A0910
:105970006034C333FAE433FB123BFF7402122B187A
:10598000126ED67402122B18E07002A3E060177436
:1059900002122B18125C6BAA0AAB0BA909123EC3A8
:1059A0008A0A8B0B8003750900125C548A08601CFC
:1059B000C333FAE4331279397001EB600FAC16ADE2
:1059C00017AA0AAB0BA908123EC380037508009002
:1059D0000663804AE4F0A3F0AA0AAB0B8512828525
:1059E000138312739B12620CF9123B93851082850C
:1059F0001183E0C0E0850F0AE50A247EF582E434D5
:105A000011F583D0E0F0050FE5146007AA10AB1183
:105A1000123C05851282851383A3A3A3A3A3E0F5FB
:105A200012A3E0F513E5127002E5137003025BEABE
:105A3000851282851383126489FAE9FB8A828B833B
:105A4000E060D0851282851383A3A3E0A2E050C357
:105A5000851282851383A3A3A3126489FCE9FDEC5C
:105A60007001ED8A828B836014E0FA79018C828D5B
:105A700083124A1A8A108B11751401800DA3A3A3F7
:105A8000E0F510A3E0F511751400E5107002E511C2
:105A90007003025A08851082851183A3E06E70039B
:105AA000A3E06F6003025A08851082851183A3A3C7
:105AB000A3A3A3A3A31226B2851082851183A3A357
:105AC000A3A3A3A3E0FC7404122B18126205A90976
:105AD000123EA574021228CFE97038851082851114
:105AE00083A3A3A3A3A3A3A3A3A3A31226B2851056
:105AF00082851183A3A3A3A3A3A3A3A3A3E0FCAACA
:105B000016AB17A908123EA574021228CFE970033C
:105B1000025A08E5092508C333240AFA7B00123B20
:105B2000878A0A8B0BEA7001EB70030259EC74D27E
:105B30008A828B83126C41F5838882A3A312647FCF
:105B40008A828B83A3A3E8F0A3E91277E6125C9123
:105B5000E508F0EA2405FAEB3400FBE5096038E5D6
:105B60000A240AF8E50B3400F98A828B831262DE7C
:105B70007402122B18125639750E00780C122884F4
:105B8000E509C333FCE433FD8A828B83126205127C
:105B90006A4F1228CF80088A828B83E4F0A3F0E555
:105BA0000A2408F582E50B127801E5087003025912
:105BB000D4E509C333F8E433F9E50A28F8E50B39ED
:105BC000F9740A28FAE439FB126ED685160C85178B
:105BD0000D750E00780C122884E508C333FCE433FD
:105BE000FD126A4F1228CF0259D8E50F6039125CB6
:105BF0007112288C75087E7509117808122888E5BD
:105C00000FF508780812288C90111E1226B275081C
:105C100000780812288C7407122B18125C5F122B64
:105C200018125C801228CF7402122B18E07002A3A5
:105C3000E060087402122B18125F05E5167002E589
:105C4000176007AA16AB17123C0574041228CF7F01
:105C500010022636850A82850B83E0FA027815E069
:105C60002402FCA3E03400FD740722E0FCA3E0FD65
:105C700022851882851983E0240E127343025E5F29
:105C8000E0240FF8126EA27A067B80123FC57407DB
:105C900022A3E5091277EA0279B974EA12240C7496
:105CA000F412291A8A0E8B0FECFEEDFF740B122BE7
:105CB000187403F0122B18AA82AB8312459BE50ED1
:105CC000240CF512E50F3400F5131231BBEAFCEB9E
:105CD000FD7403122B18AA82AB83124595E960125A
:105CE000EE2413127054E0FA74036A600A74016AB5
:105CF00060057484025E02EE24081274EDE0F9601F
:105D000021C394F1501CEE2414F50AEF12784D745F
:105D1000036A7013850A82850B83E06005C394F1E2
:105D200040057482025E02EE240912779EEE240B77
:105D3000FEEF3400FF851282851383E06421700238
:105D4000A3E06003025DCD7487851882851983F016
:105D5000122DB9905368E493F8740193F9C3EA984B
:105D6000EB994003025E09850A82850B83E0F50A00
:105D7000780A12288CEEFCEFFD85088285098312D3
:105D80006205850C82850D83E0F91249A374011226
:105D900028CFE97074E4851882851983F0123E21BA
:105DA000851082851183E06403705E7401122B18E4
:105DB000AC82AD83EEFAEFFB124979E9704B7D00BE
:105DC0007C007900EEFAEFFB123F83803C850A826B
:105DD000850B83E0F50A780A12288CEEFCEFFD852E
:105DE000088285098312620512498B74011228CF3B
:105DF000E9700DE4851882851983F0123E2180092F
:105E00007488851882851983F0E50E1274E8E50F11
:105E1000125E5B12288C7401122B18858208858310
:105E20000978081228888512828513831277A64480
:105E300080F50978081228887901E50E2402FCE52E
:105E40000F3400FDE50E240FFAE50F1268671228E3
:105E5000CF740C1228CF7F0E022636127879E0F527
:105E600008780822C082C08374F312291AE48518C6
:105E700082851983F07401122B18126ED6740312E6
:105E80002B18AA82AB83122CE1851882851983AA6C
:105E900082AB83122D1D740D1228CF02688974F60F
:105EA00012240C125EE2F8901150E058F508A3E0BD
:105EB00059F509E5087002E5096024780812288878
:105EC00090111E1226B2125879FD7C00EE2402FABF
:105ED000EF3400FB1272F2123FD174041228CF0289
:105EE00056E8EAFEEBFF125EEA22126A62125EF7E1
:105EF000E0FAA3E0F9EA223400F583E0F8A3E0F940
:105F000088828983221276CC123C052274E81224FE
:105F10000C74DB12291A8A168B1775120075130080
:105F2000126209F50B851882851983AC82AD837ADC
:105F3000007B00799C122E9D7A047900122D2FEAA5
:105F4000F50C851882851983E0250CF0FAE50BC362
:105F50009A40030261A0E0C3950BF509C394044085
:105F600003750903E50975F01AA4FAABF0123BFFBB
:105F70008A128B13EA7001EB70030261A3750A00A9
:105F8000AE12AF13850B0802602B7C087D0079FFF1
:105F9000AA10AB11123B75E50E2404F8E50F34008E
:105FA000F9EE2416FAEF3400FBEE2415FCEF340072
:105FB000FDEE2414F510EF3400F51188828983E09A
:105FC0007036850E82850F83E07002A3E0700AE4CC
:105FD000851082851183F0800E74018510828511F1
:105FE00083F090056FE014851482851583F07402A8
:105FF0008C828D83F0E4803090056FE004851482FC
:10600000851583127781C3940340030260D574021F
:10601000851082851183127781640160030260E735
:10602000E48C828D83F07401126211E50AC3950934
:106030004003026106E508C3950C40030260ECA929
:1060400008122DA18A0E8B0F050890055C12623292
:10605000126479EE2412F582EF127801E8F0A3E9D8
:10606000126221F514EF3400F51574FF8514828552
:106070001583F0850E82850F83A3A3A3A3A3A3A3F7
:10608000A3A3A3E0C0E0EE2419F582EF127801D0BB
:10609000E0F07401122B18E4F01264797402122BF0
:1060A000181262DEEE240AF510EF3400F5117401C7
:1060B000122B18AA82AB83122D0BE9640160030234
:1060C0005F8A7404122B18AC82AD83AA10AB111234
:1060D000459B025F97740185108285118312778139
:1060E000640370030260207401026021E50CC39513
:1060F0000B40057508008018E50BC3950CF508806A
:106100000F7401126211E50AC3950940030261A3ED
:10611000740E122B18AC82AD83AA087B007987120B
:106120002E9D05087418122B181262327C087D000F
:1061300079FFEE240AFAEF3400FB123B75EE2412CD
:10614000F8EF3400F9740E122B1812620588828958
:1061500083126ED6EE2415F582EF1278017402F0E8
:10616000EE2416F582EF1278017403126221F58293
:10617000EF12780174FFF0741D122B18E0C0E0EEEE
:106180002419F582EF127801D0E0F0EE2414FAEF32
:1061900012768E7002A3E06003026101E4026103E3
:1061A000750900750800780812288C781212288862
:1061B000E509F508780812288CE50BF5087808122F
:1061C000288C7405122B18E0FD7C00E5162402FAD9
:1061D000E5173400FBE5161266C4E5171272F812D3
:1061E000400D74051228CFE5127002E5136007AA6E
:1061F00012AB13123C057425025C4CAC82AD838556
:1062000018828519831276CC2212786F1273A0E05F
:10621000228A828B83F0EE241AFEEF3400FF050AF7
:1062200022F0EE2417F582EF1278797402F0EE2452
:106230001822127505E8F0A3E9F07C707D05EE24C4
:106240000212624522FAEF3400FB12459B2274F0E1
:1062500012240C74F912291A8A088B091279BE8546
:106260001882851983780C122AD71262CAC0E0748A
:1062700004122B18D0E01278A47405122B187401A4
:10628000F07406122B187401F0901128F07402902B
:106290001131F0850882850983A3A312647F9011D0
:1062A000291262DEEA901132F0E5081266C4E509AF
:1062B00012587F9011271262D2122E4FE9600312FA
:1062C0002E5574071228CF0272E4EE2404FE1276D3
:1062D0008922F0851882851983AA82AB8322E8F08F
:1062E000A3E9F02274F212240C74FF12291A890A0D
:1062F0008A0C8B0D7E007F008A088B099012D4E0F7
:10630000600D640160030263F5800488088909E573
:10631000087002E509603690055C12620585088206
:10632000850983E06A7003A3E06B600FE50824161B
:106330001277FD1264897001E970D08508828509A1
:1063400083E06A7003A3E06B70030263F57A187B45
:1063500000123BFF8A088B09AE08AF09EE7001EF0F
:1063600070030263F590055C1275011262DE900500
:10637000511274FAA3F09005631274FAA3A3F0907B
:10638000056412648EF012324BE98E828F83A3A3D0
:10639000A3A3A3A3A3F0901EAD12648EA3A3A3A3F3
:1063A000F07C707D05EE240D1262458518828519FA
:1063B00083AA82AB8379411247B7851882851983F6
:1063C000E0600890111E12647F800478FE79FF8ED1
:1063D000828F83A3A3A3A3A3A3A3A3A31262DEEE2E
:1063E0002416F582EF127801E50CF0A3E50DF08E8E
:1063F0000C8F0D050A901132E0FAE50AC39A500499
:106400007C008023E50AC39AFCC3940640027C0505
:106410007B00800EE50C2416F582E50D3400125643
:10642000370BEBC39A40ED750800780812288C787A
:106430000C122888ECF508780812288C901132127A
:106440005E5E12288CAD0A7C007A297B11901127A0
:10645000E0F912400774051228CF9012D4E06004CE
:106460006401700DEE7001EF6007EEFAEFFB123C75
:1064700005122E557401027676850E82850F8312E1
:10648000648322E0F8A3E0F922126483E822E08E1C
:10649000828F830279B974EC12240C74FF12291ACA
:1064A0008A0A8B0B7E008E0E8E0F126209FF8518F2
:1064B00082851983AC82AD837A007B00799D122E90
:1064C0009D851882851983E0FAEFC39A507EE0C358
:1064D0009FFEC3940B40027E0AEE75F006A4FAAB51
:1064E000F0123BFF8A088B098A0E8B0FEA7001EBD2
:1064F0006058750C00801B740288828983F07403D5
:1065000088828983F0E5082406F508E5091277A159
:10651000050CE50CC39E5034AC08AD09850C12EF98
:106520002512FAE43400FB798B122E9DE508240530
:10653000F8E5091277751226740102FE6443654678
:1065400065F764E480BA740180B67E00750800784F
:106550000812288C780E122888EEF5087808122880
:106560008CEFF508780812288C7405122B18E0FDC2
:106570007C00E50A2402FAE50B3400FBE50A12660A
:10658000C4E50B1272F812401374051228CFE50E01
:106590007002E50F6007AA0EAB0F123C05740112E2
:1065A00028CF7F0C02263674EA12240C74FE1229BE
:1065B0001A8A148B15750A00750B00126209F5080A
:1065C000851882851983AC82AD837A007B0079A31C
:1065D000124985850882AA828518828519831264EA
:1065E0007FC3EA98E499400302666C851882851996
:1065F00083E0C39AFEA3E09400FFC3EE9404EF94FB
:106600000040067E037F008006EE7001EF605DEEC5
:10661000FAEFFBEA75F015A4FAACF075F015EBA4EF
:106620002CFB123BFF8A0C8B0D8A0A8B0BEA700144
:10663000EB6039750E00750900850910C3E5109EE1
:10664000E49F502DAC0CAD0D850912850810E510A6
:106650002512FAE43400FB79A2124985E50C2415D1
:10666000F50CE50D3400F50D050980CD750E8B7E1A
:1066700000750900780912288C780A122888EEF52E
:1066800009780912288C780812288C7405122B18A6
:10669000E0FDAC0EE5142402FAE5153400FBE51428
:1066A0001266C4E5151272F812401974051228CF4B
:1066B000E50A7002E50B6007AA0AAB0B123C0574F1
:1066C00002025E53240FF5822274F612240C74FF2A
:1066D00012291AEAFEEBFF126A621276BEA3A3A386
:1066E000A3A3A3A3A3E0F9122E73E9851882851949
:1066F00083F0750800780812288C7401122B188515
:1067000082088583097808122888750835750980FC
:106710007808122888790112685F1228CF74010264
:1067200056E574F412240C74FA12291A8A088B099B
:10673000127597FAEFFB122CE7E960131231BBEAEE
:10674000FCEBFDEEFAEFFB124595E96401700A746B
:1067500001122B18E4F0A380097401122B18EEF03B
:10676000A3EF127794A3A3A3A3A3E0FAA2E6500891
:106770007403122B187401F0EAA2E7500874041293
:106780002B187401F07405122B18E4F07401122B0D
:1067900018AA82AB83122E91E9851882851983F09D
:1067A000750A00780A12288C7401122B1885820A47
:1067B00085830B780A122888750A34750B80780A4D
:1067C0001228887901E5082402FCE5093400FDE57A
:1067D00008240FFAE5091268671228CF7406026CC4
:1067E0003974F612240C74FF12291AEAFEEBFF1218
:1067F00078051255B0126874A908122E61E985183F
:1068000082851983F09012D4E0700B7401650970D1
:1068100005A9081240F71268568C828D83E064FF48
:106820007004A3E064FF602B750800780812288CC0
:106830007401122B1885820885830978081228882C
:1068400075083675098078081228887901126862FF
:106850001228CF02671DEE2402FCEF3400FD221245
:106860006856EE240FFAEF340012686D22FB123FD7
:1068700077740522E0F508A3E0F50922C082C08301
:106880009012D4E070031240FDD083D08202282FF2
:1068900074F012240C74EF12291A125EE2F50CE95E
:1068A000F50DEE240FF50AEF12784DEE2402127763
:1068B0009E90111EE0650C7004A3E0650D7061856B
:1068C000188285198385820E85830F780E12288899
:1068D000750E11750F00780E1228887C007D007AE5
:1068E000817B00123C8974041228CFE97032750E46
:1068F00000780E12288C7401122B1885820E858365
:106900000F780E122888AC0CAD0DAA08AB09850AC9
:1069100082850B83E0F9123FCB74031228CF802AC3
:10692000750E11750F80780E122888780C12288841
:10693000125879FD7C84AA08AB09850A82850B83ED
:10694000E0F9123FD774041228CF74110262C474A4
:10695000F112240C74EC12291AEAFEEBFF126A55AC
:10696000F508EBF50990111EE065087004A3E065D9
:106970000960030269FE88828983A3A3E0FA941068
:106980005004EAFB80027B107403122B18EB127682
:1069900097A3A3A982AA83890C8A0D750E00780C8F
:1069A0001228847406122B18E0FC7D007407122B49
:1069B00018AA82AB83126A4F1228CF7403122B18C5
:1069C00085820A85830B780A122888750A11750B4F
:1069D00000780A1228887C007D007A817B00123CB6
:1069E0008374041228CF7403122B18E090114860AE
:1069F00005E0D2E48003E0C2E4F07A0080027A8409
:106A0000EA851882851983F07401122B18E508F0C5
:106A10007402122B18E508F01274E7EF125E5B1295
:106A2000288C7401122B1885820885830978081236
:106A30002888750814750980780812288879031247
:106A4000685F1228CF74141228CF7F0702263612EF
:106A50003B69740322126A621276D7FCA3E0FBE45E
:106A60002C22EE2413F582EF2274F412240C74E02D
:106A700012291A8A088B09851882851983AC82AD80
:106A800083123F659012D4E0640270337402122BBB
:106A900018AE82AF831231BBEEFCEFFD124595E9D3
:106AA000601D1231C18A0A8B0BA80AA90B851882B6
:106AB000851983E0687003A3E0697003026C3712E4
:106AC00033837402122B181261FB12328DE96401B8
:106AD0007003026C37740B122B18AA82AB8312312D
:106AE000CD7402122B18AC82AD83740B122B18AA32
:106AF00082AB83124595E960321231C78A0A8B0B4B
:106B0000A80AA90B851882851983E0687003A3E0A1
:106B100069601885188285198312647F9005521266
:106B200062DE7A527B05794B1247BD9012D4E06049
:106B30000764016003026BC3E50824111277FDC0EE
:106B400082C0831231C18A088B09D083D082E0656C
:106B5000087004A3E0650960347402122B18AA823D
:106B6000AB83122D5F8A828B83E5827002E583609E
:106B70001CA3A3A3A3E0FA74016A600574026A70FF
:106B80000C7402122B18AA82AB83122D6B1231C126
:106B90008A088B09A808A909851882851983E068E5
:106BA0007003A3E069601C7402122B181261FB12BF
:106BB0002D41E9600E7402122B181261FB1233652D
:106BC000123E2179001261FF122FCF7413122B187D
:106BD000E4126C41F97414122B181262DE74131251
:106BE0002B18AA82AB83122D0BE9604B7C087D0029
:106BF0007900740B122B18AA82AB83123B757416A2
:106C0000122B18AC82AD83740B122B18AA82AB83A3
:106C1000124595E960217402122B18AC82AD837481
:106C200016122B18AA82AB83122CE17413122B18A4
:106C3000AA82AB83122D1D74201228CF7F04022656
:106C4000361272E9F8A3E02274F112240C74F612E1
:106C5000291AEAFEEBFF7508009011B4E07002A358
:106C6000E0703E7A377B00126E67126ED69011B4D8
:106C7000E07002A3E060197C377D007900123B755B
:106C8000EEFCEFFD9011B4126205123F35E970057C
:106C90007488026DC0126E6E7401F012731D026E64
:106CA0005C126E6E7402F0EEFCEFFD127310123F78
:106CB00035E9700C7488851882851983F075080190
:106CC000750A7E750B11780A1228889011B4E02499
