:020000040000FA
:10000000020DA1022003FFFFFFFFFF02200BFFFFF5
:10001000FFFFFF0204D8FFFFFFFFFF02201BFFFFCF
:10002000FFFFFF022023FFFFFFFFFF02202BFFFF48
:10003000FFFFFF022033FFFFFFFFFF020533FFFF3B
:10004000FFFFFF022043FFFFFFFFFF02204BFFFFE8
:10005000FFFFFF022053FFFFFFFFFF02205BFFFFB8
:10006000FFFFFF022063FFFFFFFFFF02206BFFFF88
:10007000FFFFFF022073FFFFFFFFFF02207BFFFF58
:10008000FFFFFF022083FFFFFFFFFF02208B002006
:10009000000090200000932000000100000000C834
:1000A0000300380000000000260000000000FFFFF1
:1000B000FFFF0000040074F7120AFE780079008048
:1000C0001BE508120529E08A828B83F09004121246
:1000D00002044005E4900412F01201FB900412E0C7
:1000E000F508900413E065086007C3E89CE99D40AB
:1000F000D0E8FAE9FB7F02020C5574F8120AFE9070
:100100000497E0FE8E82A882900496E0FEE8C39EEB
:10011000E0500E1202C17001E9700B780079008086
:10012000141202D250F57A007B008038E004F043CC
:100130009A041201FBC3E89CE99D50248A828B83B8
:10014000E0C0E0900497E012058AD0E01202EDE4EE
:10015000900498F0900497E0C3947F40CFE480CE61
:10016000E8FAE9FB7F01020C5574F7120AFE7800E9
:10017000790090051BE0705590051CE0704F75C12B
:1001800000C28BC284A28340FCA28B4004A2835095
:10019000F8E5C1C28BA2835004D2848030C0E0E075
:1001A0001201F1D0E0F090051C1202E640DBE4F011
:1001B00080D7E5081201F1E08A828B83F090051B5D
:1001C0001202044005E490051BF01201FB90051B90
:1001D000E0F50890051CE065086007C3E89CE99D10
:1001E00040D0E87001E97006E4F090051BF00200D1
:1001F000F1249BF582E43404F58322E8240108E924
:100200003400F922E0041202F1C394802274F8123F
:100210000AFE90059EE0FE8E82A88290059DE0FE7B
:10022000E8C39EE0500A1202C17001E9700D80051A
:100230001202D24006EC7001ED70067A007B00805D
:100240007D8A828B83E0F5C1A3AA82AB8378017992
:10025000008006E004F01201FBC3E89CE99D501EFB
:100260008A828B83E0C0E090059E1202FCD0E012EF
:1002700002ED90059EE0C3947F40D8E480D7C28B06
:10028000A28340FCC284A28B4004A28350F8900554
:100290009D1202FCE0F5C1C28B90059DE0FA90052D
:1002A0009EE06A90059D70051202FC80051202E630
:1002B0004002E4F0A28350CED284E8FAE9FB0201C6
:1002C00064C398F8E49400F974FF281874FF39F9AE
:1002D000E822C398F8E49400F9747F28F8E439F927
:1002E000C3E89CE99D22E004F0C39480221202F14D
:1002F00022F08A828B83A3AA82AB8322E0241DF59D
:1003000082E43405F5832274FF120D111203E21208
:100310000692E970030203BF7E00900390E064013F
:10032000700DC2847401900391F09005B38005D2E2
:10033000AF9005B77808120D927C017D0085188278
:10034000851983AA82AB83120494EA7001EB6012D0
:10035000E064F8602CE0640770089005BB78081230
:100360000D9285080C85090D850A0E850B0F9005E9
:10037000BF7808120D4F9005BB780C120D2770B98D
:100380000E900390E064017009D284E4900391F030
:100390008002C2AFEE6028900390E0640175860091
:1003A000C2AA7007539AFBD2E98007C28B539AFB0B
:1003B000C2E9022000C2AF75C9AB75C95B80FE12ED
:1003C0000459C2AF75C9AB75C95B80FE7A1075B6AA
:1003D0000FE5B4A2E750FAE5BBC39940F11AEA7001
:1003E000ED22C082C08353BEFBE59DA2E650FA0019
:1003F00078F8790100E824FF18E934FFF9E8700182
:10040000E970F175C6807480659E70FA43BE04740D
:1004100008906270F0794A1203CC74F5900001F0F4
:100420007403F5D575D4887401900390F0D2845389
:10043000F3F753F3EF53FDF743FD10538FF753F7E3
:10044000DF43C52053F1FE75862043F3F0E5F34307
:100450008640D2AAD083D0822274F5120AFE794E49
:100460001203CC900390E07002D2AF120594E960C1
:10047000FAE0701B9005C37808120D92009005BF3A
:100480007808120D4F9005BB7808120D2770ED7F8C
:1004900004020C55C082C083900390E070051200E6
:1004A000B6801E900391E06015A28B500DE5C18AC5
:1004B000828B83F07A017B0080077A0080F812013A
:1004C000698091C082C083900390E070051200FAA9
:1004D000800312020D020454C0E074F2120B5E900D
:1004E0000001E064CD70051220138038E064F570DF
:1004F00032E5C1C0E0900413E0120529D0E0F0908D
:100500000412E0FA900413E06A7006E59590041571
:10051000F09004131202E64002E4F074C690041452
:10052000F08001007F01020BBD2492F582E43403C8
:10053000F58322C0E074F1120B5E900001E064CDFF
:10054000700512203B803EE064F57038900496E020
:10055000FA900497E06A700B539AFB740190049828
:10056000F08022C2E9900496E0F50874012508F0B5
:10057000E50812058AE0F5C1900496E0C394804036
:1005800004E480DC007F02020BBD2416F582E43413
:1005900004F5832274F7120AFE74FF120D117E0017
:1005A0008033900384E0FA851882851983E06A70AD
:1005B0000D900382E0644D70051207EBE9FEE490B4
:1005C0000385F0900387F0851882851983E0FA90FF
:1005D0000384E06AF07C017D00851882851983AA76
:1005E00082AB83120494EA7001EB7003020686E08A
:1005F000C0E0900387E0F8900385E028F8E4340039
:10060000120980D0E0F0900387E0120C8D0005C73E
:10061000051D062C064A065A067006A20585188294
:10062000851983E064FE709F74018097E4900384D1
:10063000F0851882851983E0900386F0C39480408A
:1006400004E40205C374020205C385188285198378
:10065000E0900382F074030205C385188285198334
:10066000E0900383F0900386E0601674040205C3F3
:10067000900385E004F0FA900386E06A60030205C7
:10068000C774050205C3EEF97401120CDE7F020285
:100690000C5574ED120AFE74FB120D1175080475E9
:1006A00009007808120D627402120DBD12098C1235
:1006B0000CDE851882E064FF7004A3E064FF600D27
:1006C000851882851983E07002A3E070030207DFBA
:1006D00012099C120DBDE0687003A3E0697003026B
:1006E00007AE75080090059F7810120D92800A9051
:1006F00005A37810120D27604D750A01750B00785F
:100700000A120D627406120DBDAC82AD8385100A0B
:1007100085110B74FF550AFA7407550BFB8A0C857B
:10072000110D85120E85130F740B780C120CF8A99D
:100730000C120996120CDEE0F9AA08AB091209AAFC
:100740008A088B0980089005A77810120D929005F1
:10075000AB7810120D4F9005AF780C120D92780CFB
:100760007910120D73408879001209AA79001209D4
:10077000AA7402120DBDEAF0A3EBF0750801750929
:10078000007808120D627402120DBDAC82AD837A3E
:10079000247B08120A757402120CDE7508047808AE
:1007A000120D627402120DBD12098C120CDE1209B8
:1007B0009C120DBDE0687003A3E069702285188269
:1007C000851983E064FF7004A3E064FF601185185D
:1007D00082851983E07002A3E060047901800279C8
:1007E000007405120CDE7F0C020C5574F3120AFE25
:1007F00074FC120D11900306E0FA900307E0F9EA89
:10080000F8E428FE740839FF750A017509007508B7
:10081000008E0C8F0D7409780C120D83A90C74FFD7
:100820005EF50C74015FF50D900383E0120C8D01F1
:1008300002240939086108A308EA7002E50D700373
:10084000120AE7750C10750D00780C120D627C0809
:100850007D03EEFAEFFB120A757402120CDE020938
:1008600024E9C394794006750901020924750A40F8
:10087000750B00780A120D627C097D037402780CF6
:10088000120D3CAA0CAB0D120996120CDE90030758
:10089000E0900308F0900306E0900307F0750A4328
:1008A000020924750C04750D00780C120D62740297
:1008B000120DBD12098C120CDE7402120DBDE0F88F
:1008C000A3E0F9851882851983E0687003A3E069C5
:1008D000603B12099C120DBDE8F0A3E9F0750C0114
:1008E000780C120D627402120DBDAC82AD837A24B5
:1008F0007B08120A757402120CDE750C04780C1257
:100900000D627402120DBD12098C120CDE12099CCC
:10091000120DBDE0687003A3E069700575080180E1
:1009200003750907900305E0D2E7F0E50990030697
:10093000F0E50A900303F0744D650AF50974042587
:100940000AFB7A038004E062090AEAF83395E012B0
:1009500009808B0AC3E8950AE99400A2D265D033D6
:1009600040E4E509F074012AFC3395E0FD7A027B4E
:10097000031204C3A9087404120CDE7F06020C558E
:10098000F9E82402F582E93403F58322AC82AD83D1
:100990007A907B0079041209EC7402228518828512
:1009A0001983E0F8A3E0F9740222EEC0E07E087437
:1009B000805BFDE47001ED6004D2F08002C2F0A221
:1009C000F0E492E0FCEAC333FAEB33FBE9A2E75030
:1009D0000474014AFAEC600874216AFA74106BFB23
:1009E000E9C333F91EEE70C7D0E0FE2274F5120A97
:1009F000FE8908740B120DBDE0FEA3E0FF740F55D5
:100A000008F50A750B00740B780A120D3C2AF8746D
:100A1000803BF9E428E50B39F9E5C7F509A2AFE415
:100A200092E0F50AC2AFE508C4540FC0E074F8556F
:100A3000C7FAD0E04AF5C7801C88828983E08C829F
:100A40008D83F088828983A3A882A9838C828D8379
:100A5000A3AC82AD83EEFAEFFB74FF2A1E74FF3B5A
:100A6000FFEA7001EB70D28509C7E50AA2E092AFF8
:100A70007F04020C5574F7120AFE7409120DBDE0D2
:100A8000F508A3E0F509ED900388F0EC900389F0F8
:100A9000746290038AF0747390038BF090038CE07F
:100AA000541FF0E508333354FC90038DF07406783E
:100AB00008120D83E50890038CF0741290038EF0F9
:100AC000744290038FF075D1FE75D601EA90627181
:100AD000F0EB906272F0906270E0D2E1F0E0A2E799
:100AE00040FB7F02020C55C082C083E9C333906291
:100AF00072F0906270E0D2E0F0D083D082222518AC
:100B0000C582C0E0E51934FFC583C0E0E518C39590
:100B10008224F9F8E4C5A8858319858218C5A8E858
:100B2000CEF0A3E520F0A37808E608F0A3DEFAEF04
:100B3000F0A3E58124FBF8E608F0A3E608F0A3089B
:100B400008E608F0A3E608F0A315811581D0E0FEC1
:100B5000D0E0F815811581E8C0E0EEC0E022C0D0F9
:100B60002518C582C0E0E51934FFC583C0E0E5184B
:100B7000C3958224F310AF088583198582188008F5
:100B8000858319858218D2AFC8F0A3E9F0A3EAF0F3
:100B9000A3EBF0A37908E709F0A3D8FAECF0A3EDF2
:100BA000F0A3EEF0A3EFF0A3D0E0F0A3D0E0F0A329
:100BB000D0E0F0A3E520F0A3E5F0F0A322851983AF
:100BC000851882E0C0E0A3E0F9A3E0FAA3E0FBA36C
:100BD0007808E0F608A3DFFAE0FCA3E0FDA3E0FE5E
:100BE000A3E0FFA3E0C0E0A3E0C0E0A3E0F5D0A352
:100BF000E0F520A3E0A3F5F0E4C5A885831985827C
:100C000018C5A8D082D083D0E0F8D0E032120DCC45
:100C1000B90003020C4FE4900302789E790380022E
:100C2000F0A3D8FCD9FA90059FAA82AB8390008EDE
:100C3000782979018015E493A3AC82AD838A828BF5
:100C400083F0A3AA82AB838C828D83D8E9D9E71283
:100C50000307120DC7851983851882E0A3FEE0A360
:100C6000F5207808E0A3F608DFFAE0A3FFE0A3C0D0
:100C7000E0E0A3C0E0E0A3C0E0E0A3C0E0E4C5A8DA
:100C8000858218858319C5A8D083D08222D083D0CD
:100C900082C5F0E493A3C5F0C395F0F5F0E493A307
:100CA000C395F04005E5F0048001E475F002A42549
:100CB00082F582E5F03583F583E493A3C0E0E49305
:100CC000C0E0222518F58210AF08F518400215196A
:100CD0008008F51840021519D2AF85198322C0D0BB
:100CE000251810AF08F518500205198008F518509E
:100CF000020519D2AFD0D0226016080808C6C31367
:100D0000C618C613C618C613C618C613C6D5E0EA59
:100D100022251810AF08F518400215198008F5189B
:100D200040021519D2AF22E066701008A3E0667089
:100D30000A08A3E066700408A3E06622700422603B
:100D40000D18C6C333C608C633C6D5E0F41822E072
:100D500026F608A3E036F608A3E036F608A3E03648
:100D6000F62274028000C0E0F404120CC3D0E0123A
:100D70000DB022C3E7960809E7960809E796080927
:100D8000E79622600C08C6C313C618C613C6D5E082
:100D9000F422E0F608A3E0F608A3E0F608A3E0F6E4
:100DA0002275D000758140751802751903020C0D6B
:100DB000CAC0E0E6F0A308DAFAD0E0FA222518F576
:100DC00082E43519F5832200000080FB790122FFBF
:100DD000FFFFFFFFFFFFFFFFFFFFFFFFFFFFFFFF23
:100DE000FFFFFFFFFFFFFFFFFFFFFFFFFFFFFFFF13
:100DF000FFFFFFFFFFFFFFFFFFFFFFFFFFFFFFFF03
:100E0000FFFFFFFFFFFFFFFFFFFFFFFFFFFFFFFFF2
:10200000022A550221F3FFFFFFFFFFFFFFFFFFFF43
:10201000FFFFFFFFFFFFFFFFFFFFFFFFFFFFFFFFD0
:10202000FFFFFFFFFFFFFFFFFFFFFF0227C8FFFFCC
:10203000FFFFFF02275DFFFFFFFFFFFFFFFFFFFF27
:10204000FFFFFF0225B3FFFFFFFFFFFFFFFFFFFFC3
:10205000FFFFFF02212DFFFFFFFFFFFFFFFFFFFF3D
:10206000FFFFFFFFFFFFFFFFFFFFFFFFFFFFFFFF80
:10207000FFFFFFFFFFFFFFFFFFFFFFFFFFFFFFFF70
:10208000FFFFFF02218701FFFFFFFFFFFFFFFFFFB1
:10209000102010200101FF01010503010F10FEFFB8
:1020A000EB35EB35EB35EB3595348F34EB35284A92
:1020B00000000000C649000000000C0000000C00F9
:1020C000010000FB37000000004D37F13895376DF7
:1020D00038000083378A06FF01010042110000002A
:1020E000E803BA11E80364006400B80102020008C2
:1020F00000000502070401051E02051E020A0A036C
:10210000B80B02803E010203320001FFFF0A01E02A
:10211000020206FFFFFF000810E8030A090100059C
:102120000001D48001D0800AE01CD51E00C0E074FC
:10213000F2122472A2AFE492E0FED2AFE5A7FAE574
:10214000A1FBEA5B5410600812416175A1EF802A7F
:10215000EAA2E0C0D0EBA2E092F01229A51581829C
:10216000F05017906198E0FA90171FE0C39AA2D23E
:1021700065D0335002EAF075A1FE751A00EEA2E0B8
:1021800092AF7F010224D1C0E074F2122472A2AF98
:10219000E492E0FED2AF9061A4E0FA759B00E59175
:1021A0005A540860087591F71241A3802AE5915AA4
:1021B000541060087591EF1241A9801BEAA2E0C09B
:1021C000D0E591A2E092F01229A5158182F0500786
:1021D000E0C2E0F01242F39061A3E0FAE5E95A545C
:1021E00004600E1242C975E9FB906193E0A2E640DB
:1021F000F28087C0E074F2122472A2AFE492E0FE93
:10220000D2AF9061A5E0FAE5BF5A5404600675BFED
:10221000FB12430B02217AC3E498F8E499F91222E5
:10222000588026C3E49AFAE49BFBE920E7E91222EE
:1022300058E498F8E499F922C3E498F8E499F9127B
:102240002258E498F8E499F9C3E49AFAE49BFB2253
:10225000EB20E7CFE920E7E0B90010BB0008E88AEF
:10226000F084F8AAF022E4FBC8FA22EB70227B107B
:10227000C833C8C933C9335007C39AC3DBF28006D9
:102280009A50012ADBEAC833F4C8C933F4C9FA22E8
:1022900075F008E4C833C8C933C933C99AC99B501B
:1022A00004C92AC93BD5F0ECFBC833F4C8E4C9FA29
:1022B00022080808EAC0E0EBC0E086F0E7A4FA18BC
:1022C0000986F0E7A42AFA180986F0E7A42AFA1882
:1022D0000986F0E7A42AFA1986F0E7A4FBE5F02ABC
:1022E000FA190886F0E7A42BFBE5F03AFA190886FC
:1022F000F0E7A42BFBE5F03AFA18180986F0E7A4FA
:10230000C5F02BFBE43AFA1908E7C5F0C6A426F697
:10231000E5F03BFBE43AFA1886F0E7A4F6E5F008AE
:1023200026F6E43B08F6E43A08F6D0E0FBD0E0FA03
:1023300022E4CFC0E0E4CEC0E0E4CDC0E0E4CCC015
:10234000E075F020C3E633F608E633F608E633F628
:1023500008E633F6181818EC33FCED33FDEE33FEC7
:10236000EF33FFC3EC9709ED9709EE9709EF971943
:102370001919400FFFEC97FC09ED97FD09EE97FE48
:10238000191906D5F0BEECF709EDF709EEF709EFDC
:10239000F7191919D0E0FCD0E0FDD0E0FED0E0FF45
:1023A00022122A9FB900030223F6E49004D1787E1A
:1023B000791A8002F0A3D8FCD9FA781A9020867A8C
:1023C00001BA00028007E493A3F608DAF9901E4EE2
:1023D000AA82AB83902094789A79018015E493A324
:1023E000AC82AD838A828B83F0A3AA82AB838C827A
:1023F0008D83D8E9D9E77582257583ED7405122898
:102400002575822775834874001228252518C582F2
:10241000C0E0E51934FFC583C0E0E518C395822408
:10242000F8F8E4C5A8858319858218C5A8E8CEF018
:10243000A3E520F0A37808E608F0A3DEFAEFF0A306
:10244000E58124FAF8E608F0A3E608F0A3E608F030
:10245000A30808E608F0A3E608F0A315811581D0CB
:10246000E0FED0E0F8158115811581E8C0E0EEC0EE
:10247000E022C0D02518C582C0E0E51934FFC5832D
:10248000C0E0E518C3958224F310AF088583198551
:1024900082188008858319858218D2AFC8F0A3E915
:1024A000F0A3EAF0A3EBF0A37908E709F0A3D8FAC8
:1024B000ECF0A3EDF0A3EEF0A3EFF0A3D0E0F0A3D7
:1024C000D0E0F0A3D0E0F0A3E520F0A3E5F0F0A386
:1024D00022851983851882E0C0E0A3E0F9A3E0FA21
:1024E000A3E0FBA37808E0F608A3DFFAE0FCA3E092
:1024F000FDA3E0FEA3E0FFA3E0C0E0A3E0C0E0A3F3
:10250000E0F5D0A3E0F520A3E0A3F5F0E4C5A885AD
:102510008319858218C5A8D082D083D0E0F8D0E096
:1025200032D083D082ECC0E0EDC0E0E493A3FCE4C1
:1025300093A3FDED4C600D1225F7EC24FFFCED3468
:10254000FFFD80EFE493A3FCE493A3FDED4C600D4D
:10255000122708EC24FFFCED34FFFD80EFD0E0FDF6
:10256000D0E0FCE493A3C0E0E493C0E022D083D0A9
:1025700082E9C0E0E493A3C386F0C5F095F0F908C2
:10258000E493A386F0C5F095F0700BE493A3C39990
:102590004005E9048002A3E475F002A42582F582D7
:1025A000E5F03583F583D0E0F9E493A3C0E0E4934C
:1025B000C0E022C0E074F2122472A2AFE492E0FE06
:1025C000D2AFC2C0901D46E0700BE5D1A2E4501D11
:1025D0001240C58018E5D1A2E3500675D1F712402C
:1025E0009BE5D1A2E4500675D1EF1240A1EEA2E026
:1025F00092AF7F010224D1C0E0C3E4939608740136
:10260000939618400FE49366700808740193661857
:1026100070007019A3A3C3E49396087401939618ED
:10262000A3A3400DD0E0D0E0D0E002255DA3A3A39A
:10263000A3A3A3D0E022851983851882E0A3FEE03E
:10264000A3F5207808E0A3F608DFFAE0A3FFE0A3F3
:10265000C0E0E0A3C0E0E0A3C0E0E0A3C0E0E0A3EE
:10266000C0E0E4C5A8858218858319C5A8D083D0A9
:102670008202282BD083D082C5F0E493A3C5F0C397
:1026800095F0F5F0E493A3C395F04005E5F00480E0
:1026900001E475F002A42582F582E5F03583F58327
:1026A000E493A3C0E0E493C0E022740480047402C5
:1026B0008000CCC0E0EDC0E0E518C39CCCAD195063
:1026C000011D10AF068C188D1980068C188D19D23B
:1026D000AF1227A7D0E0FDD0E0FC2274028000CC2E
:1026E000C0E0EDC0E0E518C39CCCAD1950011D1051
:1026F000AF068C188D1980068C188D19D2AF122751
:1027000085D0E0FDD0E0FC22C0E0C0F088F0E4938A
:102710006670080874019366187000A8F0A3A3708F
:102720000BD0F0D0E0D0E0D0E002255DA3A3D0F044
:10273000D0E022D083D082CCC0E0E493A360061224
:1027400027E71470FAE493A360061228DC1470FAE9
:10275000D0E0FCE493A3C0E0E493C0E022C0E074C6
:10276000F2122472758B00C2E8901D46E0700E7A5A
:10277000007B10901D45E0F9123A1780031246CBFA
:102780007F010224D1CAC0E0E493A3C582CCC582F4
:10279000C583CDC583F0A3C582CCC582C583CDC515
:1027A00083DAE5D0E0CA22CAC0E0E0A3C582CCC586
:1027B00082C583CDC583F0A3C582CCC582C583CD38
:1027C000C583DAE6D0E0CA22C0E0C0D0EAC0E0A209
:1027D000AFE492E0D2AFC2C7751A00A2E092AFD0C8
:1027E000E0FAD0D0D0E032C0E0E493A3D39C501004
:1027F000E493A3C39C400AD0E0D0E0D0E00227508D
:10280000A3A3A3D0E02270090808082260161818B4
:1028100018C6C333C608C633C608C633C608C6338F
:10282000C6D5E0EA22C09FF59FE473D09F22D083F3
:10283000D082C09FE493C0E0740193C0E07402931F
:10284000F59F222518F58210AF08F51840021519DA
:102850008008F51840021519D2AF85198322740437
:10286000800A74038006740280027401C0E0F404DC
:10287000122843D0E0122A9222BB0102E722C08232
:10288000C08389828A83BB0003E08002E493D08303
:10289000D08222C0D0251810AF08F51850020519B3
:1028A0008008F51850020519D2AFD0D02260160862
:1028B0000808C6C313C618C613C618C613C618C65A
:1028C00013C6D5E0EA22251810AF08F51840021506
:1028D000198008F51840021519D2AF22C0E0E49320
:1028E000A36C7009D0E0D0E0D0E0022750A3A3D0C1
:1028F000E022C3E7960809E7960809E7960809E782
:1029000096A2D265D03322E066701008A3E066700C
:102910000A08A3E066700408A3E06622C3E09608F4
:10292000A3E09608A3E09608A3E096A2D265D03370
:1029300022C3E096F008A3E096F008A3E096F00822
:10294000A3E096F022C3E697F60809E697F6080991
:10295000E697F60809E697F622E627F60809E6372D
:10296000F60809E637F60809E637F622E026F60803
:10297000A3E036F608A3E036F608A3E036F622E038
:1029800026F008A3E036F008A3E036F008A3E0360E
:10299000F022E657F60809E657F60809E657F60862
:1029A00009E657F622C0E0E8C0E0E58124FCF8E63D
:1029B000A2E7D0E0F8D0E022E647F60809E647F6BD
:1029C0000809E647F60809E647F622E056F608A3A6
:1029D000E056F608A3E056F608A3E056F622E056C5
:1029E000F008A3E056F008A3E056F008A3E056F084
:1029F00022700422600D18C6C333C608C633C6D57C
:102A0000E0F41822E4C396F608E496F608E496F695
:102A100008E496F622600D08C6A2E713C618C6138E
:102A2000C6D5E0F322C6F4C608C6F4C608C6F4C686
:102A300008C6F4C622C3E7960809E7960809E79690
:102A40000809E79622C3E09608A3E09608A3E0965B
:102A500008A3E0962275D0007581407518D17519CC
:102A600004000223A1E0F608A3E0F608A3E0F608BC
:102A7000A3E0F622600C08C6C313C618C613C6D559
:102A8000E0F422E6F008A3E6F008A3E6F008A3E6E7
:102A9000F022CAC0E0E6F0A308DAFAD0E0FA227425
:102AA000F855C74401F5C77901222518F582E435A8
:102AB00019F58322C2AF75D69F0200002212282E7C
:102AC00010A20212282EBBA30212282E1AA4021250
:102AD000282E52A40212282E2DA50212282E35A728
:102AE0000212282EC6A70212282EBEA80212282ED5
:102AF000CFA80212282EE7A80212282EF8A8021248
:102B0000282E05A90212282E68A90212282E90A9A3
:102B10000212282E3DAB0212282E05AC0212282EDE
:102B200072AC0212282EBAAC0212282E15AD021277
:102B3000282E6BAD0212282E95AD0212282E16AE4D
:102B40000212282E71AE0212282EE6AE0212282E94
:102B5000E8B00212282EA9B20212282E5FB3021288
:102B6000282EA7B40212282E2BB70212282E57BAED
:102B70000212282E64BA0212282EF6BA0212282E49
:102B8000B6BB0212282EFEBB0212282E76BC021201
:102B9000282E95BC0212282EC8BC0212282EFDBC7D
:102BA0000212282ECDBD0212282E95BE0212282E0A
:102BB00026C10212282E9EC20212282E3AC30212E9
:102BC000282EC6C30212282EE1C30212282E33C4B7
:102BD0000212282E09C50212282ED1C50212282E53
:102BE000ABC70212282E33C80212282E73C8021255
:102BF000282EF3C90212282E2BCA0212282EA6CA8A
:102C00000212282E8ACB0212282E39CC0212282E2C
:102C100077CC0212282E8CCC0212282E27CD02123D
:102C2000282E56CF0212282E1BD10212282E39D15F
:102C30000212282E57D10212282E13D20212282E49
:102C40002CD50212282E00800312282E3380031266
:102C5000282E52800312282E74800312282E86807C
:102C60000312282EA5800312282E11810312282E6C
:102C70009E810312282E70820312282EBC8203121A
:102C8000282EFB820312282E18830312282E62831B
:102C90000312282E9D830312282EB8830312282E98
:102CA000DC830312282EFF830312282E3A8403129A
:102CB000282E7A840312282E9D840312282EEC8459
:102CC0000312282EC6850312282E77860312282E7B
:102CD00007870312282EF7870312282E3A8803123B
:102CE000282E5E880312282EB0880312282ED5883D
:102CF0000312282E108A0312282E848A0312282EEB
:102D0000A78A0312282ECA8A0312282EF28A0312D7
:102D1000282E048B0312282E0E8B0312282EA18B33
:102D20000312282EFE8B0312282EA78C0312282EA6
:102D3000AF8C0312282E198D0312282E548D0312E6
:102D4000282E968D0312282EA68D0312282E868EED
:102D50000312282E118F0312282E688F0312282E9B
:102D600035900312282EAB900312282EE890031200
:102D7000282E4B910312282EA1920312282EC192C5
:102D80000312282E23930312282EC0930312282EF9
:102D900019940312282EA8940312282E6495031266
:102DA000282EA2950312282E11960312282E7F9604
:102DB0000312282EB7960312282EEB970312282E03
:102DC0003E990312282E9F990312282EE899031288
:102DD000282E109A0312282E939A0312282E109B45
:102DE0000312282E839B0312282EA89B0312282E41
:102DF000B99B0312282E2D9C0312282EC89C031267
:102E0000282E0A9D0312282EA09D0312282EC79D4E
:102E10000312282EE69E0312282E079F0312282E47
:102E20001A9F0312282E689F0312282ED49F031284
:102E3000282E15A00312282E8BA10312282E2AA3B8
:102E40000312282E39A30312282E7DA40312282E44
:102E5000FDA40312282E45A60312282E8FA60312C6
:102E6000282ED4A60312282EB8A70312282EF4A9C0
:102E70000312282EFEA90312282E08AA0312282EB8
:102E800012AA0312282E1CAA0312282E36AA0312F5
:102E9000282E40AA0312282E4AAA0312282E54AA2A
:102EA0000312282E5EAA0312282E83AA0312282EAC
:102EB000D1AA0312282EDBAA0312282EFFAA03127E
:102EC000282E23AB0312282E80AB0312282ED7AB5B
:102ED0000312282EF5AB0312282E65AC0312282E00
:102EE000A6AC0312282EEDAC0312282E55AD03120A
:102EF000282E20AE0312282EEBAF0312282E3BB053
:102F00000312282E69B10312282E8FB10312282E26
:102F100016B30312282EC0B60312282E92B803123D
:102F2000282E65BA0312282EF1BA0312282E34BCBB
:102F30000312282EE8BC0312282E2DBD0312282EC2
:102F400098BD0312282EA2BD0312282EFDBF031226
:102F5000282E0BC10312282E62C20312282EB9C2DA
:102F60000312282E6FC30312282E55C40312282ED5
:102F7000FBC50312282E1AC60312282E76C603128A
:102F8000282E52C70312282E77C70312282EC9C72E
:102F90000312282EB5C80312282EEDC80312282EBE
:102FA0002DC90312282E8CC90312282EABCA031276
:102FB000282E0BCB0312282EF3CB0312282E08CE7B
:102FC0000312282E2ACE0312282EC0CF0312282E39
:102FD00006D00312282EDAD00312282E76D103123F
:102FE000282EBED10312282E6DD20312282EFBD21A
:102FF0000312282E7FD30312282EEED30312282E7D
:10300000D7800112282E33810112282EBC83011291
:10301000282EFA830112282E46840112282E70854C
:103020000112282ECA850112282E02860112282E8E
:1030300042860112282EB3870112282E338A0112EC
:10304000282E5F8B0112282EF38B0112282EB494A8
:103050000112282E48950112282EC8970112282EF9
:10306000EA980112282E8F990112282EA99A01128E
:10307000282EDA9B0112282ECD9C0112282EEC9FBF
:103080000112282EEEA10112282E4EA20112282E86
:1030900002A30112282EA8A30112282ED2A30112E6
:1030A000282E66A40112282E46A50112282E21A63C
:1030B0000112282EB0A60112282E07A70112282ED1
:1030C0001CA70112282E49A70112282E6BA7011256
:1030D000282E76A90112282E5EAA0112282EAFAA48
:1030E0000112282E20AB0112282ECEAB0112282E61
:1030F00003AC0112282E51AC0112282E81AC011212
:10310000282EBFAC0112282E23AD0112282E28AD87
:103110000112282E83AD0112282EABAD0112282EEC
:10312000E0AE0112282E41AF0112282EABAF0112E2
:10313000282E38B00112282E9AB30112282E73B40B
:103140000112282E03B60112282E55B80112282E7E
:10315000FDB80112282EB4B90112282E72BB01123B
:10316000282E14BC0112282E5CBC0112282EFABD98
:103170000112282E0EBE0112282E28BE0112282E62
:1031800043BE0112282E4FBE0112282E6DBE011221
:10319000282EA1C00112282ED8C00112282EE5C069
:1031A0000112282EEEC00112282E62C10112282E13
:1031B000C5C10112282EDAC20112282E40C3011205
:1031C000282E33C40112282E77C40112282E09C5D7
:1031D0000112282E02C60112282EC6C60112282E60
:1031E0005BC80112282E66C90112282E01CA0112DD
:1031F000282E84CA0112282E9BCA0112282ED4CA56
:103200000112282EDECA0112282EE8CA0112282E29
:10321000F4CA0112282E12CB0112282E56CB01120D
:10322000282EA7CB0112282EC8CB0112282EE2CBC4
:103230000112282E5ACC0112282E96CD0112282ECA
:10324000EACD0112282EDDCE0112282E03CF011265
:10325000282E66CF0112282EC7CF0112282EDAD0D1
:103260000112282EE9D10112282E87D20112282E10
:1032700053D30112282EF2D30112282E89D4011221
:10328000282E59D50112282E88D50112282EF3D5C3
:103290000112282E9BD60112282EC1D60112282EEB
:1032A00033D70112282E58D70112282E7BD70112AE
:1032B000282EC8D70112282EA4D90112282E87DA69
:1032C0000112282E45DB0112282EA9DD0112282E1D
:1032D000FDDD0112282E40DE0112282EAFDE011284
:1032E000282E22DF0112282E7BDF0112282EA1DFDB
:1032F0000112282EDCDF0112282E08E00112282EF0
:1033000053E00112282EB6E00112282E31E10112FD
:10331000282E27E20112282EB7E30112282E24E4DA
:103320000112282E4DE40112282ECFE40112282E7E
:103330002BE50112282E64E50112282EB9E50112B1
:10334000282EDEE50112282E24E60112282E41E661
:103350000112282EEFE60112282E29E70112282E4D
:10336000EFFF0412282EF1FF0412282EF3FF04129F
:10337000282EDF900512282E23910512282E449125
:103380000512282E88910512282EF2910512282E5A
:10339000FC910512282E0C920512282E419205123E
:1033A000282E6C950512282E26970512282E129984
:1033B0000512282E74800412282EAE800412282EA6
:1033C00081810412282E57820412282E868304122B
:1033D000282E0F850412282E8D850412282E538640
:1033E0000412282E74870412282EE6870412282E31
:1033F00048880412282EAA880412282EB4880412A1
:10340000282EF2880412282E5B890412282EFA89AD
:103410000412282E788A0412282E2B8B0412282EB0
:103420009D8B0412282EC38B0412282EF38B0412BA
:10343000282E208C0412282EC68C0412282ED68CFE
:103440000412282E298D0412282E358D0412282EC0
:10345000418D0412282E4A8D0412282EAD8D04129F
:10346000282E0D8E0412282E5E8E0412282E798EA0
:103470000412282EA98E0412282ECA8E0412282E79
:10348000D68E0412282E5D900412282E7B900412F2
:10349000282EE4900412282EF7900412282E08916A
:1034A0000412282E9B910412282E9E920412282E7C
:1034B00094930412282E17940412282E2094041298
:1034C000282E83940412282E9A940412282EDC9419
:1034D0000412282E21950412282E50950412282E0D
:1034E00087950412282EA4950412282EC89504123C
:1034F000282E09960412282EFC960412282E429794
:103500000412282E7D970412282EDC970412282EF0
:1035100004980412282E3D980412282E4B98041269
:10352000282EAC980412282EE9980412282E2B99E4
:103530000412282E5C990412282E90990412282E29
:103540009B990412282EB9990412282E829A0412EB
:10355000282E8C9A0412282ECB9A0412282EE19A37
:103560000412282EEA9A0412282E549B0412282EA4
:10357000689B0412282E609C0412282E739C04124F
:10358000282E8C9C0412282EA19C0412282E419DCA
:103590000412282EA59D0412282E6C9E0412282E9B
:1035A000779E0412282E969F0412282EB29F041292
:1035B000282E0AA00412282E41A00412282E5BA057
:1035C0000412282ECFA00412282E60A10412282E47
:1035D000A8A10412282ECDA30412282E37A4041269
:1035E000282EA2A40412282EE8A60412282EF8A63B
:1035F0000412282EFBA60412282E07A70412282E38
:103600001BA70412282E23A70412282E68A7041231
:10361000282E16A80412282E86A80412282EEAA8FE
:103620000412282E83A90412282E1DAA0412282E63
:103630004BAA0412282EEAAA0412282EF6AA041273
:10364000282E25AB0412282E28AB0412282E57ABA7
:103650000412282E6CAB0412282EE3AB0412282E81
:10366000D3AC0412282EABAD0412282E35AE0412B2
:10367000282E56AF0412282E08B00412282E41B06E
:103680000412282E72B00412282E7BB00412282EA9
:10369000B7B00412282E9EB10412282E1AB20412BA
:1036A000282EAAB20412282E74B30412282EF8B3BE
:1036B0000412282E2EB40412282E77B40412282EB9
:1036C000ADB40412282EE0F40212282EF2F40212F5
:1036D000282E66F50212282E9CF50212282EF3F5EC
:1036E0000212282EDAF70212282EB8F90212282E1A
:1036F0002FFD0212282ED1FD0212282E08FE0212E2
:10370000282E2CFE0212282E8EFE0212282EC2FE19
:103710000212282EFFFE0212282E2FFF0212282E40
:1037200067FF0212282EB1DD0512282ED0DD05120A
:10373000282E1BDE0512282E65DE0512282E08DF36
:103740000512282E3FDF0512282E1EF10312282E07
:10375000D3F10312282E1FF20312282EA6F2031211
:10376000282E97F50312282E30F70312282ECFF7B4
:103770000312282E27F80312282EB6FB0312282E38
:1037800040FD0312282E74FE0312282EA0FE031201
:10379000282E9CFF0312282E2ACE0512282EA4CEF6
:1037A0000512282EBBCE0512282E35CF0512282E45
:1037B0008BCF0512282E9ACF0512282E45D0051240
:1037C000282EDCD00512282E22D10512282E92D1C7
:1037D0000512282EAAD10512282EF4D10512282E62
:1037E00023D20512282E43D20512282E6FD205129D
:1037F000282E9FD20512282E03D30512282EB4AAF4
:103800000512282E31AB0512282E51AB0512282E99
:1038100078AB0512282E8CAB0512282EE4AB0512CE
:10382000282E14AC0512282EBAAD0512282E7FAE14
:103830000512282ED1AE0512282E29AF0512282EEA
:1038400066AF0512282EC9AF0512282EC0B1051289
:10385000282E37B20512282E91B20512282E0B8081
:103860000612282E12800612282E37800612282EC5
:103870002E740012282E2E760012282E7A7700122F
:10388000282E5D790012282EB6790012282E6D7A26
:103890000012282EBE7A0012282EFC7A0012282E42
:1038A000B87B0012282E2B7C0012282E2D7C0012B3
:1038B000282E2F7C0012282E3D7C0012282E697C99
:1038C0000012282E6B7C0012282E6D9F0212282ECB
:1038D000CC7C0012282EFE7C0012282E797D00124E
:1038E000282E947E0012282E617F0012282E008040
:1038F0000512282E14800512282E00810512282E6C
:103900002C810512282E68810512282E8D81051222
:10391000282EAE810512282EE4810512282E37822A
:103920000512282EB4A10212282E86830512282EF5
:10393000CD830512282E0C840512282ED984051259
:10394000282EFF840512282E30860512282EB286D6
:103950000512282EC4870512282E76880512282ED7
:10396000D4880512282E32890512282E6489051262
:10397000282EC6890512282E2C8A0512282E708A18
:103980000512282EB58B0512282EE08B0512282E45
:10399000128C0512282E588C0512282E718C0512B7
:1039A000282E1B8D0512282EED8D0512282E9E8E99
:1039B0000512282E408F0512282EF68F0512282E6C
:1039C00042C20512282E8EC20512282EFEC20512F2
:1039D000282E1BC30512282EDDC30512282EE6C390
:1039E0000512282E3CC40512282E67C40512282E65
:1039F000CCC40512282E68C50512282EA5C50512AF
:103A0000282EF6C50512282E50C60512282E80C66F
:103A10000512282E02C70512282E4FC70512282E80
:103A200081C70512282EB6C70512282EC6C7051253
:103A3000282ED6C70512282E1BC80512282E54C8BA
:103A40000512282E0A8C0612282E8D860612282E84
:103A5000F1860612282E18870612282E1E880612B6
:103A6000282E7DE70112282EB1E80112282E01E947
:103A70000112282EC6EA0112282E06EB0112282E6A
:103A80007EED0112282EC5ED0112282E5BEF0112EA
:103A9000282EFCEF0112282E5CF00112282EDEF0F9
:103AA0000112282E12F10112282E55F10112282E92
:103AB000D3F20112282E67F40112282EA8F6011263
:103AC000282ED2F60112282E0DF70112282E17F7F4
:103AD0000112282E74F70112282EF7F70112282E52
:103AE00050FB0112282E6BFF0512282E81FF0512B4
:103AF000282E8BFF0512282ED3FF0512282EADE5A8
:103B00000512282EC5E50512282E6DE60512282E71
:103B1000AEE60512282ECBE60512282EF1E6051298
:103B2000282E38E70512282E6EE70512282EA5E765
:103B30000512282E37E90512282E7BE90512282EBA
:103B4000CE890612282E288A0612282E7B8A061273
:103B5000282E95900612282ED2900612282E179104
:103B60000612282E2C910612282EA0E70412282EC9
:103B7000EBE70412282E74E80412282E71E90412CF
:103B8000282E1FEA0412282EDCEA0412282EF1EA5D
:103B90000412282E3BEB0412282E8CEB0412282E44
:103BA000D5EB0412282EE8EB0412282E41EC041267
:103BB000282E9EEC0412282EADEE0412282EC4EFFF
:103BC0000412282EFFEF0412282E48F00412282E8B
:103BD00068F20412282E03F30412282EA0F3041214
:103BE000282EB0F30412282EC3F30412282E04F456
:103BF0000412282E36F40412282E96F40412282ECD
:103C0000A6F40412282ECEF40412282E32F5041243
:103C1000282EF4F60412282E0CF70412282E37F75B
:103C20000412282E5EF70412282E6EF70412282E96
:103C300091F70412282ECEF70412282E38F8041219
:103C4000282EEFF80412282E20F90412282E2AF923
:103C50000412282E2DF90412282E4AF90412282EB7
:103C6000BFF90412282EE9F90412282E06FA0412CC
:103C7000282E6EFA0412282EA9FA0412282EBBFA56
:103C80000412282EC5FA0412282E02FB0412282E34
:103C90000B8E0612282E1C8E0612282EAD8E0612B2
:103CA000282E9ABA0512282EEBBA0512282EAEBC81
:103CB0000512282E7CBE0512282EC6BE0512282EFF
:103CC000C5BF0512282E14C10512282E32C10512B7
:103CD000282E86C10512282E0EC20512282ECD4D83
:103CE0000012282EFB4D0012282E594F0012282EAC
:103CF000A44F0012282EF94F0012282E85500012D2
:103D0000282EE5500012282E31510012282EA151E4
:103D10000012282E4A520012282EC7520012282EB6
:103D200003530012282EDE560012282EA858001227
:103D3000282EE2580012282E50590012282E925C8C
:103D40000012282E285D0012282EDA5E0012282E7E
:103D5000EB5F0012282E0D610012282E6661001202
:103D6000282E25620012282EC0620012282ED4624E
:103D70000012282E93630012282EAD640012282E04
:103D80008C660012282E20690012282EA9690012C4
:103D9000282EC46A0012282EED6D0012282EFD6D0B
:103DA0000012282E6E6F0012282EE96F0012282EA6
:103DB00020710012282E7F710012282E0873001225
:103DC000282E87730012282E22B50412282ED6B56D
:103DD0000412282E4CB60412282E64B60412282E83
:103DE00000B70412282E42B70412282E40B804123D
:103DF000282E6CB80412282ED3B80412282E24B909
:103E00000412282E81B90412282E83BC0412282EF5
:103E100008BD0412282E8BBD0412282E29BF0412BF
:103E2000282ED6BF0412282E7AC00412282ECFC006
:103E30000412282E45C10412282E6FC20412282E07
:103E400045C30412282E88C30412282EC5C30412A9
:103E5000282EEDC30412282E31C40412282EC9C402
:103E60000412282E3BC60412282EE9C70412282E5D
:103E7000FFC80412282E5BCA0412282E7ECB04121F
:103E8000282E19CC0412282E89CC0412282E8CCD71
:103E90000412282E4AD50212282ECCD50212282E22
:103EA00040D60212282E94D60212282E21D70212B2
:103EB000282E44D80212282EB1D80212282E13D947
:103EC0000212282E4FD90212282EB8D90212282EFB
:103ED0002FDA0212282E99DA0212282EFFDA0212A5
:103EE000282E04DC0212282E33DD0212282ED5DD06
:103EF0000212282EA2DE0212282EBDDE0212282E69
:103F0000EDDE0212282E4EDF0212282E79DF021279
:103F1000282E19E00212282E2DE00212282E5EE033
:103F20000212282E7CE00212282EACE00212282E6B
:103F3000CDE00212282EF5E00212282E0DE1021229
:103F4000282E0FE20212282E2DE30212282EE7E37C
:103F50000212282EA9E40212282EE7E40212282ECB
:103F600017E50212282E76E60212282EA6E6021285
:103F7000282E08E70212282E6EE70212282EB3E739
:103F80000212282E0DE90212282E54E90212282EC0
:103F900018EB0212282EE3EB0212282E5EED02121D
:103FA000282E6CEE0212282EFAEF0212282E2CF088
:103FB0000212282E0CF10212282EEEF10212282EE7
:103FC0004BF20212282E63F20212282E35F302124F
:103FD000282E39F40212282EECF30512282E25F48F
:103FE0000512282ED4F40512282E3AF50512282E93
:103FF000ABF50512282E33F60512282E9FED05127B
:10400000282EE6EE0512282EFF8E0612282E108F7F
:104010000612282EB88F0612282EF6FF0212282E1E
:1040200011930612282ED1910612282EE191061224
:10403000282EF6910612282E4F920612282EF68A66
:104040000612282E7F8B0612282EF18B0612282EA0
:10405000F07F0012282EF37F0012282EF89206120D
:10406000282E08930612282E0B930612282E0E9344
:104070000612282EF87F0012282EDFFB0512282EAC
:1040800052FD0512282ED6FD0512282E25FE0512FA
:10409000282ECDFF0312282ED6FF0312282EDFFF75
:1040A0000312282EEDFF0312282E88C80512282E91
:1040B00007C90512282EBFC90512282EB1CA05123C
:1040C000282EA2CC0512282EF8CC0512282E4ACD77
:1040D0000512282E63CD0512282E71CD0512282E2B
:1040E000D9CD0512282EECCD0512282EF7CD0512BC
:1040F000282E05CE0512282E17CE0512282E35FBA8
:104100000412282E8AFB0412282E9EFD0412282E4B
:10411000D6FD0412282EFBFD0412282E14FE0412D4
:10412000282E2DFE0412282E22FF0412282EB0FF66
:104130000412282E6A840612282EAD840612282E18
:10414000BE840612282EF1840612282E2985061216
:10415000282E61850612282E78850612282EE085E5
:104160000612282E13860612282ED1F60512282EA6
:10417000FCF60512282E43F70512282E52F70512D9
:10418000282E71F70512282EDBF70512282EE4F7EA
:104190000512282E45F80512282E69F80512282E3A
:1041A0002FF90512282E3CF90512282E4DF905127B
:1041B000282EBC920612282ED9920612282ED1FB48
:1041C0000112282EE4FB0112282E5BFD0112282E7D
:1041D00068FD0112282E81FD0112282E94FD011286
:1041E000282EAEFD0112282ECDFD0112282E4CFEE8
:1041F0000112282E0CFF0112282E7EFF0112282EFC
:10420000DBFF0112282EEBFF0112282E3691061239
:10421000282E5B910612282E84910612282EAC912E
:104220000612282E3C820612282E63820612282EA1
:104230008A820612282EFA820612282E7BF905128F
:10424000282E94F90512282EA0F90512282EA9F976
:104250000512282ECDF90512282ED9F90512282E7F
:10426000E8F90512282E06FA0512282E58FA05122A
:10427000282E92FA0512282EC7FA0512282E16FBB0
:104280000512282E62FB0512282E7AFB0512282E15
:1042900084FB0512282E95FB0512282ED9FB05124A
:1042A000282E5F920612282EB0920612282E84A283
:1042B0000512282EB0A20512282ECCA20512282EF7
:1042C000DFA20512282EF5A20512282E61A30512E1
:1042D000282E9BA30512282E09A70512282E28A8F0
:1042E0000512282E59A80512282EBBA80512282E23
:1042F00096A90512282EBEA90512282ED3A90512AB
:10430000282EE3A90512282E24AA0512282E79AA00
:104310000512282E89AA0512282E28FE0512282EFD
:1043200043FE0512282E6DFE0512282E8AFE051268
:10433000282EB2FE0512282ED4FE0512282EEDFEE0
:104340000512282E1CFF0512282E37FF0512282ED5
:10435000D08F0612282E26900612282E93E90512D9
:10436000282E9AE90512282EA7EA0512282ED9EA46
:104370000512282EFFEA0512282E32EB0512282EF0
:1043800044EB0512282E7FEB0512282EEFEB0512C9
:10439000282E2CEC0512282E79EC0512282EA7ECDD
:1043A0000512282EC7EC0512282E95880612282EF5
:1043B000B7880612282EC8890612282ECB89061225
:1043C000282E0B8D0612282E698D0612282EA88DF8
:1043D0000612282EE98D0612282EAFB20512282EBD
:1043E000B5B20512282EFAB20512282EE8B405122D
:1043F000282E21B50512282E81B50512282E67B664
:104400000512282EABB60512282ED3B60512282E7B
:1044100059B70512282E6EB70512282E26B9051297
:10442000282E13BA0512282E59BA0512282EC09923
:104430000512282ED6990512282E7B9A0512282EB1
:104440009A9B0512282E6B9C0512282E0D9D051295
:10445000282E4B9D0512282EC89D0512282E239E1E
:104460000512282E749E0512282E9B9E0512282EBA
:10447000EF9E0512282E8CA00512282E91A0051261
:10448000282EB3A00512282E40D40312282ED6D4ED
:104490000312282E53D50312282ECBD50312282E13
:1044A00005D80312282EDFD90312282EF4DA0312BE
:1044B000282EAADB0312282EB6E00312282E9BE139
:1044C0000312282E2DE20312282EFEE20312282EBC
:1044D00086E30312282EB7E30312282EE2E4031228
:1044E000282E65E50312282E82E50312282EE6E524
:1044F0000312282E71E60312282EDDE60312282E61
:10450000B0E70312282ED0E80312282E78E9031210
:10451000282EB3E90312282E34EB0312282EFFECC9
:104520000312282E73F00312282EE6CE0412282E32
:1045300077CF0412282E1AD00412282E0ED104127E
:10454000282EE4D10412282E3BD20412282E83D226
:104550000412282E28D30412282EEED30412282E5B
:1045600054D40412282E98D40412282EEBD404120A
:10457000282E4CD50412282E03D70412282E20D81A
:104580000412282EEAD90412282EBCDA0412282E8E
:1045900001DC0412282E40DD0412282E00DE041255
:1045A000282EADDF0412282EB9E10412282EE2E1F4
:1045B0000412282E0BE20412282E23E20412282EC5
:1045C00056E30412282EC3E30412282E0DE404122D
:1045D000282E3EE40412282E0AE50412282EB2E604
:1045E0000412282EC2E10512282EF1E10512282E10
:1045F0003AE20512282E54E20512282E7CE205121A
:10460000282E93E20512282EA0E20512282EBDE2E4
:104610000512282EAAE30512282EE1E30512282E02
:10462000EBE30512282EF8E30512282E00E505120B
:10463000282E16E50512282E1FE50512282E28E53E
:104640000512282E31E50512282E3AE50512282EEE
:10465000A3E50512282E37D90512282E24DD0512D0
:10466000282E40DD0512282EBBD30512282EADD4EE
:104670000512282ED0D60512282E1FD80512282E56
:1046800076D80512282EE1D80512282E14D9051245
:10469000282E21D90512282EAEF00512282E26F13B
:1046A0000512282E5EF10512282E67F20512282E1B
:1046B0008BF20512282EA3F20512282EC3F2051242
:1046C000282EE4F20512282EF4F20512282E0BF300
:1046D0000512282E35F30512282EC4F30512282EB4
:1046E000C7FF0212282E089F0212282EB79D021221
:1046F000282E269D0212282E749C0212282E709BB2
:104700000212282E2E9B0212282E0E9B0212282EF9
:10471000569A0212282ED8980212282E9F9802121A
:10472000282E70980212282E6D980212282E779744
:104730000212282E5E960212282E44950212282E6E
:104740009F940212282EFC930212282E1B93021211
:10475000282E74920212282ED9910212282E959199
:104760000212282E8CA10212282E4AA10212282EF3
:104770002CA10212282EC5900212282E239002127C
:10478000282E11900212282E6E8F0212282E70A051
:104790000212282EFA8E0212282EA88E0212282E1D
:1047A000438E0212282E108E0212282EEA9F021229
:1047B000282E50830512282EB88D0212282E878DA0
:1047C0000212282E9E8A0212282E568A0212282EA3
:1047D0004A8A0212282EBD890212282E0B89021243
:1047E000282E9E860212282E07840212282ED1839C
:1047F0000212282E6D820212282E20820212282EEA
:1048000059810212282E2C810212282E6780021252
:10481000282E3A800212282E00800212282E8E9F07
:104820000212282EA27C0000000080FBE4738F009F
:104830000100D51287000100D412240002009E1E40
:1048400025000200A01E26000200A21E2700020072
:10485000A41E28000100A61E29000100A71E840036
:104860000400A81E86000100AC1E2A000100AD1E37
:104870002B000100AE1E2C000100B21E2D0008000E
:10488000C0122E000100B31E2F000100B41E300024
:104890000100B51E31000100B61E32000100C81231
:1048A00033000100C91234000100B71E36000100B8
:1048B000CA1238000100B81E39000100B11E830081
:1048C0000200C51E63000100D31264000100AF1E88
:1048D00065000100B01E6D000100C41E6E000200E4
:1048E000BE1243000100B91E44000200BA1E45007A
:1048F0000100BC1E46000200BD1E47000800CB128E
:1049000048000100BF1E49000100C11E4A0002000C
:10491000C21E4B000100C01E04000100C71EA10002
:104920000100C91E37000100C81E88000100D61210
:104930000000000000000001363601010001020104
:104940000001030100010401060605020000070141
:1049500000340801000F090401010D0100FF0E08D9
:10496000000017020000190100FF1A0100011B01DD
:1049700000FE1C0100081D0200001F0100012001B3
:104980000001210200002301000F24020000260183
:10499000000127010008280200FF2A0100072B015F
:1049A00002402C0100002D0100012E0100012F0109
:1049B00000FF30010B1C310800003A0100083B01E8
:1049C000000F2F0100000103710301030103010324
:1049D0000103010322030203010310030003000388
:1049E0000003000300030003000342030003240349
:1049F0000603000300030403120325032303250316
:104A0000230304030403000300030003440300031F
:104A10000003230300036503210035038103000322
:104A20000503000300030003030071003001600070
:104A3000110070003102200350048000100061005A
:104A40000000140063007300720062004300000065
:104A50001300060000000000040012000000000027
:104A60000000000004000400370037003C0244004E
:104A7000000000000000000065000000350081001B
:104A8000000005000000830000000304710402041C
:104A900060041104700402040204010402041004FE
:104AA0006104000414046304730472046204430484
:104AB00000041304060400040004040412040004A7
:104AC0000004000400045104640000040004000415
:104AD00044040004000400040004650400043504D8
:104AE00081046400050400048304000401017101D1
:104AF00001010101110101013101010101018001E7
:104B0000100161013B001400630173017201620135
:104B100043010001130106013D01350004011201AA
:104B2000000100010001000104010401330133010F
:104B30003C01440132013600000100016501000121
:104B4000350081010001050182018301000103029A
:104B500071023001600211027002010202020202BF
:104B60008002100261023A00410063027302720285
:104B70006202430200021302380000020002040233
:104B800012020002000200020002040204023700C6
:104B900037003C02440200023900000200026502B4
:104BA0000002350281020002050282028302000235
:104BB0000000013E1300773D0100013E0200FF3C72
:104BC0000300053D04000B3D0500113D06001D3DA1
:104BD00030003B3D3100353D3200473D33004D3D17
:104BE0003500533D3400593D36005F3D11006B3DAB
:104BF0001400713D15002F3DFFFF0000360001003D
:104C0000060000000F00000000000000000000008F
:104C1000000003FFFF00000403FFFF0000FFFF0F81
:104C2000F4010005C4040320000100000B00000093
:104C3000000000000003010FF1440F45F744214537
:104C4000FD441545FD441B4503452145FD441545DF
:104C50000000000000000000000000000000000054
:104C60000000000009452145000000000000000090
:104C70000151300687300881300B993010C12F0A5E
:104C8000B130025730057530075D300C33300D45BB
:104C900030FF000003EAF5E5D5D5C5B5A5959585A6
:104CA00085757565655555454535352525151505B4
:104CB000EF341F35F534FB3419350D3507352535FF
:104CC0002B3531353D350135E934E33400160F001D
:104CD000000B150B020002220F32000006567777F8
:104CE00077777777777777777777777777000000B9
:104CF00000000000008967452301EFCDAB010305EB
:104D000007090B0D0F00020406080A0C0DEB35FD18
:104D1000350336B9340936B334BF34573675367B6C
:104D2000365D3669366336F333ED3329342F342359
:104D300034DB33303017181921301B1D1F300001B0
:104D400019161816161523030030301618192023CB
:104D50001A1C1E3000034948424D18172505020051
:104D6000383C3E363B3B352B432C0C0E020B040BE0
:104D70000A0708000F3F360F36153621361B36134B
:104D80003537356F364335493502040201010101DB
:104D90000902FF330534F93335340005150D0910C8
:104DA00008040B341D3400BE040A15000E00040074
:104DB0007F0028000C00E803100C0A03090004001F
:104DC00008FF1E1E09030401100C05080FC082C055
:104DD000839011B2E4F0A3F07CD57D047A367B1188
:104DE0001243D1122DE19012D4E0700479008002B8
:104DF0007901124815122DE70262CD74F412240CC9
:104E000074F51228C6E9FDEAFEEBF9ED705B740259
:104E10006E703E7408901145F075080078081228ED
:104E20006AECF508780812286AE9F508780812286B
:104E30006A901EA81226AA901EACE0F97CCB7D12C7
:104E4000901EC5125C49122E0B7407122893024F54
:104E50003074016E6003024F357408901145F07B89
:104E600000E9FA122E3B024F3074016D60087402A3
:104E70006D6003024F35EE600574036E706074025E
:104E8000124F4A122A65AA08AB09AC0AAD0B122DC3
:104E9000F9E9FA90114AE0A2E3401DEA701A901174
:104EA000B6E004F06404701090808A7808122A65D5
:104EB000901EA87808122A8374036E70759011B73B
:104EC000E0FB74012BF0EBC39405406690808A7878
:104ED00008122A65901EA87808122A83805474014B
:104EE0006E705274016D7035740A901145F0740142
:104EF000122AAAE4F07402122AAA7403F090807AAB
:104F00007808122A657404122AAA7808122A83746F
:104F100008122AAAE4125D161230638028740A125D
:104F20004F4A122A65AA08AB09AC0AAD0B122E290A
:104F3000E9FAEA60107CE87D037A017B0090114277
:104F4000E0F9123B13740B02667D901145F0901E40
:104F5000ACE0F9901EA878082274F612240CE9FE41
:104F6000EAFF7AD1F91239F3EA7001EB702C7A0278
:104F70007B001239DBEA7001EB700E7A107B009037
:104F80001142E0F9123A17801874D18A828B83F0AB
:104F9000EEA3F0EFF91239E78007EE8A828B83A344
:104FA000F002512C74F712240C8908900663E0FE7D
:104FB000A3E080208E828F83124FF4E0600AA31258
:104FC0005C50FAA908123CE78E828F83A3A3A3A3A7
:104FD000A3127346FFEE7001EF70D9900665E0FAF8
:104FE000A908123CE712317190111E12691A123190
:104FF0006B027116E01259402274F112240C8909D7
:105000008C0A740F122AAA125EC37411122AAA12F1
:1050100056AF750800750E008050E50BC333FEE4F3
:1050200033FFE82EF582E93F12507BE50EC333FED5
:10503000E433FFEA2EF582EB3FF583E0650C700464
:10504000A3E0650D7019E508C333FEE433FFEC2ED1
:10505000F582ED3FF583E50CF0A3E50DF0050805BD
:105060000BE50BC3950A40B2050EE50EC39509503A
:1050700005750B0080EBA90802648EF583E0F50C42
:10508000A3E0F50D2274F412240CE9FD740C122A2D
:10509000AA125EC3750B008002050BE50BC39D5081
:1050A0003F750A008002050AE50AC39C50EBE50B38
:1050B000C333FEE433FFEA2EF582EB3FF583126241
:1050C000B8E50AC333FEE433FFE82EF582E93FF585
:1050D00083E065087004A3E0650970CA7901800265
:1050E000790002668074F612240C1251737003A3C7
:1050F000E06D70177508487509117808122866EE7A
:10510000FA123E077402122893801A750802750974
:105110008078081228668C088D0978081228661293
:105120005183122893800574021228937F0202266D
:105130003674F612240C1251737003A3E06D7017CD
:105140007508557509117808122866EEFA123E0D99
:105150007402122893801A75080375098078081262
:1051600028668C088D097808122866125183122847
:105170009380B9EAFEEBFF12592EFCE9FD90111E57
:10518000E06C22EE240E126D41FD7C80EE2402FACA
:10519000EF3400FBEE240F126D41F9123E2B740424
:1051A0002274F612240C74FE1228C6EAFEEBFF8568
:1051B0001882851983E4F0A3F0126499FA88828931
:1051C00083A3A3E0F9750800750900600494F14019
:1051D00005750982804590111EE06A7003A3E06B9B
:1051E0007022851882851983AA82AB831236FFE963
:1051F000F508851882851983E07002A3E0701C759C
:10520000098380179012D4E0600464017005750969
:10521000818008E064027003750980851882851911
:10522000831256AFA909EEFAEFFB123E13E50860B0
:1052300016851882851983E07002A3E0600985183D
:105240008285198312594902512774F212240CEAFB
:10525000FEEBFF750A00750B0012592AF508E9F5F7
:1052600009123171EA65087003EB65097012123793
:1052700011E914F50A79017A7E7B11123717800340
:10528000750B801252BDF50C780C12286A750C7ED5
:10529000750D11780C122866780A12286A7808129F
:1052A0002866E50BF508780812286A12629A126DD2
:1052B000367A057B80123E1974070270BAEE240E0E
:1052C000F582EF126D442274F512240CE9FE7F0082
:1052D00080278A828B831271EAF9E42508E9F509AF
:1052E000EF33F8E433F9EC28F582ED39F583E5087E
:1052F000F0A3E509F01270F80FEFC39E40D47F03CE
:1053000002263674E812240C74FC1228C685188212
:1053100085198312691A750F007402122AAAE4F023
:10532000A3F0F516F517851882851983E02413126A
:1053300068B8126F51F508E9F509850A82850B8373
:10534000A31272C2A3A3E0F9EAFEE9FFE50A24046E
:1053500012728DAA08AB09123213E9640170381277
:1053600056B512286A750800750900780812286673
:10537000780812286A90111E1226AE7508807808E7
:1053800012286A7407122AAA1256A3122AAA1256BF
:10539000C412289302568EAA08AB09123213E97080
:1053A0000E90111EE065087004A3E0650970B0124C
:1053B00056988A096034C333FAE433FB123A5374C3
:1053C00002122AAA12691A7402122AAAE07002A30F
:1053D000E060177402122AAA1256AFAA0AAB0BA9F0
:1053E00009123D178A0A8B0B800375090012569823
:1053F0008A08601CC333FAE43312737D7001EB60DA
:105400000FAC16AD17AA0AAB0BA908123D17800303
:10541000750800900663804AE4F0A3F0AA0AAB0B7B
:10542000851282851383126DDF125C50F91239E701
:10543000851082851183E0C0E0850F0AE50A247E8D
:10544000F582E43411F583D0E0F0050FE514600730
:10545000AA10AB11123A59851282851383A3A3A314
:10546000A3A3E0F512A3E0F513E5127002E51370B3
:105470000302562E851282851383125ECDFAE9FB54
:105480008A828B83E060D0851282851383A3A3E098
:10549000A2E050C3851282851383A3A3A3125ECD1D
:1054A000FCE9FDEC7001ED8A828B836014E0FA79EF
:1054B000018C828D8312482C8A108B117514018007
:1054C0000DA3A3A3E0F510A3E0F511751400E510FA
:1054D0007002E511700302544C851082851183A37C
:1054E000E06E7003A3E06F600302544C8510828568
:1054F0001183A3A3A3A3A3A3A31226AE8510828521
:105500001183A3A3A3A3A3A3E0FC7404122AAA12E9
:105510005C49A909123CF97402122893E970388594
:105520001082851183A3A3A3A3A3A3A3A3A3A31260
:1055300026AE851082851183A3A3A3A3A3A3A3A34F
:10554000A3E0FCAA16AB17A908123CF974021228B2
:1055500093E9700302544CE5092508C333240AFA81
:105560007B001239DB8A0A8B0BEA7001EB700302B5
:10557000543074D28A828B83126685F5838882A325
:10558000A3125EC38A828B83A3A3E8F0A3E91272FD
:105590002A1256D5E508F0EA2405FAEB3400FBE5BB
:1055A000096038E50A240AF8E50B3400F98A828B91
:1055B00083125D227402122AAA12507D750E0078A1
:1055C0000C122862E509C333FCE433FD8A828B8325
:1055D000125C4912649312289380088A828B83E4B8
:1055E000F0A3F0E50A2408F582E50B127245E50800
:1055F0007003025418E509C333F8E433F9E50A28C7
:10560000F8E50B39F9740A28FAE439FB12691A85AE
:10561000160C85170D750E00780C122862E508C36C
:1056200033FCE433FD12649312289302541CE50FFB
:1056300060391256B512286A75087E750911780806
:10564000122866E50FF508780812286A90111E12D4
:1056500026AE750800780812286A7407122AAA1262
:1056600056A3122AAA1256C41228937402122AAA06
:10567000E07002A3E060087402122AAA125949E5F8
:10568000167002E5176007AA16AB17123A59740490
:105690001228937F10022636850A82850B83E0FA52
:1056A000027259E02402FCA3E03400FD740722E0FA
:1056B000FCA3E0FD22851882851983E0240E126D7B
:1056C000870258A3E0240FF81268E67A067B80125E
:1056D0003E19740722A3E50912722E0273FD74EAC3
:1056E00012240C74F41228C68A0E8B0FECFEEDFF08
:1056F000740B122AAA7403F0122AAAAA82AB83128C
:1057000043D1E50E240CF512E50F3400F5131231E8
:105710006BEAFCEBFD7403122AAAAA82AB83124344
:10572000CBE96012EE2413126A98E0FA74036A60FF
:105730000A74016A60057484025846EE2408126FE8
:1057400031E0F96021C394F1501CEE2414F50AEF06
:1057500012729174036A7013850A82850B83E0606C
:1057600005C394F140057482025846EE2409127173
:10577000E2EE240BFEEF3400FF851282851383E0F6
:1057800064217002A3E060030258117487851882B7
:10579000851983F0122D69904DAEE493F87401934E
:1057A000F9C3EA98EB99400302584D850A82850BAC
:1057B00083E0F50A780A12286AEEFCEFFD8508827C
:1057C000850983125C49850C82850D83E0F91247B7
:1057D000B57401122893E97074E4851882851983E1
:1057E000F0123C75851082851183E06403705E744D
:1057F00001122AAAAC82AD83EEFAEFFB124791E9BF
:10580000704B7D007C007900EEFAEFFB123DD780F3
:105810003C850A82850B83E0F50A780A12286AEE35
:10582000FCEFFD850882850983125C491247A37449
:1058300001122893E9700DE4851882851983F0120E
:105840003C7580097488851882851983F0E50E12ED
:105850006F2CE50F12589F12286A7401122AAA852C
:105860008208858309780812286685128285138349
:105870001271EA4480F50978081228667901E50E6C
:105880002402FCE50F3400FDE50E240FFAE50F12AB
:1058900062AB122893740C1228937F0E02263612E4
:1058A00072BDE0F508780822C082C08374F3122824
:1058B000C6E4851882851983F07401122AAA126938
:1058C0001A7403122AAAAA82AB83122C9185188219
:1058D000851983AA82AB83122CCD740D12289302F2
:1058E00062CD74F612240C125926F8901150E0582B
:1058F000F508A3E059F509E5087002E50960247888
:105900000812286690111E1226AE1252BDFD7C00B0
:10591000EE2402FAEF3400FB126D36123E257404B9
:1059200012289302512CEAFEEBFF12592E22126428
:10593000A612593BE0FAA3E0F9EA223400F583E02D
:10594000F8A3E0F98882898322127110123A592251
:1059500074E812240C74DB1228C68A168B17751291
:1059600000751300125C4DF50B851882851983AC08
:1059700082AD837A007B00799C122E4D7A047900E7
:10598000122CDFEAF50C851882851983E0250CF0CE
:10599000FAE50BC39A4003025BE4E0C3950BF509FB
:1059A000C394044003750903E50975F01AA4FAAB22
:1059B000F0123A538A128B13EA7001EB7003025B08
:1059C000E7750A00AE12AF13850B08025A6F7C0808
:1059D0007D0079FFAA10AB111239C9E50E2404F835
:1059E000E50F3400F9EE2416FAEF3400FBEE24152F
:1059F000FCEF3400FDEE2414F510EF3400F51188AF
:105A0000828983E07036850E82850F83E07002A361
:105A1000E0700AE4851082851183F0800E740185A0
:105A20001082851183F090056FE01485148285152E
:105A300083F074028C828D83F0E4803090056FE0F7
:105A4000048514828515831271C5C3940340030233
:105A50005B1974028510828511831271C56401601F
:105A600003025B2BE48C828D83F07401125C55E59C
:105A70000AC395094003025B4AE508C3950C40033D
:105A8000025B30A908122D518A0E8B0F0508900574
:105A90005C125C76125EBDEE2412F582EF12724546
:105AA000E8F0A3E9125C65F514EF3400F51574FF16
:105AB000851482851583F0850E82850F83A3A3A3A9
:105AC000A3A3A3A3A3A3A3E0C0E0EE2419F582EF50
:105AD000127245D0E0F07401122AAAE4F0125EBD01
:105AE0007402122AAA125D22EE240AF510EF340085
:105AF000F5117401122AAAAA82AB83122CBBE964A5
:105B00000160030259CE7404122AAAAC82AD83AAA2
:105B100010AB111243D10259DB740185108285113B
:105B2000831271C564037003025A647401025A65DA
:105B3000E50CC3950B40057508008018E50BC3956F
:105B40000CF508800F7401125C55E50AC3950940F5
:105B500003025BE7740E122AAAAC82AD83AA087B0B
:105B6000007987122E4D05087418122AAA125C7645
:105B70007C087D0079FFEE240AFAEF3400FB12392D
:105B8000C9EE2412F8EF3400F9740E122AAA125C3E
:105B9000498882898312691AEE2415F582EF127200
:105BA000457402F0EE2416F582EF1272457403126A
:105BB0005C65F582EF12724574FFF0741D122AAA1B
:105BC000E0C0E0EE2419F582EF127245D0E0F0EE6D
:105BD0002414FAEF1270D27002A3E06003025B4556
:105BE000E4025B47750900750800780812286A7896
:105BF00012122866E509F508780812286AE50BF5FF
:105C000008780812286A7405122AAAE0FD7C00E5CB
:105C1000162402FAE5173400FBE516126108E517B1
:105C2000126D3C123E617405122893E5127002E574
:105C3000136007AA12AB13123A597425025690AC9E
:105C400082AD83851882851983127110221272B376
:105C5000126DE4E0228A828B83F0EE241AFEEF3488
:105C600000FF050A22F0EE2417F582EF1272BD74D0
:105C700002F0EE241822126F49E8F0A3E9F07C70DC
:105C80007D05EE2402125C8922FAEF3400FB1243F8
:105C9000D12274F012240C74F91228C68A088B09D8
:105CA000127402851882851983780C122A83125D7A
:105CB0000EC0E07404122AAAD0E01272E874051231
:105CC0002AAA7401F07406122AAA7401F09011280D
:105CD000F07402901131F0850882850983A3A31224
:105CE0005EC3901129125D22EA901132F0E508128C
:105CF0006108E5091252C3901127125D16122DFF9B
:105D0000E96003122E057407122893026D28EE2411
:105D100004FE1270CD22F0851882851983AA82AB09
:105D20008322E8F0A3E9F02274F212240C74FF122B
:105D300028C6890A8A0C8B0D7E007F008A088B0991
:105D40009012D4E0600D64016003025E3980048823
:105D5000088909E5087002E509603690055C125C67
:105D600049850882850983E06A7003A3E06B600FB0
:105D7000E5082416127241125ECD7001E970D085DB
:105D80000882850983E06A7003A3E06B7003025EFA
:105D9000397A187B00123A538A088B09AE08AF098A
:105DA000EE7001EF7003025E3990055C126F4512D0
:105DB0005D22900551126F3EA3F0900563126F3E75
:105DC000A3A3F0900564125ED2F01231FBE98E823B
:105DD0008F83A3A3A3A3A3A3A3F0901EAD125ED2AF
:105DE000A3A3A3A3F07C707D05EE240D125C89852E
:105DF0001882851983AA82AB8379411245ED8518F3
:105E000082851983E0600890111E125EC3800478B9
:105E1000FE79FF8E828F83A3A3A3A3A3A3A3A3A32F
:105E2000125D22EE2416F582EF127245E50CF0A306
:105E3000E50DF08E0C8F0D050A901132E0FAE50A9F
:105E4000C39A50047C008023E50AC39AFCC39406DD
:105E500040027C057B00800EE50C2416F582E50DE2
:105E6000340012507B0BEBC39A40ED7508007808A4
:105E700012286A780C122866ECF508780812286A4D
:105E80009011321258A212286AAD0A7C007A297B3E
:105E900011901127E0F9123E5B74051228939012BD
:105EA000D4E060046401700DEE7001EF6007EEFA5B
:105EB000EFFB123A59122E0574010270BA850E8258
:105EC000850F83125EC722E0F8A3E0F922125EC7B5
:105ED000E822E08E828F830273FD74EC12240C742E
:105EE000FF1228C68A0A8B0B7E008E0E8E0F125C64
:105EF0004DFF851882851983AC82AD837A007B00C3
:105F0000799D122E4D851882851983E0FAEFC39A88
:105F1000507EE0C39FFEC3940B40027E0AEE75F0F4
:105F200006A4FAABF0123A538A088B098A0E8B0F3B
:105F3000EA7001EB6058750C00801B74028882893E
:105F400083F0740388828983F0E5082406F508E568
:105F5000091271E5050CE50CC39E5034AC08AD097F
:105F6000850C12EF2512FAE43400FB798B122E4DCA
:105F7000E5082405F8E5091271B9122674010242F8
:105F80005F875F8A5F3B5FE480BA740180B67E0002
:105F9000750800780812286A780E122866EEF5084F
:105FA000780812286AEFF508780812286A74051232
:105FB0002AAAE0FD7C00E50A2402FAE50B3400FB86
:105FC000E50A126108E50B126D3C123E677405127A
:105FD0002893E50E7002E50F6007AA0EAB0F123A88
:105FE0005974011228937F0C02263674EA12240C8D
:105FF00074FE1228C68A148B15750A00750B0012E0
:106000005C4DF508851882851983AC82AD837A00D2
:106010007B0079A312479D850882AA828518828514
:106020001983125EC3C3EA98E49940030260B08505
:106030001882851983E0C39AFEA3E09400FFC3EEA3
:106040009404EF940040067E037F008006EE70010A
:10605000EF605DEEFAEFFBEA75F015A4FAACF075AF
:10606000F015EBA42CFB123A538A0C8B0D8A0A8B89
:106070000BEA7001EB6039750E0075090085091097
:10608000C3E5109EE49F502DAC0CAD0D8509128523
:106090000810E5102512FAE43400FB79A212479D9E
:1060A000E50C2415F50CE50D3400F50D050980CD42
:1060B000750E8B7E00750900780912286A780A121D
:1060C0002866EEF509780912286A780812286A7499
:1060D00005122AAAE0FDAC0EE5142402FAE51534F7
:1060E00000FBE514126108E515126D3C123E6D745B
:1060F00005122893E50A7002E50B6007AA0AAB0BAC
:10610000123A597402025897240FF5822274F6123B
:10611000240C74FF1228C6EAFEEBFF1264A612716B
:1061200002A3A3A3A3A3A3A3A3E0F9122E23E985AB
:106130001882851983F0750800780812286A74019E
:10614000122AAA85820885830978081228667508AC
:1061500035750980780812286679011262A3122821
:1061600093740102512974F412240C74FA1228C693
:106170008A088B09126FDBFAEFFB122C97E9601388
:1061800012316BEAFCEBFDEEFAEFFB1243CBE96454
:1061900001700A7401122AAAE4F0A38009740112A2
:1061A0002AAAEEF0A3EF1271D8A3A3A3A3A3E0FA47
:1061B000A2E650087403122AAA7401F0EAA2E7507A
:1061C000087404122AAA7401F07405122AAAE4F0D1
:1061D0007401122AAAAA82AB83122E41E985188281
:1061E000851983F0750A00780A12286A7401122A48
:1061F000AA85820A85830B780A122866750A347587
:106200000B80780A1228667901E5082402FCE5096A
:106210003400FDE508240FFAE5091262AB12289359
:10622000740602667D74F612240C74FF1228C6EA06
:10623000FEEBFF127249124FF41262B8A908122E37
:1062400011E9851882851983F09012D4E0700B74DF
:106250000165097005A908123F2D12629A8C828D82
:1062600083E064FF7004A3E064FF602B750800788E
:106270000812286A7401122AAA858208858309787F
:10628000081228667508367509807808122866791C
:10629000011262A6122893026161EE2402FCEF341F
:1062A00000FD2212629AEE240FFAEF34001262B15E
:1062B00022FB123DCB740522E0F508A3E0F509228C
:1062C000C082C0839012D4E07003123F33D083D0D9
:1062D0008202282B74F012240C74EF1228C6125973
:1062E00026F50CE9F50DEE240FF50AEF127291EE8A
:1062F00024021271E290111EE0650C7004A3E065A7
:106300000D706185188285198385820E85830F78CB
:106310000E122866750E11750F00780E1228667C15
:10632000007D007A817B00123ADD7404122893E923
:106330007032750E00780E12286A7401122AAA852E
:10634000820E85830F780E122866AC0CAD0DAA085C
:10635000AB09850A82850B83E0F9123E1F74031294
:106360002893802A750E11750F80780E1228667892
:106370000C1228661252BDFD7C84AA08AB09850A5E
:1063800082850B83E0F9123E2B740412289374115A
:10639000025D0874F112240C74EC1228C6EAFEEBBC
:1063A000FF126499F508EBF50990111EE06508707D
:1063B00004A3E06509600302644288828983A3A381
:1063C000E0FA94105004EAFB80027B107403122A56
:1063D000AAEB1270DBA3A3A982AA83890C8A0D758C
:1063E0000E00780C1228627406122AAAE0FC7D00C6
:1063F0007407122AAAAA82AB831264931228937498
:1064000003122AAA85820A85830B780A12286675E8
:106410000A11750B00780A1228667C007D007A81CB
:106420007B00123AD774041228937403122AAAE04C
:106430009011486005E0D2E48003E0C2E4F07A0005
:1064400080027A84EA851882851983F07401122A01
:10645000AAE508F07402122AAAE508F0126F2BEFE1
:1064600012589F12286A7401122AAA85820885830D
:1064700009780812286675081475098078081228AA
:106480006679031262A312289374141228937F076B
:106490000226361239BD7403221264A612711BFC47
:1064A000A3E0FBE42C22EE2413F582EF2274F41215
:1064B000240C74E01228C68A088B09851882851975
:1064C00083AC82AD83123DB99012D4E06402703384
:1064D0007402122AAAAE82AF8312316BEEFCEFFD7A
:1064E0001243CBE9601D1231718A0A8B0BA80AA9ED
:1064F0000B851882851983E0687003A3E069700337
:1065000002667B1233337402122AAA125C3F1232E3
:106510003DE96401700302667B740B122AAAAA8209
:10652000AB8312317D7402122AAAAC82AD83740B44
:10653000122AAAAA82AB831243CBE96032123177C6
:106540008A0A8B0BA80AA90B851882851983E06833
:106550007003A3E0696018851882851983125EC3F1
:10656000900552125D227A527B05794B1245F390C9
:1065700012D4E0600764016003026607E508241195
:10658000127241C082C0831231718A088B09D08394
:10659000D082E065087004A3E065096034740212DB
:1065A0002AAAAA82AB83122D0F8A828B83E582707E
:1065B00002E583601CA3A3A3A3E0FA74016A60054B
:1065C00074026A700C7402122AAAAA82AB83122D7A
:1065D0001B1231718A088B09A808A90985188285C0
:1065E0001983E0687003A3E069601C7402122AAA90
:1065F000125C3F122CF1E9600E7402122AAA125C9E
:106600003F123315123C757900125C43122F7F74D0
:1066100013122AAAE4126685F97414122AAA125DCA
:10662000227413122AAAAA82AB83122CBBE9604BF4
:106630007C087D007900740B122AAAAA82AB83120F
:1066400039C97416122AAAAC82AD83740B122AAA15
:10665000AA82AB831243CBE960217402122AAAAC4E
:1066600082AD837416122AAAAA82AB83122C91746B
:1066700013122AAAAA82AB83122CCD74201228935B
:106680007F04022636126D2DF8A3E02274F1122445
:106690000C74F61228C6EAFEEBFF7508009011B4E0
:1066A000E07002A3E0703E7A377B001268AB12699B
:1066B0001A9011B4E07002A3E060197C377D007974
:1066C000001239C9EEFCEFFD9011B4125C49123D85
:1066D00089E9700574880268041268B27401F012C6
:1066E0006D610268A01268B27402F0EEFCEFFD1258
:1066F0006D54123D89E9700C748885188285198360
:10670000F0750801750A7E750B11780A12286690DB
:1067100011B4E024291268B81226AE9011B4E02416
:10672000281268D524151268EB24141268DC12288C
:1067300093E9C0E09011B4E024311268B8D0E012BF
:106740006DCD24311268D0750C7E750D11750E005B
:10675000602E1268A5E024321271BEFA7001EB605F
:1067600013780C1228629011B4E0243112690D12D2
:106770002893800C7488851882851983F075080128
:10678000780A1228669011B4E024121268B8122612
:10679000AE9011B4E024111268D5242C1268EB24B9
:1067A0002B1268DC122893E9C0E09011B4E0243485
:1067B0001268B8D0E0126DCD24341268D060201277
:1067C00068A5E024351271BEFA7001EB602B780CDD
:1067D0001228629011B4E0243412690D122893E556
:1067E00008701F126D7D700512690060157B007ABC
:1067F000007900123D8F0268A0748885188285197F
:1068000083F07486851882851983F07409122AAA88
:106810007402F08E828F831268F8122AAA125D2207
:106820008E828F83A31258A212286A7401122AAA98
:1068300085820885830978081228667508207509FD
:1068400080780812286679017406122AAAAC82ADF3
:1068500083EEFAEF1262B1122893126D9D703E74AE
:1068600009122AAA7402126DCD1268F1122AAA1214
:106870006DD112286A7401122AAA858208858309BB
:10688000780812286675082075098078081228662D
:1068900079017406122AAA126D6F122893123D8391
:1068A000740A02648BC333FAE433FB123A53901137
:1068B000B4229011B4E0242E1268BC221268C022C7
:1068C000F81268C522A3E01268CB223400025943B3
:1068D000F8126D8822126D87FC026D4F181268E65F
:1068E000123CF3740422126D8CF92212710D026DA8
:1068F0004FF8A3E0F5838882A3A3125EC774012238
:106900009011B4E02434080808126D88221268BC83
:10691000E0C333FCE433FD026493EAF0A3EBF0221E
:10692000C082C0839011B4E07002A3E06073901144
:10693000B4E024351269A47001EB6003123A599057
:1069400011B4E024321269A47001EB6003123A59C9
:106950009011B4E024121269A47001EB6003123AA2
:10696000599011B4E024151269A47001EB60031270
:106970003A599011B4E024291269A47001EB600324
:10698000123A599011B4E0242C1269A47001EB6002
:1069900003123A599011B41259499011B4E4F0A37A
:1069A000F00262CD12710DEA2274EC12240CEAFEA0
:1069B000EBFF8C088D09750A018C0C8D0D750E008E
:1069C000780C1228627C177D00126493122893EED3
:1069D0002412126A98E4F0A3F0EE2415126A8EE4F1
:1069E000F0A3F0E5082411126AA5603AC333FAE473
:1069F00033FB123A5385108285118312691A851070
:106A000082851183E0FA7001EB6018E50824121208
:106A10006AB41228628512828513831269101228C3
:106A2000938003750A00E5082414126AA56031C337
:106A300033FAE433FB123A538E828F8312691A8E33
:106A4000828F83E0FA7001EB603FE5082415126A3B
:106A5000B41228628512828513831269101228935A
:106A6000E50A70208510828511831272E37001EBB4
:106A70006003123A598E828F831272E37001EB60C9
:106A800003123A59A90A025FE6750A0080D6FEEFA2
:106A90003400FF8E828F8322F510EF3400F51185CC
:106AA0001082F58322F512E5093400F51385128270
:106AB000F583E022F582E509126D44F50CA3E0F5BB
:106AC0000D780C2274F012240C74ED1228C6890A79
:106AD0008A0B7E007F00750CFF750EFF750FFF8E11
:106AE000088E09E4851882851983126DCD7002A382
:106AF000E070057900026D1F7403650A6006740278
:106B0000650A700C9011B4E024301268D06B70E309
:106B10007C957D3D7A007B001248037401650A7004
:106B20000B7485851882851983F080389011B4E044
:106B3000242F1268B8E50A60067403650A700F74A2
:106B400001F07403650A7018E50B601880D57402B3
:106B5000650A7010E50B7004740180CD740280C961
:106B6000E50A6019126D9170149011B4E024310897
:106B7000081268D17005126900600214F0126D7D70
:106B8000FA9011B4601C1262B8EAC333F8E433F926
:106B90009011B4E02432126DA9241D126D492425F0
:106BA000802A126903FA60299011B4E02417F508CD
:106BB000A3E01271E5EAC333F8E433F99011B4E0CD
:106BC0002435126DA92406126D49240E1268D0F5E1
:106BD0000C7409122AAA7402126D2D6003026C90C3
:106BE000E5087002E5097003026C90126D91700562
:106BF000750A228003750A21850882850983126837
:106C0000F8122AAA125D229011B8E0C0E09011B4E7
:106C1000E024301268B8D0E0F07412122AAA74038B
:106C2000F0EEFCEFFD740A122AAAAA82AB8312438B
:106C3000D1850882850983A3E0F50D780D12286AB5
:106C4000780C12286A740C122AAA85820C85830D8E
:106C5000780C122866780E122866E5082406F50CD2
:106C6000E5093400F50D780C122866E508126F2C42
:106C7000E509126D3C7409122AAAAC82AD83AA0AF6
:106C80007B00123E377408122893126D61026D1D4D
:106C90009011B4E01268F1122AAA126DD112286A7A
:106CA0007401122AAA858208858309780812286649
:106CB0007508207509807808122866790174061213
:106CC0002AAA126D6F122893126D9D704D9011B407
