:020000040000FA
:10000000020DA1022003FFFFFFFFFF02200BFFFFF5
:10001000FFFFFF0204D8FFFFFFFFFF02201BFFFFCF
:10002000FFFFFF022023FFFFFFFFFF02202BFFFF48
:10003000FFFFFF022033FFFFFFFFFF020533FFFF3B
:10004000FFFFFF022043FFFFFFFFFF02204BFFFFE8
:10005000FFFFFF022053FFFFFFFFFF02205BFFFFB8
:10006000FFFFFF022063FFFFFFFFFF02206BFFFF88
:10007000FFFFFF022073FFFFFFFFFF02207BFFFF58
:10008000FFFFFF022083FFFFFFFFFF02208B002006
:10009000000090200000932000000100000000C834
:1000A0000300380000000000260000000000FFFFF1
:1000B000FFFF0000040074F7120AFE780079008048
:1000C0001BE508120529E08A828B83F09004121246
:1000D00002044005E4900412F01201FB900412E0C7
:1000E000F508900413E065086007C3E89CE99D40AB
:1000F000D0E8FAE9FB7F02020C5574F8120AFE9070
:100100000497E0FE8E82A882900496E0FEE8C39EEB
:10011000E0500E1202C17001E9700B780079008086
:10012000141202D250F57A007B008038E004F043CC
:100130009A041201FBC3E89CE99D50248A828B83B8
:10014000E0C0E0900497E012058AD0E01202EDE4EE
:10015000900498F0900497E0C3947F40CFE480CE61
:10016000E8FAE9FB7F01020C5574F7120AFE7800E9
:10017000790090051BE0705590051CE0704F75C12B
:1001800000C28BC284A28340FCA28B4004A2835095
:10019000F8E5C1C28BA2835004D2848030C0E0E075
:1001A0001201F1D0E0F090051C1202E640DBE4F011
:1001B00080D7E5081201F1E08A828B83F090051B5D
:1001C0001202044005E490051BF01201FB90051B90
:1001D000E0F50890051CE065086007C3E89CE99D10
:1001E00040D0E87001E97006E4F090051BF00200D1
:1001F000F1249BF582E43404F58322E8240108E924
:100200003400F922E0041202F1C394802274F8123F
:100210000AFE90059EE0FE8E82A88290059DE0FE7B
:10022000E8C39EE0500A1202C17001E9700D80051A
:100230001202D24006EC7001ED70067A007B00805D
:100240007D8A828B83E0F5C1A3AA82AB8378017992
:10025000008006E004F01201FBC3E89CE99D501EFB
:100260008A828B83E0C0E090059E1202FCD0E012EF
:1002700002ED90059EE0C3947F40D8E480D7C28B06
:10028000A28340FCC284A28B4004A28350F8900554
:100290009D1202FCE0F5C1C28B90059DE0FA90052D
:1002A0009EE06A90059D70051202FC80051202E630
:1002B0004002E4F0A28350CED284E8FAE9FB0201C6
:1002C00064C398F8E49400F974FF281874FF39F9AE
:1002D000E822C398F8E49400F9747F28F8E439F927
:1002E000C3E89CE99D22E004F0C39480221202F14D
:1002F00022F08A828B83A3AA82AB8322E0241DF59D
:1003000082E43405F5832274FF120D111203E21208
:100310000692E970030203BF7E00900390E064013F
:10032000700DC2847401900391F09005B38005D2E2
:10033000AF9005B77808120D927C017D0085188278
:10034000851983AA82AB83120494EA7001EB6012D0
:10035000E064F8602CE0640770089005BB78081230
:100360000D9285080C85090D850A0E850B0F9005E9
:10037000BF7808120D4F9005BB780C120D2770B98D
:100380000E900390E064017009D284E4900391F030
:100390008002C2AFEE6028900390E0640175860091
:1003A000C2AA7007539AFBD2E98007C28B539AFB0B
:1003B000C2E9022000C2AF75C9AB75C95B80FE12ED
:1003C0000459C2AF75C9AB75C95B80FE7A1075B6AA
:1003D0000FE5B4A2E750FAE5BBC39940F11AEA7001
:1003E000ED22C082C08353BEFBE59DA2E650FA0019
:1003F00078F8790100E824FF18E934FFF9E8700182
:10040000E970F175C6807480659E70FA43BE04740D
:1004100008906270F0794A1203CC74F5900001F0F4
:100420007403F5D575D4887401900390F0D2845389
:10043000F3F753F3EF53FDF743FD10538FF753F7E3
:10044000DF43C52053F1FE75862043F3F0E5F34307
:100450008640D2AAD083D0822274F5120AFE794E49
:100460001203CC900390E07002D2AF120594E960C1
:10047000FAE0701B9005C37808120D92009005BF3A
:100480007808120D4F9005BB7808120D2770ED7F8C
:1004900004020C55C082C083900390E070051200E6
:1004A000B6801E900391E06015A28B500DE5C18AC5
:1004B000828B83F07A017B0080077A0080F812013A
:1004C000698091C082C083900390E070051200FAA9
:1004D000800312020D020454C0E074F2120B5E900D
:1004E0000001E064CD70051220138038E064F570DF
:1004F00032E5C1C0E0900413E0120529D0E0F0908D
:100500000412E0FA900413E06A7006E59590041571
:10051000F09004131202E64002E4F074C690041452
:10052000F08001007F01020BBD2492F582E43403C8
:10053000F58322C0E074F1120B5E900001E064CDFF
:10054000700512203B803EE064F57038900496E020
:10055000FA900497E06A700B539AFB740190049828
:10056000F08022C2E9900496E0F50874012508F0B5
:10057000E50812058AE0F5C1900496E0C394804036
:1005800004E480DC007F02020BBD2416F582E43413
:1005900004F5832274F7120AFE74FF120D117E0017
:1005A0008033900384E0FA851882851983E06A70AD
:1005B0000D900382E0644D70051207EBE9FEE490B4
:1005C0000385F0900387F0851882851983E0FA90FF
:1005D0000384E06AF07C017D00851882851983AA76
:1005E00082AB83120494EA7001EB7003020686E08A
:1005F000C0E0900387E0F8900385E028F8E4340039
:10060000120980D0E0F0900387E0120C8D0005C73E
:10061000051D062C064A065A067006A20585188294
:10062000851983E064FE709F74018097E4900384D1
:10063000F0851882851983E0900386F0C39480408A
:1006400004E40205C374020205C385188285198378
:10065000E0900382F074030205C385188285198334
:10066000E0900383F0900386E0601674040205C3F3
:10067000900385E004F0FA900386E06A60030205C7
:10068000C774050205C3EEF97401120CDE7F020285
:100690000C5574ED120AFE74FB120D1175080475E9
:1006A00009007808120D627402120DBD12098C1235
:1006B0000CDE851882E064FF7004A3E064FF600D27
:1006C000851882851983E07002A3E070030207DFBA
:1006D00012099C120DBDE0687003A3E0697003026B
:1006E00007AE75080090059F7810120D92800A9051
:1006F00005A37810120D27604D750A01750B00785F
:100700000A120D627406120DBDAC82AD8385100A0B
:1007100085110B74FF550AFA7407550BFB8A0C857B
:10072000110D85120E85130F740B780C120CF8A99D
:100730000C120996120CDEE0F9AA08AB091209AAFC
:100740008A088B0980089005A77810120D929005F1
:10075000AB7810120D4F9005AF780C120D92780CFB
:100760007910120D73408879001209AA79001209D4
:10077000AA7402120DBDEAF0A3EBF0750801750929
:10078000007808120D627402120DBDAC82AD837A3E
:10079000247B08120A757402120CDE7508047808AE
:1007A000120D627402120DBD12098C120CDE1209B8
:1007B0009C120DBDE0687003A3E069702285188269
:1007C000851983E064FF7004A3E064FF601185185D
:1007D00082851983E07002A3E060047901800279C8
:1007E000007405120CDE7F0C020C5574F3120AFE25
:1007F00074FC120D11900306E0FA900307E0F9EA89
:10080000F8E428FE740839FF750A017509007508B7
:10081000008E0C8F0D7409780C120D83A90C74FFD7
:100820005EF50C74015FF50D900383E0120C8D01F1
:1008300002240939086108A308EA7002E50D700373
:10084000120AE7750C10750D00780C120D627C0809
:100850007D03EEFAEFFB120A757402120CDE020938
:1008600024E9C394794006750901020924750A40F8
:10087000750B00780A120D627C097D037402780CF6
:10088000120D3CAA0CAB0D120996120CDE90030758
:10089000E0900308F0900306E0900307F0750A4328
:1008A000020924750C04750D00780C120D62740297
:1008B000120DBD12098C120CDE7402120DBDE0F88F
:1008C000A3E0F9851882851983E0687003A3E069C5
:1008D000603B12099C120DBDE8F0A3E9F0750C0114
:1008E000780C120D627402120DBDAC82AD837A24B5
:1008F0007B08120A757402120CDE750C04780C1257
:100900000D627402120DBD12098C120CDE12099CCC
:10091000120DBDE0687003A3E069700575080180E1
:1009200003750907900305E0D2E7F0E50990030697
:10093000F0E50A900303F0744D650AF50974042587
:100940000AFB7A038004E062090AEAF83395E012B0
:1009500009808B0AC3E8950AE99400A2D265D033D6
:1009600040E4E509F074012AFC3395E0FD7A027B4E
:10097000031204C3A9087404120CDE7F06020C558E
:10098000F9E82402F582E93403F58322AC82AD83D1
:100990007A907B0079041209EC7402228518828512
:1009A0001983E0F8A3E0F9740222EEC0E07E087437
:1009B000805BFDE47001ED6004D2F08002C2F0A221
:1009C000F0E492E0FCEAC333FAEB33FBE9A2E75030
:1009D0000474014AFAEC600874216AFA74106BFB23
:1009E000E9C333F91EEE70C7D0E0FE2274F5120A97
:1009F000FE8908740B120DBDE0FEA3E0FF740F55D5
:100A000008F50A750B00740B780A120D3C2AF8746D
:100A1000803BF9E428E50B39F9E5C7F509A2AFE415
:100A200092E0F50AC2AFE508C4540FC0E074F8556F
:100A3000C7FAD0E04AF5C7801C88828983E08C829F
:100A40008D83F088828983A3A882A9838C828D8379
:100A5000A3AC82AD83EEFAEFFB74FF2A1E74FF3B5A
:100A6000FFEA7001EB70D28509C7E50AA2E092AFF8
:100A70007F04020C5574F7120AFE7409120DBDE0D2
:100A8000F508A3E0F509ED900388F0EC900389F0F8
:100A9000746290038AF0747390038BF090038CE07F
:100AA000541FF0E508333354FC90038DF07406783E
:100AB00008120D83E50890038CF0741290038EF0F9
:100AC000744290038FF075D1FE75D601EA90627181
:100AD000F0EB906272F0906270E0D2E1F0E0A2E799
:100AE00040FB7F02020C55C082C083E9C333906291
:100AF00072F0906270E0D2E0F0D083D082222518AC
:100B0000C582C0E0E51934FFC583C0E0E518C39590
:100B10008224F9F8E4C5A8858319858218C5A8E858
:100B2000CEF0A3E520F0A37808E608F0A3DEFAEF04
:100B3000F0A3E58124FBF8E608F0A3E608F0A3089B
:100B400008E608F0A3E608F0A315811581D0E0FEC1
:100B5000D0E0F815811581E8C0E0EEC0E022C0D0F9
:100B60002518C582C0E0E51934FFC583C0E0E5184B
:100B7000C3958224F310AF088583198582188008F5
:100B8000858319858218D2AFC8F0A3E9F0A3EAF0F3
:100B9000A3EBF0A37908E709F0A3D8FAECF0A3EDF2
:100BA000F0A3EEF0A3EFF0A3D0E0F0A3D0E0F0A329
:100BB000D0E0F0A3E520F0A3E5F0F0A322851983AF
:100BC000851882E0C0E0A3E0F9A3E0FAA3E0FBA36C
:100BD0007808E0F608A3DFFAE0FCA3E0FDA3E0FE5E
:100BE000A3E0FFA3E0C0E0A3E0C0E0A3E0F5D0A352
:100BF000E0F520A3E0A3F5F0E4C5A885831985827C
:100C000018C5A8D082D083D0E0F8D0E032120DCC45
:100C1000B90003020C4FE4900302789E790380022E
:100C2000F0A3D8FCD9FA90059FAA82AB8390008EDE
:100C3000782979018015E493A3AC82AD838A828BF5
:100C400083F0A3AA82AB838C828D83D8E9D9E71283
:100C50000307120DC7851983851882E0A3FEE0A360
:100C6000F5207808E0A3F608DFFAE0A3FFE0A3C0D0
:100C7000E0E0A3C0E0E0A3C0E0E0A3C0E0E4C5A8DA
:100C8000858218858319C5A8D083D08222D083D0CD
:100C900082C5F0E493A3C5F0C395F0F5F0E493A307
:100CA000C395F04005E5F0048001E475F002A42549
:100CB00082F582E5F03583F583E493A3C0E0E49305
:100CC000C0E0222518F58210AF08F518400215196A
:100CD0008008F51840021519D2AF85198322C0D0BB
:100CE000251810AF08F518500205198008F518509E
:100CF000020519D2AFD0D0226016080808C6C31367
:100D0000C618C613C618C613C618C613C6D5E0EA59
:100D100022251810AF08F518400215198008F5189B
:100D200040021519D2AF22E066701008A3E0667089
:100D30000A08A3E066700408A3E06622700422603B
:100D40000D18C6C333C608C633C6D5E0F41822E072
:100D500026F608A3E036F608A3E036F608A3E03648
:100D6000F62274028000C0E0F404120CC3D0E0123A
:100D70000DB022C3E7960809E7960809E796080927
:100D8000E79622600C08C6C313C618C613C6D5E082
:100D9000F422E0F608A3E0F608A3E0F608A3E0F6E4
:100DA0002275D000758140751802751903020C0D6B
:100DB000CAC0E0E6F0A308DAFAD0E0FA222518F576
:100DC00082E43519F5832200000080FB790122FFBF
:100DD000FFFFFFFFFFFFFFFFFFFFFFFFFFFFFFFF23
:100DE000FFFFFFFFFFFFFFFFFFFFFFFFFFFFFFFF13
:100DF000FFFFFFFFFFFFFFFFFFFFFFFFFFFFFFFF03
:100E0000FFFFFFFFFFFFFFFFFFFFFFFFFFFFFFFFF2
:10200000022A3F0221DDFFFFFFFFFFFFFFFFFFFF6F
:10201000FFFFFFFFFFFFFFFFFFFFFFFFFFFFFFFFD0
:10202000FFFFFFFFFFFFFFFFFFFFFF0227B2FFFFE2
:10203000FFFFFF022747FFFFFFFFFFFFFFFFFFFF3D
:10204000FFFFFF02259DFFFFFFFFFFFFFFFFFFFFD9
:10205000FFFFFF022117FFFFFFFFFFFFFFFFFFFF53
:10206000FFFFFFFFFFFFFFFFFFFFFFFFFFFFFFFF80
:10207000FFFFFFFFFFFFFFFFFFFFFFFFFFFFFFFF70
:10208000FFFFFF02217101FFFFFFFFFFFFFFFFFFC7
:10209000102010200101FF01010503010F10FEFFB8
:1020A0003935393539353935E333DD3339355E483E
:1020B00000000000FC47000000000C0000000C00C5
:1020C0000100004937000000009B363938E336BB79
:1020D000370000D1368406FF010100D21100000054
:1020E000E8034A12E80364006400B8010202000831
:1020F00000000502070101051E02051E020A0A036F
:10210000B80B02803E010203320001FFFF0A01E02A
:10211000020206FFFFE803C0E074F212245CA2AFE3
:10212000E492E0FED2AFE5A7FAE5A1FBEA5B54102A
:10213000600812403775A1EF802AEAA2E0C0D0EB18
:10214000A2E092F012298F158182F05017906198C9
:10215000E0FA901724E0C39AA2D265D0335002EA85
:10216000F075A1FE751A00EEA2E092AF7F01022485
:10217000BBC0E074F212245CA2AFE492E0FED2AFE6
:102180009061A4E0FA759B00E5915A5408600875C7
:1021900091F7124079802AE5915A541060087591A0
:1021A000EF12407F801BEAA2E0C0D0E591A2E0924E
:1021B000F012298F158182F05007E0C2E0F0124141
:1021C000C99061A3E0FAE5E95A5404600E12419FF8
:1021D00075E9FB906193E0A2E640F28087C0E0746D
:1021E000F212245CA2AFE492E0FED2AF9061A5E0CF
:1021F000FAE5BF5A5404600675BFFB1241E10221A3
:1022000064C3E498F8E499F91222428026C3E49A60
:10221000FAE49BFBE920E7E9122242E498F8E4990A
:10222000F922C3E498F8E499F9122242E498F8E418
:1022300099F9C3E49AFAE49BFB22EB20E7CFE9206B
:10224000E7E0B90010BB0008E88AF084F8AAF022A1
:10225000E4FBC8FA22EB70227B10C833C8C933C92B
:10226000335007C39AC3DBF280069A50012ADBEA97
:10227000C833F4C8C933F4C9FA2275F008E4C83386
:10228000C8C933C933C99AC99B5004C92AC93BD5A7
:10229000F0ECFBC833F4C8E4C9FA22080808EAC025
:1022A000E0EBC0E086F0E7A4FA180986F0E7A42A7C
:1022B000FA180986F0E7A42AFA180986F0E7A42A92
:1022C000FA1986F0E7A4FBE5F02AFA190886F0E788
:1022D000A42BFBE5F03AFA190886F0E7A42BFBE5FE
:1022E000F03AFA18180986F0E7A4C5F02BFBE43A97
:1022F000FA1908E7C5F0C6A426F6E5F03BFBE43A78
:10230000FA1886F0E7A4F6E5F00826F6E43B08F6AE
:10231000E43A08F6D0E0FBD0E0FA22E4CFC0E0E4F3
:10232000CEC0E0E4CDC0E0E4CCC0E075F020C3E670
:1023300033F608E633F608E633F608E633F61818FF
:1023400018EC33FCED33FDEE33FEEF33FFC3EC97B7
:1023500009ED9709EE9709EF97191919400FFFEC4E
:1023600097FC09ED97FD09EE97FE191906D5F0BE09
:10237000ECF709EDF709EEF709EFF7191919D0E0B5
:10238000FCD0E0FDD0E0FED0E0FF22122A89B900A7
:10239000030223E0E49004D1787C791A8002F0A350
:1023A000D8FCD9FA781A9020867A01BA0002800700
:1023B000E493A3F608DAF9901E4CAA82AB8390202E
:1023C00094788479018015E493A3AC82AD838A82EA
:1023D0008B83F0A3AA82AB838C828D83D8E9D9E763
:1023E0007582C175839D740512280F7582FB7583F4
:1023F00045740012280F2518C582C0E0E51934FF86
:10240000C583C0E0E518C3958224F8F8E4C5A88523
:102410008319858218C5A8E8CEF0A3E520F0A3783B
:1024200008E608F0A3DEFAEFF0A3E58124FAF8E667
:1024300008F0A3E608F0A3E608F0A30808E608F011
:10244000A3E608F0A315811581D0E0FED0E0F815D1
:102450008115811581E8C0E0EEC0E022C0D02518CA
:10246000C582C0E0E51934FFC583C0E0E518C39517
:102470008224F310AF08858319858218800885832C
:1024800019858218D2AFC8F0A3E9F0A3EAF0A3EB54
:10249000F0A37908E709F0A3D8FAECF0A3EDF0A3D4
:1024A000EEF0A3EFF0A3D0E0F0A3D0E0F0A3D0E0F3
:1024B000F0A3E520F0A3E5F0F0A3228519838518A9
:1024C00082E0C0E0A3E0F9A3E0FAA3E0FBA3780870
:1024D000E0F608A3DFFAE0FCA3E0FDA3E0FEA3E042
:1024E000FFA3E0C0E0A3E0C0E0A3E0F5D0A3E0F5E7
:1024F00020A3E0A3F5F0E4C5A8858319858218C55B
:10250000A8D082D083D0E0F8D0E032D083D082EC63
:10251000C0E0EDC0E0E493A3FCE493A3FDED4C60C8
:102520000D1225E1EC24FFFCED34FFFD80EFE49378
:10253000A3FCE493A3FDED4C600D1226F2EC24FF06
:10254000FCED34FFFD80EFD0E0FDD0E0FCE493A390
:10255000C0E0E493C0E022D083D082E9C0E0E493FD
:10256000A3C386F0C5F095F0F908E493A386F0C5FF
:10257000F095F0700BE493A3C3994005E904800241
:10258000A3E475F002A42582F582E5F03583F58396
:10259000D0E0F9E493A3C0E0E493C0E022C0E0748B
:1025A000F212245CA2AFE492E0FED2AFC2C0901D52
:1025B00044E0700BE5D1A2E4501D123F9B8018E56A
:1025C000D1A2E3500675D1F7123F71E5D1A2E450D4
:1025D0000675D1EF123F77EEA2E092AF7F010224A1
:1025E000BBC0E0C3E49396087401939618400FE4CF
:1025F0009366700808740193661870007019A3A39D
:10260000C3E49396087401939618A3A3400DD0E0F9
:10261000D0E0D0E0022547A3A3A3A3A3A3D0E02248
:10262000851983851882E0A3FEE0A3F5207808E0F1
:10263000A3F608DFFAE0A3FFE0A3C0E0E0A3C0E058
:10264000E0A3C0E0E0A3C0E0E0A3C0E0E4C5A8854B
:102650008218858319C5A8D083D082022815D0831B
:10266000D082C5F0E493A3C5F0C395F0F5F0E493F0
:10267000A3C395F04005E5F0048001E475F002A4E1
:102680002582F582E5F03583F583E493A3C0E0E489
:1026900093C0E0227404800474028000CCC0E0ED9A
:1026A000C0E0E518C39CCCAD1950011D10AF068CDD
:1026B000188D1980068C188D19D2AF122791D0E091
:1026C000FDD0E0FC2274028000CCC0E0EDC0E0E56B
:1026D00018C39CCCAD1950011D10AF068C188D1974
:1026E00080068C188D19D2AF12276FD0E0FDD0E094
:1026F000FC22C0E0C0F088F0E49366700808740122
:102700009366187000A8F0A3A3700BD0F0D0E0D0AF
:10271000E0D0E0022547A3A3D0F0D0E022D083D0C0
:1027200082CCC0E0E493A360061227D11470FAE4CF
:1027300093A360061228C61470FAD0E0FCE493A3B9
:10274000C0E0E493C0E022C0E074F212245C758B18
:1027500000C2E8901D44E0700E7A007B10901D438B
:10276000E0F912395F800312449F7F010224BBCA43
:10277000C0E0E493A3C582CCC582C583CDC583F0F8
:10278000A3C582CCC582C583CDC583DAE5D0E0CAB6
:1027900022CAC0E0E0A3C582CCC582C583CDC58373
:1027A000F0A3C582CCC582C583CDC583DAE6D0E06F
:1027B000CA22C0E0C0D0EAC0E0A2AFE492E0D2AF4B
:1027C000C2C7751A00A2E092AFD0E0FAD0D0D0E034
:1027D00032C0E0E493A3D39C5010E493A3C39C4085
:1027E0000AD0E0D0E0D0E002273AA3A3A3D0E022B1
:1027F0007009080808226016181818C6C333C608DE
:10280000C633C608C633C608C633C6D5E0EA22C0FA
:102810009FF59FE473D09F22D083D082C09FE49322
:10282000C0E0740193C0E0740293F59F222518F56F
:102830008210AF08F518400215198008F5184002FB
:102840001519D2AF851983227404800A7403800697
:10285000740280027401C0E0F40412282DD0E0124A
:102860002A7C22BB0102E722C082C08389828A833C
:10287000BB0003E08002E493D083D08222C0D02545
:102880001810AF08F518500205198008F518500205
:102890000519D2AFD0D0226016080808C6C313C6E7
:1028A00018C613C618C613C618C613C6D5E0EA2242
:1028B000251810AF08F518400215198008F51840C2
:1028C000021519D2AF22C0E0E493A36C7009D0E0E6
:1028D000D0E0D0E002273AA3A3D0E022C3E79608D5
:1028E00009E7960809E7960809E796A2D265D0336A
:1028F00022E066701008A3E066700A08A3E0667024
:102900000408A3E06622C3E09608A3E09608A3E0CB
:102910009608A3E096A2D265D03322C3E096F008D1
:10292000A3E096F008A3E096F008A3E096F022C397
:10293000E697F60809E697F60809E697F60809E625
:1029400097F622E627F60809E637F60809E637F68D
:102950000809E637F622E026F608A3E036F608A3D3
:10296000E036F608A3E036F622E026F008A3E036CB
:10297000F008A3E036F008A3E036F022E657F608A8
:1029800009E657F60809E657F60809E657F622C0A1
:10299000E0E8C0E0E58124FCF8E6A2E7D0E0F8D06A
:1029A000E022E647F60809E647F60809E647F60892
:1029B00009E647F622E056F608A3E056F608A3E03B
:1029C00056F608A3E056F622E056F008A3E056F0CB
:1029D00008A3E056F008A3E056F022700422600D30
:1029E00018C6C333C608C633C6D5E0F41822E4C3FC
:1029F00096F608E496F608E496F608E496F6226061
:102A00000D08C6A2E713C618C613C6D5E0F322C642
:102A1000F4C608C6F4C608C6F4C608C6F4C622C37F
:102A2000E7960809E7960809E7960809E79622C39A
:102A3000E09608A3E09608A3E09608A3E096227526
:102A4000D0007581407518D17519040002238BE000
:102A5000F608A3E0F608A3E0F608A3E0F622600C6F
:102A600008C6C313C618C613C6D5E0F422E6F0089C
:102A7000A3E6F008A3E6F008A3E6F022CAC0E0E669
:102A8000F0A308DAFAD0E0FA2274F855C74401F549
:102A9000C77901222518F582E43519F58322C2AFE2
:102AA00075D69F0200002212281841A1031228188F
:102AB00006A20312281873A203122818D0A2031228
:102AC000281826A30312281850A303122818D1A3EC
:102AD000031228182CA403122818A1A403122818E2
:102AE0009CA6031228185DA80312281813A9031224
:102AF00028185BAA03122818DFAC031228180BB0A1
:102B00000312281818B003122818AAB003122818A4
:102B10006AB103122818B2B10312281825B20312A1
:102B2000281844B20312281877B203122818ACB23E
:102B3000031228187CB30312281844B4031228186F
:102B4000D1B60312281849B803122818E5B80312A1
:102B5000281871B903122818D3B90312281813BA08
:102B60000312281893BB03122818CBBB0312281892
:102B700046BC031228182ABD03122818D9BD031217
:102B80002818EEBD0312281889BE03122818B8C0F1
:102B9000031228187DC2031228189BC2031228189A
:102BA000CEC20312281800800212281833800212A5
:102BB0002818528002122818748002122818868061
:102BC00002122818A5800212281811810212281852
:102BD0009E8102122818708202122818BC820212EA
:102BE0002818FB8202122818188302122818628300
:102BF000021228189D8302122818B883021228187E
:102C0000DC83021228181784021228185784021233
:102C100028187A8402122818C98402122818A38559
:102C200002122818548602122818E4860212281864
:102C3000D487021228181788021228183B8802121B
:102C400028188D8802122818B28802122818ED89D7
:102C500002122818618A02122818848A021228187F
:102C6000A78A02122818CF8A02122818E18A0212B3
:102C70002818EB8A021228187E8B02122818DB8B88
:102C800002122818848C021228188C8C0212281820
:102C9000F68C02122818318D02122818738D021238
:102CA0002818838D02122818638E02122818EE8EBF
:102CB00002122818458F02122818129002122818A2
:102CC000889002122818C590021228182891021222
:102CD00028187E92021228189E9202122818009339
:102CE000021228189D9302122818F693021228182F
:102CF0008594021228184195021228187F95021215
:102D00002818EE95021228185C960212281894963C
:102D100002122818C897021228181B9902122818A4
:102D20007C9902122818C59902122818ED990212EE
:102D30002818709A02122818ED9A02122818609B1F
:102D400002122818859B02122818969B0212281836
:102D50000A9C02122818A59C02122818E79C02124D
:102D600028187D9D02122818A49D02122818C39EBF
:102D700002122818E49E02122818F79E0212281840
:102D8000459F02122818B19F02122818F29F0212C2
:102D9000281868A10212281807A30212281816A3DF
:102DA000021228185AA402122818DAA402122818AB
:102DB00022A6021228186CA602122818B1A6021226
:102DC000281895A702122818D1A902122818DBA9E1
:102DD00002122818E5A902122818EFA902122818D1
:102DE000F9A90212281813AA021228181DAA021201
:102DF000281827AA0212281831AA021228183BAA5A
:102E00000212281860AA02122818AEAA0212281864
:102E1000B8AA02122818DCAA0212281800AB021263
:102E200028185DAB02122818B4AB02122818D2ABD6
:102E30000212281842AC0212281883AC0212281879
:102E4000CAAC0212281832AD02122818FDAD0212C7
:102E50002818C8AF0212281818B00212281846B154
:102E6000021228186CB102122818F3B202122818A4
:102E70009DB6021228186FB80212281842BA021220
:102E80002818CEBA0212281811BC02122818C5BC84
:102E9000021228180ABD0212281875BD021228183D
:102EA0007FBD02122818DABF02122818E8C00212E9
:102EB00028183FC20212281896C2021228184CC3C2
:102EC0000212281832C402122818D8C50212281873
:102ED000F7C50212281853C6021228182FC702126B
:102EE000281854C702122818A6C70212281892C818
:102EF00002122818CAC8021228180AC90212281871
:102F000069C90212281888CA02122818E8CA0212CF
:102F10002818D0CB02122818E5CD0212281807CEA7
:102F2000021228189DCF02122818E3CF0212281887
:102F3000B7D00212281853D1021228189BD10212BE
:102F400028184AD202122818D8D2021228185CD3A4
:102F500002122818CBD302122818C5800112281893
:102F6000218101122818AA8301122818E88301126E
:102F700028183484011228185E8501122818B88593
:102F800001122818F085011228183086011228181D
:102F9000A18701122818218A011228184D8B0112CD
:102FA0002818E18B01122818A294011228183695CE
:102FB00001122818B69701122818D898011228185B
:102FC0007D9901122818979A01122818C89B01129E
:102FD0002818BB9C01122818DA9F01122818DCA1BE
:102FE000011228183CA201122818F0A20112281878
:102FF00096A301122818C0A30112281854A4011284
:10300000281834A5011228180FA6011228189EA608
:1030100001122818F5A6011228180AA7011228186B
:1030200037A70112281859A70112281864A90112FC
:1030300028184CAA011228189DAA011228180EABB4
:1030400001122818BCAB01122818F1AB0112281884
:103050003FAC011228186FAC01122818ADAC011258
:10306000281811AD0112281816AD0112281871ADDB
:103070000112281899AD01122818CEAE0112281895
:103080002FAF0112281899AF0112281826B001128B
:10309000281888B30112281861B401122818F1B554
:1030A0000112281843B801122818EBB80112281889
:1030B000A2B90112281860BB0112281802BC011223
:1030C00028184ABC01122818E8BD01122818FCBDB6
:1030D0000112281816BE0112281831BE0112281834
:1030E0003DBE011228185BBE011228188FC00112C4
:1030F0002818C6C001122818D3C001122818DCC035
:103100000112281850C101122818B3C10112281841
:10311000C8C2011228182EC30112281821C4011296
:10312000281865C401122818F7C401122818F0C520
:1031300001122818B4C60112281849C8011228180B
:1031400054C901122818EFC90112281872CA0112B5
:10315000281889CA01122818C2CA01122818CCCA14
:1031600001122818D6CA01122818E2CA011228181A
:1031700000CB0112281844CB0112281895CB01125C
:103180002818B6CB01122818D0CB0112281848CC29
:103190000112281884CD01122818D8CD0112281840
:1031A000CBCE01122818F1CE0112281854CF0112EB
:1031B0002818B5CF01122818C8D001122818D7D165
:1031C0000112281875D20112281841D301122818AB
:1031D000E0D30112281877D40112281847D501121C
:1031E000281876D501122818E1D50112281889D699
:1031F00001122818AFD60112281821D70112281859
:1032000046D70112281869D701122818B6D701121B
:10321000281892D90112281875DA0112281833DB00
:103220000112281897DD01122818EBDD0112281869
:103230002EDE011228189DDE0112281810DF01125F
:10324000281869DF011228188FDF01122818CADF39
:1032500001122818F6DF0112281841E0011228187F
:10326000A4E0011228181FE10112281815E201122A
:103270002818A5E30112281812E4011228183BE4CB
:1032800001122818BDE40112281819E501122818A6
:1032900052E501122818A7E501122818CCE5011201
:1032A000281812E6011228182FE601122818DDE668
:1032B0000112281817E70112281887C305122818C9
:1032C0002ABA041228186EBA041228188FBA0412E7
:1032D0002818D3BA041228183DBB0412281847BB7B
:1032E0000412281857BB041228188CBB0412281883
:1032F000B7BE0412281871C0041228185DC2041247
:10330000281860C3031228189AC3031228186DC422
:103310000312281843C50312281872C6031228186E
:10332000FBC70312281879C8031228183FC90312D3
:10333000281860CA03122818D2CA0312281834CBDE
:103340000312281896CB03122818A0CB03122818B2
:10335000DECB0312281847CC03122818E6CC031240
:10336000281864CD0312281817CE0312281889CE06
:1033700003122818AFCE03122818DFCE0312281824
:103380000CCF03122818B2CF03122818C2CF031291
:10339000281815D00312281821D0031228182DD070
:1033A0000312281836D00312281899D003122818AF
:1033B000F9D0031228184AD10312281865D1031234
:1033C000281895D103122818B6D103122818C2D193
:1033D0000312281849D30312281867D30312281898
:1033E000D0D303122818E3D303122818F4D30312FE
:1033F000281887D4031228188AD50312281880D6D3
:103400000312281803D7031228180CD70312281800
:103410006FD70312281886D703122818C8D70312AB
:1034200028180DD8031228183CD80312281873D86E
:103430000312281890D803122818B4D80312281899
:10344000F5D803122818E8D9031228182EDA031227
:10345000281869DA03122818C8DA03122818F0DAD3
:103460000312281829DB0312281837DB0312281847
:1034700098DB03122818D5DB0312281817DC031277
:10348000281848DC031228187CDC0312281887DC73
:1034900003122818A5DC031228186EDD0312281861
:1034A00078DD03122818B7DD03122818CDDD0312CA
:1034B0002818D6DD0312281840DE0312281854DE1F
:1034C000031228184CDF031228185FDF0312281894
:1034D00078DF031228188DDF031228182DE003125D
:1034E000281891E00312281858E10312281863E104
:1034F0000312281882E2031228189EE203122818E9
:10350000F6E2031228182DE30312281847E30312EA
:103510002818BBE3031228184CE40312281894E47B
:1035200003122818B9E60312281823E703122818F3
:103530008EE703122818D4E903122818E4E90312CD
:103540002818E7E903122818F3E90312281807EAF4
:10355000031228180FEA0312281854EA0312281835
:1035600002EB0312281872EB03122818D6EB031291
:1035700028186FEC0312281809ED0312281837EDEC
:1035800003122818D6ED03122818E2ED03122818AA
:1035900011EE0312281814EE0312281843EE03123A
:1035A000281858EE03122818CFEE03122818BFEF80
:1035B0000312281897F00312281821F10312281873
:1035C00042F203122818F4F2031228182DF3031202
:1035D00028185EF30312281867F303122818A3F3C0
:1035E000031228188AF40312281806F50312281863
:1035F00096F50312281860F603122818E4F6031251
:1036000028181AF70312281863F70312281899F7D5
:103610000312281860A40412281872A4041228188F
:10362000E6A4041228181CA50412281873A5041275
:1036300028185AA70412281838A904122818AFAC61
:103640000412281851AD0412281888AD0412281845
:10365000ACAD041228180EAE0412281842AE0412A3
:1036600028187FAE04122818AFAE04122818E7AE4F
:10367000041228184D8E051228186C8E0512281871
:10368000B78E05122818018F05122818A48F05126D
:103690002818DB8F05122818CA71001228187F72AB
:1036A00000122818CB720012281852730012281822
:1036B000437600122818DC77001228187B78001255
:1036C0002818D37800122818627C00122818EC7D84
:1036D0000012281859B70512281885B7051228189E
:1036E00081B80512281851F504122818CBF50412D8
:1036F0002818E2F5041228185CF604122818B2F60D
:1037000004122818C1F6041228186CF7041228189D
:1037100003F80412281849F804122818B9F80412FA
:103720002818D1F8041228181BF9041228184AF98D
:10373000041228186AF90412281896F90412281895
:10374000C6F9041228182AFA04122818FFD3041202
:1037500028187CD4041228189CD404122818C3D426
:1037600004122818D7D4041228182FD504122818A8
:103770005FD50412281805D704122818CAD70412D6
:1037800028181CD80412281874D804122818B1D884
:103790000412281814D9041228180BDB0412281854
:1037A00082DB04122818DCDB041228188C9D03121B
:1037B0002818D6AE05122818FBAE0512281847AFF8
:1037C00004122818DAB00412281826B20412281895
:1037D00001B4041228185AB40412281811B504129E
:1037E000281862B504122818A0B5041228185CB66F
:1037F00004122818CFB604122818D1B604122818BB
:10380000D3B6041228189C9F031228180DB704126F
:1038100028180FB70412281846B70412281870B7D2
:1038200004122818A2B7041228181DB80412281868
:1038300038B9041228188193041228189593041299
:103840002818819404122818AD9404122818E994B9
:10385000041228180E95041228182F9504122818FF
:10386000659504122818B89504122818D1960412E8
:1038700028180797041228184E97041228188D97B5
:10388000041228185A98041228188098041228182C
:10389000B19904122818339A04122818459B04126F
:1038A0002818F79B04122818559C04122818B39C5A
:1038B00004122818E59C04122818479D04122818A1
:1038C000AD9D04122818F19D04122818369F041289
:1038D0002818619F04122818939F04122818D99F52
:1038E00004122818F29F041228189CA00412281809
:1038F0006EA1041228181FA204122818C1A20412D3
:10390000281877A304122818A2E304122818EEE35B
:10391000041228185EE4041228187BE40412281804
:103920003DE50412281846E5041228189CE5041207
:103930002818C7E5041228182CE604122818C8E62F
:103940000412281805E70412281856E7041228184C
:10395000B0E704122818E0E70412281862E80412FD
:103960002818AFE804122818E1E80412281816E90C
:103970000412281826E90412281836E90412281817
:103980007BE904122818B4E90412281865BD051251
:10399000281851B505122818B5B505122818DCB538
:1039A00005122818E2B6051228186BE7011228182C
:1039B0009FE801122818EFE801122818B4EA011252
:1039C0002818F4EA011228186CED01122818B3ED3A
:1039D0000112281849EF01122818EAEF01122818DD
:1039E0004AF001122818CCF00112281800F1011237
:1039F000281843F101122818C1F20112281855F4B1
:103A00000112281896F601122818C0F6011228187B
:103A1000FBF60112281805F70112281862F70112A7
:103A20002818E5F7011228183EFB01122818BAC120
:103A300005122818D0C105122818DAC10512281855
:103A400022C20512281849960512281861960512F7
:103A500028180997051228184A97051228186797F9
:103A6000051228188D9705122818D49705122818C2
:103A70000A9805122818419805122818D39905129A
:103A80002818179A051228182EBB0512281883BB70
:103A900005122818D6BB051228184DFF0212281847
:103AA0008AFF02122818CFFF02122818E4FF021220
:103AB00028180080041228184B8004122818D4807B
:103AC00004122818D181041228186B8204122818B5
:103AD0002883041228183D830412281887830412AF
:103AE0002818D88304122818218404122818348432
:103AF000041228188D8404122818EA840412281845
:103B0000F986041228181088041228184B88041209
:103B10002818948804122818B48A041228184F8B85
:103B200004122818EC8B04122818FC8B0412281895
:103B30000F8C04122818508C04122818828C04123E
:103B40002818E28C04122818F28C041228181A8DF6
:103B5000041228187E8D04122818408F0412281889
:103B6000588F04122818838F04122818AA8F041261
:103B70002818BA8F04122818DD8F041228181A90FA
:103B8000041228188490041228183B910412281853
:103B90006C91041228187691041228187991041255
:103BA00028189691041228180B920412281835929E
:103BB00004122818529204122818BA9204122818D3
:103BC000F59204122818079304122818119304126E
:103BD00028184E930412281866BF0512281877BFBC
:103BE0000512281808C005122818FADB0412281834
:103BF0004BDC041228180EDE04122818DCDF041235
:103C0000281826E00412281825E10412281874E266
:103C10000412281892E204122818E6E20412281866
:103C20006EE304122818694B00122818974B0012F3
:103C30002818F54C00122818404D00122818954DF0
:103C400000122818214E00122818814E0012281840
:103C5000CD4E001228183D4F00122818E64F0012D2
:103C600028186350001228189F50001228187A5400
:103C7000001228184456001228187E5600122818E0
:103C8000EC56001228182E5A00122818C45A001296
:103C90002818765C00122818875D00122818A95E83
:103CA00000122818025F00122818C15F001228189D
:103CB0005C60001228187060001228182F61001232
:103CC0002818496200122818286400122818BC66B7
:103CD000001228184567001228186068001228187A
:103CE000896B00122818996B001228180A6D0012AF
:103CF0002818856D00122818BC6E001228181B6F3A
:103D000000122818A4700012281823710012281815
:103D10001DD402122818D1D40212281847D5021235
:103D200028185FD502122818FBD5021228183DD694
:103D3000021228183BD70212281867D70212281837
:103D4000CED7021228181FD8021228187CD80212C7
:103D500028187EDB0212281803DC0212281886DCE1
:103D60000212281824DE02122818D1DE02122818A6
:103D700075DF02122818CADF0212281840E002126A
:103D800028186AE10212281840E20212281883E279
:103D900002122818C0E202122818E8E202122818BB
:103DA0002CE302122818C4E30212281836E5021286
:103DB0002818E4E602122818FAE70212281856E931
:103DC0000212281879EA0212281814EB0212281895
:103DD00084EB0212281887EC02122818E1ED021277
:103DE000281869EE02122818F4EE0212281881EF42
:103DF00002122818C6F002122818E7F10212281839
:103E0000C7F202122818E2F20212281812F3021264
:103E1000281873F3021228189AF30212281832F4A1
:103E20000212281846F40212281873F402122818F5
:103E300091F402122818ACF402122818CDF40212E0
:103E40002818F5F4021228180DF502122818F7F5B3
:103E500002122818B3F60212281879F7021228184D
:103E6000B8F702122818F6F7021228180DF80212F5
:103E700028186DF802122818B2F8021228187DF9D5
:103E800002122818C6FA02122818A0FB02122818DB
:103E900082FC02122818DCFC02122818F4FC021220
:103EA00028180FFE02122818A6FE0212281888A44D
:103EB00005122818C1A40512281870A50512281883
:103EC000D6A50512281847A605122818CFA6051250
:103ED00028183B9E05122818829F05122818207F5B
:103EE00000122818317F00122818D97F00122818D4
:103EF000EEFF02122818E8FF011228184CC2051222
:103F000028185CC20512281871C205122818CAC2E6
:103F10000512281851BC05122818DABC05122818F9
:103F20004CBD05122818F8FF02122818FBFF0212D8
:103F300028186EC3051228187EC30512281881C3DD
:103F40000512281884C305122818F87F00122818B3
:103F50007BAC05122818EEAD0512281872AE0512BA
:103F60002818C1AE0512281845C3051228184EC3DB
:103F70000512281857C30512281865C305122818FA
:103F8000AFEF041228182EF004122818E6F00412DD
:103F90002818D8F104122818C9F3041228181FF49D
:103FA0000412281871F4041228188AF4041228182C
:103FB00098F40412281800F50412281813F50412B6
:103FC00028181EF5041228182CF5041228183EF59E
:103FD00004122818E2FA0412281837FB04122818D1
:103FE0004BFD0412281883FD04122818A8FD0412A2
:103FF0002818C1FD04122818DAFD04122818CFFE73
:10400000041228185DFF041228182EB30512281870
:1040100071B30512281882B305122818B5B305121A
:104020002818EDB30512281825B4051228183CB439
:1040300005122818A4B405122818D7B40512281898
:104040006DA70512281898A705122818DFA70512D2
:104050002818EEA7051228180DA80512281877A809
:104060000512281880A805122818E1A8051228189A
:1040700005A905122818CBA905122818D8A90512D8
:104080002818E9A905122818DAC205122818F7C25B
:1040900005122818BFFB01122818D2FB011228189C
:1040A00049FD0112281856FD011228186FFD011252
:1040B000281882FD011228189CFD01122818BBFD4A
:1040C000011228183AFE01122818FAFE01122818C7
:1040D0006CFF01122818C9FF01122818D9FF01121C
:1040E00028181FC10512281844C1051228186DC1CF
:1040F0000512281895C10512281800B105122818B4
:1041000027B1051228184EB105122818BEB10512A4
:10411000281817AA0512281830AA051228183CAA30
:104120000512281845AA0512281869AA0512281888
:1041300075AA0512281884AA05122818A2AA051221
:104140002818F4AA051228182EAB0512281863ABFC
:1041500005122818B2AB05122818FEAB0512281854
:1041600016AC0512281820AC0512281831AC05121F
:10417000281875AC051228189CFF04122818EDFFAA
:1041800004122818CFCB04122818FBCB04122818CD
:1041900017CC041228182ACC0412281840CC041278
:1041A0002818ACCC04122818E6CC0412281854D0D5
:1041B0000412281873D104122818A4D10412281844
:1041C00006D204122818E1D20412281809D30412C6
:1041D00028181ED3041228182ED3041228186FD3BF
:1041E00004122818C4D304122818D4D3041228188F
:1041F000B2B805122818CDB805122818F7B805125C
:10420000281814B9051228183CB9051228185EB9E7
:104210000512281877B905122818A6B9051228180A
:10422000C1B9051228185AC005122818B0C00512C5
:1042300028182F9A05122818369A05122818439B19
:1042400005122818759B051228189B9B0512281823
:10425000CE9B05122818E09B051228181B9C0512FE
:1042600028188B9C05122818C89C05122818159D23
:1042700005122818439D05122818639D0512281859
:10428000F5B90512281817BA0512281828BB051207
:1042900028182BBB0512281866BE05122818C4BEA4
:1042A0000512281803BF0512281844BF0512281844
:1042B0000EF80312281814F80312281859F80312DC
:1042C000281847FA0312281880FA03122818E0FA6F
:1042D00003122818C6FB031228180AFC0312281818
:1042E00032FC03122818B8FC03122818CDFC031264
:1042F000281885FE0312281872FF03122818B8FF29
:10430000031228180BC30412281821C304122818FA
:10431000C6C304122818E5C404122818B6C504122E
:10432000281858C60412281896C60412281813C74D
:10433000041228186EC704122818BFC704122818C0
:10434000E6C7041228183AC804122818D7C904125C
:104350002818DCC904122818FEC904122818F4E928
:10436000041228186CEA04122818B3EC0412281856
:1043700045ED041228180FEE0412281894EE0412CA
:10438000281817EF0412281834EF0412281838855B
:1043900005122818288605122818A587051228183E
:1043A000D58705122818ED870512281820890512CF
:1043B00028188989051228185E92051228188D92EE
:1043C00005122818D69205122818F09205122818FE
:1043D0001893051228182F93051228183C930512DC
:1043E00028185993051228184694051228187D9408
:1043F0000512281887940512281894940512281875
:104400009C9505122818B29505122818BB9505121F
:104410002818C49505122818CD9505122818D69588
:10442000051228183F9605122818D3890512281856
:10443000C08D05122818DC8D051228180080051281
:104440002818ED8005122818D1820512281820841A
:1044500005122818778405122818E28405122818F6
:104460001585051228182285051228184AA105125B
:104470002818C2A105122818FAA10512281803A3AA
:104480000512281827A3051228183FA3051228187B
:104490005FA30512281880A30512281890A30512FF
:1044A0002818A7A305122818D1A30512281860A45C
:1044B0000512281816C305122818849B0312281801
:1044C000139B03122818B49A031228180D9903128B
:1044D0002818B198031228189398031228186D9879
:1044E00003122818539803122818AD97031228189E
:1044F000769703122818119703122818C0950312F3
:1045000028183495031228188294031228187E93D1
:10451000031228183C93031228181C93031228181E
:10452000649203122818E69003122818AD90031223
:1045300028187E9003122818749F03122818119FC0
:1045400003122818009F031228187B9003122818C2
:104550006D900312281859900312281846900312E0
:104560002818E89E03122818168F03122818A28E06
:10457000031228183D8E031228180A8E03122818D9
:10458000D79E03122818E1B604122818B28D031220
:104590002818818D03122818988A03122818568A21
:1045A000031228184A8A03122818BD8903122818F2
:1045B0000B89031228189E860312281807840312F9
:1045C0002818D183031228186D820312281820821C
:1045D000031228185981031228182C810312281855
:1045E0006780031228183A800312281800800312EB
:1045F00028181D9E03122818CFAE0500000080FB6E
:10460000E4738F000100DA1287000100D912240040
:1046100002009C1E250002009E1E26000200A01E15
:1046200027000200A21E28000100A41E290001008C
:10463000A51E84000400A61E86000100AA1E2A00F2
:104640000100AB1E2B000100AC1E2C000100B01EAF
:104650002D000800C5122E000100B11E2F00010020
:10466000B21E30000100B31E31000100B41E320042
:104670000100CD1233000100CE1234000100B51E3E
:1046800036000100CF1238000100B61E39000100CB
:10469000AF1E83000200C31E63000100D812640035
:1046A0000100AD1E65000100AE1E6D000100C21EBE
:1046B0006E000200C31243000100B71E4400020056
:1046C000B81E45000100BA1E46000200BB1E47008E
:1046D0000800D01248000100BD1E49000100BF1EA5
:1046E0004A000200C01E4B000100BE1E0400010073
:1046F000C51EA1000100C71E37000100C61E8800AC
:104700000100DB120000000000000001363601014C
:104710000001020100010301000104010606050277
:104720000000070100340801000F090401010D0118
:1047300000FF0E08000017020000190100FF1A0117
:1047400000011B0100FE1C0100081D0200001F01EA
:10475000000120010001210200002301000F2402BA
:1047600000002601000127010008280200FF2A019D
:1047700000072B0102402C0100002D0100012E0139
:1047800000012F0100FF30010B1C310800003A012D
:1047900000083B01000F2F010000030271023001ED
:1047A0006002110270020102020202028002100283
:1047B00061023A0041006302730272026202430224
:1047C000000213023800000200020402120200027A
:1047D00000020002000204020402370037003C021B
:1047E00044020002390000020002650200023502A4
:1047F00081020002050282028302000201037103AA
:104800000103010301030103010322030203010366
:104810001003000300030003000300030003000370
:1048200042030003240306030003000304031203EE
:1048300025032303250323030403040300030003C8
:104840000003440300030003230300036503210066
:104850003503810300030503000300030003030085
:10486000710030016000110070003102200350041B
:1048700080001000610000001400630073007200EB
:104880006200430000001300060000000000040066
:1048900012000000000000000000040004003700C7
:1048A00037003C02440000000000000000006500EA
:1048B00000003500810000000500000083000000BA
:1048C000030471040204600411047004020402046D
:1048D000010402041004610400041404630473045A
:1048E0007204620443040004130406040004000478
:1048F00004041204000400040004000451046400D1
:104900000004000400044404000400040004000443
:104910006504000435048104640005040004830474
:1049200000040101710101010101110101013101C5
:10493000010101018001100161013B0014006301CC
:1049400073017201620143010001130106013D017F
:104950003500040112010001000100010001040101
:104960000401330133013C014401320136000001EE
:10497000000165010001350081010001050182018E
:10498000830100010000493D1300BF3C0100493D87
:104990000200473C03004D3C0400533C0500593CD9
:1049A0000600653C3000833C31007D3C32008F3C8A
:1049B0003300953C35009B3C3400A13C3600A73CBD
:1049C0001100B33C1400B93C1500773CFFFF000018
:1049D00036000100060000000F000000000000008B
:1049E00000000000000003FFFF00000403FFFF00C1
:1049F00000FFFF0FF4010005C404032000010000C4
:104A00000B000000000000000003010F01AB2F06A7
:104A1000E12F08DB2F0BF32F101B2F0A0B3002B1F5
:104A20002F05CF2F07B72F0C8D2F0D9F2FFF0000C5
:104A300003EAF5E5D5D5C5B5A59595858575756563
:104A40006555554545353525251515053D346D34D8
:104A50004334493467345B345534733479347F34A8
:104A60008B344F343734313400160F00000B150BE4
:104A7000020002220F3200000600000000000000C9
:104A8000008967452301EFCDAB01030507090B0D35
:104A90000F00020406080A0C0D56777777777777B0
:104AA00077777777777777777739354B355135075C
:104AB00034573501340D3441333B3377337D337113
:104AC000332933A535C335C935AB35B735B13500D5
:104AD0000119161816161523030000034948424D04
:104AE0001817250502303016181920231A1C1E30FD
:104AF000303017181921301B1D1F3000383C3E364E
:104B00003B3B352B432C0C0E020B040B0A07080011
:104B10000F8D355D3563356F35693561348534BD4D
:104B200035913497340204020101010109024D3329
:104B30005333473383330005150D0910080400BEB5
:104B4000040A59336B33E8030E007F00040015009C
:104B500028000C0008100C0301090004000CFF1EC3
:104B60001E05080403100A090FC082C08390124278
:104B7000E4F0A3F07CD57D047AC67B111242A71223
:104B80002D3B9012D9E07004790080027901124522
:104B9000E9122D4102606974F41223F674F51228AB
:104BA000B0E9FDEAFEEBF9ED705B74026E703E74E5
:104BB000089011D5F07508007808122854ECF50813
:104BC0007808122854E9F5087808122854901EA68F
:104BD000122694901EAAE0F97CD07D12901EC3127A
:104BE00059E5122D65740712287D024CCC74016EB4
:104BF0006003024CD174089011D5F07B00E9FA12E1
:104C00002D95024CCC74016D600874026D60030236
:104C10004CD1EE600574036E70607402124CE612A3
:104C20002A4FAA08AB09AC0AAD0B122D53E9FA9032
:104C300011DAE0A2E3401DEA701A901246E004F097
:104C4000640470109080887808122A4F901EA6780D
:104C500008122A6D74036E7075901247E0FB7401A0
:104C60002BF0EBC3940540669080887808122A4F99
:104C7000901EA67808122A6D805474016E705274CA
:104C8000016D7035740A9011D5F07401122A94E404
:104C9000F07402122A947403F09080787808122A33
:104CA0004F7404122A947808122A6D7408122A94F8
:104CB000E4125AB2122FBD8028740A124CE6122A4E
:104CC0004FAA08AB09AC0AAD0B122D83E9FAEA60D2
:104CD000107CE87D037A017B009011D2E0F9123A52
:104CE0005B740B0264199011D5F0901EAAE0F99044
:104CF0001EA678082274F61223F6E9FEEAFF7AD19E
:104D0000F912393BEA7001EB702C7A027B00123900
:104D100023EA7001EB700E7A107B009011D2E0F95B
:104D200012395F801874D18A828B83F0EEA3F0EF82
:104D3000F912392F8007EE8A828B83A3F0024EC8C6
:104D400074F71223F6890890065DE0FEA3E0802048
:104D50008E828F83124D90E0600AA31259ECFAA95B
:104D600008123C2F8E828F83A3A3A3A3A31270E209
:104D7000FFEE7001EF70D990065FE0FAA908123CCF
:104D80002F1230CB9011AE1266B61230C5026EB241
:104D9000E01256DC2274F11223F689098C0A740F92
:104DA000122A94125C5F7411122A9412544B7508E3
:104DB00000750E008050E50BC333FEE433FFE82E90
:104DC000F582E93F124E17E50EC333FEE433FFEAE6
:104DD0002EF582EB3FF583E0650C7004A3E0650DD2
:104DE0007019E508C333FEE433FFEC2EF582ED3F86
:104DF000F583E50CF0A3E50DF00508050BE50BC305
:104E0000950A40B2050EE50EC395095005750B00D5
:104E100080EBA90802622AF583E0F50CA3E0F50D0A
:104E20002274F41223F6E9FD740C122A94125C5FCA
:104E3000750B008002050BE50BC39D503F750A0002
:104E40008002050AE50AC39C50EBE50BC333FEE480
:104E500033FFEA2EF582EB3FF583126054E50AC377
:104E600033FEE433FFE82EF582E93FF583E0650881
:104E70007004A3E0650970CA7901800279000264B8
:104E80001C74F61223F6124F0F7003A3E06D701717
:104E90007508D87509117808122850EEFA123D4F9E
:104EA000740212287D801A7508027509807808122C
:104EB00028508C088D097808122850124F1F12288C
:104EC0007D8005740212287D7F0202262074F6126E
:104ED00023F6124F0F7003A3E06D70177508E57588
:104EE00009117808122850EEFA123D557402122862
:104EF0007D801A75080375098078081228508C087F
:104F00008D097808122850124F1F12287D80B9EAA7
:104F1000FEEBFF1256CAFCE9FD9011AEE06C22EEEA
:104F2000240E126ADDFD7C80EE2402FAEF3400FBD1
:104F3000EE240F126ADDF9123D7374042274F61226
:104F400023F674FE1228B0EAFEEBFF85188285195D
:104F500083E4F0A3F0126235FA88828983A3A3E088
:104F6000F9750800750900600494F140057509821F
:104F700080459011AEE06A7003A3E06B7022851843
:104F800082851983AA82AB8312364DE9F50885180C
:104F900082851983E07002A3E0701C750983801775
:104FA0009012D9E06004640170057509818008E001
:104FB0006402700375098085188285198312544B29
:104FC000A909EEFAEFFB123D5BE508601685188231
:104FD000851983E07002A3E0600985188285198332
:104FE0001256E5024EC374F21223F6EAFEEBFF7589
:104FF0000A00750B001256C6F508E9F5091230CB08
:10500000EA65087003EB6509701212365FE914F562
:105010000A79017A0E7B121236658003750B8012B5
:105020005059F50C780C122854750C0E750D127829
:105030000C122850780A1228547808122850E50BD0
:10504000F5087808122854126036126AD27A057B65
:1050500080123D617407026E56EE240EF582EF1247
:105060006AE02274F51223F6E9FE7F0080278A8227
:105070008B83126F86F9E42508E9F509EF33F8E42C
:1050800033F9EC28F582ED39F583E508F0A3E5095D
:10509000F0126E940FEFC39E40D47F03022620745B
:1050A000E81223F674FC1228B08518828519831241
:1050B00066B6750F007402122A94E4F0A3F0F51698
:1050C000F517851882851983E02413126654126C33
:1050D000EDF508E9F509850A82850B83A312705E58
:1050E000A3A3E0F9EAFEE9FFE50A2404127029AA65
:1050F00008AB0912316DE96401703812545112285D
:10510000547508007509007808122850780812288C
:10511000549011AE1226987508807808122854749D
:1051200007122A9412543F122A9412546012287DB6
:1051300002542AAA08AB0912316DE9700E9011AE23
:10514000E065087004A3E0650970B01254348A0960
:105150006034C333FAE433FB12399B7402122A948D
:105160001266B67402122A94E07002A3E06017740B
:1051700002122A9412544BAA0AAB0BA909123C5FE3
:105180008A0A8B0B80037509001254348A08601C4C
:10519000C333FAE4331271197001EB600FAC16AD32
:1051A00017AA0AAB0BA908123C5F80037508009090
:1051B000065D804AE4F0A3F0AA0AAB0B8512828553
:1051C0001383126B7B1259ECF912392F85108285EB
:1051D0001183E0C0E0850F0AE50A240EF582E4346D
:1051E00012F583D0E0F0050FE5146007AA10AB11AB
:1051F0001239A1851282851383A3A3A3A3A3E0F58B
:1052000012A3E0F513E5127002E51370030253CA0E
:10521000851282851383125C69FAE9FB8A828B838B
:10522000E060D0851282851383A3A3E0A2E050C37F
:10523000851282851383A3A3A3125C69FCE9FDECAC
:105240007001ED8A828B836014E0FA79018C828D83
:10525000831246008A108B11751401800DA3A3A33D
:10526000E0F510A3E0F511751400E5107002E511EA
:1052700070030251E8851082851183A3E06E7003EC
:10528000A3E06F60030251E8851082851183A3A318
:10529000A3A3A3A3A3122698851082851183A3A399
:1052A000A3A3A3A3E0FC7404122A941259E5A9094C
:1052B000123C41740212287DE970388510828511F4
:1052C00083A3A3A3A3A3A3A3A3A3A3122698851098
:1052D00082851183A3A3A3A3A3A3A3A3A3E0FCAAF2
:1052E00016AB17A908123C41740212287DE970031D
:1052F0000251E8E5092508C333240AFA7B00123974
:10530000238A0A8B0BEA7001EB70030251CC74D232
:105310008A828B83126421F5838882A3A3125C5F47
:105320008A828B83A3A3E8F0A3E9126FC61254719B
:10533000E508F0EA2405FAEB3400FBE5096038E5FE
:105340000A240AF8E50B3400F98A828B83125ABECC
:105350007402122A94124E19750E00780C12284C01
:10536000E509C333FCE433FD8A828B831259E512CD
:10537000622F12287D80088A828B83E4F0A3F0E5F7
:105380000A2408F582E50B126FE1E508700302516B
:10539000B4E509C333F8E433F9E50A28F8E50B3935
:1053A000F9740A28FAE439FB1266B685160C8517DB
:1053B0000D750E00780C12284CE508C333FCE4335D
:1053C000FD12622F12287D0251B8E50F6039125488
:1053D0005112285475080E7509127808122850E5E4
:1053E0000FF50878081228549011AE122698750807
:1053F0000078081228547407122A9412543F122A73
:105400009412546012287D7402122A94E07002A350
:10541000E060087402122A941256E5E5167002E55F
:10542000176007AA16AB171239A1740412287D7FE2
:1054300010022620850A82850B83E0FA026FF5E0D0
:105440002402FCA3E03400FD740722E0FCA3E0FD8D
:1054500022851882851983E0240E126B2302563FA1
:10546000E0240FF81266827A067B80123D61740791
:1054700022A3E509126FCA02719974EA1223F67425
:10548000F41228B08A0E8B0FECFEEDFF740B122A7B
:10549000947403F0122A94AA82AB831242A7E50EF9
:1054A000240CF512E50F3400F5131230C5EAFCEBBD
:1054B000FD7403122A94AA82AB831242A1E96012FE
:1054C000EE2413126834E0FA74036A600A74016A05
:1054D000600574840255E2EE2408126CCDE0F96098
:1054E00021C394F1501CEE2414F50AEF12702D74B0
:1054F000036A7013850A82850B83E06005C394F10B
:10550000400574820255E2EE2409126F7EEE240BF0
:10551000FEEF3400FF851282851383E06421700260
:10552000A3E060030255AD7487851882851983F066
:10553000122CC3904B4CE493F8740193F9C3EA988E
:10554000EB9940030255E9850A82850B83E0F50A51
:10555000780A122854EEFCEFFD8508828509831233
:1055600059E5850C82850D83E0F912458974011295
:10557000287DE97074E4851882851983F0123BBD9B
:10558000851082851183E06403705E7401122A9491
:10559000AC82AD83EEFAEFFB12456BE9704B7D00F8
:1055A0007C007900EEFAEFFB123D1F803C850A82F9
:1055B000850B83E0F50A780A122854EEFCEFFD858E
:1055C00008828509831259E5124577740112287DF6
:1055D000E9700DE4851882851983F0123BBD8009BE
:1055E0007488851882851983F0E50E126CC8E50F62
:1055F00012563B1228547401122A9485820885831E
:10560000097808122850851282851383126F864408
:1056100080F50978081228507901E50E2402FCE58E
:105620000F3400FDE50E240FFAE50F126047122833
:105630007D740C12287D7F0E022620127059E0F531
:1056400008780822C082C08374F31228B0E4851859
:1056500082851983F07401122A941266B6740312BB
:105660002A94AA82AB83122BF1851882851983AA0A
:1056700082AB83122C27740D12287D02606974F6A8
:105680001223F61256C2F89011E0E058F508A3E094
:1056900059F509E5087002E50960247808122850D8
:1056A0009011AE122698125059FD7C00EE2402FA99
:1056B000EF3400FB126AD2123D6D740412287D0291
:1056C0004EC8EAFEEBFF1256CA221262421256D7A9
:1056D000E0FAA3E0F9EA223400F583E0F8A3E0F968
:1056E0008882898322126EAC1239A12274E81223B7
:1056F000F674DB1228B08A168B177512007513002A
:105700001259E9F50B851882851983AC82AD837A2D
:10571000007B00799C122DA77A047900122C39EABB
:10572000F50C851882851983E0250CF0FAE50BC38A
:105730009A4003025980E0C3950BF509C3940440D5
:1057400003750903E50975F01AA4FAABF012399B49
:105750008A128B13EA7001EB7003025983750A00F9
:10576000AE12AF13850B0802580B7C087D0079FF41
:10577000AA10AB11123911E50E2404F8E50F34001C
:10578000F9EE2416FAEF3400FBEE2415FCEF34009A
:10579000FDEE2414F510EF3400F51188828983E0C2
:1057A0007036850E82850F83E07002A3E0700AE4F4
:1057B000851082851183F0800E7401851082851119
:1057C00083F0900569E014851482851583F07402D6
:1057D0008C828D83F0E48030900569E0048514822A
:1057E000851583126F61C3940340030258B5740298
:1057F000851082851183126F61640160030258C7AE
:10580000E48C828D83F074011259F1E50AC3950985
:1058100040030258E6E508C3950C40030258CCA9A2
:1058200008122CAB8A0E8B0F0508900556125A12DF
:10583000125C59EE2412F582EF126FE1E8F0A3E951
:10584000125A01F514EF3400F51574FF85148285A2
:105850001583F0850E82850F83A3A3A3A3A3A3A31F
:10586000A3A3A3E0C0E0EE2419F582EF126FE1D00C
:10587000E0F07401122A94E4F0125C597402122AC6
:1058800094125ABEEE240AF510EF3400F51174019B
:10589000122A94AA82AB83122C15E96401600302D8
:1058A000576A7404122A94AC82AD83AA10AB111209
:1058B00042A70257777401851082851183126F61A8
:1058C000640370030258007401025801E50CC3958B
:1058D0000B40057508008018E50BC3950CF5088092
:1058E0000F74011259F1E50AC39509400302598367
:1058F000740E122A94AC82AD83AA087B00798712B9
:105900002DA705087418122A94125A127C087D00DB
:1059100079FFEE240AFAEF3400FB123911EE24125B
:10592000F8EF3400F9740E122A941259E58882892E
:10593000831266B6EE2415F582EF126FE17402F061
:10594000EE2416F582EF126FE17403125A01F5820C
:10595000EF126FE174FFF0741D122A94E0C0E0EEC4
:105960002419F582EF126FE1D0E0F0EE2414FAEF83
:10597000126E6E7002A3E060030258E1E40258E385
:1059800075090075080078081228547812122850FA
:10599000E509F5087808122854E50BF5087808128F
:1059A00028547405122A94E0FD7C00E5162402FABE
:1059B000E5173400FBE516125EA4E517126AD8124B
:1059C0003DA9740512287DE5127002E5136007AA4F
:1059D00012AB131239A1742502542CAC82AD83850D
:1059E0001882851983126EAC2212704F126B80E000
:1059F000228A828B83F0EE241AFEEF3400FF050A20
:105A000022F0EE2417F582EF1270597402F0EE24A2
:105A10001822126CE5E8F0A3E9F07C6A7D05EE241B
:105A200002125A2522FAEF3400FB1242A72274F028
:105A30001223F674F91228B08A088B0912719E8518
:105A40001882851983780C122A6D125AAAC0E07444
:105A500004122A94D0E01270847405122A947401FE
:105A6000F07406122A947401F09011B8F074029048
:105A700011C1F0850882850983A3A3125C5F901190
:105A8000B9125ABEEA9011C2F0E508125EA4E50907
:105A900012505F9011B7125AB2122D59E9600312D9
:105AA0002D5F740712287D026AC4EE2404FE126E74
:105AB0006922F0851882851983AA82AB8322E8F0D7
:105AC000A3E9F02274F21223F674FF1228B0890AB7
:105AD0008A0C8B0D7E007F008A088B099012D9E01A
:105AE000600D64016003025BD5800488088909E5C4
:105AF000087002E50960369005561259E58508825E
:105B0000850983E06A7003A3E06B600FE508241643
:105B1000126FDD125C697001E970D0850882850919
:105B200083E06A7003A3E06B7003025BD57A187B95
:105B30000012399B8A088B09AE08AF09EE7001EF9D
:105B40007003025BD5900556126CE1125ABE9005A7
:105B50004B126CDAA3F090055D126CDAA3A3F090FF
:105B6000055E125C6EF0123155E98E828F83A3A31D
:105B7000A3A3A3A3A3F0901EAB125C6EA3A3A3A345
:105B8000F07C6A7D05EE240D125A25851882851950
:105B900083AA82AB8379411243C185188285198318
:105BA000E060089011AE125C5F800478FE79FF8E91
:105BB000828F83A3A3A3A3A3A3A3A3A3125ABEEE7E
:105BC0002416F582EF126FE1E50CF0A3E50DF08EDF
:105BD0000C8F0D050A9011C2E0FAE50AC39A500431
:105BE0007C008023E50AC39AFCC3940640027C052E
:105BF0007B00800EE50C2416F582E50D3400124E74
:105C0000170BEBC39A40ED750800780812285478FA
:105C10000C122850ECF50878081228549011C21282
:105C2000563E122854AD0A7C007AB97B119011B708
:105C3000E0F9123DA3740512287D9012D9E06004AA
:105C40006401700DEE7001EF6007EEFAEFFB1239A0
:105C5000A1122D5F7401026E56850E82850F83128C
:105C60005C6322E0F8A3E0F922125C63E822E08E94
:105C7000828F8302719974EC1223F674FF1228B09C
:105C80008A0A8B0B7E008E0E8E0F1259E9FF851843
:105C900082851983AC82AD837A007B00799D122DB9
:105CA000A7851882851983E0FAEFC39A507EE0C376
:105CB0009FFEC3940B40027E0AEE75F006A4FAAB79
:105CC000F012399B8A088B098A0E8B0FEA7001EB60
:105CD0006058750C00801B740288828983F07403FD
:105CE00088828983F0E5082406F508E509126F81AA
:105CF000050CE50CC39E5034AC08AD09850C12EFC1
:105D00002512FAE43400FB798B122DA7E50824054F
:105D1000F8E509126F5512265E0102DE5C235D264E
:105D20005DD75CE480BA740180B67E0075080078A7
:105D300008122854780E122850EEF5087808122818
:105D400054EFF50878081228547405122A94E0FDDF
:105D50007C00E50A2402FAE50B3400FBE50A125E3A
:105D6000A4E50B126AD8123DAF740512287DE50E2A
:105D70007002E50F6007AA0EAB0F1239A174011271
:105D8000287D7F0C02262074EA1223F674FE122866
:105D9000B08A148B15750A00750B001259E9F508C5
:105DA000851882851983AC82AD837A007B0079A344
:105DB000124571850882AA82851882851983125C32
:105DC0005FC3EA98E4994003025E4C851882851906
:105DD00083E0C39AFEA3E09400FFC3EE9404EF9423
:105DE0000040067E037F008006EE7001EF605DEEEE
:105DF000FAEFFBEA75F015A4FAACF075F015EBA418
:105E00002CFB12399B8A0C8B0D8A0A8B0BEA7001D2
:105E1000EB6039750E00750900850910C3E5109E09
:105E2000E49F502DAC0CAD0D850912850810E510CE
:105E30002512FAE43400FB79A2124571E50C241511
:105E4000F50CE50D3400F50D050980CD750E8B7E42
:105E5000007509007809122854780A122850EEF5C6
:105E600009780912285478081228547405122A94C3
:105E7000E0FDAC0EE5142402FAE5153400FBE51450
:105E8000125EA4E515126AD8123DB5740512287D7C
:105E9000E50A7002E50B6007AA0AAB0B1239A17480
:105EA00002025633240FF5822274F61223F674FF91
:105EB0001228B0EAFEEBFF126242126E9EA3A3A369
:105EC000A3A3A3A3A3E0F9122D7DE9851882851968
:105ED00083F075080078081228547401122A9485FA
:105EE000820885830978081228507508357509805D
:105EF0007808122850790112603F12287D7401023F
:105F00004EC574F41223F674FA1228B08A088B096D
:105F1000126D77FAEFFB122BF7E960131230C5EA26
:105F2000FCEBFDEEFAEFFB1242A1E96401700A748A
:105F300001122A94E4F0A380097401122A94EEF06D
:105F4000A3EF126F74A3A3A3A3A3E0FAA2E65008E1
:105F50007403122A947401F0EAA2E7500874041240
:105F60002A947401F07405122A94E4F07401122A40
:105F700094AA82AB83122D9BE9851882851983F040
:105F8000750A00780A1228547401122A9485820A2C
:105F900085830B780A122850750A34750B80780AAD
:105FA0001228507901E5082402FCE5093400FDE5DA
:105FB00008240FFAE50912604712287D740602646E
:105FC0001974F61223F674FF1228B0EAFEEBFF12E2
:105FD0006FE5124D90126054A908122D6BE98518D7
:105FE00082851983F09012D9E0700B7401650970F5
:105FF00005A908123E391260368C828D83E064FF59
:106000007004A3E064FF602B750800780812285420
:106010007401122A94858208858309780812285011
:106020007508367509807808122850790112604287
:1060300012287D025EFDEE2402FCEF3400FD2212E8
:106040006036EE240FFAEF340012604D22FB123D51
:1060500013740522E0F508A3E0F50922C082C0838D
:106060009012D9E07003123E3FD083D082022815EF
:1060700074F01223F674EF1228B01256C2F50CE930
:10608000F50DEE240FF50AEF12702DEE2402126FBB
:106090007E9011AEE0650C7004A3E0650D70618523
:1060A000188285198385820E85830F780E122850F9
:1060B000750E11750F00780E1228507C007D007A45
:1060C000817B00123A25740412287DE97032750E26
:1060D00000780E1228547401122A9485820E85834A
:1060E0000F780E122850AC0CAD0DAA08AB09850A2A
:1060F00082850B83E0F9123D67740312287D802AA4
:10610000750E11750F80780E122850780C122850D9
:10611000125059FD7C84AA08AB09850A82850B833D
:10612000E0F9123D73740412287D7411025AA474AC
:10613000F11223F674EC1228B0EAFEEBFF1262357E
:10614000F508EBF5099011AEE065087004A3E06571
:106150000960030261DE88828983A3A3E0FA9410B8
:106160005004EAFB80027B107403122A94EB126E37
:1061700077A3A3A982AA83890C8A0D750E00780CD7
:1061800012284C7406122A94E0FC7D007407122A2F
:1061900094AA82AB8312622F12287D7403122A9470
:1061A00085820A85830B780A122850750A11750BAF
:1061B00000780A1228507C007D007A817B00123A18
:1061C0001F740412287D7403122A94E09011D86081
:1061D00005E0D2E48003E0C2E4F07A0080027A8431
:1061E000EA851882851983F07401122A94E508F073
:1061F0007402122A94E508F0126CC7EF12563B1293
:1062000028547401122A948582088583097808121B
:1062100028507508147509807808122850790312DF
:10622000603F12287D741412287D7F0702262012F9
:106230003905740322126242126EB7FCA3E0FBE43C
:106240002C22EE2413F582EF2274F41223F674E06C
:106250001228B08A088B09851882851983AC82AD13
:1062600083123D019012D9E0640270337402122A45
:1062700094AE82AF831230C5EEFCEFFD1242A1E96D
:10628000601D1230CB8A0A8B0BA80AA90B851882D5
:10629000851983E0687003A3E06970030264171234
:1062A000328D7402122A941259DB123197E964017B
:1062B0007003026417740B122A94AA82AB83123003
:1062C000D77402122A94AC82AD83740B122A94AA5A
:1062D00082AB831242A1E960321230D18A0A8B0B61
:1062E000A80AA90B851882851983E0687003A3E0CA
:1062F000696018851882851983125C5F90054C12BD
:106300005ABE7A4C7B05794B1243C79012D9E06094
:1063100007640160030263A3E5082411126FDDC066
:1063200082C0831230CB8A088B09D083D082E0658B
:10633000087004A3E0650960347402122A94AA82EA
:10634000AB83122C698A828B83E5827002E58360BD
:106350001CA3A3A3A3E0FA74016A600574026A7027
:106360000C7402122A94AA82AB83122C751230CBC1
:106370008A088B09A808A909851882851983E0680D
:106380007003A3E069601C7402122A941259DB1294
:106390002C4BE9600E7402122A941259DB12326FF0
:1063A000123BBD79001259DF122ED97413122A94B0
:1063B000E4126421F97414122A94125ABE7413124E
:1063C0002A94AA82AB83122C15E9604B7C087D00CD
:1063D0007900740B122A94AA82AB831239117416B5
:1063E000122A94AC82AD83740B122A94AA82AB83D6
:1063F0001242A1E960217402122A94AC82AD837426
:1064000016122A94AA82AB83122BF17413122A94C7
:10641000AA82AB83122C27742012287D7F040226C7
:1064200020126AC9F8A3E02274F11223F674F6125E
:1064300028B0EAFEEBFF750800901244E07002A35A
:10644000E0703E7A377B001266471266B6901244BF
:10645000E07002A3E060197C377D007900123911E9
:10646000EEFCEFFD9012441259E5123CD1E97005A3
:1064700074880265A012664E7401F0126AFD02660D
:106480003C12664E7402F0EEFCEFFD126AF0123C14
:10649000D1E9700C7488851882851983F07508011C
:1064A000750A0E750B12780A122850901244E024D7
:1064B00029126654122698901244E024281266711C
:1064C0002415126687241412667812287DE9C0E02C
:1064D000901244E02431126654D0E0126B692431EA
:1064E00012666C750C0E750D12750E00602E12661C
:1064F00041E02432126F5AFA7001EB6013780C12EB
:10650000284C901244E024311266A912287D800C98
:106510007488851882851983F0750801780A122815
:1065200050901244E024121266541226989012449D
:10653000E02411126671242C126687242B126678CF
:1065400012287DE9C0E0901244E02434126654D051
:10655000E0126B69243412666C6020126641E024FC
:1065600035126F5AFA7001EB602B780C12284C90A0
:106570001244E024341266A912287DE508701F1227
:106580006B19700512669C60157B007A0079001209
:106590003CD702663C7488851882851983F074861E
:1065A000851882851983F07409122A947402F08E7A
:1065B000828F83126694122A94125ABE8E828F831F
:1065C000A312563E1228547401122A94858208851B
:1065D00083097808122850750820750980780812F8
:1065E000285079017406122A94AC82AD83EEFAEF3A
:1065F00012604D12287D126B39703E7409122A9474
:106600007402126B6912668D122A94126B6D122835
:10661000547401122A948582088583097808122807
:106620005075082075098078081228507901740681
:10663000122A94126B0B12287D123CCB740A026250
:1066400027C333FAE433FB12399B90124422901291
:1066500044E0242E1266582212665C22F81266610B
:1066600022A3E01266672234000256DFF8126B2480
:1066700022126B23FC026AEB18126682123C3B74F6
:106680000422126B28F922126EA9026AEBF8A3E029
:10669000F5838882A3A3125C63740122901244E004
:1066A0002434080808126B2422126658E0C333FC15
:1066B000E433FD02622FEAF0A3EBF022C082C08334
:1066C000901244E07002A3E06073901244E024351D
:1066D0001267407001EB60031239A1901244E0246C
:1066E000321267407001EB60031239A1901244E04E
:1066F00024121267407001EB60031239A19012441A
:10670000E024151267407001EB60031239A190126A
:1067100044E024291267407001EB60031239A19014
:106720001244E0242C1267407001EB60031239A17F
:106730009012441256E5901244E4F0A3F00260690E
:10674000126EA9EA2274EC1223F6EAFEEBFF8C0823
:106750008D09750A018C0C8D0D750E00780C1228B0
:106760004C7C177D0012622F12287DEE24121268D5
:1067700034E4F0A3F0EE241512682AE4F0A3F0E567
:10678000082411126841603AC333FAE433FB12392A
:106790009B8510828511831266B6851082851183D0
:1067A000E0FA7001EB6018E5082412126850122814
:1067B0004C8512828513831266AC12287D80037586
:1067C0000A00E50824141268416031C333FAE43347
:1067D000FB12399B8E828F831266B68E828F83E086
:1067E000FA7001EB603FE508241512685012284C3E
:1067F0008512828513831266AC12287DE50A70200B
:1068000085108285118312707F7001EB600312394D
:10681000A18E828F8312707F7001EB60031239A109
:10682000A90A025D82750A0080D6FEEF3400FF8E51
:10683000828F8322F510EF3400F511851082F583E5
:1068400022F512E5093400F513851282F583E02262
:10685000F582E509126AE0F50CA3E0F50D780C224B
:1068600074F01223F674ED1228B0890A8A0B7E00A8
:106870007F00750CFF750EFF750FFF8E088E09E403
:10688000851882851983126B697002A3E0700579FF
:1068900000026ABB7403650A60067402650A700C24
:1068A000901244E0243012666C6B70E37CDD7D3C1A
:1068B0007A007B001245D77401650A700B748585D8
:1068C0001882851983F08038901244E0242F1266D4
:1068D00054E50A60067403650A700F7401F07403CE
:1068E000650A7018E50B601880D57402650A70108F
:1068F000E50B7004740180CD740280C9E50A60194B
:10690000126B2D7014901244E02431080812666D49
:10691000700512669C600214F0126B19FA90124412
:10692000601C126054EAC333F8E433F9901244E077
:106930002432126B45241D126AE52425802A126632
:106940009FFA6029901244E02417F508A3E0126F23
:1069500081EAC333F8E433F9901244E02435126B32
:10696000452406126AE5240E12666CF50C740912B1
:106970002A947402126AC96003026A2CE508700244
:10698000E5097003026A2C126B2D7005750A2280CE
:1069900003750A21850882850983126694122A9458
:1069A000125ABE901248E0C0E0901244E024301227
:1069B0006654D0E0F07412122A947403F0EEFCEFE7
:1069C000FD740A122A94AA82AB831242A785088218
:1069D000850983A3E0F50D780D122854780C122850
:1069E00054740C122A9485820C85830D780C12281D
:1069F00050780E122850E5082406F50CE5093400FD
:106A0000F50D780C122850E508126CC8E509126AD9
:106A1000D87409122A94AC82AD83AA0A7B00123D75
:106A20007F740812287D126AFD026AB9901244E050
:106A300012668D122A94126B6D1228547401122A58
:106A40009485820885830978081228507508207576
:106A50000980780812285079017406122A94126B62
:106A60000B12287D126B39704D901244E0241912DC
:106A70006654126696122A94125ABE901244E0246A
:106A80001812545A1228547401122A9485820885C7
:106A90008309780812285075082075098078081233
:106AA000285079017406122A94AC82AD83126AF0E0
:106AB00012604E12287D123CCB79017413025AA445
:106AC000EEFAEFFB7F08022620F0851882851983F5
:106AD000E022EE240FF582EF126AE0F922F582EF50
:106AE000127059E022FEA3E03400FF901244E0222D
:106AF000901244E02417FAA3E03400FB227CDD7DF1
:106B00003C9004D3126EAC1245D722AC82AD839078
:106B10001244126EAC12604E22901244E0243112E4
:106B20006B2322F8126B2822126661E02290124435
:106B3000E0242F126B23640122901244E0242E12D1
:106B40006B23640222FAA3E03400FB8A828B83E089
:106B500028F8A3E039F974FE28F58274FF39F5832B
:106B6000E0F50EA3E0F50F8082F0026AEBE8F0A3F7
:106B7000E9F0901244126B7B02563E126B80A32206
:106B8000E0F8A3E0F583888222C082C0837B007A8C
:106B9000857901123CD702606974F01223F6ECFE8D
:106BA000EDFFEA125EA4EB12505F8E828F83126FAC
:106BB000BA126CE1A3A3125ABEEA126CC8EB126FB0
:106BC000E1126CDAF012704B126CED8E828F831230
:106BD0007019AC0AFDEE2406FAEF3400126CFDC009
:106BE000E0126CC7EF126FE1D0E0127012F8EE12F3
:106BF0005EA4EF126FE1E812701DEE2412126CCD4C
:106C0000E4F0A3F0EE2415F50EEF3400F50F850E39
:106C100082F583E4F0A3126F16FBA385820A8583B5
:106C20000BEE2411126F7EEB850882850983F060DC
:106C300036C333FAE433FB12399B850C82850D830E
:106C40001266B6850C82850D8312544BEC7001EDF3
:106C50006015AA0AAB0B850882850983E0F9123C0E
:106C60005F8A0A8B0B8008E4850882850983F0859A
:106C70000A82850B83E0FBA385820A85830BEE24C1
:106C800014FEEF3400FFEB8E828F83F06030C3334D
:106C9000FAE433FB12399B850E82850F831266B6A8
:106CA000850E82850F8312544BEC7001ED600FAAA4
:106CB0000AAB0B8E828F83E0F9123C5F8006E48E74
:106CC000828F83F0026AC4EE240EF58222F50CEF67
