:020000040000FA
:10000000020DA1022003FFFFFFFFFF02200BFFFFF5
:10001000FFFFFF0204D8FFFFFFFFFF02201BFFFFCF
:10002000FFFFFF022023FFFFFFFFFF02202BFFFF48
:10003000FFFFFF022033FFFFFFFFFF020533FFFF3B
:10004000FFFFFF022043FFFFFFFFFF02204BFFFFE8
:10005000FFFFFF022053FFFFFFFFFF02205BFFFFB8
:10006000FFFFFF022063FFFFFFFFFF02206BFFFF88
:10007000FFFFFF022073FFFFFFFFFF02207BFFFF58
:10008000FFFFFF022083FFFFFFFFFF02208B002006
:10009000000090200000932000000100000000C834
:1000A0000300380000000000260000000000FFFFF1
:1000B000FFFF0000040074F7120AFE780079008048
:1000C0001BE508120529E08A828B83F09004121246
:1000D00002044005E4900412F01201FB900412E0C7
:1000E000F508900413E065086007C3E89CE99D40AB
:1000F000D0E8FAE9FB7F02020C5574F8120AFE9070
:100100000497E0FE8E82A882900496E0FEE8C39EEB
:10011000E0500E1202C17001E9700B780079008086
:10012000141202D250F57A007B008038E004F043CC
:100130009A041201FBC3E89CE99D50248A828B83B8
:10014000E0C0E0900497E012058AD0E01202EDE4EE
:10015000900498F0900497E0C3947F40CFE480CE61
:10016000E8FAE9FB7F01020C5574F7120AFE7800E9
:10017000790090051BE0705590051CE0704F75C12B
:1001800000C28BC284A28340FCA28B4004A2835095
:10019000F8E5C1C28BA2835004D2848030C0E0E075
:1001A0001201F1D0E0F090051C1202E640DBE4F011
:1001B00080D7E5081201F1E08A828B83F090051B5D
:1001C0001202044005E490051BF01201FB90051B90
:1001D000E0F50890051CE065086007C3E89CE99D10
:1001E00040D0E87001E97006E4F090051BF00200D1
:1001F000F1249BF582E43404F58322E8240108E924
:100200003400F922E0041202F1C394802274F8123F
:100210000AFE90059EE0FE8E82A88290059DE0FE7B
:10022000E8C39EE0500A1202C17001E9700D80051A
:100230001202D24006EC7001ED70067A007B00805D
:100240007D8A828B83E0F5C1A3AA82AB8378017992
:10025000008006E004F01201FBC3E89CE99D501EFB
:100260008A828B83E0C0E090059E1202FCD0E012EF
:1002700002ED90059EE0C3947F40D8E480D7C28B06
:10028000A28340FCC284A28B4004A28350F8900554
:100290009D1202FCE0F5C1C28B90059DE0FA90052D
:1002A0009EE06A90059D70051202FC80051202E630
:1002B0004002E4F0A28350CED284E8FAE9FB0201C6
:1002C00064C398F8E49400F974FF281874FF39F9AE
:1002D000E822C398F8E49400F9747F28F8E439F927
:1002E000C3E89CE99D22E004F0C39480221202F14D
:1002F00022F08A828B83A3AA82AB8322E0241DF59D
:1003000082E43405F5832274FF120D111203E21208
:100310000692E970030203BF7E00900390E064013F
:10032000700DC2847401900391F09005B38005D2E2
:10033000AF9005B77808120D927C017D0085188278
:10034000851983AA82AB83120494EA7001EB6012D0
:10035000E064F8602CE0640770089005BB78081230
:100360000D9285080C85090D850A0E850B0F9005E9
:10037000BF7808120D4F9005BB780C120D2770B98D
:100380000E900390E064017009D284E4900391F030
:100390008002C2AFEE6028900390E0640175860091
:1003A000C2AA7007539AFBD2E98007C28B539AFB0B
:1003B000C2E9022000C2AF75C9AB75C95B80FE12ED
:1003C0000459C2AF75C9AB75C95B80FE7A1075B6AA
:1003D0000FE5B4A2E750FAE5BBC39940F11AEA7001
:1003E000ED22C082C08353BEFBE59DA2E650FA0019
:1003F00078F8790100E824FF18E934FFF9E8700182
:10040000E970F175C6807480659E70FA43BE04740D
:1004100008906270F0794A1203CC74F5900001F0F4
:100420007403F5D575D4887401900390F0D2845389
:10043000F3F753F3EF53FDF743FD10538FF753F7E3
:10044000DF43C52053F1FE75862043F3F0E5F34307
:100450008640D2AAD083D0822274F5120AFE794E49
:100460001203CC900390E07002D2AF120594E960C1
:10047000FAE0701B9005C37808120D92009005BF3A
:100480007808120D4F9005BB7808120D2770ED7F8C
:1004900004020C55C082C083900390E070051200E6
:1004A000B6801E900391E06015A28B500DE5C18AC5
:1004B000828B83F07A017B0080077A0080F812013A
:1004C000698091C082C083900390E070051200FAA9
:1004D000800312020D020454C0E074F2120B5E900D
:1004E0000001E064CD70051220138038E064F570DF
:1004F00032E5C1C0E0900413E0120529D0E0F0908D
:100500000412E0FA900413E06A7006E59590041571
:10051000F09004131202E64002E4F074C690041452
:10052000F08001007F01020BBD2492F582E43403C8
:10053000F58322C0E074F1120B5E900001E064CDFF
:10054000700512203B803EE064F57038900496E020
:10055000FA900497E06A700B539AFB740190049828
:10056000F08022C2E9900496E0F50874012508F0B5
:10057000E50812058AE0F5C1900496E0C394804036
:1005800004E480DC007F02020BBD2416F582E43413
:1005900004F5832274F7120AFE74FF120D117E0017
:1005A0008033900384E0FA851882851983E06A70AD
:1005B0000D900382E0644D70051207EBE9FEE490B4
:1005C0000385F0900387F0851882851983E0FA90FF
:1005D0000384E06AF07C017D00851882851983AA76
:1005E00082AB83120494EA7001EB7003020686E08A
:1005F000C0E0900387E0F8900385E028F8E4340039
:10060000120980D0E0F0900387E0120C8D0005C73E
:10061000051D062C064A065A067006A20585188294
:10062000851983E064FE709F74018097E4900384D1
:10063000F0851882851983E0900386F0C39480408A
:1006400004E40205C374020205C385188285198378
:10065000E0900382F074030205C385188285198334
:10066000E0900383F0900386E0601674040205C3F3
:10067000900385E004F0FA900386E06A60030205C7
:10068000C774050205C3EEF97401120CDE7F020285
:100690000C5574ED120AFE74FB120D1175080475E9
:1006A00009007808120D627402120DBD12098C1235
:1006B0000CDE851882E064FF7004A3E064FF600D27
:1006C000851882851983E07002A3E070030207DFBA
:1006D00012099C120DBDE0687003A3E0697003026B
:1006E00007AE75080090059F7810120D92800A9051
:1006F00005A37810120D27604D750A01750B00785F
:100700000A120D627406120DBDAC82AD8385100A0B
:1007100085110B74FF550AFA7407550BFB8A0C857B
:10072000110D85120E85130F740B780C120CF8A99D
:100730000C120996120CDEE0F9AA08AB091209AAFC
:100740008A088B0980089005A77810120D929005F1
:10075000AB7810120D4F9005AF780C120D92780CFB
:100760007910120D73408879001209AA79001209D4
:10077000AA7402120DBDEAF0A3EBF0750801750929
:10078000007808120D627402120DBDAC82AD837A3E
:10079000247B08120A757402120CDE7508047808AE
:1007A000120D627402120DBD12098C120CDE1209B8
:1007B0009C120DBDE0687003A3E069702285188269
:1007C000851983E064FF7004A3E064FF601185185D
:1007D00082851983E07002A3E060047901800279C8
:1007E000007405120CDE7F0C020C5574F3120AFE25
:1007F00074FC120D11900306E0FA900307E0F9EA89
:10080000F8E428FE740839FF750A017509007508B7
:10081000008E0C8F0D7409780C120D83A90C74FFD7
:100820005EF50C74015FF50D900383E0120C8D01F1
:1008300002240939086108A308EA7002E50D700373
:10084000120AE7750C10750D00780C120D627C0809
:100850007D03EEFAEFFB120A757402120CDE020938
:1008600024E9C394794006750901020924750A40F8
:10087000750B00780A120D627C097D037402780CF6
:10088000120D3CAA0CAB0D120996120CDE90030758
:10089000E0900308F0900306E0900307F0750A4328
:1008A000020924750C04750D00780C120D62740297
:1008B000120DBD12098C120CDE7402120DBDE0F88F
:1008C000A3E0F9851882851983E0687003A3E069C5
:1008D000603B12099C120DBDE8F0A3E9F0750C0114
:1008E000780C120D627402120DBDAC82AD837A24B5
:1008F0007B08120A757402120CDE750C04780C1257
:100900000D627402120DBD12098C120CDE12099CCC
:10091000120DBDE0687003A3E069700575080180E1
:1009200003750907900305E0D2E7F0E50990030697
:10093000F0E50A900303F0744D650AF50974042587
:100940000AFB7A038004E062090AEAF83395E012B0
:1009500009808B0AC3E8950AE99400A2D265D033D6
:1009600040E4E509F074012AFC3395E0FD7A027B4E
:10097000031204C3A9087404120CDE7F06020C558E
:10098000F9E82402F582E93403F58322AC82AD83D1
:100990007A907B0079041209EC7402228518828512
:1009A0001983E0F8A3E0F9740222EEC0E07E087437
:1009B000805BFDE47001ED6004D2F08002C2F0A221
:1009C000F0E492E0FCEAC333FAEB33FBE9A2E75030
:1009D0000474014AFAEC600874216AFA74106BFB23
:1009E000E9C333F91EEE70C7D0E0FE2274F5120A97
:1009F000FE8908740B120DBDE0FEA3E0FF740F55D5
:100A000008F50A750B00740B780A120D3C2AF8746D
:100A1000803BF9E428E50B39F9E5C7F509A2AFE415
:100A200092E0F50AC2AFE508C4540FC0E074F8556F
:100A3000C7FAD0E04AF5C7801C88828983E08C829F
:100A40008D83F088828983A3A882A9838C828D8379
:100A5000A3AC82AD83EEFAEFFB74FF2A1E74FF3B5A
:100A6000FFEA7001EB70D28509C7E50AA2E092AFF8
:100A70007F04020C5574F7120AFE7409120DBDE0D2
:100A8000F508A3E0F509ED900388F0EC900389F0F8
:100A9000746290038AF0747390038BF090038CE07F
:100AA000541FF0E508333354FC90038DF07406783E
:100AB00008120D83E50890038CF0741290038EF0F9
:100AC000744290038FF075D1FE75D601EA90627181
:100AD000F0EB906272F0906270E0D2E1F0E0A2E799
:100AE00040FB7F02020C55C082C083E9C333906291
:100AF00072F0906270E0D2E0F0D083D082222518AC
:100B0000C582C0E0E51934FFC583C0E0E518C39590
:100B10008224F9F8E4C5A8858319858218C5A8E858
:100B2000CEF0A3E520F0A37808E608F0A3DEFAEF04
:100B3000F0A3E58124FBF8E608F0A3E608F0A3089B
:100B400008E608F0A3E608F0A315811581D0E0FEC1
:100B5000D0E0F815811581E8C0E0EEC0E022C0D0F9
:100B60002518C582C0E0E51934FFC583C0E0E5184B
:100B7000C3958224F310AF088583198582188008F5
:100B8000858319858218D2AFC8F0A3E9F0A3EAF0F3
:100B9000A3EBF0A37908E709F0A3D8FAECF0A3EDF2
:100BA000F0A3EEF0A3EFF0A3D0E0F0A3D0E0F0A329
:100BB000D0E0F0A3E520F0A3E5F0F0A322851983AF
:100BC000851882E0C0E0A3E0F9A3E0FAA3E0FBA36C
:100BD0007808E0F608A3DFFAE0FCA3E0FDA3E0FE5E
:100BE000A3E0FFA3E0C0E0A3E0C0E0A3E0F5D0A352
:100BF000E0F520A3E0A3F5F0E4C5A885831985827C
:100C000018C5A8D082D083D0E0F8D0E032120DCC45
:100C1000B90003020C4FE4900302789E790380022E
:100C2000F0A3D8FCD9FA90059FAA82AB8390008EDE
:100C3000782979018015E493A3AC82AD838A828BF5
:100C400083F0A3AA82AB838C828D83D8E9D9E71283
:100C50000307120DC7851983851882E0A3FEE0A360
:100C6000F5207808E0A3F608DFFAE0A3FFE0A3C0D0
:100C7000E0E0A3C0E0E0A3C0E0E0A3C0E0E4C5A8DA
:100C8000858218858319C5A8D083D08222D083D0CD
:100C900082C5F0E493A3C5F0C395F0F5F0E493A307
:100CA000C395F04005E5F0048001E475F002A42549
:100CB00082F582E5F03583F583E493A3C0E0E49305
:100CC000C0E0222518F58210AF08F518400215196A
:100CD0008008F51840021519D2AF85198322C0D0BB
:100CE000251810AF08F518500205198008F518509E
:100CF000020519D2AFD0D0226016080808C6C31367
:100D0000C618C613C618C613C618C613C6D5E0EA59
:100D100022251810AF08F518400215198008F5189B
:100D200040021519D2AF22E066701008A3E0667089
:100D30000A08A3E066700408A3E06622700422603B
:100D40000D18C6C333C608C633C6D5E0F41822E072
:100D500026F608A3E036F608A3E036F608A3E03648
:100D6000F62274028000C0E0F404120CC3D0E0123A
:100D70000DB022C3E7960809E7960809E796080927
:100D8000E79622600C08C6C313C618C613C6D5E082
:100D9000F422E0F608A3E0F608A3E0F608A3E0F6E4
:100DA0002275D000758140751802751903020C0D6B
:100DB000CAC0E0E6F0A308DAFAD0E0FA222518F576
:100DC00082E43519F5832200000080FB790122FFBF
:100DD000FFFFFFFFFFFFFFFFFFFFFFFFFFFFFFFF23
:100DE000FFFFFFFFFFFFFFFFFFFFFFFFFFFFFFFF13
:100DF000FFFFFFFFFFFFFFFFFFFFFFFFFFFFFFFF03
:100E0000FFFFFFFFFFFFFFFFFFFFFFFFFFFFFFFFF2
:10200000022A3C0221DAFFFFFFFFFFFFFFFFFFFF75
:10201000FFFFFFFFFFFFFFFFFFFFFFFFFFFFFFFFD0
:10202000FFFFFFFFFFFFFFFFFFFFFF0227AFFFFFE5
:10203000FFFFFF022744FFFFFFFFFFFFFFFFFFFF40
:10204000FFFFFF02259AFFFFFFFFFFFFFFFFFFFFDC
:10205000FFFFFF022114FFFFFFFFFFFFFFFFFFFF56
:10206000FFFFFFFFFFFFFFFFFFFFFFFFFFFFFFFF80
:10207000FFFFFFFFFFFFFFFFFFFFFFFFFFFFFFFF70
:10208000FFFFFF02216E01FFFFFFFFFFFFFFFFFFCA
:10209000102010200101FF01010503010F10FEFFB8
:1020A0006A346A346A346A3414330E336A34B1469B
:1020B000000000004F46000000000C0000000C0073
:1020C0000100007A3600000000CC356A371436EC87
:1020D00036000002367E06FF010100CA1100000032
:1020E0004212E80364006400B80102020008000024
:1020F00005020701051E02051E020A0A03B80B02AB
:10210000803E010203320001FFFF0A01E0020206E5
:10211000FFFFE803C0E074F2122459A2AFE492E09A
:10212000FED2AFE5A7FAE5A1FBEA5B541060081206
:102130003E8475A1EF802AEAA2E0C0D0EBA2E09233
:10214000F012298C158182F05017906198E0FA9076
:1021500016F6E0C39AA2D265D0335002EAF075A118
:10216000FE751A00EEA2E092AF7F010224B8C0E033
:1021700074F2122459A2AFE492E0FED2AF9061A4AF
:10218000E0FA759B00E5915A540860087591F712C2
:102190003EC6802AE5915A541060087591EF123EB0
:1021A000CC801BEAA2E0C0D0E591A2E092F0122917
:1021B0008C158182F05007E0C2E0F0124016906169
:1021C000A3E0FAE5E95A5404600E123FEC75E9FB0E
:1021D000906193E0A2E640F28087C0E074F212249E
:1021E00059A2AFE492E0FED2AF9061A5E0FAE5BF5C
:1021F0005A5404600675BFFB12402E022161C3E4ED
:1022000098F8E499F912223F8026C3E49AFAE49BF5
:10221000FBE920E7E912223FE498F8E499F922C3A8
:10222000E498F8E499F912223FE498F8E499F9C3A4
:10223000E49AFAE49BFB22EB20E7CFE920E7E0B940
:102240000010BB0008E88AF084F8AAF022E4FBC87A
:10225000FA22EB70227B10C833C8C933C933500748
:10226000C39AC3DBF280069A50012ADBEAC833F432
:10227000C8C933F4C9FA2275F008E4C833C8C933B1
:10228000C933C99AC99B5004C92AC93BD5F0ECFB94
:10229000C833F4C8E4C9FA22080808EAC0E0EBC071
:1022A000E086F0E7A4FA180986F0E7A42AFA1809EC
:1022B00086F0E7A42AFA180986F0E7A42AFA198614
:1022C000F0E7A4FBE5F02AFA190886F0E7A42BFB57
:1022D000E5F03AFA190886F0E7A42BFBE5F03AFAA4
:1022E00018180986F0E7A4C5F02BFBE43AFA1908A0
:1022F000E7C5F0C6A426F6E5F03BFBE43AFA1886FB
:10230000F0E7A4F6E5F00826F6E43B08F6E43A0820
:10231000F6D0E0FBD0E0FA22E4CFC0E0E4CEC0E0AB
:10232000E4CDC0E0E4CCC0E075F020C3E633F608AD
:10233000E633F608E633F608E633F6181818EC33F9
:10234000FCED33FDEE33FEEF33FFC3EC9709ED9761
:1023500009EE9709EF97191919400FFFEC97FC093F
:10236000ED97FD09EE97FE191906D5F0BEECF709B9
:10237000EDF709EEF709EFF7191919D0E0FCD0E0F5
:10238000FDD0E0FED0E0FF22122A86B9000302232E
:10239000DDE49004D1784E791A8002F0A3D8FCD9FC
:1023A000FA781A9020867A01BA00028007E493A393
:1023B000F608DAF9901E1EAA82AB839020947881E9
:1023C00079018015E493A3AC82AD838A828B83F07C
:1023D000A3AA82AB838C828D83D8E9D9E77582B7B3
:1023E0007583EC740412280C75824E758344740056
:1023F00012280C2518C582C0E0E51934FFC583C03A
:10240000E0E518C3958224F8F8E4C5A8858319850A
:102410008218C5A8E8CEF0A3E520F0A37808E60866
:10242000F0A3DEFAEFF0A3E58124FAF8E608F0A3C2
:10243000E608F0A3E608F0A30808E608F0A3E6081B
:10244000F0A315811581D0E0FED0E0F8158115814B
:102450001581E8C0E0EEC0E022C0D02518C582C0DA
:10246000E0E51934FFC583C0E0E518C3958224F385
:1024700010AF0885831985821880088583198582A5
:1024800018D2AFC8F0A3E9F0A3EAF0A3EBF0A37968
:1024900008E709F0A3D8FAECF0A3EDF0A3EEF0A35F
:1024A000EFF0A3D0E0F0A3D0E0F0A3D0E0F0A3E5FC
:1024B00020F0A3E5F0F0A322851983851882E0C0FF
:1024C000E0A3E0F9A3E0FAA3E0FBA37808E0F608B4
:1024D000A3DFFAE0FCA3E0FDA3E0FEA3E0FFA3E09E
:1024E000C0E0A3E0C0E0A3E0F5D0A3E0F520A3E0C6
:1024F000A3F5F0E4C5A8858319858218C5A8D08204
:10250000D083D0E0F8D0E032D083D082ECC0E0EDD0
:10251000C0E0E493A3FCE493A3FDED4C600D122511
:10252000DEEC24FFFCED34FFFD80EFE493A3FCE43C
:1025300093A3FDED4C600D1226EFEC24FFFCED346F
:10254000FFFD80EFD0E0FDD0E0FCE493A3C0E0E429
:1025500093C0E022D083D082E9C0E0E493A3C38695
:10256000F0C5F095F0F908E493A386F0C5F095F076
:10257000700BE493A3C3994005E9048002A3E475BA
:10258000F002A42582F582E5F03583F583D0E0F9E9
:10259000E493A3C0E0E493C0E022C0E074F212240C
:1025A00059A2AFE492E0FED2AFC2C0901D16E07017
:1025B0000BE5D1A2E4501D123DE88018E5D1A2E35D
:1025C000500675D1F7123DBEE5D1A2E4500675D193
:1025D000EF123DC4EEA2E092AF7F010224B8C0E04A
:1025E000C3E49396087401939618400FE4936670C1
:1025F0000808740193661870007019A3A3C3E493CC
:1026000096087401939618A3A3400DD0E0D0E0D0B3
:10261000E0022544A3A3A3A3A3A3D0E022851983AA
:10262000851882E0A3FEE0A3F5207808E0A3F60871
:10263000DFFAE0A3FFE0A3C0E0E0A3C0E0E0A3C0B6
:10264000E0E0A3C0E0E0A3C0E0E4C5A8858218856F
:102650008319C5A8D083D082022812D083D082C526
:10266000F0E493A3C5F0C395F0F5F0E493A3C3950C
:10267000F04005E5F0048001E475F002A42582F540
:1026800082E5F03583F583E493A3C0E0E493C0E0F2
:10269000227404800474028000CCC0E0EDC0E0E548
:1026A00018C39CCCAD1950011D10AF068C188D19A4
:1026B00080068C188D19D2AF12278ED0E0FDD0E0A5
:1026C000FC2274028000CCC0E0EDC0E0E518C39CA1
:1026D000CCAD1950011D10AF068C188D1980068CD9
:1026E000188D19D2AF12276CD0E0FDD0E0FC22C0CB
:1026F000E0C0F088F0E493667008087401936618EF
:102700007000A8F0A3A3700BD0F0D0E0D0E0D0E030
:10271000022544A3A3D0F0D0E022D083D082CCC045
:10272000E0E493A360061227CE1470FAE493A3604A
:10273000061228C31470FAD0E0FCE493A3C0E0E4CE
:1027400093C0E022C0E074F2122459758B00C2E8F5
:10275000901D16E0700E7A007B10901D15E0F912A6
:10276000389080031242F27F010224B8CAC0E0E42C
:1027700093A3C582CCC582C583CDC583F0A3C58292
:10278000CCC582C583CDC583DAE5D0E0CA22CAC0F4
:10279000E0E0A3C582CCC582C583CDC583F0A3C5C7
:1027A00082CCC582C583CDC583DAE6D0E0CA22C01B
:1027B000E0C0D0EAC0E0A2AFE492E0D2AFC2C775F9
:1027C0001A00A2E092AFD0E0FAD0D0D0E032C0E060
:1027D000E493A3D39C5010E493A3C39C400AD0E09D
:1027E000D0E0D0E0022737A3A3A3D0E022700908ED
:1027F0000808226016181818C6C333C608C633C6A0
:1028000008C633C608C633C6D5E0EA22C09FF59F86
:10281000E473D09F22D083D082C09FE493C0E07441
:102820000193C0E0740293F59F222518F58210AF42
:1028300008F518400215198008F51840021519D23C
:10284000AF851983227404800A74038006740280A1
:10285000027401C0E0F40412282AD0E0122A79227E
:10286000BB0102E722C082C08389828A83BB000346
:10287000E08002E493D083D08222C0D0251810AF2C
:1028800008F518500205198008F51850020519D2EC
:10289000AFD0D0226016080808C6C313C618C613E6
:1028A000C618C613C618C613C6D5E0EA22251810E6
:1028B000AF08F518400215198008F51840021519DF
:1028C000D2AF22C0E0E493A36C7009D0E0D0E0D096
:1028D000E0022737A3A3D0E022C3E7960809E796D2
:1028E0000809E7960809E796A2D265D03322E06688
:1028F000701008A3E066700A08A3E066700408A3DD
:10290000E06622C3E09608A3E09608A3E09608A339
:10291000E096A2D265D03322C3E096F008A3E096F9
:10292000F008A3E096F008A3E096F022C3E697F63D
:102930000809E697F60809E697F60809E697F622E9
:10294000E627F60809E637F60809E637F60809E645
:1029500037F622E026F608A3E036F608A3E036F6BE
:1029600008A3E036F622E026F008A3E036F008A33C
:10297000E036F008A3E036F022E657F60809E657FD
:10298000F60809E657F60809E657F622C0E0E8C05F
:10299000E0E58124FCF8E6A2E7D0E0F8D0E022E60A
:1029A00047F60809E647F60809E647F60809E64744
:1029B000F622E056F608A3E056F608A3E056F6081D
:1029C000A3E056F622E056F008A3E056F008A3E094
:1029D00056F008A3E056F022700422600D18C6C31A
:1029E00033C608C633C6D5E0F41822E4C396F60809
:1029F000E496F608E496F608E496F622600D08C61A
:102A0000A2E713C618C613C6D5E0F322C6F4C6085B
:102A1000C6F4C608C6F4C608C6F4C622C3E79608BC
:102A200009E7960809E7960809E79622C3E09608A1
:102A3000A3E09608A3E09608A3E0962275D000755F
:102A400081407518D175190400022388E0F608A3A7
:102A5000E0F608A3E0F608A3E0F622600C08C6C37F
:102A600013C618C613C6D5E0F422E6F008A3E6F0B4
:102A700008A3E6F008A3E6F022CAC0E0E6F0A30847
:102A8000DAFAD0E0FA2274F855C74401F5C77901A3
:102A9000222518F582E43519F58322C2AF75D69F39
:102AA0000200002212281538A803122815A4A80332
:102AB000122815C3A803122815F6A8031228152BEF
:102AC000A903122815FBA903122815C3AA0312286B
:102AD0001550AD03122815C4AE0312281560AF03BC
:102AE0001228152BB0031228156BB0031228151DE0
:102AF000B2031228153BB20312281566B20312283E
:102B00001500800212281533800212281552800207
:102B1000122815748002122815868002122815A525
:102B200080021228151181021228159E8102122896
:102B300015708202122815BC8202122815FB82022F
:102B40001228151883021228156283021228159D77
:102B50008302122815B88302122815DC830212287A
:102B6000151784021228155784021228157A840238
:102B7000122815C98402122815A38502122815549B
:102B80008602122815E48602122815D4870212281C
:102B9000151788021228153B88021228158D880205
:102BA000122815B28802122815ED89021228156123
:102BB0008A02122815848A02122815A78A0212286E
:102BC00015CF8A02122815E18A02122815EB8A0213
:102BD0001228157E8B02122815DB8B021228158411
:102BE0008C021228158C8C02122815018D021228D5
:102BF00015438D02122815538D02122815338E02AB
:102C0000122815BE8E02122815158F02122815E201
:102C10008F0212281558900212281595900212283A
:102C200015F890021228154E92021228156E920283
:102C3000122815D092021228156D9302122815C67B
:102C40009302122815559402122815119502122884
:102C5000154F9502122815BE95021228152C9602C2
:102C6000122815649602122815989702122815EB5F
:102C700098021228154C99021228159599021228CB
:102C800015BD9902122815409A02122815BD9A0204
:102C9000122815309B02122815559B021228156622
:102CA0009B02122815DA9B02122815759C02122825
:102CB00015B79C021228154D9D02122815749D020D
:102CC000122815939E02122815B49E02122815C7C9
:102CD0009E02122815159F02122815819F021228A4
:102CE00015C29F0212281538A102122815D7A20278
:102CF000122815E6A2021228152AA402122815AAE3
:102D0000A402122815F2A5021228153CA6021228C8
:102D10001581A60212281565A702122815A1A9027D
:102D2000122815ABA902122815B5A902122815BF41
:102D3000A902122815C9A902122815E3A90212280E
:102D400015EDA902122815F7A90212281501AA02E9
:102D50001228150BAA0212281530AA021228157E75
:102D6000AA0212281588AA02122815ACAA02122853
:102D700015D0AA021228152DAB0212281584AB0219
:102D8000122815A2AB0212281512AC0212281553F4
:102D9000AC021228159AAC0212281502AD021228B4
:102DA00015CDAD0212281598AF02122815E8AF0212
:102DB00012281516B1021228153CB102122815C3AB
:102DC000B2021228156DB6021228153FB802122859
:102DD0001512BA021228159EBA02122815E1BB027A
:102DE00012281595BC02122815DABC0212281545C6
:102DF000BD021228154FBD02122815AABF021228C3
:102E000015B8C0021228150FC20212281566C20298
:102E10001228151CC30212281502C402122815A874
:102E2000C502122815C7C50212281523C60212288A
:102E300015FFC60212281524C70212281576C702EC
:102E400012281562C8021228159AC802122815DA2B
:102E5000C80212281539C90212281558CA021228A8
:102E600015B8CA02122815A0CB02122815B5CD023A
:102E7000122815D7CD021228156DCF02122815B3CE
:102E8000CF0212281587D00212281523D10212284A
:102E9000156BD1021228151AD202122815A8D202D7
:102EA0001228152CD3021228159BD302122815C103
:102EB00080011228151D8101122815A683011228F0
:102EC00015E483011228153084011228155A850152
:102ED000122815B48501122815EC85011228152C2D
:102EE00086011228159D87011228151D8A011228B6
:102EF00015498B01122815DD8B011228159E9401AE
:102F0000122815329501122815B29701122815D4EE
:102F10009801122815799901122815939A011228FF
:102F200015C49B01122815B79C01122815D69F01C4
:102F3000122815D8A10112281538A201122815EC63
:102F4000A20112281592A301122815BCA301122870
:102F50001550A40112281530A5011228150BA60141
:102F60001228159AA601122815F1A6011228150695
:102F7000A70112281533A70112281555A7011228F9
:102F80001560A90112281548AA0112281599AA014D
:102F90001228150AAB01122815B8AB01122815ED3D
:102FA000AB011228153BAC011228156BAC0112289D
:102FB00015A9AC011228150DAD0112281512AD018D
:102FC0001228156DAD0112281595AD01122815CAEC
:102FD000AE011228152BAF0112281595AF0112284A
:102FE0001522B00112281584B3011228155DB40111
:102FF000122815EDB5011228153FB801122815E762
:10300000B8011228159EB9011228155CBB011228BF
:1030100015FEBB0112281546BC01122815E4BD019E
:10302000122815F8BD0112281512BE011228152DFF
:10303000BE0112281539BE0112281557BE011228EB
:10304000158BC001122815C2C001122815CFC0016E
:10305000122815D8C0011228154CC101122815AF2D
:10306000C101122815C4C2011228152AC301122851
:10307000151DC40112281561C401122815F3C401DD
:10308000122815ECC501122815B0C60112281545E5
:10309000C80112281550C901122815EBC9011228C0
:1030A000156ECA0112281585CA01122815BECA015B
:1030B000122815C8CA01122815D2CA01122815DE15
:1030C000CA01122815FCCA0112281540CB0112288A
:1030D0001591CB01122815B2CB01122815CCCB01CA
:1030E00012281544CC0112281580CD01122815D4C0
:1030F000CD01122815C7CE01122815EDCE011228D8
:103100001550CF01122815B1CF01122815C4D001D6
:10311000122815D3D10112281571D2011228153D9C
:10312000D301122815DCD30112281573D4011228FB
:103130001543D50112281572D501122815DDD501C8
:1031400012281585D601122815ABD6011228151D97
:10315000D70112281542D70112281565D701122868
:1031600015B2D7011228158ED90112281571DA016E
:103170001228152FDB0112281593DD01122815E7FF
:10318000DD011228152ADE0112281599DE01122808
:10319000150CDF0112281565DF011228158BDF01E0
:1031A000122815C6DF01122815F2DF011228153D7D
:1031B000E001122815A0E0011228151BE1011228D8
:1031C0001511E201122815A1E3011228150EE401E0
:1031D00012281537E401122815B9E4011228151533
:1031E000E5011228154EE501122815A3E501122864
:1031F00015C8E5011228150EE6011228152BE60167
:10320000122815D9E601122815F5FF04122815D940
:1032100089051228151D8A05122815618A051228AC
:1032200015CB8A05122815D58A05122815E58A05B9
:10323000122815004A001228153A4A001228150DC6
:103240004B00122815E34B00122815124D001228CE
:10325000159B4E00122815194F00122815DF4F003C
:10326000122815005100122815725100122815D489
:10327000510012281536520012281540520012280B
:10328000157E5200122815E75200122815865300A9
:10329000122815045400122815B7540012281529B5
:1032A00055001228154F55001228157F5500122879
:1032B00015AC5500122815525600122815625600FA
:1032C000122815B55600122815C15600122815CD22
:1032D0005600122815D65600122815395700122804
:1032E00015995700122815EA57001228150558009D
:1032F0001228153558001228155658001228156244
:103300005800122815E95900122815075A001228EA
:1033100015705A00122815835A00122815945A0065
:10332000122815275B001228152A5C001228152088
:103330005D00122815A35D00122815AC5D0012284F
:10334000150F5E00122815265E00122815685E0013
:10335000122815AD5E00122815DC5E001228151328
:103360005F00122815305F00122815545F001228E4
:1033700015955F00122815886000122815CE600090
:10338000122815096100122815686100122815908D
:103390006100122815C96100122815D76100122892
:1033A00015386200122815756200122815B76200E0
:1033B000122815E862001228151C63001228152730
:1033C00063001228154563001228150E64001228A8
:1033D000151864001228155764001228156D640032
:1033E000122815766400122815E06400122815F4DE
:1033F0006400122815EC6500122815FF65001228DC
:10340000151866001228152D6600122815CD6600C5
:10341000122815316700122815F8670012281503C5
:1034200068001228152269001228153E690012282A
:1034300015966900122815CD6900122815E7690054
:103440001228155B6A00122815EC6A001228153440
:103450006B00122815596D00122815C36D00122833
:10346000152E6E0012281574700012281584700035
:10347000122815877000122815937000122815A7BE
:103480007000122815AF7000122815F47000122871
:1034900015A27100122815127200122815767200FA
:1034A0001228150F7300122815A97300122815D7BA
:1034B00073001228157674001228158274001228E1
:1034C00015B17400122815B47400122815E37400A5
:1034D000122815F874001228156F75001228155F50
:1034E0007600122815377700122815C177001228A8
:1034F00015E27800122815947900122815CD79006C
:10350000122815FE7900122815077A001228154393
:103510007A001228152A7B00122815A67B00122893
:1035200015367C00122815007D00122815847D00B8
:10353000122815BA7D00122815037E0012281539AD
:103540007E0012281500800412281512800412280B
:1035500015868004122815BC8004122815138104D6
:10356000122815FA8204122815D884041228154F3F
:103570008804122815F188041228152889041228B5
:10358000154C8904122815AE8904122815E2890405
:103590001228151F8A041228154F8A04122815872D
:1035A0008A0412281543DD0412281562DD0412284E
:1035B00015ADDD04122815F7DD041228159ADE0476
:1035C000122815D1DE0412281561ED0312281516F4
:1035D000EE0312281562EE03122815E9EE031228F5
:1035E00015DAF10312281573F30312281512F403E8
:1035F0001228156AF403122815F9F7031228158307
:10360000F903122815808805122815AC88051228A0
:1036100015A8890512281534CA04122815AECA0443
:10362000122815C5CA041228153FCB041228159577
:10363000CB04122815A4CB041228154FCC04122851
:1036400015E6CC041228152CCD041228159CCD04A7
:10365000122815B4CD04122815FECD041228152DFC
:10366000CE041228154DCE0412281579CE04122846
:1036700015A9CE041228150DCF04122815BEA604D4
:103680001228153BA7041228155BA70412281582DF
:10369000A70412281596A704122815EEA7041228CD
:1036A000151EA804122815C4A90412281589AA04F5
:1036B000122815DBAA0412281533AB041228157042
:1036C000AB04122815D3AB04122815CAAD04122876
:1036D00015E59E031228159BAE0412281523FD0440
:1036E0001228152AFD041228154FFD04122815E78B
:1036F0008A041228157A8C04122815C68D04122803
:1037000015A18F04122815FA8F04122815B1900400
:10371000122815029104122815409104122815FC54
:1037200091041228156F9204122815F0A70312288D
:1037300015739204122815819204122815AD920473
:10374000122815AF9204122815E6920412281510BB
:103750009304122815429304122815BD93041228CD
:1037600015D8940412281548CC031228155CCC03F4
:1037700012281548CD0312281574CD03122815B050
:10378000CD03122815D5CD03122815F6CD03122826
:10379000152CCE031228157FCE0312281598CF03BF
:1037A000122815CECF0312281515D0031228155450
:1037B000D00312281521D10312281547D10312284E
:1037C0001578D203122815FAD2031228150CD40347
:1037D000122815BED4031228151CD5031228157AF9
:1037E000D503122815ACD5031228150ED6031228BE
:1037F0001574D603122815B8D603122815FDD70361
:1038000012281528D8031228155AD803122815A0F3
:10381000D803122815B9D80312281563D903122822
:103820001535DA03122815E6DA0312281588DB03AA
:103830001228153EDC031228154CBE0412281598D8
:10384000BE0412281508BF0412281525BF0412282B
:1038500015E7BF04122815F0BF0412281546C0044E
:1038600012281571C004122815D6C004122815722A
:10387000C104122815AFC10412281500C204122871
:10388000155AC2041228158AC2041228150CC30442
:1038900012281559C3041228158BC304122815C009
:1038A000C304122815D0C304122815E0C30412283B
:1038B0001525C4041228155EC4041228159D8E0512
:1038C000122815788605122815DC8605122815039E
:1038D00087051228150988051228151DE7011228E9
:1038E0001551E801122815A1E80112281566EA0110
:1038F000122815A6EA011228151EED0112281565D9
:10390000ED01122815FBEE011228159CEF0112287B
:1039100015FCEF011228157EF001122815B2F001F6
:10392000122815F5F00112281573F2011228150757
:10393000F40112281548F60112281572F601122812
:1039400015ADF601122815B7F60112281514F70166
:1039500012281597F701122815F0FA01122815C33D
:103960009305122815D99305122815E393051228FB
:10397000152B94051228153FE50412281557E50468
:10398000122815FFE50412281540E6041228155DDB
:10399000E60412281583E604122815CAE604122844
:1039A0001500E70412281537E704122815C9E804A2
:1039B0001228150DE904122815668C05122815BB6E
:1039C0008C051228150E8D0512281554FF04122897
:1039D0001591FF04122815D6FF04122815EBFF04D9
:1039E00012281527DD0312281572DD031228157819
:1039F000DE0312281535DF031228154ADF031228CB
:103A00001594DF03122815E5DF03122815F8DF03EC
:103A10001228153BE00312281598E0031228157AA6
:103A2000E20312281591E303122815CCE3031228B0
:103A30001500E60312281510E60312281551E603B7
:103A400012281583E603122815E3E603122815F35E
:103A5000E6031228151BE7031228157FE703122837
:103A6000153BE90312281553E9031228157EE903D3
:103A7000122815A8E903122815B8E903122815C45D
:103A8000E90312281507EA0312281571EA03122820
:103A90001528EB0312281559EB0312281563EB03C5
:103AA00012281566EB0312281583EB03122815F86C
:103AB000EB0312281515EC0312281532EC0312281B
:103AC000159AEC03122815D5EC03122815E7EC0320
:103AD000122815F1EC031228152EED031228159E5D
:103AE0009005122815AF900512281540910512284F
:103AF00015A4B604122815F5B604122815B8B80492
:103B000012281586BA04122815D0BA04122815CF27
:103B1000BB041228151EBD041228153CBD04122832
:103B20001590BD0412281518BE04122815EDD302F5
:103B30001228151BD40212281579D502122815C493
:103B4000D50212281518D602122815A4D60212285A
:103B50001506D70212281552D702122815C2D7020D
:103B60001228156BD802122815E8D802122815243D
:103B7000D902122815FFDC02122815C9DE0212280C
:103B80001503DF0212281574DF02122815AEE202B7
:103B900012281544E302122815F6E402122815072C
:103BA000E60212281529E70212281589E7021228D1
:103BB0001548E802122815CDE802122815D0E802AF
:103BC0001228158FE902122815A2EA02122815817F
:103BD000EC0212281515EF02122815A2EF02122886
:103BE00015BDF002122815EFF302122815FFF3029B
:103BF00012281570F502122815EBF5021228152966
:103C0000F70212281588F70212281501F902122866
:103C10001580F90212281584B20312281538B3034F
:103C2000122815AEB303122815C6B3031228156265
:103C3000B403122815A4B403122815A2B503122840
:103C400015CEB50312281535B60312281586B6030E
:103C5000122815E3B603122815E5B9031228156AD0
:103C6000BA03122815EDBA031228158BBC031228CB
:103C70001538BD03122815DCBD0312281531BE030B
:103C8000122815A7BE03122815D1BF03122815A7A5
:103C9000C003122815EAC00312281527C1031228F1
:103CA000154FC10312281593C1031228152BC20307
:103CB0001228159DC3031228154BC5031228156140
:103CC000C603122815BDC703122815E0C803122821
:103CD000157BC903122815EBC903122815EECA0378
:103CE0001228154682051228155B820512281570C8
:103CF0008205122815B58205122815AE83051228F3
:103D000015DBFA041228150AFB04122815B9FB0466
:103D10001228151FFC0412281590FC0412281531D6
:103D2000ED0412281578EE04122815929105122838
:103D300015A391051228154B9205122815EFFF03C4
:103D4000122815EBFF011228155594051228156548
:103D500094051228157A9405122815D39405122873
:103D600015898D05122815128E05122815848E05C9
:103D7000122815ED9505122815F09505122815D471
:103D80009505122815E49505122815E795051228C2
:103D900015EA9505122815F87F0012281592F804E7
:103DA00012281505FA0412281589FA04122815D8C4
:103DB000FA04122815AB9505122815B4950512289A
:103DC00015BD9505122815CB950512281592C4042A
:103DD00012281511C504122815C9C504122815BBCF
:103DE000C604122815ACC80412281502C9041228EA
:103DF0001554C9041228156DC9041228157BC9046D
:103E0000122815E3C904122815F6C9041228150151
:103E1000CA041228150FCA0412281521CA04122830
:103E200015C5CF041228151AD0041228152ED20455
:103E300012281566D2041228158BD204122815A454
:103E4000D204122815BDD204122815B2D3041228A8
:103E50001540D40412281555840512281598840598
:103E6000122815A98405122815DC840512281514BA
:103E700085051228154C850512281563850512281D
:103E800015CB8505122815FE850512281584F30427
:103E9000122815AFF304122815F6F304122815059D
:103EA000F40412281524F4041228158EF4041228A0
:103EB0001597F404122815F8F4041228151CF504BB
:103EC000122815E2F504122815EFF5041228150042
:103ED000F6041228154095051228155D950512283F
:103EE000151AD9041228152DD904122815A4DA049C
:103EF000122815B1DA04122815CADA04122815DDC1
:103F0000DA04122815F7DA0412281516DB04122831
:103F10001595DB0412281555DC04122815C7DC049E
:103F200012281524DD0412281534DD041228152862
:103F300093051228154D930512281576930512281E
:103F4000159E930512281500800512281527800557
:103F50001228154E8005122815BE80051228152E30
:103F6000F60412281547F60412281553F6041228F1
:103F7000155CF60412281580F6041228158CF60438
:103F80001228159BF604122815B9F6041228150BF1
:103F9000F70412281545F7041228157AF704122899
:103FA00015C9F70412281515F8041228152DF80460
:103FB00012281537F80412281548F8041228158C11
:103FC000F804122815E394051228153495051228D3
:103FD000158E9E04122815BA9E04122815D69E042A
:103FE000122815E99E04122815FF9E041228156B4D
:103FF0009F04122815A59F0412281513A304122844
:104000001532A40412281563A404122815C5A404AB
:10401000122815A0A504122815C8A504122815DD1C
:10402000A504122815EDA5041228152EA6041228A1
:104030001583A60412281593A604122815AE7E0037
:10404000122815C97E00122815F37E0012281510BB
:104050007F00122815387F001228155A7F00122879
:1040600015737F00122815A27F00122815BD7F004E
:10407000122815639205122815B9920512281525E4
:10408000E9041228152CE90412281539EA0412282B
:10409000156BEA0412281591EA04122815C4EA04E3
:1040A000122815D6EA0412281511EB0412281581DE
:1040B000EB04122815BEEB041228150BEC04122891
:1040C0001539EC0412281559EC041228152F8B050C
:1040D000122815518B05122815608C0512281563BE
:1040E0008C051228159E8F05122815FC8F051228A5
:1040F000153B90051228157C9005122815B9AE04C1
:10410000122815BFAE0412281504AF04122815F2A8
:10411000B0041228152BB1041228158BB1041228F3
:104120001571B204122815B5B204122815DDB204B7
:1041300012281563B30412281578B3041228153019
:10414000B5041228151DB60412281563B6041228EA
:1041500015CA9504122815E09504122815859604B1
:10416000122815A4970412281575980412281517FB
:104170009904122815559904122815D29904122869
:10418000152D9A041228157E9A04122815A59A0452
:10419000122815F99A04122815969C041228159BCA
:1041A0009C04122815BD9C0412281533FA0212280B
:1041B00015A9FA02122815D9FC021228156BFD0266
:1041C00012281537FE02122815BCFE02122815E12E
:1041D000FE0212281564FF0212281581FF02122820
:1041E000157FD4041228156FD504122815ECD604B7
:1041F0001228151CD70412281534D7041228156765
:10420000D804122815D0D80412281554E104122815
:104210001583E104122815CCE104122815E6E10407
:104220001228150EE20412281525E2041228153270
:10423000E2041228154FE2041228153CE304122868
:104240001573E3041228157DE3041228158AE3048C
:1042500012281592E404122815A8E404122815B1B6
:10426000E404122815BAE404122815C3E404122841
:1042700015CCE40412281535E50412281571FB014C
:104280001228155EFF011228157AFF01122815B7B2
:10429000FA03122815A4FB0312281588FD0312281F
:1042A00015D7FE031228152EFF0312281599FF03B8
:1042B000122815CCFF03122815D9FF031228154028
:1042C000F004122815B8F004122815F0F004122892
:1042D00015F9F1041228151DF20412281535F204FF
:1042E00012281555F20412281576F20412281586A4
:1042F000F2041228159DF204122815C7F2041228A0
:104300001556F3041228157C95051228152C9D03CB
:104310001228153A9B03122815C59A031228156A0C
:104320009A03122815E99903122815BF9903122838
:1043300015BC970312281594970312281537970375
:104340001228151F97031228155C9603122815FDD5
:104350009503122815569403122815FA9303122870
:1043600015F79303122815FF9203122815DF920305
:104370001228152F9203122815B1900312281578D0
:10438000900312281549900312281530A70312280C
:10439000159EA60312281591A60312281546900310
:1043A000122815389003122815249003122815118D
:1043B000900312281567A303122815168F031228DD
:1043C00015A28E031228153D8E031228150A8E039E
:1043D000122815E3A003122815719204122815B2B1
:1043E0008D03122815818D03122815988A0312282F
:1043F00015568A031228154A8A03122815BD890307
:104400001228150B89031228159E860312281507FA
:104410008403122815D183031228156D82031228F4
:10442000152082031228155981031228152C8103A7
:104430001228156780031228153A800312281500E8
:1044400080031228159B9F0312281541AE0400001B
:104450000080FBE4738F000100AC1287000100AB09
:1044600012240002006C1E250002006E1E260002AF
:1044700000701E27000200721E28000100741E2911
:10448000000100751E84000400761E860001007A7B
:104490001E2A0001007B1E2B0001007C1E2C000147
:1044A000007F1E2D00080097122E000100801E2F95
:1044B000000100811E30000100821E3100010083D6
:1044C0001E320001009F1233000100A012340001CF
:1044D00000841E36000100A11238000100851E393B
:1044E0000001007E1E83000200921E63000100AAEC
:1044F00012640001009412650001007D1E6D000130
:1045000000911E6E000200951243000100861E44B9
:10451000000200871E45000100891E460002008A35
:104520001E47000800A212480001008C1E4900012D
:10453000008E1E4A0002008F1E4B0001008D1E04DB
:10454000000100941EA1000100961E370001009595
:104550001E88000100AD12000000000000000136BE
:1045600036010100010201000103010001040106FE
:104570000605020000070100340801000F090401CC
:10458000010D0100FF0E08000017020000190100D4
:10459000FF1A0100011B0100FE1C0100081D0200A2
:1045A000001F010001200100012102000023010081
:1045B0000F24020000260100012701000828020044
:1045C000FF2A0100072B0102402C0100002D0100F1
:1045D000012E0100012F0100FF30010B1C310800EA
:1045E000003A0100083B01000F2F01000003027197
:1045F0000230016002110270020102020202028016
:1046000002100261023A0041006302730272026208
:1046100002430200021302380000020002040212E8
:104620000200020002000200020402040237003706
:10463000003C024402000239000002000265020050
:104640000235028102000205028202830200020199
:1046500003710301030103010301030103220302A8
:104660000301031003000300030003000300030021
:1046700003000342030003240306030003000304B2
:104680000312032503230325032303040304030068
:104690000300030003440300030003230300036536
:1046A0000321003503810300030503000300030019
:1046B000030300710030016000110070003102201E
:1046C00003500480001000610000001400630073B8
:1046D00000720062004300000013000600000000AA
:1046E00000040012000000000000000000040004AC
:1046F00000370037003C02440000000000000000CA
:104700000065000000350081000000050000008306
:104710000000000304710402046004110470040228
:10472000040204010402041004610400041404637C
:1047300004730472046204430400041304060400B6
:1047400004000404041204000400040004000451E2
:104750000464000004000400044404000400040095
:1047600004000465040004350481046400050400A9
:10477000048304000401017101010101011101011F
:10478000013101010101018001100161013B0014AF
:10479000006301730172016201430100011301060C
:1047A000013D01350004011201000100010001007A
:1047B0000104010401330133013C0144013201369B
:1047C00000000100016501000135008101000105C3
:1047D000018201830100010000503C1300C63B012F
:1047E00000503C02004E3B0300543B04005A3B0582
:1047F00000603B06006C3B30008A3B3100843B325A
:1048000000963B33009C3B3500A23B3400A83B366E
:1048100000AE3B1100BA3B1400C03B15007E3BFFCD
:10482000FF000036000100060000000F000000003D
:1048300000000000000000000003FFFF0000040370
:10484000FFFF0000FFFF0FF4010005C40403200078
:104850000100000B000000000000000003010F0138
:10486000002F06362F08302F0B482F10702E0A60AD
:104870002F02062F05242F070C2F0CE22E0DF42EED
:10488000FF000003EAF5E5D5D5C5B5A59595858565
:104890007575656555554545353525251515056EDF
:1048A000339E3374337A3398338C338633A433AAEC
:1048B00033B033BC3380336833623300160F0000EB
:1048C0000B150B020002220F320000066A347C3402
:1048D00082343833883432333E3372326C32A83209
:1048E000AE32A2325A32D634F434FA34DC34E834FC
:1048F000E23400011916181616152303000C0E02D7
:104900000B040B0A0708000F00034948424D181713
:10491000250502303016181920231A1C1E3030309D
:1049200017181921301B1D1F3000383C3E363B3B09
:10493000352B432CBE348E349434A0349A349233C5
:10494000B633EE34C233C833020402010101010957
:10495000027E3284327832B4320005150D09100817
:10496000048A329C3200BE040A0E0004007F00E874
:10497000030C0028001500030108100C0A030900AD
:1049800004000CFF1E1E0508040F1009F582EB122F
:104990007060A2E222740912287A7F0402261DE0C8
:1049A000F508750900750A00750B002212287A7F38
:1049B0000302261D34FFF5832212719CE822901712
:1049C00020E0FA901705E022EE2412FAEF3400FB03
:1049D000123446E922F00249C379051234527402B6
:1049E00022125F4E12287A7F0802261DF09005F2EF
:1049F000E02212353690172512719C7A147B002222
:104A0000C082C083124A327001EB60031238D29028
:104A100005E3125ED474089005E5F09005E6E4F035
:104A2000A3F0900632F09005E88003F0A3E0F002D6
:104A30005E1F9005E61270EEEA2274F51223F374FD
:104A4000F71228ADEAFEEBFF1252C9740512607E20
:104A50007403F0EE2402EF34000A0AFB8A828B838F
:104A6000E0124B001264DCEE2421FCEF3400FD8CDC
:104A7000828D83124AEDEE241FF508EF1278C68C62
:104A8000828D83E0600B85088285098374FFF0A323
:104A9000F0850882850983A3124AED85088285097D
:104AA00083124BC9F074038E828F83A3A3A3A3F058
:104AB0001252D4122A917403F090171A1226957488
:104AC00002122A91AC82AD837903EEFA124AE51202
:104AD000287AE97007EEFAEFFB12332C74090249C9
:104AE000AC79031A1AEFFB12344C740222124BC930
:104AF0001250E0124AF722124B00E8F0A3E9F0222C
:104B000024FFF8A3E034FFF98A828B832274F11228
:104B100023F3EAFEEBFF890E740F122A91124BBAAF
:104B20007411122A91124CDA24020A0A1250F9F86E
:104B3000A3E034FFF9850D0B124BD7E50C124BDDCA
:104B4000E50E124BC590171F124BC290171E124B49
:104B5000C285090B124BD7E508F088088A828B833F
:104B6000E0C395088E828F83A3A3A3A312704A1279
:104B700064DCEE240EF8EF3400F98C828D83A3A35D
:104B8000A3A3A3A3A3A3E06403700474018001E4BE
:104B90008882898312607E7409F07508FF7509FFA9
:104BA000780812284D124AE112287AE97007EEFAC5
:104BB000EFFB12332C7F0702261DE0F50CA3E0F576
:104BC0000D22124BC9124BCD22E0027022F0E824D4
:104BD000FF18E934FFF922E50B88828983124BCD57
:104BE00002702274F01223F3EAFEEBFF890B8C0EA5
:104BF0008D0F750A00A2AFE492E0F50CC2AF9005EC
:104C0000E9803E124D075036E5082402F8E5091206
:104C10007651125D97126A4E64037022126D1E8ADD
:104C2000828B83E02405FCA3E03400FDEEFAEFFB69
:104C30001240F4124E927410250AF50A150B124F09
:104C4000B6127955E50B6008E5087002E50970B306
:104C5000E50CA2E092AFA2AFE492E0F50CC2AF90F7
:104C600005E980208C828D83124CDFA3A3126D3165
:104C70001EEBFF8C828D831259BA124E87050A15DE
:104C80000B124FB6124CDA24FFFAEF34FFFBE508A3
:104C90007002E5096034E5082402F8E509124CF7D2
:104CA000F5838882124CF170D8124D0740B6E508A2
:104CB000240FF582E509124FCEA2E550C474018598
:104CC0000E82850F83F0E50B70B7E50CA2E092AF82
:104CD0008E828F83E50AF00249E7127959EE22129B
:104CE0004CE32212522F80048E828F83A3A3A3A3AE
:104CF00022126A526402223400F9E8FCE9FD8C8237
:104D00008D83E0F8A3E022127009E509127060A219
:104D1000E62274EC1223F374F61228AD890F8A0B85
:104D20008B0AE4851882851983F09005EFE0FAC3B9
:104D30009408400575100780028A10E5103333335C
:104D400054F8901704FAE02A2433F50C1267257002
:104D500001EB7003024E73EA250CF8EB3400F9EA1C
:104D60002402F512EB3400F513851282F5831264E8
:104D7000DC901704E0FCFAC3E49AFAE49400FBE840
:104D80002AFEE93BFF901702124E7C780C1228494C
:104D90007D00EEFAEF1267E612287A8518828519EF
:104DA00083AC82AD83A910EE24FFFAEF34FFFB122F
:104DB00032428A0C8B0DAE0CAF0DE4124E89E50A1F
:104DC000C454F0C0E0900633E0C4333354C0C0E0B4
:104DD0009016FEE0A2E0E492E013135480FAD0E0D3
:104DE0004AFAD0E04A440F124E89E50BC454F0450C
:104DF0000F8E828F83F0EEFA851282851383E0C3D3
:104E00009A850882850983A3A3A3A3F085128285CE
:104E10001383EEF0A3EFF0E508240EF582E5091206
:104E200052CFE4F0E508240DF582E5091252CFE4F3
:104E3000F07409122A91E4F0F50AF50B780A1228A9
:104E40004D7403122A91AE82AF83123434EEFCEF1C
:104E5000FDAA08AB09124AE712287A85188285193B
:104E600083E06009851282851383124FC1AA08ABC3
:104E70000980047A007B00740A027C1FE0F50CA311
:104E8000E0F50D750E0022A3E08E828F83124E9105
:104E900022F0EE24FF1EEF34FFFF2274F11223F301
:104EA0008A0C8B0DA2AFE492E0F50EC2AF7508003C
:104EB0007509009005E98034EE2410F50AEF124FD1
:104EC000D25026850C82850D83127DFB8E828F83C6
:104ED000A3A31270EA12343AE9600E850A82850BA8
:104EE00083E0C2E6F08E088F09124F1012537070E3
:104EF00001EF70C4E5087002E509600B127009E566
:104F000009124FCED2E6F0E50EA2E092AF024BB509
:104F1000EE24FBF582EF0249B474EE1223F38A0EFD
:104F20008B0F8C0C8D0D751000A2AFE492E0F51183
:104F3000C2AF7E007F009005E9801AAE08AF0985F8
:104F40000A82850B83E0D2E4F0EE240F124FCBD21D
:104F5000E7F0124FB6125D0C7002E509603FE508FC
:104F60002410F50AE509124FD250E7850882850919
:104F700083A3A3122695AC0CAD0DAA0EAB0F123471
:104F800040740212287AE960C9EE7001EF60AC1239
:104F9000537770098E828F83A3A3124FC1E511A2AC
:104FA000E092AFEE7001EF6006123326751001A992
:104FB000107F0A02261DE50824FBF582E509024957
:104FC000B4125228D2E4F022EE240BF582EF1270D4
:104FD00060223400F50B850A82F583E0A2E7227493
:104FE000F21223F374FE1228AD750C00750D0085C6
:104FF0001882851983E4F0A3F0A2AF92E0F50AC20B
:10500000AF9005E91250F3802D888289831279557B
:10501000780C12284D1250E512287AEEFCEFFD852F
:105020001882851983AA82AB83123872AE08AF0941
:105030009005EFE014F0EE7001EF602CEE24FBF829
:10504000EF34FFF91253805015EE240BFA1250F989
:10505000F0A3E034FF1250E07002A3E060AB8E0CCE
:105060008F0D88828983809CE50AA2E092AF90052B
:10507000EFE06030901705E0640F6006900632E0C4
:1050800070227ADD7B051235369080901226917A57
:10509000DD7B05125F4E12287A800974F0888289C0
:1050A00083125D9C851882851983AA82AB8312388E
:1050B000788A088B09AE08AF09EE7001EF6017120D
:1050C000324E8E828F83A3A882A9831251ADA2E2B1
:1050D00050C974E980C7740212287A7F0602261D1F
:1050E00012704AE022EEFCEFFD7AE97B051238846B
:1050F000740222E0FEA3E0FF22EF12607524FF227B
:1051000074F71223F3EAFEEBFF12324EEE240BF893
:10511000EF3400F9E8FEE9FF125D8F124453E964B1
:1051200001901721700AE02401F8A3E03400800404
:10513000E0F8A3E0F98E828F831264DC9005EFE043
:10514000701F901705E0640F70177ADD7B0512352C
:10515000369080901226917ADD7B05125F4E1228E0
:105160007AA2AFE492E0FAC2AF9005EF1251CB02FF
:10517000622174F71223F3EAFEEBFF1251ADC2E491
:10518000F012324EEEFCEFFD7AE97B0512387EA27A
:10519000AFE492E0FAC2AF9005EF1251CB90170541
:1051A000E0640F700579081233E60262211251B1F2
:1051B00022EE12700BEF1251BA223400F583E02276
:1051C000A2AFE492E0FAC2AF9005F0E004F0EAA2E8
:1051D000E092AF2274F71223F374EA1228ADEAFECC
:1051E000EBFF9016FEE06035740185188285198307
:1051F000F0122A91E4125278122A91AA82AB8312F9
:1052000040F48E828F83125222C0E0740A122A91D7
:10521000D0E012706D740B122A911263C0741602E2
:105220006162A3A31252282212522DE022E0F8A3B9
:10523000E0F583888222C082C083123236025E1F6C
:1052400074F71223F374EB1228ADEAFEEBFF740639
:10525000851882851983125278122A91AA82AB830B
:105260001240F4EE2407FCEF3400FD740A122A9178
:105270001263C0741502616212701074022274F716
:105280001223F374F71228ADEAFEEBFFEE2421128D
:105290004FCB60321252D4122A917403F090171A35
:1052A000122695EE241F1252CC12269590172DE04F
:1052B000F97404122A91AC82AD83EEFAEFFB12323C
:1052C0003C740412287A026160EE240EF582EF34F9
:1052D00000F58322126E08851882851983AA82AB95
:1052E000831240F474082274F21223F38A088B09A3
:1052F000750A00750B00750CE7A2AFE492E0F50D9E
:10530000C2AF9005E980078E0A8F0B124F1012531F
:10531000707001EF602F12538050EC12537770E7DA
:10532000EE242EF582EF1273D28508828B83A3A31D
:10533000E06A70D3780A12284D1250E512287A904C
:1053400005EFE014F0E50DA2E092AFEE7001EF6022
:1053500013EEFAEFFB12324E79F0EEFAEFFB123356
:10536000EC750C00A90CAA08AB091233EC0250DB57
:10537000E0FEA3E0FFEE22EE240D12705D64012238
:105380001251B1A2E72274F41223F374F71228AD7C
:10539000EAFEEBFF123290E9F508704CEE240E1293
:1053A0004FCB60447A0079091232D8EA7001EB6081
:1053B000377408122A911253F81226957508FF7552
:1053C00009FF780812284D8E828F83A3A3A3A3A37D
:1053D000A3A3A3E0F97404122A91AC82AD83123224
:1053E0003C740412287A800D8E828F83A3E5081204
:1053F000557912329C02499512772F8E828F83A3A2
:10540000A3024CEC74F11223F3EAFEEBFF750800E3
:105410008E828F83A3A3A3A3A3A3A3A3E0FAC39421
:105420000B4006EAC3941D40037508E88E828F8303
:10543000A3A3A3A3A3A3A3A3A3A3E0FAC39410408D
:10544000057508E88005740F6A600B90060FE0543C
:105450000870037508E8124FC8FBEAC39B50087434
:105460000F6B60037508E890171EE064FF7004A3DB
:10547000E064FF70037508EC7A237B001238CC904F
:1054800005E6EAF0A3EBF0EA7001EB60228E828F72
:1054900083A3A3AC82AD838C0C8D0D750E00780CAC
:1054A0001228497C237D001267E712287A80037551
:1054B000081AA908024BB574F71223F3EAFEEBFFB2
:1054C0008E828F83A3A3A3A3A3A3A3A3E090170516
:1054D000127655901720F0124FC89017001263FAF9
:1054E000A3A3A3A3A3A3E0900633F0F9123F6E9009
:1054F0000633E0601AEE2404FAEF3400FB79501210
:105500003F56EE2406FAEF3400FB79E1123F567461
:10551000019006321249D5640F60047A0180027A44
:1055200000EA9005E8F002622174F71223F3EAFE24
:10553000EBFF8E828F83A3E07003125545742C120B
:1055400060FE0262219005E61270EE12329622741D
:10555000F71223F3EAFEEBFF124A327001EB600A06
:105560009005E6E4F0A3F01238D274088E828F839F
:1055700012557912427A026221F0EEFAEFFB2274A0
:10558000F61223F3900632E060129005E8E0700C0A
:1055900012559FEA7001EB600312332C0272EF90F8
:1055A0001700E0FB1249BEF91232482274F41223AC
:1055B000F374FA1228AD8A088B098A828B83A3A31D
:1055C000A3A3A3A3E0A2E25075EA2412FEEB3400E9
:1055D000FFEA242A125643FCA3E0FDEEFAEFFB1289
:1055E0003254E97059908073E064017035E5082405
:1055F0001AF582E509124FCE640270267410127DEE
:105600007A1271907402122A911264DC850A8285E2
:105610000B831271907404122A91E8F0A31279F6A8
:10562000801C123434E9FA850A82850B8312269590
:105630007B30EEFCEFFD79011249DB12287A74060B
:10564000024997F8EB3400F9880A890B8882F583C0
:10565000E022C082C083900633E060031234A602C9
:105660005E1FC082C08390062A7461F0A37449F063
:1056700090062C74DAF0A37448F090062E7451F062
:10568000A37449F0901E407413F0A37447F0900681
:10569000147430F0A37432F0901E2A7460F0A37476
:1056A00032F0901E2C7466F0A37432F090060FE076
:1056B0004402024A2BC082C0831273C87903026479
:1056C00067C082C0831273C87905026467C082C054
:1056D00083790802747CC082C08374FE1228AD8076
:1056E000077AE97B0512571D9005E9E07002A3E0F7
:1056F00070EF9005EBE07002A3E060097AEB7B05A8
:1057000012571D80ED9005E9E4F0A3F09005EFF04D
:105710009005F0F09005F1F07402025F0D123878F8
:10572000851882851983EAF0A3EB125731123428C9
:10573000221259D7AA82AB832274F41223F38982EE
:10574000AE82EE2429F582E43449F583E493F5082A
:10575000FA7B00123854EA7001EB6012EA25081255
:1057600064D1E48A828B83A3A3A3A3F080287A0266
:105770007B00123854EA7001EB6017EE241EF582AC
:10578000E43449F583E4938A828B83F0741AA3127C
:105790005B1D7A007B0002499AC008740629FBEA67
:1057A000A2E0501EEB75F00A84AAF0EA6014740AB5
:1057B0002BC39AFBEAC394054004740A2BFB740BB9
:1057C0002BFBE9C394134004781480027806E82B7D
:1057D000FB8B0874092508F8E43400F97A0A7B0089
:1057E000122237E8F9D008022812C082C08390063E
:1057F0000FE05402600A124280E9600479018002DD
:105800007900025E1FC082C08390060FE0540260E0
:105810001F9005EFE070159005F2E07002A3E060C4
:105820000F9005F2E02410125C18500479018002F8
:105830007900025E1FC082C0839005F1E0C0E09055
:105840008071E0FCD0E0C39C500512385480047A8B
:10585000007B00025E1FC082C083123428790002E0
:105860005E1F74F61223F374FE1228AD851882852C
:105870001983EAF0A3EB1259CE24051259C7122658
:105880005B0003A1598D58E658A1590A5990170594
:10589000E0640F60121233FEE9700C1270E4901E87
:1058A0002E125D9212445390172DE0C0E0851882AD
:1058B0008519831259BAA3A3D0E01259CE125D976D
:1058C00074141259CEFCA3E0FD7AEB7B05123872FA
:1058D000A2AFE492E0FAC2AF9005F11251CB792069
:1058E0001233E60272EA1233F2E9851882851983CF
:1058F0006011125D92740D1259CEFAA3E0FB1242B0
:105900007A80E0125D92741580B8851882851983BB
:105910001259B1A3A3A3A3E070030259A185188271
:10592000851983A3E0F5838A82A3A31259B1124B90
:10593000C91259CE24021259C7125C028882898387
:10594000EAF0A3EB1259DFFB6057851882851983B3
:10595000E02404F8A3E03400F9EBC3940A5015885E
:10596000828983E0FAEB2447F582E43449F583E445
:10597000936A600E74086B702888828983E06408DB
:10598000701F88828983E0141259DF240AC0E085E1
:105990001882851983125D98D0E01259DF040258ED
:1059A000C2851882851983AA82AB831234280258D3
:1059B000E3E0FAA3E0F5838A82221259BE22127B29
:1059C00024A3A322E0240FF8A3E0125C21221259A1
:1059D000D2221259D7E022F085188285198322122B
:1059E00059D2F8124CE3A3E022C082C0839005F4A0
:1059F000E07002A3E0600B9005F4125D9212445334
:105A000080027900025E1F74F71223F3EAFEEBFFB7
:105A1000EE240D1252CC7401F0EE242F124FCBC0A5
:105A2000E01252C9D0E0F0EE2430124FCBC0E0EECD
:105A300024121252CCD0E0127055C0E0EE241312A2
:105A400052CCD0E0F0EE242B1252CC122695EE244C
:105A500022FCEF3400FDEE242D124FCBF9124AE761
:105A600012287AE97007EEFAEFFB12332C0262215A
:105A7000C082C0831233FEE960047920800279017C
:105A8000025E1FC082C083EA12700BEB124FCED2AF
:105A9000E0024A2EC082C083EA240DF582EB124F49
:105AA000CEFCEA240FF582EB1252CF74016C701118
:105AB000E0A2E3400C8A828B83A3E0F91233EC80EE
:105AC00059E0A2E650128A828B83A3E0F9901E303F
:105AD000125D92124453804274016C7009E0A2E39B
:105AE00050047430802D8A828B83A3E0FD741B6D7B
:105AF00070047422801D8C82A882ED700AE8241341
:105B0000F582E434498008E8241EF582E43449F53E
:105B100083E4938A828B83125B1D025E1FF09006E2
:105B20000AE0F912386022C082C0839005F2E0706A
:105B300002A3E0604B9005F2E0125C02E97003E41E
:105B40008016741B69703C9005F2E0240DFCA3E004
:105B5000126D4C640570E8E98A828B831249ECFA75
:105B6000A3E0FB12331A9005F2E0240E125C1850E9
:105B7000031274659005F2E4F0A3F079101233E695
:105B8000025E1F74E969705C9005F2E024111259FD
:105B9000C7604C9005F2E0240EFAA3E0126071A2F7
:105BA000E2400C88828983E014F012409A80D19000
:105BB00005F2E0240F18181259C8C2E71249EC2464
:105BC0000D1259C76403700F9005F2E02410080805
:105BD000081259C8D2E2F0125C0B12445380877449
:105BE000E9025B58741C696003025B571AE0FB9082
:105BF0001E36125D921244539005F2E4F0A3F002B7
:105C00005B802401FAA3E03400FB229005F21270BD
:105C1000EE901E2C125D9622125C1EA2E722F8A3C3
:105C2000E03400F988828983E02274F21223F3754C
:105C30000C00750D00A2AFE492E0F50AC2AF90052A
:105C4000F2E07002A3E06009E50AA2E092AF025D13
:105C500004125D8F124453E94410FA9005E980095B
:105C600085080C85090D124FB6125D0C7002E5090E
:105C700060D6E5082410F8E5093400F9E8FEE9FFEC
:105C80008E828F83E05A6A70D7780C12284DAC0848
:105C9000AD091250E912287A9005F2E508F0A3E563
:105CA00009125D1740619005F0E014F0E50AA2E0EA
:105CB00092AF9005F2E0240EA3E034001E1EFF8E8A
:105CC000828F83E0FA9005F21259BAE0F91232DEBF
:105CD000E99005EDF0A3E4125D1750189005F2E08D
:105CE0002412125D12123F929005F2E02413125D0D
:105CF00012123F869005F21259C4A2E1B3E492E079
:105D0000F91240820250DB9005EF809D127959E52F
:105D10000822125C1EF922F08E828F83E0A2E72215
:105D200074F71223F3EAFEEBFF123422EE240F1273
:105D30004FCBA2E3400A125377700590806F800327
:105D4000908070E0F9EEFCEFFD7AE97B0512388A6D
:105D5000E9602FEEFAEFFB901E32125D921244536F
:105D6000EE240EF582EF12498F40081251C0123313
:105D7000268019EEFAEFFB901E2A125D9212445310
:105D8000800A74F18E828F83A3125D9C026221903F
:105D90001E34125D9622E0F812522F22125579120B
:105DA000331A22C082C083123326807374F7122301
:105DB000F3790090060FE0FCEA242FF582EB1252F3
:105DC000CFEC54027007E0A2E2500279E8EC546094
:105DD0007007E0A2E1500279E88A828B83A3A3A333
:105DE000A3E0C39475400279E8EA242DF582EB1212
:105DF0004FCE7013EA242AF582EB124FCE70087949
:105E0000F51233EC026221E970F712330880F5C015
:105E100082C083740D8A828B83F012427A8000D014
:105E200083D082022812C082C083E48A828B83F0EE
:105E3000A3F0EA242F12498C40189005F0E0C0E04E
:105E400090806FE0FCD0E0C39C401879F11233ECF5
:105E500080CD9005EFE0C0E090806FE0FCD0E0C323
:105E60009C50E8125B1E80E874F51223F3890AEA5D
:105E70002459F582E43449F583E493244AFA8A826A
:105E8000AE8289082508FAE43400FB123854EA701F
:105E900001EB60128A828B83A3A3A3A3E50AF0EA35
:105EA0002E1264D180047A007B000249AFC082C008
:105EB00083E4900608F0900609F09005FC125ED489
:105EC00074029005FEF0900605125ED474019006EF
:105ED00007024A2E74E6F0A37433F022C082C08316
:105EE00074F11228AD7402851882851983F074014B
:105EF000122A91E9F060047AFF7BFF7402122A9162
:105F0000EAF0A3EB1279F7740F8002741112287A69
:105F1000025E1FC082C08374FE1228AD740A851809
:105F200082851983F07401122A911279F6025718AA
:105F300074F01223F31277B5122A4C7808790C12F8
:105F4000229878081228457AFF7B050249E112352C
:105F50002A74042274F41223F374CE1228AD90171D
:105F600005E0640F6007742E12691380237AF67BB4
:105F7000051249F212223F88088909750A00750B3B
:105F80000078081228457AF67B05125F4E12287AAF
:105F9000743202499774F21223F3EAFEEBFF7C009D
:105FA000EE2421F50CEF3400F50D850C82F583E02D
:105FB000FA74026A600774036A60027CE8EE2417D0
:105FC000FAEF126071FDC3940B4045EDC3941D5070
:105FD0003FEC703E79E1123F56EE2422F50AEF3491
:105FE00000F50BAA0AFB7950123F56EE2419F5086A
:105FF000EF1278C6850C82850D83E06402702285DD
:1060000008828509831271909017141264DC80262F
:106010007CE8EC8E828F83A3F074171260FE02502E
:10602000DB90171474FEF0A374FFF0AC08AD097A8E
:106030000B7B171240F4900608E04401C0E01252B6
:10604000C9D0E012607E7402126E252424126E11F3
:10605000850A82850B83122695AC08AD09798312D7
:106060004AE312287AE970B6EEFAEFFB12332C807D
:10607000AD126075223400FB8A828B83E022F0EE41
:10608000240DF582EF0252CFC082C08374F712282C
:10609000AD900609E070327401F0F912404685189F
:1060A00082851983AA82AB8312342E90171A122686
:1060B00095900608E04401FB7402122A91AC82AD6F
:1060C000837A031249D912287A7409025F0D74F792
:1060D0001223F312629B700774EB88828983F0901D
:1060E0000609E0A2E25003C2E2F0E0A2E15005128C
:1060F00062AA8005742A1260FE02622174298E82CF
:106100008F831255791234042274F71223F374FE2C
:106110001228AD1261B11263DC85188285198312D1
:106120006402E0F5087012851882851983AA82AB93
:10613000837953123F561279611270E4A908123321
:1061400056900609E0A2E1500A8E828F83A3E0F9FF
:1061500012335CE4900608F0900609F074028002A5
:10616000740912287A02622174F71223F3EAFEEB13
:10617000FF74EB8E828F83A3F0900609E0A2E150BA
:106180000579EB12335CEEFAEFFB12338C026221DD
:1061900074F71223F31261B1E4900608F090060937
:1061A000F07AFF7BFF8E828F83A3E0F91233568053
:1061B00070EAFEEBFF790112404C7AF67B0512354E
:1061C000367AFF7B051235362274F71223F3EAFE86
:1061D000EBFF123386804374F71223F3126309A393
:1061E000A3A3E060047A0080027AEB1262265003D7
:1061F000C2E2F0E0A2E150051262AA8014A2E050CF
:1062000010742A8E828F83F074EB888289831261E6
:1062100002EEFAEFFB12333E8007EEFAEFFB123488
:106220009A7F0102261D8E828F83A3A882A983EA0A
:10623000F0900609E0A2E22274F71223F3EAFEEBE3
:10624000FF900609E0D2E1F07901124046EE240BFE
:106250001252CC122695EE2402EF3400FF0E0E747B
:1062600001C0E0123434E9FAD0E0FBEEFCEFFD129D
:1062700049D902616274F71223F312629B700774AA
:10628000EB88828983F0900609E0A2E25003C2E223
:10629000F0E0A2E150031262AA808612630DA88288
:1062A000A9838E828F83E0642022C2E1F0888289F4
:1062B00083E0F912335C2274F71223F3EAFEEBFF5A
:1062C000790112404C7AF67B05127B97E060047AE4
:1062D0000080027AEB1262265003C2E2F0E0A2E1F3
:1062E00050031262AA02621174F71223F3126309B7
:1062F000A882A98374EB1262305003C2E2F0E0A2DC
:10630000E150031262AA02622112630D22EAFEEB3F
:10631000FF790112404C8E828F83A32274F71223DF
:10632000F312633202621A74F71223F31263320219
:106330006221EAFEEBFF7AF67B05123536EEFAEFC4
:10634000FB1233B02274F71223F374EF1228ADEA74
:10635000FEEBFFEE2412FCEF3400FD7A0B7B1712EC
:1063600040E2E960567409851882851983F074014A
:10637000122A9174EFF01263DCF87402122A91E889
:10638000126402A3A3E0C0E07404122A91D0E012C8
:1063900063FAE0640870138A828B831263D5E0C0CD
:1063A000E07405122A91D0E080067405122A91E467
:1063B00012706D7406122A911263C0741102616228
:1063C000AA82AB83123464851882851983AA82ABB2
:1063D0008312427A221259BEA3A3A3221263EEF8BB
:1063E000A3E0F988828983E0FCA3E0F9EC22EE24A3
:1063F00002F8EF127CF68B83E0221263FE22F00299
:106400004CE8F0A3E91250E0125D97A3A322C082EA
:10641000C0831234A6025E1FC082C0839006267419
:106420009FF0A37448F0900628743EF0A37449F0DE
:10643000901E3A7475F0A37447F0901E3C74EDF012
:10644000A37445F09006127450F0A37433F09006D4
:106450000FE04401024A2BC082C083EAFCEBFDEA54
:1064600024161273CF7902123410025E1FC082C04C
:1064700083790602747C74F61223F374FE1228AD3D
:1064800090060BE07002A3E060077A0B7B061234E3
:1064900028E4900611F090119EE07002A3E0602EB7
:1064A000800D851882851983AA82AB8312342890C7
:1064B000060AE0F91238668A088B09A808A9098536
:1064C00018828519831264DCE87001E970D40272C5
:1064D000EAF8EB3400F98A828B83A3A3E8024AFB33
:1064E00074F71223F3E9FA7B0090060AE0F91238F8
:1064F0009002622174F41223F374F11228AD8A829F
:106500008B83E024FDF582E43448F583E493851819
:1065100082851983F0640B700DE98A828B83A3F066
:106520001234880265E7E070030265E7640C6003DB
:106530000265DF7403122A91EAF0A3EBF0EA242E3D
:10654000F582EB124FCEC0E07402122A91D0E01215
:106550007045A3A3A3A37808122A4C7405122A91AC
:106560007808122A6A8A828B83A3A3A3A3A3A3A376
:10657000127DFB7409122A91ECF0A3EDF0EA240ECF
:10658000F582EB124FCEA2E450047C008011EA2485
:1065900011F582EB124FCEFC901727E0C39CFC74E0
:1065A0000B122A91ECF0EA2414F582EB124FCEC0C4
:1065B000E0740C122A91D0E0F0EA2415F582EB1277
:1065C0004FCEC0E0740D122A91D0E0F0EA2416F507
:1065D00082EB124FCEC0E0740E122A91D0E0F0741C
:1065E00001122A911279F6740F024997C082C08372
:1065F000900611E07004790180027900025E1FC0EC
:1066000082C083900611E0FA600574026A70047912
:106610000180027900025E1FC082C083900611E0F3
:1066200064037004790180027900025E1F74F6121F
:1066300023F39006111266C42438F582E9341EF55E
:1066400083126B25C2E7F0C333FCE82CF582E91214
:1066500052CFA3E493FEC333FCE433FDEC2438F5BE
:1066600082ED341EF583E07002A3E06005EE900633
:1066700011F08A828B83E0C333FCE433FDE82CF510
:1066800082E93DF583E493F508C4540FC333242015
:10669000F582E43406F5831249B97001E9700512F8
:1066A0003476801D740F5508C333FCE82CF582E95D
:1066B0001252CFE493C0E0740193F583D082124468
:1066C000530272EFE0C333F8E433F9E82274F012B6
:1066D00023F374FE1228AD890CEAFEEBFF1267BDAE
:1066E0001267257001EB602D8A828B83E50CF0E444
:1066F000A3F08E0C8F0DF50E780C1228491267CF7F
:10670000EA24020A0AEB1267E012287AAA08AB0907
:10671000125B1E800B851882851983E50C1267EDCC
:1067200074020249E4FA7B001238548A088B09EAA1
:106730002274F01223F374FE1228AD890D8C088D9B
:10674000091267BDF50CEA60067405250CF50CAA64
:106750000C7B001238548A0E8B0FAE0EAF0FEE700A
:1067600001EF60498E828F83E50DF0E4A3F0EE2502
:106770000CF8EF3400F98E828F831264DAE48E8293
:106780008F83A3A3A3A3F085080C85090DF50E78CC
:106790000C1228491267CFEE2417FAEF1267E012A5
:1067A000287AEEFAEFFB125B1E7900800D851882C5
:1067B000851983E50D1267ED791A026720898285B4
:1067C000820AE92408F582E43449F583E49322E55A
:1067D0000A24F2F582E43448F583E493FC7D002238
:1067E00034001267E622FB123836740322F0791A5D
:1067F000AA82AB831233EC22C082C083E990060ADE
:10680000024A2E74F61223F374FE1228ADEAFEEB50
:10681000FFEE54207031803CA2AFE492E0FCC2AFA6
:106820009005F1E014F0ECA2E092AF8A828B831223
:1068300068F3126907851882851983E0641560077B
:106840007A0D7B061234287AEB7B05123878EA70D1
:1068500001EB70C474805FF9E47001E97005801188
:106860001268FC90060AE0F9123866EA7001EB70D3
:10687000EFEE54106005742D126913EEA2E050057E
:106880007424126913EE540260057425126913EE24
:10689000540460057426126913EE540860057428C8
:1068A000126913EE5440600C7401122A91E4F074E2
:1068B0002C126913EE5480600C7401122A91E4F0DA
:1068C000742F12691390060BE07002A3E0601DA202
:1068D000AFE492E0FCC2AF90060B1270EA90060B98
:1068E000E4F0A3F0ECA2E092AF1268FC7A007B0027
:1068F0000272EAE0851882851983F0221269077A0C
:106900000D7B061234282290060DEAF0A3EBF0125C
:10691000340422851882851983F0AA82AB8312344D
:106920000422C082C08390060D127190EA68700242
:10693000EB69700790060DE4F0A3F0025E1F74F798
:106940001223F3EAFEEBFFEE7001EF7003123D3A03
:10695000A2AFE492E0F508C2AF8E828F831249B9EC
:106960007001E96028E824FBFAE934FFFB90060D8A
:10697000127DFDE86C7002E96D700790060DE4F081
:10698000A3F08E828F83E4F0A3F01238D2E508A240
:10699000E092AF026221C082C083901714E064FECF
:1069A0007004A3E064FF70097C0B7D171240E8803F
:1069B0001974028A828B83A3A3A3A3A3A3A3A3F026
:1069C00012718D8A828B831264DC025E1FC082C0CA
:1069D0008390171EC3E094FEA3E094FF4004790364
:1069E00080027902025E1F74F71223F3126B2B8C64
:1069F000828D83126A4E6E7050EA2405F582EB1286
:106A000052CFEC2405F8ED3400F974026E7028E0E2
:106A1000FE88828983E06E70308A828B83A3A3A371
:106A2000A3A3A3E0FA8C828D83A3A3A3A3A3A3E0D3
:106A30006A70167901801474036E700DE8FCE9FD2C
:106A4000AA82AB831240EE80027900026221126AB0
:106A50005222A3E01313543F54032274F61223F37B
:106A6000ECF8EDF9740A122A91127DFDECFEEDFFAF
:106A70007508008E828F83126A4EF5098A828B8395
:106A8000A3A3A3A3A3A3A3A3E065097055EE2405C4
:106A9000FCEF3400FD74026509703B8A828B83C071
:106AA00082C0838C828D83126AE7A3A3E0FBECFA99
:106AB000D083D082E06A7003A3E06B70258E828F52
:106AC00083A3A3A3126AE7E0FBEC687002EB697092
:106AD00011750801800C7403650970061240EEE917
:106AE000F508A9080272EFE0FC024CE8C082C083FE
:106AF0008A828B83A3A3A3A3A3A3A3A3E0640270AE
:106B000016901714126B25687003A3E0697004795E
:106B100001800F7900800BEAFCEBFD7A0B7B1712EA
:106B200040E2025E1F12719C0260788A828B83129F
:106B30006A52FE2274E81223F38A0E8B0F8C128D98
:106B4000137418122A91124BBA7508008C828D8327
:106B5000A3A3A3A3A3A3A3A3E0F510E9A2E750086E
:106B6000750AFF750BFF800690171A126D38E9C27F
:106B7000E7F9EA240FFAEB3400FBE50E240EFCE5FE
:106B80000F126D4CA2E5500474088001E48A828BD8
:106B900083F0E50E2410126D40A2E2500474808050
:106BA0000274108A828B83F0E50E2411126D40A2CC
:106BB000E45003E48004901727E08A828B831275E7
:106BC00069E0A2E05003750820A2E3500674104566
:106BD00008F508E50E2402F516E50F3400F51785D3
:106BE0001682F583E024FFFEA3E0126D25124FCE3E
:106BF000F514C39402400B74FF2514124E897403DC
:106C00008002E5144508F5088914751500740E789E
:106C1000141229D8E515F509740269701190171F2F
:106C2000124E8890171E126D31124E928018740306
:106C3000697010126D1E7C2E7D17EEFAEFFB12406C
:106C4000F480E6E96026E5106014E50C650A70043E
:106C5000E50D650B700874404508F508800E8E82BE
:106C60008F83E50B126D51E50A124E8D85100A7562
:106C70000B00740A780A1229D8E50B4509F5097446
:106C80000265107017851282851383124E87851254
:106C900082851383126D31124E92801A740365102F
:106CA0007010126D1EAC12AD13EEFAEFFB1240F431
:106CB00080E5E510600E8E828F83E50D126D51E543
:106CC0000C124E8DEEF8EFF9E824FF1EE9126D2547
